:1000000011308A0023290000FF00030E8301A100A4
:100010000A08A0008A010408A2007708A300780853
:10002000A4007908A5007A08A60003170D08031399
:10003000A70003170F080313A80003170C080313E6
:10004000A90003170E080313AA00831383120B1EC3
:100050002B288B1852288C308400801E31288C1A53
:100060005528220884002308F7002408F8002508F2
:10007000F9002608FA00270803178D000313280843
:1000800003178F000313290803178C0003132A0892
:1000900003178E00031320088A00210E8300FF0E31
:1000A0007F0E09008A110A12EF288A110A122029EC
:1000B0000A108A100A118207303400340A108A109C
:1000C0000A1182075F3400340A108A100A1182076D
:1000D000233400340A108A100A1182070034CE2714
:1000E000C4223A10000030183018201020102010C0
:1000F0002010201000012010201020105F10201070
:10010000201020102010201020102000201020107F
:100110005F10201020004922DF23571D00013018F6
:10012000301830182010201020102010000120104E
:10013000201020105F102010201020102010201000
:10014000201020102000201020105F102010201000
:1001500020102000C3274E23C9233A10201020105E
:1001600020102000C320D3223A102010201020108D
:1001700020102000A016A024C416CE27C4222010D0
:10018000201020100001A016A024C416C72B201098
:10019000201020102000D720492A492747102E1769
:1001A0002E1720102010201020100001D720492ADF
:1001B000492747102E172E1720102010201020102E
:1001C000000020102010201020102010201000010E
:1001D00054213A1000012010201043213A00031747
:1001E000EA01831603138614831286180A290C1C4D
:1001F0000729831688138030831288060C108E011D
:100200000B308F00DC308E000317EA0A031303174C
:10021000F128031303176A08143C03181829023045
:100220000313D3060430D306D31553121C29031726
:100230000313D3115312D3128B108A110A123128CF
:10024000A0303D07840083138C1E24291A088000E7
:10025000A0303D078400831300082E3C031D38297D
:10026000A0303D07840083138001BD015314392958
:10027000BD0A8C128A110A123128C02953200000AD
:100280004730840083170008031953290630F8000B
:10029000F701F70B4929F80B48297B30F700F70BDA
:1002A0004F29800B4629080003174E185B290313BA
:1002B00007105D2903170313071431103108831643
:1002C000870083120317CE186929031387106B293F
:1002D000031703138714B1103108831687008312A4
:1002E00003174E19772903130711792903170313ED
:1002F0000715311131088316870083120317CE19B1
:100300008529031387118729031703138715B11153
:100310003108831687000000831209148316091020
:100320000230F700F70B922995290000831209107B
:1003300083160910831208000317CF010313311429
:100340003108831687000030831207180130031725
:10035000CF040313B11431088316870000308312D1
:1003600087180130F7000310F70D77080317CF0443
:1003700003133115310883168700003083120719E3
:100380000130F700F70DF70DFC30F705770803177C
:10039000CF040313B1153108831687000030831290
:1003A00087190130F700F70DF70DF70DF830F70555
:1003B00077080317CF044F08F800031308008316CB
:1003C00009108910091183128910831689100714E6
:1003D0008714071587158312091583160911000064
:1003E0008312091483160910000083129C217808D7
:1003F0000317CE000313091083160910000083129F
:10040000091483160910042A052A000083129C216E
:1004100078080317CD0003130910831609108312FF
:1004200031103108831687008312B110310883160A
:100430008700831231113108831687008312B111AE
:10044000310883168700831203174E0EF700F03031
:10045000F70577084D04F8007808CD00CD1F332A42
:1004600083160313E729CB08031D3A2A03138910C7
:100470003C2A031703138914831689100000831282
:10048000091183160911000083120910831609103F
:10049000831203174C0ECD000F30CD054D08CE0052
:1004A0000313542103174C080F39CD00CE0003135A
:1004B000542108002830031796000C3097000130B3
:1004C000980006309900031309108316091083124F
:1004D000891083168910831209118316091183125A
:1004E00031103108831687008312B110310883164A
:1004F0008700831231113108831687008312B111EE
:100500003108831687000910891009110F308312F2
:100510000317C70003134021013003179500150886
:10052000033C031C9F2A0330CE00031354210530E3
:100530000317C700031340210317950A8F2A0230BF
:10054000CE000313542105300317C70003134021C5
:10055000031795011508033C031CBC2A1630150728
:100560008400831700089A00CB011A08CC000313FB
:10057000DF210317950AAA2A03138A110A16F12903
:100580000317480BC42AC72A4030C900C82AC9012A
:1005900001304702C90749088038CA00CB014A0820
:1005A000CC000313DF21080003174608073A0313A2
:1005B0000319E42A0B3A0319EB2A063A0319F72A1E
:1005C000023A0319FF2A062B01300317C700C8009F
:1005D0000313C0220D2B0317CB010130CC000313F2
:1005E000DF2102300317C700031340210D2B013018
:1005F0000317C7000230C8000313C0220D2B0317D6
:10060000CB011030CC000313DF210D2B0130031779
:10061000CB004608CC000313DF2108000B080317AA
:10062000C30003138B13831603178C170C140000DD
:1006300000008312C31F1F2B03138B1703170C0813
:100640007F3903195C2BC3000D08C4000F08C500D7
:100650004308C6000313D422031744088D0045083D
:100660008F0003130B080317C60003138B138316A5
:1006700003178C170C14000000008312C61F432BB5
:1006800003138B1703170C0D0E0D7F3903195C2B09
:10069000C3000D08C4000F08C5004308C6000313BB
:1006A000D422031744088D0045088F008D0A0319D2
:1006B0008F0A03130E2B0317031308008318632BF1
:1006C00064308400831703175F0863068039E900EC
:1006D000DF1F752BDC09DD09DE09DF09DC0A0319E0
:1006E000DD0A0319DE0A0319DF0AE31F822BE00982
:1006F000E109E209E309E00A0319E10A0319E20A40
:100700000319E30AF701F801F901FA01E401E5012F
:10071000E601E70163086204610460040319C02B69
:100720002030E8000310DC0DDD0DDE0DDF0DE40DE3
:10073000E50DE60DE70D63086702031DA92B6208AE
:100740006602031DA92B61086502031DA92B600821
:100750006402031CBA2B6008E4026108031C610FE9
:10076000E5026208031C620FE6026308031C630FC4
:10077000E7020314F70DF80DF90DFA0DE80B922BB3
:10078000E91FCD2BF709F809F909FA09F70A031946
:10079000F80A0319F90A0319FA0A64088000840A9E
:1007A00065088000840A66088000840A6708800063
:1007B000031308000317CF01CE01CD010130CC0097
:1007C000D101D201C81F242C0130D1004808D70024
:1007D0004708D6004608D5004508D400FF30DB00A6
:1007E000DA00D900D8002030E000DC01DD01DE01B4
:1007F000DF015708FA005608F9005508F8005408B8
:10080000F7000310771C122C5808DC07590803184E
:10081000590FDD075A0803185A0FDE075B08031843
:100820005B0FDF07DF0CDE0CDD0CDC0CFA0CF90CC7
:10083000F80CF70CE00B012C7A08C8007908C70007
:100840007808C6007708C500CC08031D302CCD08F9
:10085000031D302CCE08031D302CCF080319AC2CFF
:1008600083104808DF004708DE004608DD00450821
:10087000DC00E301E201E1014908E00003135E232B
:100880007A080317CF007908CE007808CD007708E2
:10089000CC0052084A07F8004B08FA000318FA0A7D
:1008A0007808D4007A08D500D7010408D60057107C
:1008B000831B571483145830840083174808DF00C3
:1008C0004708DE004608DD004508DC00E301E201E0
:1008D000E1014908E00003135E2303175608840072
:1008E00083135718831730305807F7005908F8005A
:1008F000003003180130F8075A08F90000300318D7
:100900000130F9075B08FA00003003180130FA07DC
:100910005408840083135518831777088000520801
:100920004A07840083134B1883170008393C0318C7
:10093000A22C52084A07840083134B1883170730F0
:1009400000078000D20A4F08C8004E08C7004D08B3
:10095000C6004C08C500242C510BB72C52084A077E
:10096000840083134B1883172D308000D20AD001E6
:100970000310520C50020318ED2C50084A07840053
:1009800083134B1883170008D30050084A07F80058
:100990004B08FA000318FA0A7808D4007A08D50040
:1009A00050085202FF3E4A07840083134B188317F6
:1009B0000008D6005408840083135518831756087E
:1009C000800050085202FF3E4A07840083134B18F0
:1009D000831753088000D00AB82C52084A078400B5
:1009E00083134B18831780014A08F8004B08F9005D
:1009F0000313080080080319162D03179E0104082D
:100A00009D001E10831B1E140008C6000313D42271
:100A100003171D08840083131E188317840A031DFF
:100A2000142D0313850A03170313FA2C0800031768
:100A30001A08F80119020318202D1908F7002C2DA7
:100A4000F70108309B00990DF70D1A08770203187B
:100A5000F700F80D9B0B232D0313080053160130EC
:100A60000317C700C8000313C0220A300317C700CA
:100A700003134021AA3003178D0000308F000313A9
:100A80000E2301300317C7000230C8000313C02231
:100A90000A300317C70003134021B23003178D003B
:100AA00000308F0003130E23531E9D2D8316061551
:100AB000831206199C2DBC0A0130BC0502300317B5
:100AC00095009630C700031340210317950B612D45
:100AD0000630C7000230C8000313C0220317C80144
:100AE000C701C60103133C080317C5000A30C9003B
:100AF000CB017430CA000313DA230A300317C7008E
:100B000003134021743084008313FA243C08031932
:100B10008D2D013A0319952D9C2DBA3003178D00A8
:100B200000308F0003130E239C2DC33003178D005C
:100B300000308F0003130E23542DD319282FD31107
:100B40003C080319A72D013A0319642E282FD3114D
:100B5000D31603179501960197017430840083130F
:100B6000160884071708031358208000003803195B
:100B7000BE2D0317970A960AAD2D031301300317F4
:100B8000C7000230C8000313C0220A300317C70091
:100B9000031340216F3003178D0000308F000313C3
:100BA0000E23733003178D0000308F0003130E23C4
:100BB00001300317C700C8000313C0227B3003179E
:100BC0008D0000308F0003130E23D31E632E831677
:100BD0000615831206190A2E0317950A0330950588
:100BE00015079600C7000130C8000313C0228630E5
:100BF00003178D0000308F0003130E2302300317FC
:100C000096009630C700031340210317960B012E60
:100C1000612E03138316861583128619622E4830BF
:100C20000317150784008313800A48301507F8005E
:100C3000FA010318FA0A780896007A0897004830F3
:100C4000150784008313000899000A309A000313E3
:100C500017257708031798001608840083131718C0
:100C60008317180880004830150784008313000894
:100C70009600C801C701C6011608C5000A30C900A0
:100C8000CB017430CA000313DA23073003171507AA
:100C90009600C7000230C8000313C0220A300317B1
:100CA000C70003134021743084008313FA240230F8
:100CB000031796009630C700031340210317960BC5
:100CC0005A2E0313E52D282F03179501960197013E
:100CD0007430840083131608840717080313582000
:100CE000800000380319792E0317970A960A682E98
:100CF0000313D311D31601300317C7000230C80005
:100D00000313C0220A300317C700031340218B309E
:100D100003178D0000308F0003130E238F3003174D
:100D20008D0000308F0003130E2301300317C7001E
:100D3000C8000313C022973003178D0000308F00C6
:100D400003130E23D31E282F8316061583120619AC
:100D5000CF2E0317950A1508990006309A00031341
:100D60001725770803179500033015079600C7006D
:100D70000130C8000313C022A33003178D000030D8
:100D80008F0003130E230230031796009630C7001E
:100D9000031340210317960BC62E262F0313831629
:100DA000861583128619272F4230031715078400F2
:100DB0008313800A42301507F800FA010318FA0A73
:100DC000780896007A08970042301507840083134C
:100DD000000899000A309A000313172577080317B3
:100DE00098001608840083131718831718088000CA
:100DF000423015078400831300089600C801C7011C
:100E0000C6011608C5000A30C900CB017430CA00FB
:100E10000313DA230730031715079600C7000230C3
:100E2000C8000313C0220A300317C7000313402170
:100E3000743084008313FA2402300317960096302E
:100E4000C700031340210317960B1F2F0313A22E75
:100E50008A110A16FE2903174508C9004408C8006C
:100E60004908FA004808840083137A188317800819
:100E700003193E2FC80A0319C90A302F4708FA0080
:100E80004608840083137A188317800803195D2F9E
:100E9000460884008313471883170008CC004808CD
:100EA00084008313491883174C088000C80A03196B
:100EB000C90AC60A0319C70A3E2F480884008313CB
:100EC0004918831780014408F8004508F900031306
:100ED000080003174608C8004508C7004808FA007C
:100EE0004708840083137A188317800803197C2F1E
:100EF000C70A0319C80A6E2F45084702F7004808B9
:100F0000FA004608031C460FFA027708F80003139C
:100F1000080080080319A62F0317C6010408C5009E
:100F20004610831B4614000803130C1E952F9900CE
:100F3000031745088400831346188317840A031D8A
:100F4000A42F0313850A03170313892F080003171F
:100F5000950115081E3C031CBB2F831603130812B2
:100F600010308312880664300317C7000313402132
:100F70000317950AA92F8316031308121030831242
:080F800088068A110A160C2AEA
:101000005312D3122A300317A100A2014C30A300BF
:101010004530A4004E30A5004730A6004830A70058
:101020005430A800A9014330AA005F30AB0046301D
:10103000AC00AD014930AE004430AF005F30B000CD
:101040004730B1005730B2003130B3003230B40015
:101050003330B5003430B600B7014930B800443001
:10106000B9005F30BA004E30BB004F30BC00443096
:10107000BD004530BE00BF012330C000C1010130BA
:101080009600213095000130980023309700013000
:101090009A002A30990001309C002E309B000130CC
:1010A0009E0038309D000130A00040309F00FA01C2
:1010B0005B30C4007A08C5004408840083134518D7
:1010C00083178001C3014308053C031C902842306C
:1010D0004307840083130008C400C801C701C60188
:1010E0004408C5000A30C900CB017430CA008A1117
:1010F0000313DA238A1501300317C7008A1103137B
:1011000040218A150317C5015B30C400C701743044
:10111000C6008A1103132B278A150317C30A6328F5
:101120009C015B309B00FA015430C4007A08C50072
:10113000440884008313451883178001C3014308C2
:10114000033C031CCC284830430784008313000869
:10115000C400C801C701C6014408C5000A30C9005F
:10116000CB017430CA008A110313DA238A150130C7
:101170000317C7008A11031340218A150317C501FD
:101180005430C400C7017430C6008A1103132B27E2
:101190008A150317C30A9F289E0154309D0003132C
:1011A000CC0131300317970032309800C201420859
:1011B000053C031CF3280310420D153E84008317E1
:1011C000840A0008C40084030008C3004408C60061
:1011D0004308C5008A11031369278A157808CC07CC
:1011E0000317C20AD72805300313CC070317C80119
:1011F000C701C60103134C080317C5000A30C90014
:10120000CB017430CA008A110313DA238A1503173D
:10121000980174309700C2014208053C031C2A293A
:101220000310420D153E84008317840A0008C40091
:1012300084030008C30084008313441883178A11B1
:10124000031389278A1540300C1E2429990003179F
:10125000C20A0C290130C700C8008A110313C0223A
:101260008A150A300317C7008A11031340218A1513
:10127000CB3003178D0000308F008A1103130E232B
:101280008A1501300317C7000230C8008A11031302
:10129000C0228A150A300317C7008A1103134021A0
:1012A0008A15D63003178D0000308F008A11031382
:1012B0000E238A15D3118A110A16052A03171D0851
:1012C0001E04031967291E08FA001D086C29031360
:1012D0002C08FA002B080317A1007A08A2002208A4
:1012E000A6002108A5002008A8001F08A7002608BE
:1012F000AA002508A9002A08FA00290884008313F7
:101300007A18831780080319BC292808AC0027081D
:10131000AB002C08FA002B08840083137A1883177B
:101320008008031DA02925082902F7002A08FA00D1
:101330002608031C260FFA027708F800C729B429EB
:101340002A08FA002908840083137A1883170008F2
:10135000AD002C08FA002B08840083137A18831739
:1013600000082D020319B829AB0A0319AC0A892910
:10137000A90A0319AA0A7B2925082902F7002A08C5
:10138000FA002608031C260FFA027708F8007808EE
:10139000A1070318A20A2208FA0021088400831377
:1013A0007A1883178008031DE22903132B08840091
:1013B00083132C188317203080000030F800F900C8
:1013C0004E2A03172208A6002108A5002008A8001D
:1013D0001F08A7002608AA002508A9002A08FA0065
:1013E0002908840083137A18831780080319272A91
:1013F0002808AC002708AB002C08FA002B08840052
:1014000083137A18831780080319232A2A08FA00FD
:101410002908840083137A1883170008AD002C086C
:10142000FA002B08840083137A18831700082D0212
:10143000031D1F2A2908F8002A08F9002A2AAB0AE6
:101440000319AC0AFC29A90A0319AA0AEE290030DB
:10145000F800F9007908A4007808A3002408FA002D
:101460002308840083137A18831780080319412AFC
:10147000230884008313241883178001A30A031907
:10148000A40A24080313AC00031723080313AB00BA
:1014900003172108F8002208F900031308000317B6
:1014A000A201A0010A30A1009F011D081E04031D16
:1014B0005C2A0030F8004F2B2208A20A1D07840086
:1014C00083131E1883170008A30023082D3C031D57
:1014D000752A0130A0002208A20A1D078400831388
:1014E0001E1883170008A300822A23082B3C031D23
:1014F000822A2208A20A1D07840083131E1883175C
:101500000008A30023082F3C0318452B2308393C6F
:10151000031C452B2308303C031DAE2A22081D075F
:10152000840083131E1883170008783C0319A22A2D
:1015300022081D07840083131E1883170008583CD7
:10154000031DAE2A1030A100A20A2208A20A1D071C
:10155000840083131E1883170008A30021080A3C87
:10156000031DF32A23082F3C0318F22A2308393CD1
:10157000031CF22A0A30A4001F08A500F701F80195
:10158000240803102518F707F70CF80CA518F7071F
:10159000F70CF80C2519F707F70CF80CA519F70745
:1015A000F70CF80C251AF707F70CF80CA51AF70733
:1015B000F70CF80C251BF707F70CF80CA51BF70721
:1015C000F70CF80C7808A4003030230224079F00A1
:1015D0002208A20A1D07840083131E18831700081F
:1015E000A300B22A452B2108103C031D452B2308DC
:1015F000603C0318022B23087A3C031C022B2308AF
:10160000DF39032B2308A30023082F3C03180C2BDE
:101610002308393C0318142B2308403C0318452B9E
:101620002308463C031C452B23082F3C0318252B7D
:101630002308393C031C252B1F0EA400F030A40501
:101640003030230224079F002E2B1F0EA400F03001
:10165000A405413023020A3E24079F002208A20A63
:101660001D07840083131E1883170008A300230896
:10167000603C0318422B23087A3C031C422B2308AE
:10168000DF39432B2308A300042B200B4D2B21080B
:101690000A3C031D4D2B9F099F0A1F08F8000313E6
:1016A000080003171C08FA001B08840083137A182B
:1016B000831700089F001E08FA001D08840083138A
:1016C0007A18831700081F02031D7D2B1C08FA00DF
:1016D0001B08840083137A1883178008031D732B5B
:1016E0000030F800952B1C08FA001B089B0A031910
:1016F0009C0A9D0A03199E0A522B1C08FA001B081B
:10170000840083131C18831700089F001E08FA002A
:101710001D08840083131E18831700081F02031876
:10172000932BFF30942B0130F800031308002A306C
:1017300003179500FA016430840083137A18831725
:101740008001FA016B30840083137A1883178001BB
:101750009B019C01D230840083131B0884071C0862
:101760008A1103136A208A15800000380319BD2BE3
:1017700003179C0A9B0AAA2B031303179C01A03092
:101780009B0015089D001C08FA001B0884008313A9
:101790007A1883171D0800020319E02B1C08FA00B1
:1017A0001B08840083137A1883178008031DDC2B21
:1017B0000030F800F900E42B9B0A03199C0AC32BA4
:1017C0001B08F8001C08F9007908970078089600B3
:1017D0001708C6001608C5008A11031369278A1561
:1017E0007808031798000313BE0103179B019C019F
:1017F0007430840083131B0884071C088A110313A8
:1018000064208A158000003803190B2C03179C0AEA
:101810009B0AF82B031303179E01A0309D00A00123
:1018200074309F0003135E21790803179A0078082B
:1018300099009908031D1F2C9A080319722C031391
:101840003E08FA3E0318612C063EF22D612C031768
:10185000C5016B30C4001A08C7001908C6008A11F8
:1018600003132B278A15612C0317C5016430C400AC
:101870001A08C7001908C6008A1103132B278A15F6
:10188000612C03171A089E0019089D0003134F22AC
:101890007808CD00612C03171A089E0019089D00D6
:1018A00003134F227808CE00612C0317C501D230F4
:1018B000C4001A08C7001908C6008A1103132B2791
:1018C0008A1503179E019D01A00174309F00031328
:1018D0005E21790803179A00780899000313BE0A5D
:1018E0000317192C9C016B309B009E015B309D00FF
:1018F000031351237808D20003179C0164309B0026
:101900009E0154309D00031351237808D100D20862
:10191000031DE82DD108031DE82D4E0803171802FA
:101920000319942C0313E82D03134D0803199F2C5E
:10193000013A0319A02C033A0319B72DE72DE72D1F
:10194000BE0183168801FF3083128800013003171F
:10195000C700C8008A110313C0228A150A30031772
:10196000C7008A11031340218A1503179D019E01A8
:101970007430840083131D0884071E088A11031322
:101980005E208A15800000380319CB2C03179E0AAD
:101990009D0AB82C031303179E01D2309D00A001AD
:1019A00074309F0003135E21790803179C007808A8
:1019B0009B009B08031DDF2C9C080319282D031393
:1019C0003E080319EA2C013A0319042D033A0319BE
:1019D0000E2D172D01300317C7008A110313402164
:1019E0008A1503171B08840083131C1883178A1198
:1019F0000313FA248A15E13003178D0000308F009D
:101A00008A1103130E238A1503171C089E001B0856
:101A10009D0003134F227808CF00172D03171C08D1
:101A20009E001B089D0003134F227808D000031767
:101A30009E019D01A00174309F0003135E2179086F
:101A400003179C0078089B000313BE0A0317D92CC8
:101A500002309D00FA30C7008A11031340218A1515
:101A600003179D0B2A2D0130C7008A110313402153
:101A70008A1583168801FF3083128800013003170E
:101A8000C7000230C8008A110313C0228A150A3029
:101A90000317C7008A11031340218A15E830031782
:101AA0008D0000308F008A1103130E238A1503174F
:101AB000C801C701C60103134F080317C5000A3048
:101AC000C900CB017430CA008A110313DA238A15C6
:101AD0007430840083138A11FA248A15EB300317BB
:101AE0008D0000308F008A1103130E238A1503170F
:101AF000C801C701C601031350080317C5000A3007
:101B0000C900CB017430CA008A110313DA238A1585
:101B10007430840083138A11FA248A15831688018D
:101B200083128801023003179D00FA30C7008A1122
:101B3000031340218A1503179D0B952D831603135C
:101B40008801FF3083128800023003179D00FA30AD
:101B5000C7008A11031340218A1503179D0BA72D77
:101B6000831603138801831288015317E72DC101DF
:101B700003179E01D2309D0003134F227808C10045
:101B8000410803179B009C011C08073C031CDE2D29
:101B90009B1BCE2D03138810D02D0317031388141D
:101BA00083168810081083120810831608108312F9
:101BB0000814031003179B0D9C0AC42D83160313EE
:101BC0000811831208118316081183120815EF2DCE
:101BD0000A300317C7008A11031340218A158A119E
:101BE0000A16132A0A148A100A158207262C272C93
:101BF000342C412C4B2C552C031795010313500802
:101C0000031715020318A52F38301507F800FA013D
:101C10000318FA0A780896007A08970015089800C1
:101C20000130990002309A0004309B0008309C007B
:101C300010309D0020309E0040309F001930180762
:101C4000840083170008A100A200A301A401A5013C
:101C5000893084008317C0308005240880049F30B9
:101C600084008313CF3080052308800488308400EB
:101C70008317220880000330C7008A110313402114
:101C80008A150317180DF700F70DFC30F70503133D
:101C90001F08C33977049F0003300317C7008A1158
:101CA000031340218A15B301B2010317A0012008D4
:101CB000633C031C712E03139F149F185D2E831623
:101CC0001E088312B2071E0803181E0FB307013047
:101CD0000317C7008A11031340218A150317A00AAE
:101CE000572E031333080317A200031332080317F8
:101CF000A1008E30F7002208F8002108F900FA014F
:101D0000F808031D8D2E7908F800F9010830F70254
:101D1000F808031D8D2EF701952E0310F81B942E45
:101D2000F90DF80DF7038D2EF8137A08A400790841
:101D3000A3007808A2007708A1009A30A800993083
:101D4000A7004C30A6008630A500210803196A2F91
:101D5000AD00250803196A2FAD02031CB42E7F3095
:101D6000AD0703186A2FBA2E8130AD02031C6A2F0B
:101D700003196A2F2D08F700F801F901FA01AC01E7
:101D80002208AB00AB172308AA002408A9001930C9
:101D9000AD002808A9020318DD2E0130AA0203189D
:101DA000DD2EAB020318DD2EAC020318DD2EAC0ACB
:101DB000AB0AAA0A2808A9070F2F2708AA020318A6
:101DC000F82E0130AB020318F82EAC020318F82EDF
:101DD000AC0AAB0A2708AA072808A907031C0F2F7B
:101DE000AA0A031D0F2FAB0A031D0F2FAC0A0F2FDA
:101DF00026088038AB0203180E2F0130AC020318FE
:101E00000E2FAC0A26088038AB072708AA07031C48
:101E1000EC2EAB0A031DEC2EAC0AEC2E7A14AD0BA3
:101E2000122F1D2F0310A90DAA0DAB0DAC0D031021
:101E3000FA0DF90DF80DAE0DC92E2E1C252F03102D
:101E4000F80CF90CFA0CAE0C282FF70303196A2FC3
:101E5000AE1B512F0310A90DAA0DAB0DAC0D280818
:101E6000A90203183D2F0130AA0203183D2FAB022F
:101E700003183D2FAC02031C602F2708AA02031889
:101E8000482F0130AB020318482FAC02031C602F0F
:101E900026088038AB020318512F0130AC02031C16
:101EA000602FFA0A031D602FF90A031D602FF80A3C
:101EB000031D602FF70A03196A2FF80CF90CFA0CAE
:101EC0002208AD002608AD06AD1F682FF8176E2F4B
:101ED000F8136E2FF701F801F901FA017A08A4004E
:101EE0007908A3007808A2007708A1008E30F700D7
:101EF0002108F7022208F9002308F800F917F7086B
:101F000003198D2F0310F908031D892FF8080319F1
:101F10008D2FF90CF80CF70B822FA21F942FF809C4
:101F2000F909F80A0319F90A79080313B3007808C4
:101F3000B2003208F800031716088400831317183C
:101F4000831778088000950AFE2D03138A110A165C
:021F50001A2A4B
:102000008316081340308312880649300317A30053
:102010004430A4004730A5005730A6003130A70057
:102020003230A800A9014E30AA004F30AB00443036
:10203000AC004530AD00AE015A30AF00B000B10188
:102040004130B200B300B4015630B500B600B7015C
:102050004330B800B900BA015330BB00BC00BD0129
:102060000130960023309500013098002A30970007
:1020700001309A002F30990001309C0032309B00D3
:1020800001309E0035309D000130A00038309F00A7
:102090000130A2003B30A10096015B309500980111
:1020A000543097001430BE00BF01031350080317CB
:1020B0003F020318842838303F0784008313000848
:1020C000C00002303F07F7000310F70D7708153EF8
:1020D00084008317840A0008C20084030008C1003A
:1020E000C801C701C6014008C5000A30C90042083E
:1020F000CB004108CA000A120313DA230A16033080
:102100000317BE07BF0A5528C801C701C6013E080C
:10211000C5000A30C900CB017B30CA000A12031384
:10212000DA230A162A300C1E9328990040300C1E20
:10213000972899007B30840083130A1289270A1696
:102140003D3003178D0001308F0003130B08031778
:10215000C00003138B13831603178C170C14000095
:1021600000008312C01FB72803138B1703170C0836
:102170007F390319F428C0000D08C1000F08C20000
:10218000400803130C1EC2289900031741088D0054
:1021900042088F0003130B080317C30003138B13AC
:1021A000831603178C170C14000000008312C31F42
:1021B000DC2803138B1703170C0D0E0D7F39031941
:1021C000F428C0000D08C1000F08C2004008031326
:1021D0000C1EE8289900031741088D0042088F0063
:1021E0008D0A03198F0AA528BF0102300313500777
:1021F00003173F020318162903103F0D153E8400F4
:102200008317840A0008C10084030008C00084000A
:102210008313411883170A12031389270A164030C3
:102220000C1E102999000317BF0AF5282330031349
:102230000C1E182999008316081340308312880653
:102240008A110A162E2A03081F39830083160317E2
:10225000871508300313990002309A00A6309800C1
:10226000903083129800FF30B100BC01BD01BE0167
:10227000C101CC01CD01CE01CF010330D000D1018D
:10228000D2015310D3105311D3115312D31253133D
:10229000831603170908C039890003131F129F1200
:1022A0000030031788008312870188018901831396
:1022B0000313AB01AC01B801B901BA01BB01C20102
:1022C0000230C3000630C400C5000330C60006302B
:1022D000C7000730C8000530C9000930CA00CB006C
:1022E0003030D6003530D7003830D8003930D900FA
:1022F000DA01D5015630D4003130DD003230DE0055
:102300003730DF003130E0003030E1003230E200C1
:10231000E301DC015D30DB003030E600E700E8007F
:10232000E900EA01E5016630E4003030ED00EE003E
:10233000EF00F000F100F200F301EC016D30EB0072
:1023400048308316A0004930A1004830A20049302F
:10235000A300A4014830D2004930D3004830D40053
:102360004930D500D6013030EB00EC00ED00EE0036
:10237000EF01F501EB30F4003230831203179000C7
:102380003730910030309200930094010130FC000E
:102390001030FB000030831603138800FF308600E6
:1023A0000910891009118911803087008312B1004A
:1023B0001F179F1383169F1783121F148B160B165C
:1023C0000B16831601138C16C03083128B04353024
:1023D00090008E010B308F00DC308E000C100A1242
:1023E0005A2A0A16D310D311531583168801831263
:1023F00088015310D31C002A0A122E2D0A162F2AE8
:10240000D31D082A0A128A1500280A168A112F2AB3
:10241000D3182F2A0A12A72F0A16531C152A531055
:102420000A128A15972B0A168A11531F2E2A0A128E
:102430008A15FC2D0A168A1138081C3C03182E2A0E
:10244000023003179500FA30C7000A120313402127
:102450000A160317950B232A03130028082AFA29C2
:02246000630017
:04400E00E22FFF3F5F
:00000001FF
;PIC16F887
;CRC=09FC  CREATED="04-Nov-21 21:18"
