:1000000012308A00792A0000FF00030E8301A1004C
:100010000A08A0008A010408A2007708A300780853
:10002000A4007908A5007A08A60003170D08031399
:10003000A70003170F080313A80003170C080313E6
:10004000A90003170E080313AA00831383120B1EC3
:100050002B288B1852288C308400801E31288C1A53
:100060005528220884002308F7002408F8002508F2
:10007000F9002608FA00270803178D000313280843
:1000800003178F000313290803178C0003132A0892
:1000900003178E00031320088A00210E8300FF0E31
:1000A0007F0E09008A110A120D298A110A1253299A
:1000B0000A108A100A118207303400340A108A109C
:1000C0000A1182075F3400340A108A100A1182076D
:1000D0003234323400340A108A100A118207323462
:1000E000333400340A108A100A118207323434344F
:1000F00000340A108A100A118207233400340A10CF
:100100008A100A1182070034CE27C4223A10000058
:10011000301830182010201020102010201000015E
:100120002010201020105F10201020102010201010
:10013000201020102000201020105F102010200020
:100140004922DF23571D00013018301830182010C5
:1001500020102010201000012010201020105F100F
:10016000201020102010201020102010201020001F
:10017000201020105F102010201020102000C32716
:100180004E23C9233A102010201020102000C32035
:10019000D3223A1020102010201020102000A0168A
:1001A000A024C416CE27C422201020102010000145
:1001B000A016A024C416C72B201020102010200049
:1001C000D720492A492747102E172E172010201014
:1001D000201020100001D720492A492747102E1748
:1001E0002E172010201020102010000020102010AA
:1001F0002010201020102010000154213A1000017E
:100200002010201043213A0040224B200000D32B25
:100210003A100001C029532000010317E40183169E
:1002200003138614831286182A290C1C27293112DD
:100230003108831687001030831287060C108E0158
:100240000B308F00DC308E000317E40A0313031712
:100250000F29031303176408143C031838290230CC
:100260000313CE060430CE06CE154E124F290317C7
:100270006408013C031846296408133C031C462902
:100280000313CE114E12CE124F2903170313CE17AC
:1002900031123108831687001030831287068B10C5
:1002A0008A110A123128A0303907840083138C1E6A
:1002B00057291A088000A0303907840083130008EA
:1002C0002E3C031D6B29A030390784008313800165
:1002D000B9014E146C29B90A8C128A110A123128FC
:1002E0004130840083170008031983290630F80081
:1002F000F701F70B7929F80B78297B30F700F70B1A
:100300007F29800B76290800031748188B290313CF
:1003100007108D29031703130714311031088316B2
:10032000870083120317C8189929031387109B2984
:10033000031703138714B110310883168700831243
:1003400003174819A72903130711A9290317031332
:100350000715311131088316870083120317C81956
:10036000B52903138711B729031703138715B11193
:1003700031088316870000008312091483160910C0
:100380000230F700F70BC229C529000083120910BB
:1003900083160910831208000317C90103133114CF
:1003A00031088316870000308312071801300317C5
:1003B000C9040313B1143108831687000030831277
:1003C00087180130F7000310F70D77080317C904E9
:1003D0000313311531088316870000308312071983
:1003E0000130F700F70DF70DFC30F705770803171C
:1003F000C9040313B1153108831687000030831236
:1004000087190130F700F70DF70DF70DF830F705F4
:1004100077080317C9044908F80003130800831676
:100420000910891009118312891083168910071485
:100430008714071587158312091583160911000003
:10044000831209148316091000008312CC21780846
:100450000317C80003130910831609100000831244
:10046000091483160910342A352A00008312CC217E
:1004700078080317C70003130910831609108312A5
:1004800031103108831687008312B11031088316AA
:100490008700831231113108831687008312B1114E
:1004A00031088316870083120317480EF700F030D7
:1004B000F70577084704F8007808C700C71F632AC4
:1004C00083160313172AC508031D6A2A031389100C
:1004D0006C2A0317031389148316891000008312F2
:1004E00009118316091100008312091083160910DF
:1004F00083120317460EC7000F30C7054708C80010
:1005000003138421031746080F39C700C8000313DB
:10051000842108002830031791000C30920001302C
:1005200093000630940003130910831609108312F8
:1005300089108316891083120911831609118312F9
:1005400031103108831687008312B11031088316E9
:100550008700831231113108831687008312B1118D
:100560003108831687000910891009110F30831292
:100570000317C10003137021013003179000100806
:10058000033C031CCF2A0330C80003138421053029
:100590000317C100031370210317900ABF2A02300A
:1005A000C8000313842105300317C1000313702111
:1005B000031790011008033C031CEC2A11301007AC
:1005C0008400831700089500C5011508C6000313B1
:1005D0000F220317900ADA2A03138A110A16472BEF
:1005E0000317420BF42AF72A4030C300F82AC3014C
:1005F00001304102C30743088038C400C5014408E4
:10060000C60003130F22080003174008073A03131C
:100610000319142B0B3A03191B2B063A0319272B2A
:10062000023A03192F2B362B01300317C100C200E9
:100630000313F0223D2B0317C5010130C60003133D
:100640000F2202300317C100031370213D2B01302C
:100650000317C1000230C2000313F0223D2B031721
:10066000C5011030C60003130F223D2B01300317C4
:10067000C5004008C60003130F2208000B0803172B
:10068000BD0003138B13831603178C170C14000083
:1006900000008312BD1F4F2B03138B1703170C0889
:1006A0007F3903198C2BBD000D08BE000F08BF0059
:1006B0003D08C0000313042303173E088D003F08C4
:1006C0008F0003130B080317C00003138B1383164B
:1006D00003178C170C14000000008312C01F732B2B
:1006E00003138B1703170C0D0E0D7F3903198C2B79
:1006F000BD000D08BE000F08BF003D08C000031379
:10070000042303173E088D003F088F008D0A03194C
:100710008F0A03133E2B0317031308008318932B30
:100720005E3084008317031759085D068039E300A3
:10073000D91FA52BD609D709D809D909D60A031973
:10074000D70A0319D80A0319D90ADD1FB22BDA090F
:10075000DB09DC09DD09DA0A0319DB0A0319DC0A03
:100760000319DD0AF701F801F901FA01DE01DF01E1
:10077000E001E1015D085C045B045A040319F02BFD
:100780002030E2000310D60DD70DD80DD90DDE0DA7
:10079000DF0DE00DE10D5D086102031DD92B5C0842
:1007A0006002031DD92B5B085F02031DD92B5A0879
:1007B0005E02031CEA2B5A08DE025B08031C5B0F77
:1007C000DF025C08031C5C0FE0025D08031C5D0F88
:1007D000E1020314F70DF80DF90DFA0DE20BC22B2F
:1007E000E31FFD2BF709F809F909FA09F70A0319BC
:1007F000F80A0319F90A0319FA0A5E088000840A44
:100800005F088000840A60088000840A6108800014
:10081000031308000317C901C801C7010130C6004E
:10082000CB01CC01C21F542C0130CB004208D100B7
:100830004108D0004008CF003F08CE00FF30D5006F
:10084000D400D300D2002030DA00D601D701D8017D
:10085000D9015108FA005008F9004F08F8004E0875
:10086000F7000310771C422C5208D60753080318D0
:10087000530FD70754080318540FD8075508031807
:10088000550FD907D90CD80CD70CD60CFA0CF90C8B
:10089000F80CF70CDA0B312C7A08C2007908C10089
:1008A0007808C0007708BF00C608031D602CC70881
:1008B000031D602CC808031D602CC9080319DC2C1B
:1008C00083104208D9004108D8004008D7003F08EB
:1008D000D600DD01DC01DB014308DA0003138E23BF
:1008E0007A080317C9007908C8007808C700770894
:1008F000C6004C084407F8004508FA000318FA0A35
:100900007808CE007A08CF00D1010408D000511039
:10091000831B511483145230840083174208D9007A
:100920004108D8004008D7003F08D600DD01DC01AF
:10093000DB014308DA0003138E23031750088400F9
:1009400083135118831730305207F7005308F8000B
:10095000003003180130F8075408F900003003187C
:100960000130F9075508FA00003003180130FA0782
:100970004E08840083134F188317770880004C08B3
:10098000440784008313451883170008393C031873
:10099000D22C4C0844078400831345188317073072
:1009A00000078000CC0A4908C2004808C100470877
:1009B000C0004608BF00542C4B0BE72C4C084407E2
:1009C00084008313451883172D308000CC0ACA0198
:1009D00003104C0C4A0203181D2D4A0844078400DA
:1009E0008313451883170008CD004A084407F80010
:1009F0004508FA000318FA0A7808CE007A08CF00F2
:100A00004A084C02FF3E44078400831345188317AD
:100A10000008D0004E08840083134F188317500835
:100A200080004A084C02FF3E4407840083134518A7
:100A300083174D088000CA0AE82C4C08440784003C
:100A400083134518831780014408F8004508F9000E
:100A50000313080080080319462D03179A010408A0
:100A600099001A10831B1A140008C00003130423F2
:100A700003171908840083131A188317840A031DA7
:100A8000442D0313850A031703132A2D08000317A7
:100A90001508F80114020318502D1408F7005C2DF6
:100AA000F70108309600940DF70D1508770203182A
:100AB000F700F80D960B532D031308004E16013066
:100AC0000317C100C2000313F0220A300317C1004C
:100AD00003137021BF3003178D0000308F00031304
:100AE0003E2301300317C1000230C2000313F0227D
:100AF0000A300317C10003137021C73003178D009C
:100B000000308F0003133E234E1ECD2D8316061595
:100B100083120619CC2DB80A0130B805023003172C
:100B200090009630C100031370210317900B912D94
:100B30000630C1000230C2000313F0220317C201C5
:100B4000C101C001031338080317BF000A30C300F6
:100B5000C5016F30C40003130A240A300317C10013
:100B6000031370216F30840083132A25380803197A
:100B7000BD2D013A0319C52DCC2DCF3003178D00A3
:100B800000308F0003133E23CC2DD83003178D0087
:100B900000308F0003133E23842DCE19582FCE1121
:100BA00038080319D72D013A0319942E582FCE1166
:100BB000CE1603179001910192016F3084008313C8
:100BC0001108840712080313582080000038031905
:100BD000EE2D0317920A910ADD2D0313013003173E
:100BE000C1000230C2000313F0220A300317C10013
:100BF00003137021843003178D0000308F0003131E
:100C00003E23883003178D0000308F0003133E23EE
:100C100001300317C100C2000313F0229030031704
:100C20008D0000308F0003133E23CE1E932E8316BB
:100C30000615831206193A2E0317900A0330900501
:100C400010079100C1000130C2000313F0229B3055
:100C500003178D0000308F0003133E23023003176B
:100C600091009630C100031370210317910B312EB0
:100C7000912E03138316861583128619922E423005
:100C80000317100784008313800A42301007F8000E
:100C9000FA010318FA0A780891007A0892004230A3
:100CA000100784008313000894000A309500031392
:100CB000472577080317930011088400831312183F
:100CC0008317130880004230100784008313000844
:100CD0009100C201C101C0011108BF000A30C30068
:100CE000C5016F30C40003130A240730031710072F
:100CF0009100C1000230C2000313F0220A30031732
:100D0000C100031370216F30840083132A25023041
:100D1000031791009630C100031370210317910B44
:100D20008A2E0313152E582F03179001910192015B
:100D30006F308400831311088407120803135820AE
:100D4000800000380319A92E0317920A910A982EE1
:100D50000313CE11CE1601300317C1000230C200BA
:100D60000313F0220A300317C10003137021A030CF
:100D700003178D0000308F0003133E23A4300317A8
:100D80008D0000308F0003133E2301300317C10094
:100D9000C2000313F022AC3003178D0000308F0027
:100DA00003133E23CE1E582F8316061583120619F1
:100DB000FF2E0317900A10089400063095000313C5
:100DC0004725770803179000033010079100C100F2
:100DD0000130C2000313F022B83003178D00003039
:100DE0008F0003133E230230031791009630C10099
:100DF000031370210317910BF62E562F031383163E
:100E0000861583128619572F3C300317100784006C
:100E10008313800A3C301007F800FA010318FA0A1D
:100E2000780891007A0892003C3010078400831300
:100E3000000894000A30950003134725770803172C
:100E4000930011088400831312188317130880007D
:100E50003C3010078400831300089100C201C101D7
:100E6000C0011108BF000A30C300C5016F30C400C3
:100E700003130A240730031710079100C100023042
:100E8000C2000313F0220A300317C10003137021BC
:100E90006F30840083132A250230031791009630A7
:100EA000C100031370210317910B4F2F0313D22E90
:100EB0008A110A16542B03173F08C3003E08C200CC
:100EC0004308FA004208840083137A1883178008C5
:100ED00003196E2FC20A0319C30A602F4108FA00D2
:100EE0004008840083137A188317800803198D2F14
:100EF000400884008313411883170008C600420885
:100F0000840083134318831746088000C20A03191C
:100F1000C30AC00A0319C10A6E2F42088400831352
:100F20004318831780013E08F8003F08F9000313B7
:100F3000080080080319B62F0317C0010408BF007A
:100F40004010831B4014000803130C1EA52F9900AA
:100F500003173F088400831340188317840A031D76
:100F6000B42F0313850A03170313992F0800F70101
:100F7000F80103171F0803102018F707F70CF80CE7
:100F8000A018F707F70CF80C2019F707F70CF80C66
:100F9000A019F707F70CF80C201AF707F70CF80C54
:100FA000A01AF707F70CF80C201BF707F70CF80C42
:100FB000A01BF707F70CF80C031308000317190818
:100FC0000739F700190CF800F80CF80C1F30F80579
:100FD00078081B07840083131C188317F801F80A8C
:100FE000F70AF32FF80DF70BF22F9A080319FB2FCE
:100FF00078088004FE2FF80978088005031308009C
:101000004E12CE122A3003179C009D014C309E00D8
:1010100045309F004E30A0004730A1004830A2006C
:101020005430A300A4014330A5004630A600A70118
:101030004930A8004430A9005F30AA004730AB0017
:101040005730AC003130AD003230AE003330AF003D
:101050003430B000B1014930B2004430B3005F30E9
:10106000B4004E30B5004F30B6004430B7004530C4
:10107000B800B9012330BA00BB01013091001C3027
:101080009000013093001E30920001309500253011
:1010900094000130970028309600013099003230DA
:1010A000980001309B003A309A00FA015630BE0099
:1010B0007A08BF003E08840083133F18831780011D
:1010C000BD013D08053C031C8E283C303D078400D3
:1010D00083130008BE00C201C101C0013E08BF0069
:1010E0000A30C300C5016F30C4008A1103130A24FB
:1010F0008A1501300317C1008A11031370218A1564
:101100000317BF015630BE00C1016F30C0008A1105
:1011100003135B278A150317BD0A61289701563010
:101120009600FA014F30BE007A08BF003E088400E6
:1011300083133F1883178001BD013D08033C031C46
:10114000CA2842303D07840083130008BE00C20154
:10115000C101C0013E08BF000A30C300C5016F30A5
:10116000C4008A1103130A248A1501300317C10031
:101170008A11031370218A150317BF014F30BE0077
:10118000C1016F30C0008A1103135B278A15031752
:10119000BD0A9D2899014F30980014300313C600F2
:1011A0000317C201C101C001031346080317BF00A2
:1011B0000A30C300C5016F30C4008A1103130A242A
:1011C0008A15031793016F309200BC013C08053C5F
:1011D000031C042903103C0D103E84008317840A6D
:1011E0000008BE0084030008BD00840083133E187D
:1011F00083178A11031399278A1540300C1EFE2885
:1012000099000317BC0AE6280130C100C2008A1108
:101210000313F0228A150A300317C1008A11031341
:1012200070218A15E03003178D0000308F008A117D
:1012300003133E238A1501300317C1000230C20098
:101240008A110313F0228A150A300317C1008A118C
:10125000031370218A15EB3003178D0000308F00C7
:101260008A1103133E238A15CE118A110A165B2BAD
:10127000031718081904031941291908FA00180856
:10128000462903132C08FA002B0803179C007A0840
:101290009D001D08A1001C08A0001B08A3001A083F
:1012A000A2002108A5002008A4002508FA002408AF
:1012B000840083137A18831780080319962923085A
:1012C000A7002208A6002708FA0026088400831336
:1012D0007A1883178008031D7A2920082402F70052
:1012E0002508FA002108031C210FFA027708F800EC
:1012F000A1298E292508FA002408840083137A186E
:1013000083170008A8002708FA0026088400831322
:101310007A1883170008280203199229A60A0319CC
:10132000A70A6329A40A0319A50A5529200824023B
:10133000F7002508FA002108031C210FFA0277089C
:10134000F80078089C0703189D0A1D08FA001C087D
:10135000840083137A1883178008031DBC290313A4
:101360002B08840083132C18831720308000003052
:10137000F800F900282A03171D08A1001C08A00086
:101380001B08A3001A08A2002108A5002008A40039
:101390002508FA002408840083137A18831780082C
:1013A0000319012A2308A7002208A6002708FA002B
:1013B0002608840083137A18831780080319FD29EF
:1013C0002508FA002408840083137A18831700087C
:1013D000A8002708FA002608840083137A188317C8
:1013E00000082802031DF9292408F8002508F9003F
:1013F000042AA60A0319A70AD629A40A0319A50ACA
:10140000C8290030F800F90079089F0078089E008C
:101410001F08FA001E08840083137A1883178008B7
:1014200003191B2A1E08840083131F1883178001C9
:101430009E0A03199F0A1F080313AC0003171E0816
:101440000313AB0003171C08F8001D08F900031371
:10145000080003179D019B010A309C009A0118089F
:101460001904031D362A0030F8000A2B1D089D0AB6
:101470001807840083131918831700089E001E089C
:101480002D3C031D4F2A01309B001D089D0A1807A3
:10149000840083131918831700089E005C2A1E0815
:1014A0002B3C031D5C2A1D089D0A1807840083132A
:1014B0001918831700089E001E082F3C0318002BE4
:1014C0001E08393C031C002B1E08303C031D882AD3
:1014D0001D08180784008313191883170008783C27
:1014E00003197C2A1D081807840083131918831711
:1014F0000008583C031D882A10309C009D0A1D08D6
:101500009D0A1807840083131918831700089E008A
:101510001C080A3C031DAE2A1E082F3C0318AD2AE6
:101520001E08393C031CAD2A0A309F001A08A0008F
:101530008A110313B7278A15780803179F003030E4
:101540001E021F079A001D089D0A180784008313B6
:101550001918831700089E008C2A002B1C08103CC9
:10156000031D002B1E08603C0318BD2A1E087A3C90
:10157000031CBD2A1E08DF39BE2A1E089E001E0855
:101580002F3C0318C72A1E08393C0318CF2A1E080F
:10159000403C0318002B1E08463C031C002B1E0871
:1015A0002F3C0318E02A1E08393C031CE02A1A0EBF
:1015B0009F00F0309F0530301E021F079A00E92A75
:1015C0001A0E9F00F0309F0541301E020A3E1F0791
:1015D0009A001D089D0A18078400831319188317A1
:1015E00000089E001E08603C0318FD2A1E087A3C75
:1015F000031CFD2A1E08DF39FE2A1E089E00BF2A92
:101600001B0B082B1C080A3C031D082B9A099A0A7D
:101610001A08F8000313080003171708FA00160841
:10162000840083137A18831700089A001908FA00B7
:101630001808840083137A18831700081A02031D00
:10164000382B1708FA001608840083137A188317BA
:101650008008031D2E2B0030F800502B1708FA00CD
:101660001608960A0319970A980A0319990A0D2B66
:101670001708FA0016088400831317188317000848
:101680009A001908FA0018088400831319188317A0
:1016900000081A0203184E2BFF304F2B0130F800C0
:1016A0000313080003171C080739F7001C0CF80087
:1016B000F80CF80C1F30F80578081D078400831318
:1016C0001E1883170008F800F70A672BF80CF70BB1
:1016D000662B031308000B080317AB0003138B13CF
:1016E000831603178C170C14000000008312AB1F25
:1016F0007C2B03138B1703170C087F390319BB2BA3
:10170000AB000D08AC000F08AD002B0803130C1E36
:10171000872B990003172C088D002D088F000313C9
:101720000B080317AE0003138B13831603178C17D4
:101730000C14000000008312AE1FA12B03138B17A3
:1017400003170C0D0E0D7F390319BB2BAB000D08D1
:10175000AC000F08AD002B0803130C1EAD2B990035
:1017600003172C088D002D088F008D0A03198F0A8E
:1017700003136B2B031703130800031799010130A0
:101780009A009B011B08073C031CE12B1B089C00D3
:101790009E014D309D000313522300307818013014
:1017A00003179C001A089F001C08A0008A1103134D
:1017B000B7278A1578080317990703109A0D9B0A13
:1017C000C22B1908F80078080313BB003B08031765
:1017D00099009A011A08073C031C042C991BF42B4E
:1017E00003138810F62B031703138814831688102D
:1017F00008108312081083160810831208140310AF
:101800000317990D9A0AEA2B831603130811831202
:101810000811831608118312081503179801180878
:10182000073C031C4C2C99019A016F3084008313F0
:10183000190884071A088A11031358208A15800092
:1018400000380319282C03179A0A990A152C031338
:10185000031718089C009E014D309D00031352236E
:1018600000307818013003179900C201C101C0018E
:101870001908BF000A30C300C5016F30C4008A11C7
:1018800003130A248A156F30840083138A112A25D2
:101890008A150317980A0F2C03133B08093C031CF5
:1018A000682C031799019A016F308400831319087B
:1018B00084071A088A11031364208A1580000038EF
:1018C0000319672C03179A0A990A542C03139D2CA9
:1018D0003B08093C0318872C3B08633C031C872CFE
:1018E000031799019A016F30840083131908840744
:1018F0001A088A1103136B208A1580000038031917
:10190000862C03179A0A990A732C03139D2C03172C
:1019100099019A016F3084008313190884071A080B
:101920008A11031372208A158000003803199D2C38
:1019300003179A0A990A8A2C03132A300C1E9E2C2C
:10194000990040300C1EA22C99006F308400831344
:101950008A1199278A15043003178D0001308F00F2
:1019600003136B235630840083138A1199278A1539
:1019700040300C1EB92C99004F30840083138A111B
:1019800099278A1540300C1EC32C99000317C201F9
:10199000C101C00103133B080317BF000A30C30095
:1019A000C5016F30C4008A1103130A248A156F30F1
:1019B000840083138A1199278A1540300C1EDE2C6F
:1019C000990023300C1EE22C990001300317C1004E
:1019D0000230C2008A110313F0228A150A3003175D
:1019E000C1008A11031370218A15073003178D0077
:1019F00001308F008A1103133E238A1503179801C3
:101A00001808073C031C3D2D99019A016F30840092
:101A10008313190884071A088A11031358208A159A
:101A2000800000380319192D03179A0A990A062D08
:101A30000313031718089C009E014D309D000313EB
:101A4000522300307818013003179900C201C101F8
:101A5000C0011908BF000A30C300C5016F30C400BF
:101A60008A1103130A248A156F30840083138A11A4
:101A70002A258A150317980A002D031308002A3017
:101A800003179000FA015F30840083137A188317DC
:101A90008001FA016630840083137A18831780016D
:101AA00096019701D2308400831316088407170823
:101AB0008A1103137F208A15800000380319652DD1
:101AC0000317970A960A522D031303179701A030A4
:101AD0009600100898001708FA001608840083136F
:101AE0007A188317180800020319882D1708FA00BE
:101AF0001608840083137A1883178008031D842D29
:101B00000030F800F9008C2D960A0319970A6B2D06
:101B10001608F8001708F900790892007808910073
:101B200012089700110896001708990016089800E7
:101B30001908FA001808840083137A18831780089C
:101B40000319A62D980A0319990A982D1608180248
:101B5000F7001908FA001708031C170FFA02770894
:101B6000F800780893000313BA0103179601970150
:101B70006F30840083131608840717088A11031333
:101B800079208A15800000380319CB2D0317970A96
:101B9000960AB82D031303179901A03098009B01F2
:101BA0006F309A00031338217908031795007808DD
:101BB00094009408031DDF2D95080319322E03139A
:101BC0003A08FA3E0318212E063E6B2F212E0317EA
:101BD000BF016630BE001508C1001408C0008A119C
:101BE00003135B278A15212E0317BF015F30BE0048
:101BF0001508C1001408C0008A1103135B278A1559
:101C0000212E0317150899001408980003132922A0
:101C10007808C700212E03171508990014089800AA
:101C2000031329227808C800212E0317BF01D230E0
:101C3000BE001508C1001408C0008A1103135B27F9
:101C40008A150317990198019B016F309A000313BD
:101C50003821790803179500780894000313BA0A0D
:101C60000317D92D970166309600990156309800D8
:101C700003130C237808CC00031797015F309600FC
:101C800099014F30980003130C237808CB00CC083F
:101C9000031D612FCB08031D612F48080317130292
:101CA0000319542E0313612F0313470803195F2EE2
:101CB000013A0319602E033A03193B2F602F602F5E
:101CC000BA0101300317C100C2008A110313F022C8
:101CD0008A150A300317C1008A11031370218A156F
:101CE0000317980199016F30840083131808840743
:101CF00019088A1103135E208A1580000038031921
:101D0000862E0317990A980A732E03130317990155
:101D1000D23098009B016F309A0003133821790864
:101D200003179700780896009608031D9A2E9708C7
:101D30000319E32E03133A080319A52E013A0319D8
:101D4000BF2E033A0319C92ED22E01300317C1004A
:101D50008A11031370218A15031716088400831350
:101D6000171883178A1103132A258A15F6300317CB
:101D70008D0000308F008A1103133E238A1503174C
:101D80001708990016089800031329227808C9003B
:101D9000D22E03171708990016089800031329225A
:101DA0007808CA000317990198019B016F309A00C7
:101DB0000313382179080317970078089600031356
:101DC000BA0A0317942E0130C1008A11031370213F
:101DD0008A1501300317C1000230C2008A110313B3
:101DE000F0228A150A300317C1008A1103137021EB
:101DF0008A15FD3003178D0000308F008A11031300
:101E00003E238A150317C201C101C001031349080B
:101E10000317BF000A30C300C5016F30C4008A1128
:101E200003130A248A156F30840083138A112A252C
:101E30008A15003003178D0001308F008A110313BB
:101E40003E238A150317C201C101C00103134A08CA
:101E50000317BF000A30C300C5016F30C4008A11E8
:101E600003130A248A156F30840083138A112A25EC
:101E70008A154E17602F031796019901D2309800EA
:101E80000313292278080317960097011708073CC7
:101E9000031C5E2F003016180130980017089900B7
:101EA00018089A009C014D309B008A110313DE270D
:101EB0008A1503100317960C970A462F0313BD23A8
:101EC000682F0A300317C1008A11031370218A1585
:101ED0008A110A16662B0A148A140A158207E62D3F
:101EE000E72DF42D012E0B2E152E03179001343003
:101EF0009100900103134908031710020318BE2F25
:101F00001008033C0318862F403091001008110779
:101F10009200990001309A009C0180309B008A1148
:101F20000313DE278A15031712089C009E019D01EA
:101F3000031352237818BB2FC8300317C1008A112E
:101F4000031370218A15031710089C009E014D3061
:101F50009D00031352230030781C013003179200B8
:101F60001008990012089A009C014D309B008A11BC
:101F70000313DE278A150317900A7A2F03138A1199
:041F80000A166F2BA3
:102000000317900103134A08031710020318A529A8
:1020100034301007910092010318920A10089300BF
:10202000013094000230950004309600083097008B
:10203000103098002030990040309A001430130777
:102040008400831700089C009D009E019F01A00151
:10205000893084008317C03080051F0880049F30BA
:1020600084008313CF3080051E08800488308400EC
:1020700083171D0880000330C1000A12031370216A
:102080000A160317130DF700F70DFC30F7050313BD
:102090001F08C33977049F0003300317C1000A12D9
:1020A000031370210A16B301B20103179B011B0829
:1020B000633C031C712803139F149F185D2883162B
:1020C0001E088312B2071E0803181E0FB307013043
:1020D0000317C1000A12031370210A1603179B0A83
:1020E00057280313330803179D00031332080317FF
:1020F0009C008E30F7001D08F8001C08F900FA015A
:10210000F808031D8D287908F800F9010830F70256
:10211000F808031D8D28F70195280310F81B942853
:10212000F90DF80DF7038D28F8137A089F00790848
:102130009E0078089D0077089C009A30A300993093
:10214000A2004C30A1008630A0001C0803196A29A7
:10215000A800200803196A29A802031CB4287F30AC
:10216000A80703186A29BA288130A802031C6A2923
:1021700003196A292808F700F801F901FA01A701F3
:102180001D08A600A6171E08A5001F08A4001930E8
:10219000A8002308A4020318DD280130A5020318B3
:1021A000DD28A6020318DD28A7020318DD28A70AE8
:1021B000A60AA50A2308A4070F292208A5020318C6
:1021C000F8280130A6020318F828A7020318F828F7
:1021D000A70AA60A2208A5072308A407031C0F299B
:1021E000A50A031D0F29A60A031D0F29A70A0F29F7
:1021F00021088038A60203180E290130A70203180F
:102200000E29A70A21088038A6072208A507031C63
:10221000EC28A60A031DEC28A70AEC287A14A80BC0
:1022200012291D290310A40DA50DA60DA70D03103D
:10223000FA0DF90DF80DA90DC928291C252903103F
:10224000F80CF90CFA0CA90C2829F70303196A29D0
:10225000A91B51290310A40DA50DA60DA70D230838
:10226000A40203183D290130A50203183D29A60246
:1022700003183D29A702031C60292208A5020318A0
:1022800048290130A60203184829A702031C602927
:1022900021088038A602031851290130A702031C27
:1022A0006029FA0A031D6029F90A031D6029F80A4A
:1022B000031D6029F70A03196A29F80CF90CFA0CB6
:1022C0001D08A8002108A806A81F6829F8176E296C
:1022D000F8136E29F701F801F901FA017A089F0055
:1022E00079089E0078089D0077089C008E30F700E2
:1022F0001C08F7021D08F9001E08F800F917F70876
:1023000003198D290310F908031D8929F8080319F9
:102310008D29F90CF80CF70B82299D1F9429F809D7
:10232000F909F80A0319F90A79080313B3007808C0
:10233000B2003208F8000317110884008313121842
:10234000831778088000900A022803138A110A165E
:102350007F2B3112310883168700103083128706D5
:102360005A3003179A009B009C0141309D009E004B
:102370009F015630A000A100A2014330A300A40099
:10238000A5015330A600A700A801013091001A3022
:102390009000013093001D309200013095002030F4
:1023A00094000130970023309600013099002630C8
:1023B000980091015630900093014F3092001430F4
:1023C000A900AA0103134A0803172A0203180D2AB9
:1023D00034302A07840083130008AB0003102A0D51
:1023E000103E84008317840A0008AD0084030008AF
:1023F000AC00C201C101C0012B08BF000A30C300FC
:102400002D08C5002C08C4000A1203130A240A165A
:1024100003300317A907AA0AE229C201C101C001BA
:102420002908BF000A30C300C5017B30C4000A126E
:1024300003130A240A162A300C1E1C2A9900403065
:102440000C1E202A99007B30840083130A129927DE
:102450000A160A3003178D0001308F000A128A1500
:1024600003136B230A168A115630840083130A1251
:1024700099270A1640300C1E3B2A99004F308400E1
:1024800083130A1299270A1640300C1E452A990018
:102490000317AA0103134A0803172A0203186A2A1A
:1024A00003102A0D103E84008317840A0008AC0034
:1024B00084030008AB00840083132C1883170A12CE
:1024C000031399270A1640300C1E642A990003173B
:1024D000AA0A4A2A233003130C1E6C2A99003112CF
:1024E0003108831687001030831287068A110A1676
:1024F000842B03081F3983008316031787150830C0
:102500000313990002309A00A6309800903083128D
:102510009800FF30B100B801B901BA01BB01C60192
:10252000C701C801C9010330CA00CB01CC014E105C
:10253000CE104E11CE114E12CE124E13CE13831664
:1025400003170908C039890003131F129F120030B6
:1025500003178800831287018801890183130313FD
:10256000AB01AC01B401B501B601B7010330BC0049
:102570000830BD000630BE000930BF00C001073082
:10258000C100C2010130C3000530C4000230C500E3
:10259000CD013030D1003530D2003830D300393061
:1025A000D400D501D0015130CF003130D8003230C5
:1025B000D9003730DA003130DB003030DC00323027
:1025C000DD00DE01D7015830D6003030E100E200F6
:1025D000E300E400E501E0016130DF003030E800B5
:1025E000E900EA00EB00EC00ED00EE01E7016830E5
:1025F000E60048308316A0004930A1004830A20010
:102600004930A300A4014830D2004930D3004830FB
:10261000D4004930D500D6013030F100F200F3008B
:10262000F400F501F00171308312EF0032308316AF
:10263000EB003730EC003030ED00EE00EF01FC0134
:10264000EB30FB00F0308800FF3086000910891065
:1026500009118911803087008312B1001F179F1361
:1026600083169F1783121F148B160B160B168316D7
:1026700001138C16C03083128B04353090008E010C
:102680000B308F00DC308E000C100A128A2A0A16DA
:10269000CE10CE114E1583168811831288154E1058
:1026A000CE1C562B0A125E2D0A16922BCE1D5E2BC7
:1026B0000A128A1500280A168A11922BCE18922B1C
:1026C0004E1C682B4E100A128A153F2D0A168A11CD
:1026D0004E1F912BCE1F772B0A128A15752F0A16C3
:1026E0008A11CE130A128A15BD230A168A11643084
:1026F0000317C1000A12031370210A1600283408B8
:102700001C3C0318912BA929083003179000FA30BC
:10271000C1000A12031370210A160317900B872BAE
:0827200003135E2B502B630034
:04400E00E22FFF3F5F
:00000001FF
;PIC16F887
;CRC=827C  CREATED="09-Nov-21 14:50"
