:1000000012308A00E62A0000FF00030E8301A100DF
:100010000A08A0008A010408A2007708A300780853
:10002000A4007908A5007A08A60003170D08031399
:10003000A70003170F080313A80003170C080313E6
:10004000A90003170E080313AA00831383120B1EC3
:100050002B288B1852288C308400801E31288C1A53
:100060005528220884002308F7002408F8002508F2
:10007000F9002608FA00270803178D000313280843
:1000800003178F000313290803178C0003132A0892
:1000900003178E00031320088A00210E8300FF0E31
:1000A0007F0E09008A110A12EF288A110A122829E4
:1000B0000A108A100A118207303400340A108A109C
:1000C0000A1182075F3400340A108A100A1182076D
:1000D000233400340A108A100A1182070034CE2714
:1000E000C4223A10000030183018201020102010C0
:1000F0002010201000012010201020105F10201070
:10010000201020102010201020102000201020107F
:100110005F10201020004922DF23571D00013018F6
:10012000301830182010201020102010000120104E
:10013000201020105F102010201020102010201000
:10014000201020102000201020105F102010201000
:1001500020102000C3274E23C9233A10201020105E
:1001600020102000C320D3223A102010201020108D
:1001700020102000A016A024C416CE27C4222010D0
:10018000201020100001A016A024C416C72B201098
:10019000201020102000D720492A492747102E1769
:1001A0002E1720102010201020100001D720492ADF
:1001B000492747102E172E1720102010201020102E
:1001C000000020102010201020102010201000010E
:1001D00054213A1000012010201043213A008316C8
:1001E0000317950103138614831286180E290C1C1D
:1001F0000929831608110430831288060C108E0119
:100200000B308F00DC308E0083160317950A8312A3
:10021000031383160317F22883120313831603179D
:100220001508143C03181F29023083120313D20649
:100230000430D206D21552122429831603178312D2
:100240000313D2115212D2128B108A110A123128C2
:10025000A0303D07840083138C1E2C291A088000CF
:10026000A0303D078400831300082E3C031D402965
:10027000A0303D07840083138001BD015214412941
:10028000BD0A8C128A110A12312868102010201021
:1002900020102010201020102010201020102010DE
:1002A00000012010201020102010201020102010FD
:1002B00020102000201020102010201020102010CE
:1002C00020102010200040308400831700080319FC
:1002D00076290630F800F701F70B6C29F80B6B292B
:1002E0007B30F700F70B7229800B69290800031790
:1002F00047187E29031307108029031703130714D7
:10030000311031088316870083120317C7188C2910
:10031000031387108E29031703138714B1103108B4
:10032000831687008312031747199A2903130711AD
:100330009C29031703130715311131088316870011
:1003400083120317C719A82903138711AA290317B2
:1003500003138715B111310883168700000083123B
:100360000914831609100230F700F70BB529B829D4
:100370000000831209108316091083120800031766
:10038000C80103133114310883168700003083122B
:10039000071801300317C8040313B114310883167A
:1003A00087000030831287180130F7000310F70D23
:1003B00077080317C8040313311531088316870023
:1003C0000030831207190130F700F70DF70DFC30EC
:1003D000F70577080317C8040313B115310883160E
:1003E00087000030831287190130F700F70DF70DF1
:1003F000F70DF830F70577080317C8044808F80028
:10040000031308008316091089100911831289103B
:100410008316891007148714071587158312091589
:1004200083160911000083120914831609100000B5
:100430008312BF2178080317C7000313091083161E
:10044000091000008312091483160910272A282A8C
:1004500000008312BF2178080317C6000313091098
:100460008316091083123110310883168700831216
:10047000B1103108831687008312311131088316B9
:1004800087008312B1113108831687008312031786
:10049000470EF700F030F70577084604F8007808B3
:1004A000C600C61F562A831603130A2AC408031D52
:1004B0005D2A031389105F2A031703138914831617
:1004C000891000008312091183160911000083129C
:1004D00009108316091083120317450EC6000F304A
:1004E000C6054608C70003137721031745080F39CF
:1004F000C600C70003137721080028308316D100F7
:100500000C30D2000130D3000630D4008312091021
:10051000831609108312891083168910831209111A
:100520008316091183123110310883168700831254
:10053000B1103108831687008312311131088316F8
:1005400087008312B11131088316870009108910C2
:1005500009110F3083120317C00003136321013008
:100560008316D0005008033C031CC42A03308312B6
:100570000317C7000313772105300317C0000313C7
:1005800063218316D00AB22A023083120317C700F0
:100590000313772105300317C0000313632183166B
:1005A000D0015008033C031CE92AD13050078400D5
:1005B00083130008D50083120317C40183160313A5
:1005C000550883120317C500031302228316D00AAD
:1005D000D12A83128A110A16AA2B0317410BF12A7A
:1005E000F42A4030C200F52AC20101304002C2079D
:1005F00042088038C300C4014308C5000313022227
:10060000080003173F08073A03130319112B0B3A8D
:100610000319182B063A0319242B023A03192C2B21
:10062000332B01300317C000C1000313ED223A2B16
:100630000317C4010130C50003130222023003175F
:10064000C000031363213A2B01300317C0000230AE
:10065000C1000313ED223A2B0317C4011030C5006B
:10066000031302223A2B01300317C4003F08C500D0
:100670000313022208000B080317BB0003138B139C
:10068000831603178C170C14000000008312BB1F85
:100690004C2B03138B1703170C087F390319892B75
:1006A000BB000D08BC000F08BD003B08BF000313D2
:1006B000012303173C088D003D088F0003130B082E
:1006C0000317BE0003138B13831603178C170C1428
:1006D000000000008312BE1F702B03138B1703173B
:1006E0000C0D0E0D7F390319892BBB000D08BC00C2
:1006F0000F08BD003B08BF000313012303173C088C
:100700008D003D088F008D0A03198F0A03133B2BC0
:100710000317031308008318902B5B3084008317A2
:10072000031756085A068039E000D61FA22BD309BA
:10073000D409D509D609D30A0319D40A0319D50A4D
:100740000319D60ADA1FAF2BD709D809D909DA0954
:10075000D70A0319D80A0319D90A0319DA0AF701C3
:10076000F801F901FA01DB01DC01DD01DE015A08C3
:100770005904580457040319ED2B2030DF000310EF
:10078000D30DD40DD50DD60DDB0DDC0DDD0DDE0D3D
:100790005A085E02031DD62B59085D02031DD62B95
:1007A00058085C02031DD62B57085B02031CE72B7D
:1007B0005708DB025808031C580FDC025908031CB9
:1007C000590FDD025A08031C5A0FDE020314F70DFD
:1007D000F80DF90DFA0DDF0BBF2BE01FFA2BF7090F
:1007E000F809F909FA09F70A0319F80A0319F90AC5
:1007F0000319FA0A5B088000840A5C088000840AF6
:100800005D088000840A5E08800003130800031757
:10081000C601C501C4010130C300C801C901BF1F21
:10082000512C0130C8003F08CE003E08CD003D08E5
:10083000CC003C08CB00FF30D200D100D000CF006C
:100840002030D700D301D401D501D6014E08FA00DB
:100850004D08F9004C08F8004B08F7000310771C0E
:100860003F2C4F08D30750080318500FD4075108E6
:100870000318510FD50752080318520FD607D60C8C
:10088000D50CD40CD30CFA0CF90CF80CF70CD70BD4
:100890002E2C7A08BF007908BE007808BD007708C2
:1008A000BC00C308031D5D2CC408031D5D2CC508D6
:1008B000031D5D2CC6080319D92C83103F08D600F0
:1008C0003E08D5003D08D4003C08D300DA01D90128
:1008D000D8014008D70003138B237A080317C600FA
:1008E0007908C5007808C4007708C30049084107A3
:1008F000F8004208FA000318FA0A7808CB007A08D0
:10090000CC00CE010408CD004E10831B4E1483147E
:100910004F30840083173F08D6003E08D5003D08BD
:10092000D4003C08D300DA01D901D8014008D7002F
:1009300003138B2303174D08840083134E1883176A
:1009400030304F07F7005008F8000030031801302E
:10095000F8075108F900003003180130F907520870
:10096000FA00003003180130FA074B0884008313A3
:100970004C188317770880004908410784008313C7
:10098000421883170008393C0318CF2C4908410747
:100990008400831342188317073000078000C90AB8
:1009A0004608BF004508BE004408BD004308BC001F
:1009B000512C480BE42C490841078400831342184A
:1009C00083172D308000C90AC7010310490C470264
:1009D00003181A2D47084107840083134218831710
:1009E0000008CA0047084107F8004208FA00031847
:1009F000FA0A7808CB007A08CC0047084902FF3E83
:100A0000410784008313421883170008CD004B0868
:100A1000840083134C1883174D088000470849024F
:100A2000FF3E410784008313421883174A08800061
:100A3000C70AE52C4908410784008313421883172D
:100A400080014108F8004208F900031308008008FB
:100A50000319432D0317BE010408BD003E10831B7C
:100A60003E140008BF000313012303173D08840050
:100A700083133E188317840A031D412D0313850A2F
:100A800003170313272D080083165508F801540295
:100A900003184D2D5408F700592DF7010830D600E2
:100AA000D40DF70D550877020318F700F80DD60B93
:100AB000502D83120800521601300317C000C100E8
:100AC0000313ED220A300317C00003136321AA3079
:100AD00003178D0000308F0003133B2301300317F1
:100AE000C0000230C1000313ED220A300317C0001A
:100AF00003136321B23003178D0000308F000313FE
:100B00003B23521ECE2D8316061583120619CD2DBA
:100B1000BC0A0130BC0502308316D0009630831227
:100B20000317C000031363218316D00B8E2D0630EC
:100B300083120317C0000230C1000313ED22031714
:100B4000BF01BE01BD0103133C080317BC000A30FE
:100B5000C000C2017330C100031307240A30031719
:100B6000C0000313632173308400831327253C08DE
:100B70000319BE2D013A0319C62DCD2DBA30031726
:100B80008D0000308F0003133B23CD2DC33003179E
:100B90008D0000308F0003133B23812DD219752F58
:100BA000D2113C080319D82D013A0319A32E752F31
:100BB000D211D2168316D001D101D2017330840034
:100BC000831351088407520883125820800000388C
:100BD0000319EF2D8316D20AD10ADE2D83120130BC
:100BE0000317C0000230C1000313ED220A300317BF
:100BF000C000031363216F3003178D0000308F0096
:100C000003133B23733003178D0000308F00031351
:100C10003B2301300317C000C1000313ED227B30DA
:100C200003178D0000308F0003133B23D21EA22E2A
:100C300083160615831206193F2E8316D00A033039
:100C4000D0055007D10083120317C0000130C10046
:100C50000313ED22863003178D0000308F0003133D
:100C60003B2302308316D100963083120317C00055
:100C7000031363218316D10B342EA02E8312831607
:100C8000861583128619A12E4730831650078400DB
:100C90008313800A47305007F800FA010318FA0A54
:100CA0007808D1007A08D2004730500784008313B7
:100CB0000008D4000A30D500831244257708831633
:100CC000D3005108840083135218831753088000FF
:100CD00047305007840083130008D10083120317A4
:100CE000BF01BE01BD018316031351088312031710
:100CF000BC000A30C000C2017330C10003130724D6
:100D0000073083165007D10083120317C00002304A
:100D1000C1000313ED220A300317C000031363213F
:100D2000733084008313272502308316D100963058
:100D300083120317C000031363218316D10B972E70
:100D40008312162E752F8316D001D101D201733074
:100D500084008313510884075208831258208000AE
:100D600000380319B82E8316D20AD10AA72E83128F
:100D7000D211D21601300317C0000230C100031394
:100D8000ED220A300317C000031363218B300317D1
:100D90008D0000308F0003133B238F3003178D002D
:100DA00000308F0003133B2301300317C000C10044
:100DB0000313ED22973003178D0000308F000313CB
:100DC0003B23D21E752F8316061583120619122F88
:100DD0008316D00A5008D4000630D500831244256B
:100DE00077088316D00003305007D1008312031711
:100DF000C0000130C1000313ED22A33003178D00A2
:100E000000308F0003133B2302308316D10096304D
:100E100083120317C000031363218316D10B072F1E
:100E2000732F83128316861583128619742F41300F
:100E30008316500784008313800A41305007F8005E
:100E4000FA010318FA0A7808D1007A08D200413072
:100E50005007840083130008D4000A30D5008312A1
:100E6000442577088316D300510884008313521851
:100E70008317530880004130500784008313000813
:100E8000D10083120317BF01BE01BD0183160313F6
:100E9000510883120317BC000A30C000C20173302E
:100EA000C10003130724073083165007D1008312B3
:100EB0000317C0000230C1000313ED220A300317EC
:100EC000C00003136321733084008313272502308D
:100ED0008316D100963083120317C00003136321D9
:100EE0008316D10B6A2F8312E12E8A110A16B72BB3
:100EF00003173408B8003308B7003808FA00370879
:100F0000840083137A188317800803198B2FB70A7C
:100F10000319B80A7D2F3608FA00350884008313B8
:100F20007A18831780080319AA2F350884008313C1
:100F3000361883170008BB0037088400831338185D
:100F400083173B088000B70A0319B80AB50A0319CA
:100F5000B60A8B2F37088400831338188317800153
:100F60003308F8003408F9000313080003173508A4
:100F7000B7003408B6003708FA0036088400831337
:100F80007A18831780080319C92FB60A0319B70AFC
:100F9000BB2F34083602F7003708FA003508031C67
:100FA000350FFA027708F8000313080080080319C8
:100FB000F32F0317BE010408BD003E10831B3E142F
:100FC000000803130C1EE22F990003173D0884004C
:100FD00083133E188317840A031DF12F0313850A18
:080FE00003170313D62F0800CC
:101000005212D2122A300317900091014C309200F4
:10101000453093004E30940047309500483096009C
:10102000543097009801433099005F309A00463061
:101030009B009C0149309D0044309E005F309F0022
:101040004730A0005730A1003130A2003230A30059
:101050003330A4003430A500A6014930A700443045
:10106000A8005F30A9004E30AA004F30AB004430DA
:10107000AC004530AD00AE012330AF00B00101300F
:1010800083160313D1001030D0000130D30012308A
:10109000D2000130D5001930D4000130D7001D3006
:1010A000D6000130D9002730D8000130DB002F30C6
:1010B000DA00FA015A3083120317B3007A08B40039
:1010C000330884008313341883178001B201320877
:1010D000053C031C94284130320784008313000828
:1010E000B300BF01BE01BD013308BC000A30C0001F
:1010F000C2017330C1008A11031307248A1501301D
:101100000317C0008A11031363218A150317B40162
:101110005A30B300B6017330B5008A110313782733
:101120008A150317B20A672883160313D7015A30AA
:10113000D600FA01533083120317B3007A08B400C3
:10114000330884008313341883178001B2013208F6
:10115000033C031CD4284730320784008313000863
:10116000B300BF01BE01BD013308BC000A30C0009E
:10117000C2017330C1008A11031307248A1501309C
:101180000317C0008A11031363218A150317B401E2
:101190005330B300B6017330B5008A1103137827BA
:1011A0008A150317B20AA72883160313D9015330EF
:1011B000D8008312CB0131308316D2003230D300F5
:1011C000DC015C08053C031C032903105C0DD03EC8
:1011D00084008313840A0008DE0084030008DD0015
:1011E0005E0883120317B500831603135D0883128C
:1011F0000317B4008A110313B6278A157808CB07A2
:101200008316DC0AE12805308312CB070317BF01E0
:10121000BE01BD0103134B080317BC000A30C00018
:10122000C2017330C1008A11031307248A15831683
:10123000D3017330D200DC015C08053C031C3A2961
:1012400003105C0DD03E84008313840A0008DE0086
:1012500084030008DD00840083135E1883178A115D
:101260008312D6278A1540300C1E34299900831624
:10127000DC0A1C29013083120317C000C1008A1147
:101280000313ED228A150A300317C0008A110313D5
:1012900063218A15CB3003178D0000308F008A112F
:1012A00003133B238A1501300317C0000230C1002D
:1012B0008A110313ED228A150A300317C0008A1120
:1012C000031363218A15D63003178D0000308F0079
:1012D0008A1103133B238A15D2118A110A16BE2BD9
:1012E0008316D00150081E3C031C8429881002304C
:1012F0008312880664300317C0008A110313632128
:101300008A158316D00A72290810013083128806C4
:101310008A110A16C62B83165808590403199429F2
:101320005908FA005808992983122C08FA002B084A
:101330008316DC007A08DD005D08E1005C08E0004F
:101340005B08E3005A08E2006108E5006008E40079
:101350006508FA006408840083137A1883178008EC
:101360000319E9296308E7006208E6006708FA0044
:101370006608840083137A1883178008031DCD291B
:1013800060086402F7006508FA006108031C610F39
:10139000FA027708F800F429E1296508FA006408E0
:1013A000840083137A1883170008E8006708FA009E
:1013B0006608840083137A188317000868020319EB
:1013C000E529E60A0319E70AB629E40A0319E50A3A
:1013D000A82960086402F7006508FA006108031C88
:1013E000610FFA027708F8007808DC070318DD0AB5
:1013F0005D08FA005C08840083137A18831780085C
:10140000031D0F2A83122B08840083132C188317C3
:10141000203080000030F800F9007B2A83165D0838
:10142000E1005C08E0005B08E3005A08E2006108A4
:10143000E5006008E4006508FA006408840083138E
:101440007A18831780080319542A6308E700620892
:10145000E6006708FA006608840083137A18831789
:1014600080080319502A6508FA0064088400831371
:101470007A1883170008E8006708FA0066088400F5
:1014800083137A18831700086802031D4C2A640826
:10149000F8006508F900572AE60A0319E70A292A1D
:1014A000E40A0319E50A1B2A0030F800F90079085C
:1014B000DF007808DE005F08FA005E08840083130E
:1014C0007A188317800803196E2A5E088400831334
:1014D0005F1883178001DE0A0319DF0A5F08831291
:1014E000AC0083165E088312AB0083165C08F8001C
:1014F0005D08F900831208008316DD01DB010A3064
:10150000DC00DA0158085904031D892A0030F8006C
:101510007C2B5D08DD0A5807840083135918831754
:101520000008DE005E082D3C031DA22A0130DB000E
:101530005D08DD0A580784008313591883170008D3
:10154000DE00AF2A5E082B3C031DAF2A5D08DD0AD2
:10155000580784008313591883170008DE005E08BB
:101560002F3C0318722B5E08393C031C722B5E085B
:10157000303C031DDB2A5D0858078400831359188B
:1015800083170008783C0319CF2A5D0858078400A8
:101590008313591883170008583C031DDB2A1030A9
:1015A000DC00DD0A5D08DD0A580784008313591842
:1015B00083170008DE005C080A3C031D202B5E0830
:1015C0002F3C03181F2B5E08393C031C1F2B0A30CD
:1015D000DF005A08E000F701F8015F080310601807
:1015E000F707F70CF80CE018F707F70CF80C601980
:1015F000F707F70CF80CE019F707F70CF80C601A6E
:10160000F707F70CF80CE01AF707F70CF80C601B5B
:10161000F707F70CF80CE01BF707F70CF80C780845
:10162000DF0030305E025F07DA005D08DD0A580730
:1016300084008313591883170008DE00DF2A722BF9
:101640005C08103C031D722B5E08603C03182F2BB6
:101650005E087A3C031C2F2B5E08DF39302B5E08B6
:10166000DE005E082F3C0318392B5E08393C031856
:10167000412B5E08403C0318722B5E08463C031C5D
:10168000722B5E082F3C0318522B5E08393C031C5A
:10169000522B5A0EDF00F030DF0530305E025F075C
:1016A000DA005B2B5A0EDF00F030DF0541305E02BE
:1016B0000A3E5F07DA005D08DD0A580784008313DD
:1016C000591883170008DE005E08603C03186F2B72
:1016D0005E087A3C031C6F2B5E08DF39702B5E08B6
:1016E000DE00312B5B0B7A2B5C080A3C031D7A2B46
:1016F000DA09DA0A5A08F800831208008316570834
:10170000FA005608840083137A1883170008DA0059
:101710005908FA005808840083137A1883170008C0
:101720005A02031DAA2B5708FA0056088400831397
:101730007A1883178008031DA02B0030F800C22BF5
:101740005708FA005608D60A0319D70AD80A031907
:10175000D90A7F2B5708FA005608840083135718BC
:1017600083170008DA005908FA0058088400831328
:101770005918831700085A020318C02BFF30C12BD9
:101780000130F80083120800831658080739F70063
:10179000580CF800F80CF80C1F30F80578085A07B8
:1017A000840083135B188317F801F80AF70AD92B12
:1017B000F80DF70BD82BD9080319E12B7808800412
:1017C000E42BF80978088005831208002A30831674
:1017D000D000FA016330840083137A1883178001E4
:1017E000FA016A30840083137A1883178001D601C6
:1017F000D701BE30840083135608840757088A1126
:1018000083126A208A158000003803190C2C831675
:10181000D70AD60AF92B83128316D701A030D60037
:101820005008D8005708FA005608840083137A1825
:1018300083175808000203192F2C5708FA0056087E
:10184000840083137A1883178008031D2B2C003023
:10185000F800F900332CD60A0319D70A122C5608BF
:10186000F8005708F9007908D2007808D10052082A
:1018700083120317B500831603135108831203174D
:10188000B4008A110313B6278A1578088316D3008B
:101890008312BE018316D601D701733084008313EF
:1018A0005608840757088A11831264208A1580001D
:1018B00000380319602C8316D70AD60A4D2C8312E0
:1018C0008316D901A030D800DB017330DA0083120F
:1018D0008B2179088316D5007808D400D408031D1D
:1018E000742CD5080319DF2C83123E08FA3E031826
:1018F000CE2C063E0D2FCE2C0317B4016A30B30058
:1019000083160313550883120317B60083160313B7
:10191000540883120317B5008A11031378278A1518
:10192000CE2C0317B4016330B3008316031355089C
:1019300083120317B6008316031354088312031788
:10194000B5008A11031378278A15CE2C8316550803
:10195000D9005408D80083127C227808CC00CE2C01
:1019600083165508D9005408D80083127C227808C1
:10197000CD00CE2C0317B401BE30B3008316031381
:10198000550883120317B6008316031354088312F5
:101990000317B5008A11031378278A158316D90116
:1019A000D801DB017330DA0083128B2179088316AA
:1019B000D5007808D4008312BE0A83166E2CD70196
:1019C0006A30D600D9015A30D80083127E237808B5
:1019D000D1008316D7016330D600D9015330D80027
:1019E00083127E237808D000D108031D032FD0086E
:1019F000031D032F4D08831653020319012D831273
:101A0000032F83124C0803190C2D013A03190D2DD5
:101A1000033A0319282E022F022FBE0183168801D4
:101A2000FF308312880001300317C000C1008A1103
:101A30000313ED228A150A300317C0008A1103131D
:101A400063218A158316D801D9017330840083136A
:101A50005808840759088A1183125E208A1580006D
:101A600000380319382D8316D90AD80A252D831278
:101A70008316D901BE30D800DB017330DA0083123F
:101A80008B2179088316D7007808D600D608031D65
:101A90004C2DD7080319952D83123E080319572D95
:101AA000013A0319712D033A03197B2D842D01305E
:101AB0000317C0008A11031363218A158316560881
:101AC00084008313571883178A11831227258A15D8
:101AD000E13003178D0000308F008A1103133B2380
:101AE0008A1583165708D9005608D80083127C221D
:101AF0007808CE00842D83165708D9005608D800E0
:101B000083127C227808CF008316D901D801DB012B
:101B10007330DA0083128B2179088316D700780896
:101B2000D6008312BE0A8316462D0230D800FA3042
:101B300083120317C0008A11031363218A158316C9
:101B4000D80B972D013083120317C0008A1103139D
:101B500063218A1583168801FF30831288000130C3
:101B60000317C0000230C1008A110313ED228A1549
:101B70000A300317C0008A11031363218A15E83065
:101B800003178D0000308F008A1103133B238A1541
:101B90000317BF01BE01BD0103134E080317BC00AC
:101BA0000A30C000C2017330C1008A110313072438
:101BB0008A157330840083138A1127258A15EB3028
:101BC00003178D0000308F008A1103133B238A1501
:101BD0000317BF01BE01BD0103134F080317BC006B
:101BE0000A30C000C2017330C1008A1103130724F8
:101BF0008A157330840083138A1127258A1583166A
:101C000088018312880102308316D800FA308312CB
:101C10000317C0008A11031363218A158316D80B9A
:101C2000062E8801FF308312880002308316D80008
:101C3000FA3083120317C0008A11031363218A1537
:101C40008316D80B182E8801831288015217022F91
:101C5000BE018316D801D90173308400831358085C
:101C6000840759088A1183125E208A158000003883
:101C700003193F2E8316D90AD80A2C2E831201305D
:101C80000317C000C1008A110313ED228A150A3020
:101C90000317C0008A11031363218A15BE30840024
:101CA00083138A1127258A15513003178D000130BF
:101CB0008F008A1103133B238A1501300317C000DC
:101CC0000230C1008A110313ED228A150A3003176E
:101CD000C0008A11031363218A155A3003178D003F
:101CE00001308F008A1103133B238A158316D90113
:101CF000BE30D800DB017330DA0083128B21790803
:101D00008316D7007808D600D608031D8A2ED70878
:101D10000319E82E83123E080319952E013A031980
:101D20009F2E033A0319A92EBD2E83165708D900FA
:101D30005608D80083127C2240307807BF008316F3
:101D40005708D9005608D80083127C227808C000B2
:101D5000BD2E0317B4016330B30083160313570875
:101D600083120317B6008316031356088312031752
:101D7000B5008A11031378278A1507300317C000AE
:101D80000230C1008A110313ED228A150A300317AD
:101D9000C0008A11031363218A1583165608840034
:101DA0008313571883178A11831227258A158316E0
:101DB000D901D801DB017330DA0083128B21790855
:101DC0008316D7007808D6008312BE0A8316842EA5
:101DD0008312C008031DEE2E0030EF2E0130F700F5
:101DE0003F088316D8007708D900DB01DA01831297
:101DF000C4233F088316D800D901DB018030DA0004
:101E00008312C4230A2F0A300317C0008A11031358
:101E100063218A158A110A16CE2B0A148A140A1510
:0E1E200082077B2C7C2C912CA62CB02CBA2C8B
:102000008316D00183124F08831650020318A729A4
:1020100038305007D100D2010318D20A5008D3003B
:102020000130D4000230D5000430D6000830D7008B
:102030001030D8002030D9004030DA00D4305307B7
:10204000840083130008DC00DD00DE01DF01E00115
:10205000893084008317C03080055F0880049F307A
:1020600084008313CF3080055E08800488308400AC
:1020700083175D088000033083120317C0000A1223
:10208000031363210A168316530DF700F70DFC3076
:10209000F70583121F08C33977049F000330031725
:1020A000C0000A12031363210A16B301B20183169A
:1020B000DB015B08633C031C732883129F149F1889
:1020C0005F2883161E088312B2071E0803181E0F0E
:1020D000B30701300317C0000A12031363210A1665
:1020E0008316DB0A5928831233088316DD00831216
:1020F00032088316DC008E30F7005D08F8005C08BB
:10210000F900FA01F808031D8F287908F800F90191
:102110000830F702F808031D8F28F70197280310ED
:10212000F81B9628F90DF80DF7038F28F8137A0895
:10213000DF007908DE007808DD007708DC009A30DF
:10214000E3009930E2004C30E1008630E0005C08AA
:1021500003196C29E800600803196C29E802031CC4
:10216000B6287F30E80703186C29BC288130E802C4
:10217000031C6C2903196C296808F700F801F901A0
:10218000FA01E7015D08E600E6175E08E5005F0872
:10219000E4001930E8006308E4020318DF28013086
:1021A000E5020318DF28E6020318DF28E702031818
:1021B000DF28E70AE60AE50A6308E407112962084E
:1021C000E5020318FA280130E6020318FA28E702AC
:1021D0000318FA28E70AE60A6208E5076308E40735
:1021E000031C1129E50A031D1129E60A031D112903
:1021F000E70A112961088038E60203181029013026
:10220000E70203181029E70A61088038E607620828
:10221000E507031CEE28E60A031DEE28E70AEE2870
:102220007A14E80B14291F290310E40DE50DE60DBF
:10223000E70D0310FA0DF90DF80DE90DCB28691C17
:1022400027290310F80CF90CFA0CE90C2A29F703DA
:1022500003196C29E91B53290310E40DE50DE60D64
:10226000E70D6308E40203183F290130E502031873
:102270003F29E60203183F29E702031C622962088E
:10228000E50203184A290130E60203184A29E70249
:10229000031C622961088038E602031853290130C3
:1022A000E702031C6229FA0A031D6229F90A031DC9
:1022B0006229F80A031D6229F70A03196C29F80C30
:1022C000F90CFA0C5D08E8006108E806E81F6A29C5
:1022D000F8177029F8137029F701F801F901FA01CC
:1022E0007A08DF007908DE007808DD007708DC0076
:1022F0008E30F7005C08F7025D08F9005E08F80010
:10230000F917F70803198F290310F908031D8B2902
:10231000F80803198F29F90CF80CF70B8429DD1F35
:102320009629F809F909F80A0319F90A79088312B4
:10233000B3007808B2003208F80083165108840010
:1023400083135218831778088000D00A022883125A
:102350008A110A16D32B831608134030831288067D
:102360002A300317900091013230920036309300EA
:1023700094015330950096009701493098004430FD
:1023800099005F309A0047309B0057309C003130F5
:102390009D0032309E0033309F003430A000A101F8
:1023A0004930A2004430A3005F30A4004E30A500A5
:1023B0004F30A6004430A7004530A800A9015A308C
:1023C000AA00AB00AC014130AD00AE00AF01563009
:1023D000B000B100B2014330B300B400B5015330D6
:1023E000B600B700B801013083160313D1001030D6
:1023F000D0000130D3001230D2000130D5001530AA
:10240000D4000130D7001830D6000130D900223076
:10241000D8000130DB002A30DA000130DD002D3039
:10242000DC000130DF003030DE000130E10033300D
:10243000E0000130E3003630E200D7015A30D60028
:10244000D9015330D8001430E400E50183124F085D
:10245000831665020318592A3830650784008313F0
:102460000008E60083120317BF01BE01BD018316F9
:102470000313660883120317BC000A30C000C201B0
:102480007330C1000A12031307240A16053083169D
:102490006507F7000310F70D7708D03E840083131B
:1024A000840A80018403733080000330E407E50A66
:1024B000262A83120317BF01BE01BD018316031331
:1024C000640883120317BC000A30C000C2017530D3
:1024D000C1000A12031307240A168316D3017530AC
:1024E000D200E501053083124F07831665020318F9
:1024F000B72A053083120317C0000130C1000A1249
:102500000313ED220A1668300317BF000A120313E3
:1025100001230A1603108316650DD03E8400831331
:10252000840A0008E70084030008E600840083139F
:10253000671883170A12831227250A1645300317D6
:102540008D0001308F000A1203133B230A1604305A
:102550008316E600E13083120317C0000A1203134A
:1025600063210A168316E60BAA2AE50A722AE501F8
:10257000053083124F07831665020318D92A03100A
:10258000650DD03E84008313840A0008E7008403AD
:102590000008E60084008313671883170A12831269
:1025A000D6270A1640300C1ED32A99008316E50A56
:1025B000B82A233083120C1EDB2A990083160813D5
:1025C0004030831288068A110A16D72B03081F3958
:1025D0008300831603178715083003139900023010
:1025E0009A00A6309800903083129800FF30B10016
:1025F000BC01BD01BE01CB01CC01CD01CE01033038
:10260000CF00D001D1015210D2105211D21152126A
:10261000D2125213831603170908C0398900031315
:102620001F129F1200300317880083128701880150
:10263000890183130313AB01AC01B801B901BA01DD
:10264000BB010330C1000730C2000430C3000230B8
:10265000C4000530C5000330C600C7000830C800FC
:102660000930C9000730CA003030D5003530D600F7
:102670003830D7003930D800D901D4015530D300D3
:102680003130DC003230DD003730DE003130DF0049
:102690003030E0003230E100E201DB015C30DA0092
:1026A0003030E500E600E700E800E901E4016530CC
:1026B000E3003030EC00ED00EE00EF00F000F10040
:1026C000F201EB016C30EA0048308316A00049307B
:1026D000A1004830A2004930A300A4014830BE0048
:1026E0004930BF004830C0004930C100C20130301D
:1026F000FB00FC00FD01F4017B30F3003030CD0025
:10270000CE00CF01F601CD30F50000308800FF305B
:102710008600091089100911891180308700831201
:10272000B1001F179F1383169F1783121F148B1658
:102730000B160B16831601138C16C03083128B04F4
:10274000353090008E010B308F00DC308E000C1085
:102750000A127D2A0A16D210D21152158316880148
:10276000831288015210D21CB92B0A125B2D0A1653
:10277000D82BD21DC12B0A128A1500280A168A11DD
:10278000D82BD218D82B0A128A1570290A168A114A
:10279000521CD02B52100A128A15E62B0A168A11E7
:1027A000521FD72B002838081C3C031CAB29C12B17
:0427B000B32B6300E4
:04400E00E22FFF3F5F
:00000001FF
;PIC16F887
;CRC=8BA7  CREATED="01-Nov-21 02:03"
