:1000000011308A0023290000FF00030E8301A100A4
:100010000A08A0008A010408A2007708A300780853
:10002000A4007908A5007A08A60003170D08031399
:10003000A70003170F080313A80003170C080313E6
:10004000A90003170E080313AA00831383120B1EC3
:100050002B288B1852288C308400801E31288C1A53
:100060005528220884002308F7002408F8002508F2
:10007000F9002608FA00270803178D000313280843
:1000800003178F000313290803178C0003132A0892
:1000900003178E00031320088A00210E8300FF0E31
:1000A0007F0E09008A110A12EF288A110A122029EC
:1000B0000A108A100A118207303400340A108A109C
:1000C0000A1182075F3400340A108A100A1182076D
:1000D000233400340A108A100A1182070034CE2714
:1000E000C4223A10000030183018201020102010C0
:1000F0002010201000012010201020105F10201070
:10010000201020102010201020102000201020107F
:100110005F10201020004922DF23571D00013018F6
:10012000301830182010201020102010000120104E
:10013000201020105F102010201020102010201000
:10014000201020102000201020105F102010201000
:1001500020102000C3274E23C9233A10201020105E
:1001600020102000C320D3223A102010201020108D
:1001700020102000A016A024C416CE27C4222010D0
:10018000201020100001A016A024C416C72B201098
:10019000201020102000D720492A492747102E1769
:1001A0002E1720102010201020100001D720492ADF
:1001B000492747102E172E1720102010201020102E
:1001C000000020102010201020102010201000010E
:1001D00054213A1000012010201043213A00031747
:1001E000E401831603138614831286180A290C1C53
:1001F0000729831688110830831288060C108E0197
:100200000B308F00DC308E000317E40A0313031752
:10021000F128031303176408143C0318182902304B
:100220000313CD060430CD06CD154D121C2903173E
:100230000313CD114D12CD128B108A110A123128E1
:10024000A0303907840083138C1E24291A088000EB
:10025000A03039078400831300082E3C031D382981
:10026000A0303907840083138001B9014D14392966
:10027000B90A8C128A110A123128C02953200000B1
:100280004130840083170008031953290630F80011
:10029000F701F70B4929F80B48297B30F700F70BDA
:1002A0004F29800B46290800031748185B290313C0
:1002B00007105D2903170313071431103108831643
:1002C000870083120317C8186929031387106B2945
:1002D000031703138714B1103108831687008312A4
:1002E00003174819772903130711792903170313F3
:1002F0000715311131088316870083120317C819B7
:100300008529031387118729031703138715B11153
:100310003108831687000000831209148316091020
:100320000230F700F70B922995290000831209107B
:1003300083160910831208000317C901031331142F
:100340003108831687000030831207180130031725
:10035000C9040313B11431088316870000308312D7
:1003600087180130F7000310F70D77080317C90449
:1003700003133115310883168700003083120719E3
:100380000130F700F70DF70DFC30F705770803177C
:10039000C9040313B1153108831687000030831296
:1003A00087190130F700F70DF70DF70DF830F70555
:1003B00077080317C9044908F800031308008316D7
:1003C00009108910091183128910831689100714E6
:1003D0008714071587158312091583160911000064
:1003E0008312091483160910000083129C217808D7
:1003F0000317C800031309108316091000008312A5
:10040000091483160910042A052A000083129C216E
:1004100078080317C7000313091083160910831205
:1004200031103108831687008312B110310883160A
:100430008700831231113108831687008312B111AE
:1004400031088316870083120317480EF700F03037
:10045000F70577084704F8007808C700C71F332A54
:1004600083160313E729C508031D3A2A03138910CD
:100470003C2A031703138914831689100000831282
:10048000091183160911000083120910831609103F
:1004900083120317460EC7000F30C7054708C80070
:1004A00003135421031746080F39C700C80003136C
:1004B000542108002830031791000C3092000130BD
:1004C0009300063094000313091083160910831259
:1004D000891083168910831209118316091183125A
:1004E00031103108831687008312B110310883164A
:1004F0008700831231113108831687008312B111EE
:100500003108831687000910891009110F308312F2
:100510000317C10003134021013003179000100896
:10052000033C031C9F2A0330C800031354210530E9
:100530000317C100031340210317900A8F2A0230CA
:10054000C8000313542105300317C10003134021D1
:10055000031790011008033C031CBC2A113010073C
:100560008400831700089500C5011508C600031311
:10057000DF210317900AAA2A03138A110A16EF290A
:100580000317420BC42AC72A4030C300C82AC3013C
:1005900001304102C30743088038C400C501440844
:1005A000C6000313DF21080003174008073A0313AE
:1005B0000319E42A0B3A0319EB2A063A0319F72A1E
:1005C000023A0319FF2A062B01300317C100C200AB
:1005D0000313C0220D2B0317C5010130C6000313FE
:1005E000DF2102300317C100031340210D2B01301E
:1005F0000317C1000230C2000313C0220D2B0317E2
:10060000C5011030C6000313DF210D2B0130031785
:10061000C5004008C6000313DF2108000B080317BC
:10062000BD0003138B13831603178C170C140000E3
:1006300000008312BD1F1F2B03138B1703170C0819
:100640007F3903195C2BBD000D08BE000F08BF00E9
:100650003D08C0000313D42203173E088D003F0855
:100660008F0003130B080317C00003138B138316AB
:1006700003178C170C14000000008312C01F432BBB
:1006800003138B1703170C0D0E0D7F3903195C2B09
:10069000BD000D08BE000F08BF003D08C0000313D9
:1006A000D42203173E088D003F088F008D0A0319DE
:1006B0008F0A03130E2B0317031308008318632BF1
:1006C0005E3084008317031759085D068039E30004
:1006D000D91F752BD609D709D809D909D60A031904
:1006E000D70A0319D80A0319D90ADD1F822BDA09A0
:1006F000DB09DC09DD09DA0A0319DB0A0319DC0A64
:100700000319DD0AF701F801F901FA01DE01DF0141
:10071000E001E1015D085C045B045A040319C02B8D
:100720002030E2000310D60DD70DD80DD90DDE0D07
:10073000DF0DE00DE10D5D086102031DA92B5C08D2
:100740006002031DA92B5B085F02031DA92B5A0839
:100750005E02031CBA2B5A08DE025B08031C5B0F07
:10076000DF025C08031C5C0FE0025D08031C5D0FE8
:10077000E1020314F70DF80DF90DFA0DE20B922BBF
:10078000E31FCD2BF709F809F909FA09F70A03194C
:10079000F80A0319F90A0319FA0A5E088000840AA4
:1007A0005F088000840A60088000840A6108800075
:1007B000031308000317C901C801C7010130C600AF
:1007C000CB01CC01C21F242C0130CB004208D10048
:1007D0004108D0004008CF003F08CE00FF30D500D0
:1007E000D400D300D2002030DA00D601D701D801DE
:1007F000D9015108FA005008F9004F08F8004E08D6
:10080000F7000310771C122C5208D6075308031860
:10081000530FD70754080318540FD8075508031867
:10082000550FD907D90CD80CD70CD60CFA0CF90CEB
:10083000F80CF70CDA0B012C7A08C2007908C10019
:100840007808C0007708BF00C608031D302CC70811
:10085000031D302CC808031D302CC9080319AC2C0B
:1008600083104208D9004108D8004008D7003F084B
:10087000D600DD01DC01DB014308DA0003135E234F
:100880007A080317C9007908C8007808C7007708F4
:10089000C6004C084407F8004508FA000318FA0A95
:1008A0007808CE007A08CF00D1010408D00051109A
:1008B000831B511483145230840083174208D900DB
:1008C0004108D8004008D7003F08D600DD01DC0110
:1008D000DB014308DA0003135E230317500884008A
:1008E00083135118831730305207F7005308F8006C
:1008F000003003180130F8075408F90000300318DD
:100900000130F9075508FA00003003180130FA07E2
:100910004E08840083134F188317770880004C0813
:10092000440784008313451883170008393C0318D3
:10093000A22C4C0844078400831345188317073002
:1009400000078000CC0A4908C2004808C1004708D7
:10095000C0004608BF00242C4B0BB72C4C084407A2
:1009600084008313451883172D308000CC0ACA01F8
:1009700003104C0C4A020318ED2C4A08440784006B
:100980008313451883170008CD004A084407F80070
:100990004508FA000318FA0A7808CE007A08CF0052
:1009A0004A084C02FF3E440784008313451883170E
:1009B0000008D0004E08840083134F188317500896
:1009C00080004A084C02FF3E440784008313451808
:1009D00083174D088000CA0AB82C4C0844078400CD
:1009E00083134518831780014408F8004508F9006F
:1009F0000313080080080319162D03179901040832
:100A000098001910831B19140008C0000313D42286
:100A1000031718088400831319188317840A031D09
:100A2000142D0313850A03170313FA2C0800031768
:100A30001508F80114020318202D1408F7002C2DB6
:100A4000F70108309600940DF70D1508770203188A
:100A5000F700F80D960B232D031308004D160130F7
:100A60000317C100C2000313C0220A300317C100DC
:100A700003134021AA3003178D0000308F000313A9
:100A80000E2301300317C1000230C2000313C0223D
:100A90000A300317C10003134021B23003178D0041
:100AA00000308F0003130E234D1E9D2D8316061557
:100AB000831206199C2DB80A0130B80502300317BD
:100AC00090009630C100031340210317900B612D55
:100AD0000630C1000230C2000313C0220317C20156
:100AE000C101C001031338080317BF000A30C30057
:100AF000C5016E30C4000313DA230A300317C100A6
:100B0000031340216E3084008313FA24380803193C
:100B10008D2D013A0319952D9C2DBA3003178D00A8
:100B200000308F0003130E239C2DC33003178D005C
:100B300000308F0003130E23542DCD19282FCD1113
:100B400038080319A72D013A0319642E282FCD1157
:100B5000CD1603179001910192016E30840083132A
:100B60001108840712080313582080000038031965
:100B7000BE2D0317920A910AAD2D031301300317FE
:100B8000C1000230C2000313C0220A300317C100A3
:100B9000031340216F3003178D0000308F000313C3
:100BA0000E23733003178D0000308F0003130E23C4
:100BB00001300317C100C2000313C0227B300317AA
:100BC0008D0000308F0003130E23CD1E632E83167D
:100BD0000615831206190A2E0317900A0330900592
:100BE00010079100C1000130C2000313C0228630FB
:100BF00003178D0000308F0003130E2302300317FC
:100C000091009630C100031340210317910B012E70
:100C1000612E03138316861583128619622E4230C5
:100C20000317100784008313800A42301007F8006E
:100C3000FA010318FA0A780891007A089200423003
:100C4000100784008313000894000A3095000313F2
:100C500017257708031793001108840083131218CF
:100C600083171308800042301007840083130008A4
:100C70009100C201C101C0011108BF000A30C300C8
:100C8000C5016E30C4000313DA23073003171007C1
:100C90009100C1000230C2000313C0220A300317C2
:100CA000C100031340216E3084008313FA24023004
:100CB000031791009630C100031340210317910BD5
:100CC0005A2E0313E52D282F03179001910192014D
:100CD0006E30840083131108840712080313582010
:100CE000800000380319792E0317920A910A682EA2
:100CF0000313CD11CD1601300317C1000230C2001D
:100D00000313C0220A300317C100031340218B30A4
:100D100003178D0000308F0003130E238F3003174D
:100D20008D0000308F0003130E2301300317C10024
:100D3000C2000313C022973003178D0000308F00CC
:100D400003130E23CD1E282F8316061583120619B2
:100D5000CF2E0317900A1008940006309500031355
:100D60001725770803179000033010079100C10082
:100D70000130C2000313C022A33003178D000030DE
:100D80008F0003130E230230031791009630C10029
:100D9000031340210317910BC62E262F031383162E
:100DA000861583128619272F3C30031710078400FD
:100DB0008313800A3C301007F800FA010318FA0A7E
:100DC000780891007A0892003C3010078400831361
:100DD000000894000A3095000313172577080317BD
:100DE00093001108840083131218831713088000DE
:100DF0003C3010078400831300089100C201C10138
:100E0000C0011108BF000A30C300C5016E30C40024
:100E10000313DA230730031710079100C1000230D3
:100E2000C2000313C0220A300317C100031340217C
:100E30006E3084008313FA24023003179100963039
:100E4000C100031340210317910B1F2F0313A22E80
:100E50008A110A16FC2903173F08C3003E08C20086
:100E60004308FA004208840083137A188317800825
:100E700003193E2FC20A0319C30A302F4108FA0092
:100E80004008840083137A188317800803195D2FA4
:100E9000400884008313411883170008C6004208E5
:100EA000840083134318831746088000C20A03197D
:100EB000C30AC00A0319C10A3E2F420884008313E3
:100EC0004318831780013E08F8003F08F900031318
:100ED000080080080319862F0317C0010408BF000B
:100EE0004010831B4014000803130C1E752F99003B
:100EF00003173F088400831340188317840A031DD7
:100F0000842F0313850A03170313692F080003179F
:100F10001708FA001608840083137A18831700084C
:100F20009A001908FA001808840083137A188317A6
:100F300000081A02031DB32F1708FA0016088400D0
:100F400083137A1883178008031DA92F0030F80037
:100F5000CB2F1708FA001608960A0319970A980A61
:100F60000319990A882F1708FA00160884008313BA
:100F70001718831700089A001908FA001808840047
:100F800083131918831700081A020318C92FFF309A
:0A0F9000CA2F0130F8000313080017
:101000004D12CD122A3003179C009D014C309E00DA
:1010100045309F004E30A0004730A1004830A2006C
:101020005430A300A4014330A5004630A600A70118
:101030004930A8004430A9005F30AA004730AB0017
:101040005730AC003130AD003230AE003330AF003D
:101050003430B000B1014930B2004430B3005F30E9
:10106000B4004E30B5004F30B6004430B7004530C4
:10107000B800B9012330BA00BB01013091001C3027
:101080009000013093001E30920001309500253011
:1010900094000130970028309600013099003230DA
:1010A000980001309B003A309A00FA015530BE009A
:1010B0007A08BF003E08840083133F18831780011D
:1010C000BD013D08053C031C8E283C303D078400D3
:1010D00083130008BE00C201C101C0013E08BF0069
:1010E0000A30C300C5016E30C4008A110313DA232D
:1010F0008A1501300317C1008A11031340218A1594
:101100000317BF015530BE00C1016E30C0008A1107
:1011100003132B278A150317BD0A61289701553041
:101120009600FA014E30BE007A08BF003E088400E7
:1011300083133F1883178001BD013D08033C031C46
:10114000CA2842303D07840083130008BE00C20154
:10115000C101C0013E08BF000A30C300C5016E30A6
:10116000C4008A110313DA238A1501300317C10062
:101170008A11031340218A150317BF014E30BE00A8
:10118000C1016E30C0008A1103132B278A15031783
:10119000BD0A9D2899014E30980014300313C600F3
:1011A0000317C201C101C001031346080317BF00A2
:1011B0000A30C300C5016E30C4008A110313DA235C
:1011C0008A15031793016E309200BC013C08053C60
:1011D000031C042903103C0D103E84008317840A6D
:1011E0000008BE0084030008BD00840083133E187D
:1011F00083178A11031369278A1540300C1EFE28B5
:1012000099000317BC0AE6280130C100C2008A1108
:101210000313C0228A150A300317C1008A11031371
:1012200040218A15CB3003178D0000308F008A11C2
:1012300003130E238A1501300317C1000230C200C8
:101240008A110313C0228A150A300317C1008A11BC
:10125000031340218A15D63003178D0000308F000C
:101260008A1103130E238A15CD118A110A16032A37
:10127000031718081904031941291908FA00180856
:10128000462903132C08FA002B0803179C007A0840
:101290009D001D08A1001C08A0001B08A3001A083F
:1012A000A2002108A5002008A4002508FA002408AF
:1012B000840083137A18831780080319962923085A
:1012C000A7002208A6002708FA0026088400831336
:1012D0007A1883178008031D7A2920082402F70052
:1012E0002508FA002108031C210FFA027708F800EC
:1012F000A1298E292508FA002408840083137A186E
:1013000083170008A8002708FA0026088400831322
:101310007A1883170008280203199229A60A0319CC
:10132000A70A6329A40A0319A50A5529200824023B
:10133000F7002508FA002108031C210FFA0277089C
:10134000F80078089C0703189D0A1D08FA001C087D
:10135000840083137A1883178008031DBC290313A4
:101360002B08840083132C18831720308000003052
:10137000F800F900282A03171D08A1001C08A00086
:101380001B08A3001A08A2002108A5002008A40039
:101390002508FA002408840083137A18831780082C
:1013A0000319012A2308A7002208A6002708FA002B
:1013B0002608840083137A18831780080319FD29EF
:1013C0002508FA002408840083137A18831700087C
:1013D000A8002708FA002608840083137A188317C8
:1013E00000082802031DF9292408F8002508F9003F
:1013F000042AA60A0319A70AD629A40A0319A50ACA
:10140000C8290030F800F90079089F0078089E008C
:101410001F08FA001E08840083137A1883178008B7
:1014200003191B2A1E08840083131F1883178001C9
:101430009E0A03199F0A1F080313AC0003171E0816
:101440000313AB0003171C08F8001D08F900031371
:10145000080003179D019B010A309C009A0118089F
:101460001904031D362A0030F800292B1D089D0A97
:101470001807840083131918831700089E001E089C
:101480002D3C031D4F2A01309B001D089D0A1807A3
:10149000840083131918831700089E005C2A1E0815
:1014A0002B3C031D5C2A1D089D0A1807840083132A
:1014B0001918831700089E001E082F3C03181F2BC5
:1014C0001E08393C031C1F2B1E08303C031D882AB4
:1014D0001D08180784008313191883170008783C27
:1014E00003197C2A1D081807840083131918831711
:1014F0000008583C031D882A10309C009D0A1D08D6
:101500009D0A1807840083131918831700089E008A
:101510001C080A3C031DCD2A1E082F3C0318CC2AA8
:101520001E08393C031CCC2A0A309F001A08A00070
:10153000F701F8011F0803102018F707F70CF80C43
:10154000A018F707F70CF80C2019F707F70CF80CA0
:10155000A019F707F70CF80C201AF707F70CF80C8E
:10156000A01AF707F70CF80C201BF707F70CF80C7C
:10157000A01BF707F70CF80C78089F0030301E020C
:101580001F079A001D089D0A180784008313191865
:10159000831700089E008C2A1F2B1C08103C031D7B
:1015A0001F2B1E08603C0318DC2A1E087A3C031C13
:1015B000DC2A1E08DF39DD2A1E089E001E082F3C8B
:1015C0000318E62A1E08393C0318EE2A1E08403C80
:1015D00003181F2B1E08463C031C1F2B1E082F3C04
:1015E0000318FF2A1E08393C031CFF2A1A0E9F000D
:1015F000F0309F0530301E021F079A00082B1A0E8C
:101600009F00F0309F0541301E020A3E1F079A00DE
:101610001D089D0A180784008313191883170008F2
:101620009E001E08603C03181C2B1E087A3C031CFD
:101630001C2B1E08DF391D2B1E089E00DE2A1B0BEB
:10164000272B1C080A3C031D272B9A099A0A1A0803
:10165000F800031308002A3003179000FA015E30E7
:10166000840083137A1883178001FA01653084009F
:1016700083137A188317800196019701D230840072
:1016800083131608840717088A1103136A208A1522
:10169000800000380319512B0317970A960A3E2B36
:1016A000031303179701A03096001008980017083D
:1016B000FA001608840083137A18831718080002AA
:1016C0000319742B1708FA001608840083137A187C
:1016D00083178008031D702B0030F800F900782B69
:1016E000960A0319970A572B1608F8001708F900ED
:1016F0007908920078089100120897001108960066
:1017000017089900160898001908FA0018088400AC
:1017100083137A18831780080319922B980A0319E8
:10172000990A842B16081802F7001908FA001708FE
:10173000031C170FFA027708F800780893000313C8
:10174000BA010317960197016E30840083131608BF
:10175000840717088A11031364208A158000003853
:101760000319B72B0317970A960AA42B0313031721
:101770009901A03098009B016E309A000313382124
:10178000790803179500780894009408031DCB2B63
:10179000950803191E2C03133A08FA3E03180D2C62
:1017A000063E662D0D2C0317BF016530BE001508DF
:1017B000C1001408C0008A1103132B278A150D2CB1
:1017C0000317BF015E30BE001508C1001408C00039
:1017D0008A1103132B278A150D2C0317150899005E
:1017E00014089800031329227808C7000D2C03174A
:1017F0001508990014089800031329227808C800D6
:101800000D2C0317BF01D230BE001508C10014080B
:10181000C0008A1103132B278A1503179901980119
:101820009B016E309A000313382179080317950045
:10183000780894000313BA0A0317C52B9701653083
:1018400096009901553098008A11031387278A154D
:101850007808CC00031797015E30960099014E304E
:1018600098008A11031387278A157808CB00CC08C3
:10187000031D5C2DCB08031D5C2D480803171302C4
:101880000319442C03135C2D0313470803194F2C31
:10189000013A0319502C033A03192B2D5B2D5B2DB4
:1018A000BA0101300317C100C2008A110313C0221C
:1018B0008A150A300317C1008A11031340218A15C3
:1018C0000317980199016E30840083131808840768
:1018D00019088A1103135E208A1580000038031945
:1018E000762C0317990A980A632C0313031799019E
:1018F000D23098009B016E309A000313382179088A
:1019000003179700780896009608031D8A2C9708FD
:101910000319D32C03133A080319952C013A031920
:10192000AF2C033A0319B92CC22C01300317C100A4
:101930008A11031340218A150317160884008313A4
:10194000171883178A110313FA248A15E130031735
:101950008D0000308F008A1103130E238A150317A0
:101960001708990016089800031329227808C9005F
:10197000C22C031717089900160898000313292290
:101980007808CA000317990198019B016E309A00EC
:10199000031338217908031797007808960003137A
:1019A000BA0A0317842C0130C1008A1103134021A5
:1019B0008A1501300317C1000230C2008A110313D7
:1019C000C0228A150A300317C1008A11031340216F
:1019D0008A15E83003178D0000308F008A11031339
:1019E0000E238A150317C201C101C0010313490860
:1019F0000317BF000A30C300C5016E30C4008A114E
:101A00000313DA238A156E30840083138A11FA24B3
:101A10008A15EB3003178D0000308F008A110313F5
:101A20000E238A150317C201C101C00103134A081E
:101A30000317BF000A30C300C5016E30C4008A110D
:101A40000313DA238A156E30840083138A11FA2473
:101A50008A154D175B2DBB0103179901D2309800F1
:101A6000031329227808BB003B080317960097014F
:101A70001708073C031C522D961B422D0313881098
:101A8000442D03170313881483168810081083123B
:101A90000810831608108312081403100317960DFC
:101AA000970A382D83160313081183120811831621
:101AB000081183120815632D0A300317C1008A111B
:101AC000031340218A158A110A160E2A0A148A1055
:101AD0000A158207D22BD32BE02BED2BF72B012CF1
:101AE0000317900103134A08031710020318192F54
:101AF00034301007F800FA010318FA0A7808910048
:101B00007A0892001008930001309400023095008A
:101B1000043096000830970010309800203099006B
:101B200040309A00143013078400831700089C008B
:101B30009D009E019F01A001893084008317C03061
:101B400080051F0880049F3084008313CF308005F8
:101B50001E0880048830840083171D08800003302D
:101B6000C1008A11031340218A150317130DF700D2
:101B7000F70DFC30F70503131F08C33977049F00E6
:101B800003300317C1008A11031340218A15B301E2
:101B9000B20103179B011B08633C031CE52D0313D3
:101BA0009F149F18D12D83161E088312B2071E089A
:101BB00003181E0FB30701300317C1008A11031366
:101BC00040218A1503179B0ACB2D031333080317F3
:101BD0009D000313320803179C008E30F7001D0888
:101BE000F8001C08F900FA01F808031D012E790815
:101BF000F800F9010830F702F808031D012EF7017B
:101C0000092E0310F81B082EF90DF80DF703012E0D
:101C1000F8137A089F0079089E0078089D007708DD
:101C20009C009A30A3009930A2004C30A10086306D
:101C3000A0001C080319DE2EA80020080319DE2EC0
:101C4000A802031C282E7F30A8070318DE2E2E2E94
:101C50008130A802031CDE2E0319DE2E2808F700AF
:101C6000F801F901FA01A7011D08A600A6171E0830
:101C7000A5001F08A4001930A8002308A402031817
:101C8000512E0130A5020318512EA6020318512E21
:101C9000A7020318512EA70AA60AA50A2308A4071B
:101CA000832E2208A50203186C2E0130A602031809
:101CB0006C2EA70203186C2EA70AA60A2208A507F5
:101CC0002308A407031C832EA50A031D832EA60A3E
:101CD000031D832EA70A832E21088038A60203182D
:101CE000822E0130A7020318822EA70A210880380D
:101CF000A6072208A507031C602EA60A031D602E56
:101D0000A70A602E7A14A80B862E912E0310A40D1C
:101D1000A50DA60DA70D0310FA0DF90DF80DA90DCF
:101D20003D2E291C992E0310F80CF90CFA0CA90C65
:101D30009C2EF7030319DE2EA91BC52E0310A40D3C
:101D4000A50DA60DA70D2308A4020318B12E01307E
:101D5000A5020318B12EA6020318B12EA702031C78
:101D6000D42E2208A5020318BC2E0130A6020318A7
:101D7000BC2EA702031CD42E21088038A60203180B
:101D8000C52E0130A702031CD42EFA0A031DD42E3F
:101D9000F90A031DD42EF80A031DD42EF70A0319DD
:101DA000DE2EF80CF90CFA0C1D08A8002108A80674
:101DB000A81FDC2EF817E22EF813E22EF701F80127
:101DC000F901FA017A089F0079089E0078089D00C1
:101DD00077089C008E30F7001C08F7021D08F900F8
:101DE0001E08F800F917F7080319012F0310F90866
:101DF000031DFD2EF8080319012FF90CF80CF70B41
:101E0000F62E9D1F082FF809F909F80A0319F90A97
:101E100079080313B3007808B2003208F8000317FA
:101E20001108840083131218831778088000900A21
:0A1E3000722D03138A110A16222AEC
:1020000083168811083083128806493003179E0012
:1020100044309F004730A0005730A1003130A2006B
:102020003230A300A4014E30A5004F30A60044304A
:10203000A7004530A800A9015A30AA00AB00AC01A6
:102040004130AD00AE00AF015630B000B100B2017A
:102050004330B300B400B5015330B600B700B80147
:10206000013091001E309000013093002530920025
:10207000013095002A309400013097002D309600F1
:10208000013099003030980001309B0033309A00C5
:1020900001309D0036309C00910155309000930135
:1020A0004E3092001430B900BA0103134A080317E6
:1020B0003A020318842834303A0784008313000856
:1020C000BB0002303A07F7000310F70D7708103E07
:1020D00084008317840A0008BD0084030008BC0044
:1020E000C201C101C0013B08BF000A30C3003D0866
:1020F000C5003C08C4000A120313DA230A16033091
:102100000317B907BA0A5528C201C101C00139082D
:10211000BF000A30C300C5017530C4000A120313A2
:10212000DA230A162A300C1E9328990040300C1E20
:10213000972899007530840083130A1269270A16BC
:102140003D3003178D0001308F0003130B08031778
:10215000BB0003138B13831603178C170C1400009A
:1021600000008312BB1FB72803138B1703170C083B
:102170007F390319F428BB000D08BC000F08BD000F
:102180003B0803130C1EC228990003173C088D005E
:102190003D088F0003130B080317BE0003138B13B6
:1021A000831603178C170C14000000008312BE1F47
:1021B000DC2803138B1703170C0D0E0D7F39031941
:1021C000F428BB000D08BC000F08BD003B0803133A
:1021D0000C1EE828990003173C088D003D088F006D
:1021E0008D0A03198F0AA528BA01023003134A0782
:1021F00003173A020318162903103A0D103E840003
:102200008317840A0008BC0084030008BB00840014
:1022100083133C1883170A12031369270A164030E8
:102220000C1E102999000317BA0AF528233003134E
:102230000C1E18299900831688110830831288060D
:102240008A110A16282A03081F39830083160317E8
:10225000871508300313990002309A00A6309800C1
:10226000903083129800FF30B100B801B901BA0173
:10227000BB01C601C701C801C9010330CA00CB01B7
:10228000CC014D10CD104D11CD114D12CD124D136D
:10229000831603170908C039890003131F129F1200
:1022A0000030031788008312870188018901831396
:1022B0000313AB01AC01B401B501B601B7010330A2
:1022C000BC000830BD000630BE000930BF00C001B0
:1022D0000730C1000130C2000830C3000130C40023
:1022E000C5013030D0003530D1003830D20039301F
:1022F000D300D401CF015030CE003130D70032307E
:10230000D8003730D9003130DA003030DB003230DD
:10231000DC00DD01D6015730D5003030E000E100AF
:10232000E200E300E401DF016030DE003030E7006E
:10233000E800E900EA00EB00EC00ED01E60167309F
:10234000E50048308316A0004930A1004830A200C3
:102350004930A300A4014830D2004930D3004830AE
:10236000D4004930D500D6013030F000F100F20041
:10237000F300F4018312EF017030EE003230831667
:10238000EB003730EC003030ED00EE00EF01F601ED
:10239000EB30F50000308800FF308600091089100E
:1023A00009118911803087008312B1001F179F1314
:1023B00083169F1783121F148B160B160B1683168A
:1023C00001138C16C03083128B04353090008E01BF
:1023D0000B308F00DC308E000C100A125A2A0A16BD
:1023E000CD10CD114D1583168801831288014D1033
:1023F000CD1CFE290A122E2D0A16292ACD1D062AC9
:102400000A128A1500280A168A11292ACD18292AA3
:102410004D1C102A4D100A128A152B2B0A168A11F0
:102420004D1F282A083003179000FA30C1000A1205
:10243000031340210A160317900B152A0A128A1556
:102440000313702D0A168A1134081C3C031C002843
:06245000062AF8296300D2
:04400E00E22FFF3F5F
:00000001FF
;PIC16F887
;CRC=ED02  CREATED="06-Nov-21 23:27"
