:1000000011308A0027290000FF00030E8301A100A0
:100010000A08A0008A010408A2007708A300780853
:10002000A4007908A5007A08A60003170D08031399
:10003000A70003170F080313A80003170C080313E6
:10004000A90003170E080313AA00831383120B1EC3
:100050002B288B1852288C308400801E31288C1A53
:100060005528220884002308F7002408F8002508F2
:10007000F9002608FA00270803178D000313280843
:1000800003178F000313290803178C0003132A0892
:1000900003178E00031320088A00210E8300FF0E31
:1000A0007F0E09008A110A12EF288A110A123229DA
:1000B0000A108A100A118207303400340A108A109C
:1000C0000A1182075F3400340A108A100A1182076D
:1000D000233400340A108A100A1182070034CE2714
:1000E000C4223A10000030183018201020102010C0
:1000F0002010201000012010201020105F10201070
:10010000201020102010201020102000201020107F
:100110005F10201020004922DF23571D00013018F6
:10012000301830182010201020102010000120104E
:10013000201020105F102010201020102010201000
:10014000201020102000201020105F102010201000
:1001500020102000C3274E23C9233A10201020105E
:1001600020102000C320D3223A102010201020108D
:1001700020102000A016A024C416CE27C4222010D0
:10018000201020100001A016A024C416C72B201098
:10019000201020102000D720492A492747102E1769
:1001A0002E1720102010201020100001D720492ADF
:1001B000492747102E172E1720102010201020102E
:1001C000000020102010201020102010201000010E
:1001D00054213A1000012010201043213A00031747
:1001E000E601831603138614831286180C290C1C4F
:1001F00009293112310883168700103083128706CF
:100200000C108E010B308F00DC308E000317E60AD5
:1002100003130317F128031303176608143C03188C
:100220001A2902300313CE060430CE06CE154E1224
:100230002E2903176608013C031828296608133C79
:10024000031C28290313CE114E12CE122E29031798
:100250000313CE1783168811831288158B108A1109
:100260000A123128A0303907840083138C1E3629E6
:100270001A088000A03039078400831300082E3C40
:10028000031D4A29A0303907840083138001B90176
:100290004E144B29B90A8C128A110A123128C0292E
:1002A00053200000D32B3A10000043308400831702
:1002B0000008031968290630F800F701F70B5E29DA
:1002C000F80B5D297B30F700F70B6429800B5B2965
:1002D000080003174A18702903130710722903171F
:1002E0000313071431103108831687008312031794
:1002F000CA187E2903138710802903170313871454
:10030000B110310883168700831203174A198C290C
:10031000031307118E290317031307153111310831
:100320008316870083120317CA199A2903138711AA
:100330009C29031703138715B11131088316870011
:10034000000083120914831609100230F700F70B1E
:10035000A729AA2900008312091083160910831205
:1003600008000317CB0103133114310883168700EB
:1003700000308312071801300317CB040313B114A4
:100380003108831687000030831287180130F70088
:100390000310F70D77080317CB0403133115310849
:1003A000831687000030831207190130F700F70D1C
:1003B000F70DFC30F70577080317CB040313B115CD
:1003C0003108831687000030831287190130F70047
:1003D000F70DF70DF70DF830F70577080317CB0485
:1003E0004B08F8000313080083160910891009113F
:1003F000831289108316891007148714071587152F
:10040000831209158316091100008312091483163B
:10041000091000008312B12178080317CA000313E2
:10042000091083160910000083120914831609109D
:10043000192A1A2A00008312B12178080317C9006B
:100440000313091083160910831231103108831623
:1004500087008312B110310883168700831231118F
:100460003108831687008312B11131088316870083
:10047000831203174A0EF700F030F7057708490496
:10048000F8007808C900C91F482A83160313FC29FD
:10049000C708031D4F2A03138910512A031703139A
:1004A000891483168910000083120911831609111B
:1004B0000000831209108316091083120317480ED7
:1004C000C9000F30C9054908CA0003136921031781
:1004D00048080F39C900CA000313692108002830F1
:1004E000031793000C3094000130950006309600FD
:1004F00003130910831609108312891083168910BB
:1005000083120911831609118312311031088316E1
:1005100087008312B11031088316870083123111CE
:100520003108831687008312B111310883168700C2
:100530000910891009110F3083120317C300031328
:1005400055210130031792001208033C031CB42A02
:100550000330CA000313692105300317C3000313D6
:1005600055210317920AA42A0230CA0003136921F5
:1005700005300317C3000313552103179201120816
:10058000033C031CD12A1330120784008317000890
:100590009700C7011708C8000313F4210317920A34
:1005A000BF2A03138A110A16F529031714080739FD
:1005B000F700140CF800F80CF80C1F30F805780858
:1005C00016078400831317188317F801F80AF70A2F
:1005D000EA2AF80DF70BE92A95080319F22A780898
:1005E0008004F52AF809780880050313080003172A
:1005F00014080739F700140CF800F80CF80C1F3039
:10060000F805780815078400831316188317000867
:10061000F800F70A0C2BF80CF70B0B2B0313080050
:100620000317440B142B172B4030C500182BC501A2
:1006300001304302C50745088038C600C701460897
:10064000C8000313F421080003174208073A0313F4
:100650000319342B0B3A03193B2B063A0319472B8A
:10066000023A03194F2B562B01300317C300C40065
:10067000031310235D2B0317C7010130C8000313B8
:10068000F42102300317C300031355215D2B013001
:100690000317C3000230C400031310235D2B03179C
:1006A000C7011030C8000313F4215D2B013003177C
:1006B000C7004208C8000313F42108000B08031701
:1006C000BF0003138B13831603178C170C14000041
:1006D00000008312BF1F6F2B03138B1703170C0827
:1006E0007F390319AC2BBF000D08C0000F08C100F3
:1006F0003F08C20003132423031740088D0041085C
:100700008F0003130B080317C20003138B13831608
:1007100003178C170C14000000008312C21F932BC8
:1007200003138B1703170C0D0E0D7F390319AC2B18
:10073000BF000D08C0000F08C1003F08C20003132E
:100740002423031740088D0041088F008D0A0319E8
:100750008F0A03135E2B0317031308008318B32BB0
:1007600060308400831703175B085F068039E5005B
:10077000DB1FC52BD809D909DA09DB09D80A031907
:10078000D90A0319DA0A0319DB0ADF1FD22BDC09A5
:10079000DD09DE09DF09DC0A0319DD0A0319DE0AB7
:1007A0000319DF0AF701F801F901FA01E001E1019B
:1007B000E201E3015F085E045D045C040319102C90
:1007C0002030E4000310D80DD90DDA0DDB0DE00D5B
:1007D000E10DE20DE30D5F086302031DF92B5E08D6
:1007E0006202031DF92B5D086102031DF92B5C08F1
:1007F0006002031C0A2C5C08E0025D08031C5D0F0C
:10080000E1025E08031C5E0FE2025F08031C5F0F3B
:10081000E3020314F70DF80DF90DFA0DE40BE22BCA
:10082000E51F1D2CF709F809F909FA09F70A031958
:10083000F80A0319F90A0319FA0A60088000840A01
:1008400061088000840A62088000840A63088000CE
:10085000031308000317CB01CA01C9010130C80006
:10086000CD01CE01C41F742C0130CD004408D3004B
:100870004308D2004208D1004108D000FF30D70021
:10088000D600D500D4002030DC00D801D901DA012F
:10089000DB015308FA005208F9005108F80050082B
:1008A000F7000310771C622C5408D807550803186A
:1008B000550FD90756080318560FDA0757080318BB
:1008C000570FDB07DB0CDA0CD90CD80CFA0CF90C3F
:1008D000F80CF70CDC0B512C7A08C4007908C30023
:1008E0007808C2007708C100C808031D802CC90819
:1008F000031D802CCA08031D802CCB080319FC2C77
:1009000083104408DB004308DA004208D90041089C
:10091000D800DF01DE01DD014508DC000313AE2352
:100920007A080317CB007908CA007808C90077084D
:10093000C8004E084607F8004708FA000318FA0AEC
:100940007808D0007A08D100D3010408D2005310EF
:10095000831B531483145430840083174408DB0032
:100960004308DA004208D9004108D800DF01DE015F
:10097000DD014508DC000313AE2303175208840091
:1009800083135318831730305407F7005508F800C5
:10099000003003180130F8075608F900003003183A
:1009A0000130F9075708FA00003003180130FA0740
:1009B00050088400831351188317770880004E086D
:1009C000460784008313471883170008393C03182F
:1009D000F22C4E084607840083134718831707300C
:1009E00000078000CE0A4B08C4004A08C30049082B
:1009F000C2004808C100742C4D0B072D4E08460755
:100A000084008313471883172D308000CE0ACC0151
:100A100003104E0C4C0203183D2D4C084607840071
:100A20008313471883170008CF004C084607F800C7
:100A30004708FA000318FA0A7808D0007A08D100AB
:100A40004C084E02FF3E4607840083134718831765
:100A50000008D200500884008313511883175208ED
:100A600080004C084E02FF3E46078400831347185F
:100A700083174F088000CC0A082D4E0846078400D3
:100A800083134718831780014608F8004708F900C8
:100A90000313080080080319662D03179B0104083F
:100AA0009A001B10831B1B140008C200031324238D
:100AB00003171A08840083131B188317840A031D65
:100AC000642D0313850A031703134A2D0800031727
:100AD0001708F80116020318702D1608F7007C2D70
:100AE000F70108309800960DF70D170877020318E4
:100AF000F700F80D980B732D031308004E16013004
:100B00000317C300C400031310230A300317C300E4
:100B100003135521AA3003178D0000308F000313F3
:100B20005E2301300317C3000230C40003131023F7
:100B30000A300317C30003135521B23003178D0089
:100B400000308F0003135E234E1EED2D8316061515
:100B500083120619EC2DB80A0130B80502300317CC
:100B600092009630C300031355210317920BB12D49
:100B70000630C3000230C400031310230317C4015E
:100B8000C301C201031338080317C1000A30C500AE
:100B9000C7016F30C60003132A240A300317C300AD
:100BA000031355216F30840083134A253808031935
:100BB000DD2D013A0319E52DEC2DBA3003178D0018
:100BC00000308F0003135E23EC2DC33003178D001C
:100BD00000308F0003135E23A42DCE19782FCE1181
:100BE00038080319F72D013A0319B42E782FCE11C6
:100BF000CE1603179201930194016F308400831382
:100C000013088407140803135820800000380319C0
:100C10000E2E0317940A930AFD2D031301300317B8
:100C2000C3000230C400031310230A300317C300AB
:100C3000031355216F3003178D0000308F0003130D
:100C40005E23733003178D0000308F0003135E2383
:100C500001300317C300C400031310237B300317B4
:100C60008D0000308F0003135E23CE1EB32E83163B
:100C70000615831206195A2E0317920A033092059D
:100C800012079300C3000130C40003131023863001
:100C900003178D0000308F0003135E23023003170B
:100CA00093009630C300031355210317930B512E65
:100CB000B12E03138316861583128619B22E423085
:100CC0000317120784008313800A42301207F800CA
:100CD000FA010318FA0A780893007A08940042305F
:100CE000120784008313000896000A30970003134C
:100CF00067257708031795001308840083131418D9
:100D000083171508800042301207840083130008FF
:100D10009300C401C301C2011308C1000A30C50019
:100D2000C7016F30C60003132A24073003171207C8
:100D30009300C3000230C400031310230A300317CA
:100D4000C300031355216F30840083134A250230FA
:100D5000031793009630C300031355210317930B19
:100D6000AA2E0313352E782F0317920193019401B5
:100D70006F3084008313130884071408031358206A
:100D8000800000380319C92E0317940A930AB82E5D
:100D90000313CE11CE1601300317C3000230C40076
:100DA000031310230A300317C300031355218B309C
:100DB00003178D0000308F0003135E238F3003175D
:100DC0008D0000308F0003135E2301300317C30032
:100DD000C40003131023973003178D0000308F00D9
:100DE00003135E23CE1E782F831606158312061971
:100DF0001F2F0317920A120896000630970003135C
:100E00006725770803179200033012079300C30089
:100E10000130C40003131023A33003178D000030EA
:100E20008F0003135E230230031793009630C30034
:100E3000031355210317930B162F762F03138316D5
:100E4000861583128619772F3C300317120784000A
:100E50008313800A3C301207F800FA010318FA0ADB
:100E6000780893007A0894003C30120784008313BA
:100E7000000896000A3097000313672577080317C8
:100E80009500130884008313141883171508800035
:100E90003C3012078400831300089300C401C3018F
:100EA000C2011308C1000A30C500C7016F30C60077
:100EB00003132A240730031712079300C3000230DC
:100EC000C400031310230A300317C3000313552172
:100ED0006F30840083134A25023003179300963045
:100EE000C300031355210317930B6F2F0313F22E27
:100EF0008A110A16632A03174108C5004008C40076
:100F00004508FA004408840083137A188317800880
:100F100003198E2FC40A0319C50A802F4308FA004B
:100F20004208840083137A18831780080319AD2FB1
:100F3000420884008313431883170008C80044083C
:100F4000840083134518831748088000C40A0319D6
:100F5000C50AC20A0319C30A8E2F440884008313EA
:100F60004518831780014008F8004108F900031371
:100F7000080080080319D62F0317C2010408C10016
:100F80004210831B4214000803130C1EC52F990046
:100F9000031741088400831342188317840A031D32
:0E0FA000D42F0313850A03170313B92F08007B
:101000004E12CE122A3003179E009F014C30A000D2
:101010004530A1004E30A2004730A3004830A40064
:101020005430A500A6014330A7004630A800A9010E
:101030004930AA004430AB005F30AC004730AD000F
:101040005730AE003130AF003230B0003330B10035
:101050003430B200B3014930B4004430B5005F30E1
:10106000B6004E30B7004F30B8004430B9004530BC
:10107000BA00BB012330BC00BD01013093001E301B
:101080009200013095002030940001309700273005
:101090009600013099002A30980001309B003430CE
:1010A0009A0001309D003C309C00FA015630C0008F
:1010B0007A08C10040088400831341188317800117
:1010C000BF013F08053C031C8E283C303F078400CD
:1010D00083130008C000C401C301C2014008C1005D
:1010E0000A30C500C7016F30C6008A1103132A24D5
:1010F0008A1501300317C3008A11031355218A157D
:101100000317C1015630C000C3016F30C2008A11FD
:1011100003137B278A150317BF0A612899015630EC
:101120009800FA014F30C0007A08C10040088400DE
:101130008313411883178001BF013F08033C031C40
:10114000CA2842303F07840083130008C000C4014E
:10115000C301C2014008C1000A30C500C7016F3099
:10116000C6008A1103132A248A1501300317C3000D
:101170008A11031355218A150317C1014F30C0008E
:10118000C3016F30C2008A1103137B278A1503172E
:10119000BF0A9D289B014F309A0014300313C600EC
:1011A0000317C401C301C201031346080317C1009A
:1011B0000A30C500C7016F30C6008A1103132A2404
:1011C0008A15031795016F309400BE013E08053C57
:1011D000031C042903103E0D123E84008317840A69
:1011E0000008C00084030008BF0084008313401877
:1011F00083178A110313B9278A1540300C1EFE2865
:1012000099000317BE0AE6280130C300C4008A1102
:10121000031310238A150A300317C3008A1103131E
:1012200055218A15CB3003178D0000308F008A11AD
:1012300003135E238A1501300317C3000230C40074
:101240008A11031310238A150A300317C3008A1169
:10125000031355218A15D63003178D0000308F00F7
:101260008A1103135E238A15CE118A110A166A2A7F
:1012700003171A081B04031941291B08FA001A084E
:10128000462903132C08FA002B0803179E007A083E
:101290009F001F08A3001E08A2001D08A5001C082F
:1012A000A4002308A7002208A6002708FA002608A1
:1012B000840083137A188317800803199629250858
:1012C000A9002408A8002908FA002808840083132C
:1012D0007A1883178008031D7A2922082602F7004E
:1012E0002708FA002308031C230FFA027708F800E6
:1012F000A1298E292708FA002608840083137A186A
:1013000083170008AA002908FA002808840083131C
:101310007A18831700082A0203199229A80A0319C8
:10132000A90A6329A60A0319A70A55292208260231
:10133000F7002708FA002308031C230FFA02770896
:10134000F80078089E0703189F0A1F08FA001E0875
:10135000840083137A1883178008031DBC290313A4
:101360002B08840083132C18831720308000003052
:10137000F800F900282A03171F08A3001E08A2007E
:101380001D08A5001C08A4002308A7002208A60029
:101390002708FA002608840083137A188317800828
:1013A0000319012A2508A9002408A8002908FA0021
:1013B0002808840083137A18831780080319FD29ED
:1013C0002708FA002608840083137A188317000878
:1013D000AA002908FA002808840083137A188317C2
:1013E00000082A02031DF9292608F8002708F90039
:1013F000042AA80A0319A90AD629A60A0319A70AC2
:10140000C8290030F800F9007908A1007808A00088
:101410002108FA002008840083137A1883178008B3
:1014200003191B2A200884008313211883178001C5
:10143000A00A0319A10A21080313AC00031720080E
:101440000313AB0003171E08F8001F08F90003136D
:10145000080003179F019D010A309E009C011A0895
:101460001B04031D362A0030F800292B1F089F0A91
:101470001A07840083131B1883170008A000200894
:101480002D3C031D4F2A01309D001F089F0A1A079B
:10149000840083131B1883170008A0005C2A20080F
:1014A0002B3C031D5C2A1F089F0A1A078400831324
:1014B0001B1883170008A00020082F3C03181F2BBF
:1014C0002008393C031C1F2B2008303C031D882AB0
:1014D0001F081A07840083131B1883170008783C21
:1014E00003197C2A1F081A07840083131B1883170B
:1014F0000008583C031D882A10309E009F0A1F08D0
:101500009F0A1A07840083131B1883170008A00082
:101510001E080A3C031DCD2A20082F3C0318CC2AA4
:101520002008393C031CCC2A0A30A1001C08A20068
:10153000F701F801210803102218F707F70CF80C3F
:10154000A218F707F70CF80C2219F707F70CF80C9C
:10155000A219F707F70CF80C221AF707F70CF80C8A
:10156000A21AF707F70CF80C221BF707F70CF80C78
:10157000A21BF707F70CF80C7808A1003030200206
:1015800021079C001F089F0A1A07840083131B1859
:1015900083170008A0008C2A1F2B1E08103C031D77
:1015A0001F2B2008603C0318DC2A20087A3C031C0F
:1015B000DC2A2008DF39DD2A2008A00020082F3C83
:1015C0000318E62A2008393C0318EE2A2008403C7C
:1015D00003181F2B2008463C031C1F2B20082F3C00
:1015E0000318FF2A2008393C031CFF2A1C0EA10007
:1015F000F030A1053030200221079C00082B1C0E82
:10160000A100F030A105413020020A3E21079C00D4
:101610001F089F0A1A07840083131B1883170008EA
:10162000A0002008603C03181C2B20087A3C031CF7
:101630001C2B2008DF391D2B2008A000DE2A1D0BE3
:10164000272B1E080A3C031D272B9C099C0A1C08FB
:10165000F8000313080003171908FA00180884009B
:1016600083137A18831700089C001B08FA001A08D5
:10167000840083137A18831700081C02031D572B5C
:101680001908FA001808840083137A188317800851
:10169000031D4D2B0030F8006F2B1908FA001808B5
:1016A000980A0319990A9A0A03199B0A2C2B1908FC
:1016B000FA001808840083131918831700089C0087
:1016C0001B08FA001A08840083131B1883170008EC
:1016D0001C0203186D2BFF306E2B0130F800031332
:1016E00008002A3003179200FA015F308400831348
:1016F0007A1883178001FA016630840083137A1800
:101700008317800198019901D2308400831318084F
:10171000840719088A1103136A208A15800000388B
:101720000319972B0317990A980A842B031303179D
:101730009901A030980012089A001908FA001808B8
:10174000840083137A1883171A0800020319BA2B2E
:101750001908FA001808840083137A188317800880
:10176000031DB62B0030F800F900BE2B980A0319B0
:10177000990A9D2B1808F8001908F90079089400B7
:1017800078089300140899001308980019089B0022
:1017900018089A001B08FA001A08840083137A18A4
:1017A000831780080319D82B9A0A03199B0ACA2B9E
:1017B00018081A02F7001B08FA001908031C190F71
:1017C000FA027708F800780895000313BA010317A6
:1017D000980199016F308400831318088407190851
:1017E0008A11031364208A15800000380319FD2B29
:1017F0000317990A980AEA2B031303179B01A030D9
:101800009A009D016F309C0003133821790803175B
:101810009700780896009608031D112C9708031965
:10182000642C03133A08FA3E0318532C063EA82DE5
:10183000532C0317C1016630C0001708C3001608F7
:10184000C2008A1103137B278A15532C0317C10189
:101850005F30C0001708C3001608C2008A110313C6
:101860007B278A15532C031717089B0016089A002C
:10187000031329227808C700532C031717089B006D
:1018800016089A00031329227808C800532C03175E
:10189000C101D230C0001708C3001608C2008A1167
:1018A00003137B278A1503179B019A019D016F3053
:1018B0009C000313382179080317970078089600D5
:1018C0000313BA0A03170B2C9901663098009B0189
:1018D00056309A0003132B237808CC000317990184
:1018E0005F3098009B014F309A0003132B23780838
:1018F000CB00CC08031D9E2DCB08031D9E2D480850
:10190000031715020319862C03139E2D0313470892
:101910000319912C013A0319922C033A03196D2DE6
:101920009D2D9D2DBA0101300317C300C4008A11FB
:10193000031310238A150A300317C3008A110313F7
:1019400055218A1503179A019B016F308400831378
:101950001A0884071B088A1103135E208A15800069
:1019600000380319B82C03179B0A9A0AA52C0313F5
:1019700003179B01D2309A009D016F309C00031326
:101980003821790803179900780898009808031DF2
:10199000CC2C99080319152D03133A080319D72CD9
:1019A000013A0319F12C033A0319FB2C042D0130E1
:1019B0000317C3008A11031355218A15031718084A
:1019C00084008313191883178A1103134A258A1573
:1019D000E13003178D0000308F008A1103135E235E
:1019E0008A15031719089B0018089A000313292267
:1019F0007808C900042D031719089B0018089A00DD
:101A0000031329227808CA0003179B019A019D013C
:101A10006F309C0003133821790803179900780868
:101A200098000313BA0A0317C62C0130C3008A11A9
:101A3000031355218A1501300317C3000230C40077
:101A40008A11031310238A150A300317C3008A1161
:101A5000031355218A15E83003178D0000308F00DD
:101A60008A1103135E238A150317C401C301C2013F
:101A7000031349080317C1000A30C500C7016F30BE
:101A8000C6008A1103132A248A156F308400831339
:101A90008A114A258A15EB3003178D0000308F001C
:101AA0008A1103135E238A150317C401C301C201FF
:101AB00003134A080317C1000A30C500C7016F307D
:101AC000C6008A1103132A248A156F3084008313F9
:101AD0008A114A258A154E179D2DBB0103179B01BC
:101AE000D2309A00031329227808BB003B08031761
:101AF000980099011908073C031C942D981B842D0C
:101B000003138810862D0317031388148316881077
:101B1000081083120810831608108312081403108B
:101B20000317980D990A7A2D83160313081183124F
:101B300008118316081183120815A52D0A30031702
:101B4000C3008A11031355218A158A110A16752AB2
:101B50000A148A100A158207182C192C262C332CEB
:101B60003D2C472C0317920103134A080317120256
:101B700003185B2F34301207F800FA010318FA0A31
:101B8000780893007A0894001208950001309600B6
:101B900002309700043098000830990010309A0005
:101BA00020309B0040309C001630150784008317BE
:101BB00000089E009F00A001A101A20189308400BD
:101BC0008317C0308005210880049F308400831370
:101BD000CF308005200880048830840083171F08D8
:101BE00080000330C3008A11031355218A1503179F
:101BF000150DF700F70DFC30F70503131F08C33967
:101C000077049F0003300317C3008A110313552183
:101C10008A15B301B20103179D011D08633C031C23
:101C2000272E03139F149F18132E83161E0883124A
:101C3000B2071E0803181E0FB30701300317C300B5
:101C40008A11031355218A1503179D0A0D2E0313BC
:101C5000330803179F000313320803179E008E30CA
:101C6000F7001F08F8001E08F900FA01F808031D24
:101C7000432E7908F800F9010830F702F808031D2F
:101C8000432EF7014B2E0310F81B4A2EF90DF80DC9
:101C9000F703432EF8137A08A1007908A00078080A
:101CA0009F0077089E009A30A5009930A4004C3020
:101CB000A3008630A2001E080319202FAA002208C4
:101CC0000319202FAA02031C6A2E7F30AA070318CB
:101CD000202F702E8130AA02031C202F0319202FE1
:101CE0002A08F700F801F901FA01A9011F08A80064
:101CF000A8172008A7002108A6001930AA00250867
:101D0000A6020318932E0130A7020318932EA802EF
:101D10000318932EA9020318932EA90AA80AA70A4A
:101D20002508A607C52E2408A7020318AE2E0130E9
:101D3000A8020318AE2EA9020318AE2EA90AA80AFB
:101D40002408A7072508A607031CC52EA70A031DFC
:101D5000C52EA80A031DC52EA90AC52E2308803842
:101D6000A8020318C42E0130A9020318C42EA90A20
:101D700023088038A8072408A707031CA22EA80A56
:101D8000031DA22EA90AA22E7A14AA0BC82ED32EA6
:101D90000310A60DA70DA80DA90D0310FA0DF90D3E
:101DA000F80DAB0D7F2E2B1CDB2E0310F80CF90C5D
:101DB000FA0CAB0CDE2EF7030319202FAB1B072FF9
:101DC0000310A60DA70DA80DA90D2508A60203183E
:101DD000F32E0130A7020318F32EA8020318F32EE6
:101DE000A902031C162F2408A7020318FE2E013097
:101DF000A8020318FE2EA902031C162F2308803800
:101E0000A8020318072F0130A902031C162FFA0A93
:101E1000031D162FF90A031D162FF80A031D162F8E
:101E2000F70A0319202FF80CF90CFA0C1F08AA0066
:101E30002308AA06AA1F1E2FF817242FF813242FF1
:101E4000F701F801F901FA017A08A1007908A00068
:101E500078089F0077089E008E30F7001E08F70272
:101E60001F08F9002008F800F917F7080319432F95
:101E70000310F908031D3F2FF8080319432FF90C2D
:101E8000F80CF70B382F9F1F4A2FF809F909F80AA9
:101E90000319F90A79080313B3007808B20032086D
:101EA000F8000317130884008313141883177808A5
:0E1EB0008000920AB42D03138A110A16912B9A
:102000003112310883168700103083128706493059
:102010000317A0004430A1004730A2005730A300AE
:102020003130A4003230A500A6014E30A7004F3059
:10203000A8004430A9004530AA00AB015A30AC00DA
:10204000AD00AE014130AF00B000B1015630B2007A
:10205000B300B4014330B500B600B7015330B80047
:10206000B900BA0101309300203092000130950090
:1020700027309400013097002C30960001309900F1
:102080002F30980001309B0032309A0001309D00C3
:1020900035309C0001309F0038309E00930156304F
:1020A000920095014F3094001430BB00BC01031323
:1020B0004A0803173C020318862834303C07840082
:1020C00083130008BD0002303C07F7000310F70D32
:1020D0007708123E84008317840A0008BF00840337
:1020E0000008BE00C401C301C2013D08C1000A309E
:1020F000C5003F08C7003E08C6000A1203132A2481
:102100000A1603300317BB07BC0A5728C401C301D2
:10211000C2013B08C1000A30C500C7017B30C600C0
:102120000A1203132A240A162A300C1E9528990035
:1021300040300C1E992899007B30840083130A12CA
:10214000B9270A164F3003178D0001308F00031393
:102150000B080317BD0003138B13831603178C178B
:102160000C14000000008312BD1FB92803138B1745
:1021700003170C087F390319F628BD000D08BE00AF
:102180000F08BF003D0803130C1EC4289900031755
:102190003E088D003F088F0003130B080317C00093
:1021A00003138B13831603178C170C140000000005
:1021B0008312C01FDE2803138B1703170C0D0E0D9F
:1021C0007F390319F628BD000D08BE000F08BF00B7
:1021D0003D0803130C1EEA28990003173E088D00E2
:1021E0003F088F008D0A03198F0AA728BC0102300F
:1021F00003134A0703173C020318182903103C0D68
:10220000123E84008317840A0008BE00840300087D
:10221000BD00840083133E1883170A120313B927E5
:102220000A1640300C1E122999000317BC0AF72821
:10223000233003130C1E1A2999003112310883161A
:1022400087001030831287068A110A16972B03081D
:102250001F3983008316031787150830031399006D
:1022600002309A00A6309800903083129800FF3018
:10227000B100B801B901BA01BB01C601C701C8016B
:10228000C9010330CA00CB01CC014E10CE104E1153
:10229000CE114E12CE124E13CE1383160317090819
:1022A000C039890003131F129F12003003178800E2
:1022B000831287018801890183130313AB01AC01E9
:1022C000B401B501B601B7010330BC000830BD0050
:1022D0000630BE000930BF00C0010730C100013028
:1022E000C2000830C3000130C400C501CD01303048
:1022F000D1003530D2003830D3003930D400D50188
:10230000D0015130CF003130D8003230D9003730D1
:10231000DA003130DB003030DC003230DD00DE014D
:10232000D7015830D6003030E100E200E300E4008D
:10233000E501E0016130DF003030E800E900EA004B
:10234000EB00EC00ED00EE01E7016830E6004830FC
:102350008316A0004930A1004830A2004930A300F4
:10236000A4014830D2004930D3004830D40049306D
:10237000D500D6013030F100F200F300F400F50191
:10238000F00171308312EF0032308316EB003730EA
:10239000EC003030ED00EE00EF01FC01EB30FB0013
:1023A000F0308800FF30860009108910091189116A
:1023B000803087008312B1001F179F1383169F1769
:1023C00083121F148B160B160B16831601138C1613
:1023D000C03083128B04353090008E010B308F009B
:1023E000DC308E000C100A126F2A0A16CE10CE11A5
:1023F0004E1583168811831288154E10031790010D
:102400001008033C031C2D2A34301007920094005E
:10241000013095009701803096000A120313D522EF
:102420000A16031712089400960195010A12031365
:10243000F7220A16003078180130031792001008AE
:1024400094001208950097014D3096000A1203136C
:10245000D5220A160317900A002A90011008033C9F
:10246000031C5E2A043010079200443010079300CA
:102470009400013095009701803096000A120313F2
:10248000D5220A16031713089400960195010A1223
:102490000313F7220A16003078180130031793004F
:1024A000120894001308950097014D3096000A1207
:1024B0000313D5220A160317900A2E2A0313CE1CE3
:1024C000652A0A127E2D0A16982BCE1D6D2A0A1235
:1024D0008A1500280A168A11982BCE18982B4E1CA4
:1024E000772A4E100A128A15712B0A168A114E1F6E
:1024F000972B031790011008033C031CD72A343094
:1025000010079200940001309500970180309600EA
:102510000A120313D5220A16031712089400960113
:1025200095010A120313F7220A16003078180130B9
:10253000031792001008940096014D3095000A127E
:102540000313F7220A16003078180130031712021D
:102550000319D52A343010079200940001309500F9
:102560009701803096000A120313D5220A1603172A
:1025700012089400960195010A120313F7220A1615
:1025800000307818013003179200100894001208E8
:10259000950097014D3096000A120313D5220A16B2
:1025A00083168811831288110317900A7B2A9001E1
:1025B0001008033C031C382B443010079200940091
:1025C000013095009701803096000A120313D5223E
:1025D0000A16031712089400960195010A120313B4
:1025E000F7220A16003078180130031792000430E1
:1025F0001007940096014D3095000A120313F7223C
:102600000A16003078180130031712020319362B0E
:1026100004301007920044301007930094000130FA
:1026200095009701803096000A120313D5220A16EE
:10263000031713089400960195010A120313F72259
:102640000A1600307818013003179300120894001E
:102650001308950097014D3096000A120313D522F6
:102660000A1683168811831288110317900AD82A34
:102670000313CE1F812BCE1301300317C30002308A
:10268000C4000A12031310230A160A300317C300EA
:102690000A12031355210A16523003178D00013018
:1026A0008F000A1203135E230A1603179101110803
:1026B000073C031C802B1108940096014D309500B7
:1026C0000A120313F7220A16003078180130031794
:1026D0009200C401C301C2011208C1000A30C50042
:1026E000C7016F30C6000A1203132A240A166F307E
:1026F000840083130A12B9270A160317910A572B6D
:102700000313083003179200FA30C3000A120313B0
:1027100055210A160317920B842B0A128A150313EC
:10272000B22D0A168A1134081C3C031C00286D2A9D
:042730005F2A6300B9
:04400E00E22FFF3F5F
:00000001FF
;PIC16F887
;CRC=606E  CREATED="08-Nov-21 17:54"
