:100000000E308A00FA2E0000FF00030E8301A100CB
:100010000A08A0008A010408A2007708A300780853
:10002000A4007908A5007A08A60003170D08031399
:10003000A70003170F080313A80003170C080313E6
:10004000A90003170E080313AA00831383120B1EC3
:100050002B288B1852288C308400801E31288C1A53
:100060005528220884002308F7002408F8002508F2
:10007000F9002608FA00270803178D000313280843
:1000800003178F000313290803178C0003132A0892
:1000900003178E00031320088A00210E8300FF0E31
:1000A0007F0E09008A110A12EF288A110A122029EC
:1000B0000A108A100A118207303400340A108A109C
:1000C0000A1182075F3400340A108A100A1182076D
:1000D00000340A108A100A11820723340034CE2714
:1000E000C4223A10000030183018201020102010C0
:1000F0002010201000012010201020105F10201070
:10010000201020102010201020102000201020107F
:100110005F10201020004922DF23571D00013018F6
:10012000301830182010201020102010000120104E
:10013000201020105F102010201020102010201000
:10014000201020102000201020105F102010201000
:1001500020102000C3274E23C9233A10201020105E
:1001600020102000C320D3223A102010201020108D
:1001700020102000A016A024C416CE27C4222010D0
:10018000201020100001A016A024C416C72B201098
:10019000201020102000D720492A492747102E1769
:1001A0002E1720102010201020100001D720492ADF
:1001B000492747102E172E1720102010201020102E
:1001C000000020102010201020102010201000010E
:1001D00054213A1000012010201043213A00031747
:1001E000D901831603138614831286180A290C1C5E
:1001F0000729831608110430831288060C108E011B
:100200000B308F00DC308E000317D90A031303175D
:10021000F128031303175908143C03181829023056
:100220000313CE060430CE06CE154E121C2903173A
:100230000313CE114E12CE128B108A110A123128DE
:10024000A0303907840083138C1E24291A088000EB
:10025000A03039078400831300082E3C031D382981
:10026000A0303907840083138001B9014E14392965
:10027000B90A8C128A110A1231282010201020107D
:1002800020102010201020102010200020102010FE
:1002900020102010201020102010201020003630B8
:1002A000840083170008031962290630F800F7015B
:1002B000F70B5829F80B57297B30F700F70B5E290D
:1002C000800B5529080003173D186A2903130710EE
:1002D0006C290317031307143110310883168700A4
:1002E00083120317BD187829031387107A2903177F
:1002F00003138714B1103108831687008312031784
:100300003D198629031307118829031703130715BD
:10031000311131088316870083120317BD19942900
:10032000031387119629031703138715B111310899
:100330008316870000008312091483160910023007
:10034000F700F70BA129A4290000831209108316D6
:100350000910831208000317BE010313311431087A
:100360008316870000308312071801300317BE047C
:100370000313B114310883168700003083128718E5
:100380000130F7000310F70D77080317BE040313BD
:1003900031153108831687000030831207190130A8
:1003A000F700F70DF70DFC30F70577080317BE04CB
:1003B0000313B115310883168700003083128719A3
:1003C0000130F700F70DF70DF70DF830F705770856
:1003D0000317BE043E08F800031308008316091033
:1003E0008910091183128910831689100714871444
:1003F000071587158312091583160911000083124A
:1004000009148316091000008312AB217808031722
:10041000BD0003130910831609100000831209148C
:1004200083160910132A142A00008312AB217808BE
:100430000317BC000313091083160910831231102F
:100440003108831687008312B110310883168700A4
:10045000831231113108831687008312B1113108DC
:1004600083168700831203173D0EF700F030F7055F
:1004700077083C04F8007808BC00BC1F422A8316A9
:100480000313F629BA08031D492A031389104B2ABE
:1004900003170313891483168910000083120911AE
:1004A00083160911000083120910831609108312A4
:1004B00003173B0EBC000F30BC053C08BD00031306
:1004C000632103173B080F39BC00BD0003136321F0
:1004D000080028308316CE000C30CF000130D00049
:1004E0000630D10083120910831609108312891077
:1004F0008316891083120911831609118312311092
:100500003108831687008312B110310883168700E3
:10051000831231113108831687008312B11131081B
:10052000831687000910891009110F3083120317F1
:10053000B60003134F2101308316CD004D08033C54
:10054000031CB02A033083120317BD000313632179
:1005500005300317B60003134F218316CD0A9E2AD8
:10056000023083120317BD00031363210530031704
:10057000B60003134F218316CD014D08033C031C25
:10058000D52ACE304D07840083130008D200831291
:100590000317BA0183160313520883120317BB0013
:1005A0000313EE218316CD0ABD2A83128A150A127F
:1005B000BF2F0317370BDD2AE02A4030B800E12AAD
:1005C000B80101303602B80738088038B900BA01DE
:1005D0003908BB000313EE21080003173508073A5A
:1005E00003130319FD2A0B3A0319042B063A0319C6
:1005F000102B023A0319182B1F2B01300317B600DA
:10060000B7000313D922262B0317BA010130BB0010
:100610000313EE2102300317B60003134F21262BDC
:1006200001300317B6000230B7000313D922262B7E
:100630000317BA011030BB000313EE21262B013043
:100640000317BA003508BB000313EE2108000B089E
:100650000317B20003138B13831603178C170C14A4
:10066000000000008312B21F382B03138B170317EF
:100670000C087F390319752BB2000D08B3000F0861
:10068000B4003208B5000313ED22031733088D00C0
:1006900034088F0003130B080317B50003138B13E3
:1006A000831603178C170C14000000008312B51F6B
:1006B0005C2B03138B1703170C0D0E0D7F390319D9
:1006C000752BB2000D08B3000F08B4003208B50056
:1006D0000313ED22031733088D0034088F008D0AB1
:1006E00003198F0A0313272B03170313080083181A
:1006F0007C2B53308400831703174E085206803931
:10070000D800CE1F8E2BCB09CC09CD09CE09CB0A40
:100710000319CC0A0319CD0A0319CE0AD21F9B2B49
:10072000CF09D009D109D209CF0A0319D00A031978
:10073000D10A0319D20AF701F801F901FA01D3012C
:10074000D401D501D6015208510450044F040319B5
:10075000D92B2030D7000310CB0DCC0DCD0DCE0DF5
:10076000D30DD40DD50DD60D52085602031DC22B44
:1007700051085502031DC22B50085402031DC22B01
:100780004F085302031CD32B4F08D3025008031CFD
:10079000500FD4025108031C510FD5025208031CFC
:1007A000520FD6020314F70DF80DF90DFA0DD70B01
:1007B000AB2BD81FE62BF709F809F909FA09F70A54
:1007C0000319F80A0319F90A0319FA0A53088000F1
:1007D000840A54088000840A55088000840A560858
:1007E0008000031308000317BE01BD01BC010130E6
:1007F000BB00C001C101B71F3D2C0130C00037084C
:10080000C6003608C5003508C4003408C300FF30F0
:10081000CA00C900C800C7002030CF00CB01CC01FE
:10082000CD01CE014608FA004508F9004408F80059
:100830004308F7000310771C2B2C4708CB07480808
:100840000318480FCC0749080318490FCD074A0879
:1008500003184A0FCE07CE0CCD0CCC0CCB0CFA0CE7
:10086000F90CF80CF70CCF0B1A2C7A08B7007908A2
:10087000B6007808B5007708B400BB08031D492C02
:10088000BC08031D492CBD08031D492CBE080319D3
:10089000C52C83103708CE003608CD003508CC00B3
:1008A0003408CB00D201D101D0013808CF000313A6
:1008B00077237A080317BE007908BD007808BC00CA
:1008C0007708BB0041083907F8003A08FA00031816
:1008D000FA0A7808C3007A08C400C6010408C500F3
:1008E0004610831B4614831447308400831737084F
:1008F000CE003608CD003508CC003408CB00D2013C
:10090000D101D0013808CF0003137723031745081E
:10091000840083134618831730304707F7004808D0
:10092000F800003003180130F8074908F9000030DA
:1009300003180130F9074A08FA00003003180130A3
:10094000FA0743088400831344188317770880004C
:1009500041083907840083133A1883170008393C8B
:100960000318BB2C41083907840083133A188317F6
:10097000073000078000C10A3E08B7003D08B600F6
:100980003C08B5003B08B4003D2C400BD02C41087E
:100990003907840083133A1883172D308000C10A69
:1009A000BF010310410C3F020318062D3F08390711
:1009B000840083133A1883170008C2003F083907E0
:1009C000F8003A08FA000318FA0A7808C3007A080F
:1009D000C4003F084102FF3E3907840083133A18E0
:1009E00083170008C5004308840083134418831745
:1009F000450880003F084102FF3E39078400831309
:100A00003A18831742088000BF0AD12C41083907E1
:100A1000840083133A18831780013908F8003A08D4
:100A2000F9000313080080080319312D8316D6013D
:100A30000408D5005610831B5614000883120317B0
:100A4000B5000313ED22831655088400831356184E
:100A50008317840A031D2F2D8312850A83168312A0
:100A6000132D080083165208F801510203183B2D7C
:100A70005108F700472DF7010830D300D10DF70DCD
:100A8000520877020318F700F80DD30B3E2D83129E
:100A900008004E1601300317B600B7000313D92221
:100AA0000A300317B60003134F21AA3003178D0035
:100AB00000308F000313272301300317B6000230E4
:100AC000B7000313D9220A300317B60003134F21CE
:100AD000B23003178D0000308F00031327234E1E02
:100AE000BC2D8316061583120619BB2DB80A0130DA
:100AF000B80502308316CD00963083120317B60076
:100B000003134F218316CD0B7C2D06308312031760
:100B1000B6000230B7000313D9220317B701B6019C
:100B2000B501031338080317B4000A30B800BA013E
:100B30006F30B9000313F3230A300317B600031311
:100B40004F216F3084008313132538080319AC2D0F
:100B5000013A0319B42DBB2DBA3003178D000030B4
:100B60008F0003132723BB2DC33003178D000030E4
:100B70008F00031327236F2DCE19632FCE11380852
:100B80000319C62D013A0319912E632FCE11CE16EB
:100B90008316CD01CE01CF016F30840083134E0840
:100BA00084074F0883125820800000380319DD2D78
:100BB0008316CF0ACE0ACC2D831201300317B6005C
:100BC0000230B7000313D9220A300317B60003130B
:100BD0004F216F3003178D0000308F000313272340
:100BE000733003178D0000308F000313272301306B
:100BF0000317B600B7000313D9227B3003178D000B
:100C000000308F0003132723CE1E902E8316061567
:100C1000831206192D2E8316CD0A0330CD054D07FC
:100C2000CE0083120317B6000130B7000313D92298
:100C3000863003178D0000308F0003132723023006
:100C40008316CE00963083120317B60003134F218C
:100C50008316CE0B222E8E2E8312831686158312B8
:100C600086198F2E433083164D0784008313800A24
:100C700043304D07F800FA010318FA0A7808CE004D
:100C80007A08CF0043304D07840083130008D10059
:100C90000A30D2008312322577088316D0004E081E
:100CA000840083134F1883175008800043304D078A
:100CB000840083130008CE0083120317B701B60126
:100CC000B501831603134E0883120317B4000A30CC
:100CD000B800BA016F30B9000313F323073083164D
:100CE0004D07CE0083120317B6000230B70003137E
:100CF000D9220A300317B60003134F216F30840046
:100D00008313132502308316CE0096308312031707
:100D1000B60003134F218316CE0B852E8312042EAB
:100D2000632F8316CD01CE01CF016F308400831372
:100D30004E0884074F08831258208000003803199A
:100D4000A62E8316CF0ACE0A952E8312CE11CE166A
:100D500001300317B6000230B7000313D9220A305E
:100D60000317B60003134F218B3003178D0000309B
:100D70008F00031327238F3003178D0000308F005F
:100D80000313272301300317B600B7000313D9223A
:100D9000973003178D0000308F0003132723CE1EDA
:100DA000632F8316061583120619002F8316CD0AAA
:100DB0004D08D1000630D200831232257708831601
:100DC000CD0003304D07CE0083120317B60001306B
:100DD000B7000313D922A33003178D0000308F0012
:100DE0000313272302308316CE0096308312031795
:100DF000B60003134F218316CE0BF52E612F8312FD
:100E00008316861583128619622F3D3083164D078F
:100E100084008313800A3D304D07F800FA0103185F
:100E2000FA0A7808CE007A08CF003D304D078400DA
:100E300083130008D1000A30D200831232257708CC
:100E40008316D0004E08840083134F188317500870
:100E500080003D304D07840083130008CE008312CC
:100E60000317B701B601B501831603134E088312A9
:100E70000317B4000A30B800BA016F30B900031389
:100E8000F323073083164D07CE0083120317B600F5
:100E90000230B7000313D9220A300317B600031338
:100EA0004F216F3084008313132502308316CE0048
:100EB000963083120317B60003134F218316CE0B0F
:100EC000582F8312CF2E8A150A12CC2F03173408FD
:100ED000B8003308B7003808FA00370884008313D5
:100EE0007A18831780080319792FB70A0319B80AEB
:100EF0006B2F3608FA003508840083137A1883179D
:100F000080080319982F3508840083133618831737
:100F10000008BB00370884008313381883173B0888
:100F20008000B70A0319B80AB50A0319B60A792F5F
:100F30003708840083133818831780013308F800BA
:100F40003408F9000313080003173508B700340804
:100F5000B6003708FA003608840083137A1883171E
:100F600080080319B72FB60A0319B70AA92F340846
:100F70003602F7003708FA003508031C350FFA026D
:100F80007708F800031308008316CD014D081E3CB6
:100F9000031CD62F88100230831288066430031792
:100FA000B60003134F218316CD0AC62F83128A156C
:100FB0000A12D62F831655080739F700550CF8008A
:100FC000F80CF80C1F30F8057808570784008313D5
:100FD00058188317F801F80AF70AEF2FF80DF70BE6
:100FE000EE2FD6080319F72F78088004FA2FF80996
:080FF000780880058312080057
:101000004E12CE122A300317900091014C309200FC
:10101000453093004E30940047309500483096009C
:10102000543097009801433099005F309A00463061
:101030009B009C0149309D0044309E005F309F0022
:101040004730A0005730A1003130A2003230A30059
:101050003330A4003430A500A6014930A700443045
:10106000A8005F30A9004E30AA004F30AB004430DA
:10107000AC004530AD00AE012330AF00B00101300F
:1010800083160313CE001030CD000130D000123093
:10109000CF000130D2001930D1000130D4001D3012
:1010A000D3000130D6002730D5000130D8002F30D2
:1010B000D700FA01563083120317B3007A08B40040
:1010C000330884008313341883178001B201320877
:1010D000053C031C94283D3032078400831300082C
:1010E000B300B701B601B5013308B4000A30B80047
:1010F000BA016F30B9008A110313F3238A15013046
:101100000317B6008A1103134F218A150317B40180
:101110005630B300B6016F30B5008A11031366274D
:101120008A150317B20A672883160313D4015630B1
:10113000D300FA014F3083120317B3007A08B400CA
:10114000330884008313341883178001B2013208F6
:10115000033C031CD4284330320784008313000867
:10116000B300B701B601B5013308B4000A30B800C6
:10117000BA016F30B9008A110313F3238A150130C5
:101180000317B6008A1103134F218A150317B40100
:101190004F30B300B6016F30B5008A1103136627D4
:1011A0008A150317B20AA72883160313D6014F30F6
:1011B000D5008312C70131308316CF003230D00002
:1011C000D9015908053C031C03290310590DCD3ED4
:1011D00084008313840A0008DB0084030008DA001B
:1011E0005B0883120317B500831603135A08831292
:1011F0000317B4008A110313A4278A157808C707B8
:101200008316D90AE12805308312C7070317B701EF
:10121000B601B501031347080317B4000A30B8003C
:10122000BA016F30B9008A110313F3238A158316AC
:10123000D0016F30CF00D9015908053C031C572954
:101240000310590DCD3E84008313840A0008DB008F
:1012500084030008DA005A08840083135B1883179C
:10126000800803194F2983120317B5010408B4003D
:101270003510831B3514000803130C1E3D299900FB
:10128000031734088400831335188317840A031D59
:101290004C290313850A03178316031330294030A2
:1012A00083120C1E512999008316D90A1C2901307A
:1012B00083120317B600B7008A110313D9228A15C7
:1012C0000A300317B6008A1103134F218A15CB3059
:1012D00003178D0000308F008A11031327238A150E
:1012E00001300317B6000230B7008A110313D92268
:1012F0008A150A300317B6008A1103134F218A1585
:10130000D63003178D0000308F008A110313272376
:101310008A15CE118A150A12D12F83165508560444
:10132000031996295608FA0055089B2983122C08A0
:10133000FA002B088316D9007A08DA005A08DE0072
:101340005908DD005808E0005708DF005E08E20099
:101350005D08E1006208FA006108840083137A18CE
:10136000831780080319EB296008E4005F08E30095
:101370006408FA006308840083137A1883178008CE
:10138000031DCF295D086102F7006208FA005E08BC
:10139000031C5E0FFA027708F800F629E3296208B9
:1013A000FA006108840083137A1883170008E500A7
:1013B0006408FA006308840083137A18831700080E
:1013C00065020319E729E30A0319E40AB829E10AC7
:1013D0000319E20AAA295D086102F7006208FA000F
:1013E0005E08031C5E0FFA027708F8007808D90738
:1013F0000318DA0A5A08FA005908840083137A1885
:1014000083178008031D112A83122B08840083137D
:101410002C188317203080000030F800F9007D2A56
:1014200083165A08DE005908DD005808E000570806
:10143000DF005E08E2005D08E1006208FA00610872
:10144000840083137A18831780080319562A6008CA
:10145000E4005F08E3006408FA0063088400831373
:101460007A18831780080319522A6208FA00610863
:10147000840083137A1883170008E5006408FA00D3
:101480006308840083137A18831700086502031D1C
:101490004E2A6108F8006208F900592AE30A031984
:1014A000E40A2B2AE10A0319E20A1D2A0030F80097
:1014B000F9007908DC007808DB005C08FA005B08BA
:1014C000840083137A18831780080319702A5B0835
:1014D000840083135C1883178001DB0A0319DC0A7C
:1014E0005C088312AC0083165B088312AB00831682
:1014F0005908F8005A08F900831208008316DA0127
:10150000D8010A30D900D70155085604031D8B2A8B
:101510000030F8007E2B5A08DA0A5507840083133E
:10152000561883170008DB005B082D3C031DA42A16
:101530000130D8005A08DA0A550784008313561878
:1015400083170008DB00B12A5B082B3C031DB12A7E
:101550005A08DA0A550784008313561883170008BF
:10156000DB005B082F3C0318742B5B08393C031C21
:10157000742B5B08303C031DDD2A5A085507840094
:101580008313561883170008783C0319D12A5A0888
:10159000550784008313561883170008583C031D11
:1015A000DD2A1030D900DA0A5A08DA0A5507840011
:1015B0008313561883170008DB0059080A3C031DE3
:1015C000222B5B082F3C0318212B5B08393C031CA2
:1015D000212B0A30DC005708DD00F701F8015C0818
:1015E00003105D18F707F70CF80CDD18F707F70C78
:1015F000F80C5D19F707F70CF80CDD19F707F70C75
:10160000F80C5D1AF707F70CF80CDD1AF707F70C62
:10161000F80C5D1BF707F70CF80CDD1BF707F70C50
:10162000F80C7808DC0030305B025C07D7005A0801
:10163000DA0A550784008313561883170008DB0065
:10164000E12A742B5908103C031D742B5B08603C85
:101650000318312B5B087A3C031C312B5B08DF3904
:10166000322B5B08DB005B082F3C03183B2B5B082D
:10167000393C0318432B5B08403C0318742B5B0870
:10168000463C031C742B5B082F3C0318542B5B084F
:10169000393C031C542B570EDC00F030DC05303095
:1016A0005B025C07D7005D2B570EDC00F030DC05D9
:1016B00041305B020A3E5C07D7005A08DA0A550738
:1016C00084008313561883170008DB005B08603C16
:1016D0000318712B5B087A3C031C712B5B08DF3904
:1016E000722B5B08DB00332B580B7C2B59080A3C10
:1016F000031D7C2BD709D70A5708F800831208006E
:1017000083165408FA005308840083137A18831749
:101710000008D7005608FA005508840083137A1889
:10172000831700085702031DAC2B5408FA00530816
:10173000840083137A1883178008031DA22B0030BE
:10174000F800C42B5408FA005308D30A0319D40A2A
:10175000D50A0319D60A812B5408FA0053088400CD
:101760008313541883170008D7005608FA00550849
:101770008400831356188317000857020318C22BDE
:10178000FF30C32B0130F800831208002A30831683
:10179000CD00FA015F30840083137A18831780012B
:1017A000FA016630840083137A1883178001D3010D
:1017B000D401BE30840083135308840754088A116F
:1017C000831264208A15800000380319EC2B8316DD
:1017D000D40AD30AD92B83128316D401A030D300A4
:1017E0004D08D5005408FA005308840083137A1872
:1017F00083175508000203190F2C5408FA005308E8
:10180000840083137A1883178008031D0B2C003083
:10181000F800F900132CD30A0319D40AF22B530849
:10182000F8005408F9007908CF007808CE004F0876
:1018300083120317B500831603134E088312031790
:10184000B4008A110313A4278A1578088316D000E0
:101850008312BA018316D301D4016F30840083133D
:101860005308840754088A11831269208A1580005E
:1018700000380319402C8316D40AD30A2D2C831266
:101880008316D601A030D500D8016F30D70083125F
:101890008D2179088316D2007808D100D108031D64
:1018A000542CD2080319BF2C83123A08FA3E0318AD
:1018B000AE2C063EF02EAE2C0317B4016630B300FA
:1018C00083160313520883120317B60083160313FB
:1018D000510883120317B5008A11031366278A156E
:1018E000AE2C0317B4015F30B30083160313520804
:1018F00083120317B60083160313510883120317CC
:10190000B5008A11031366278A15AE2C8316520878
:10191000D6005108D50083127E227808C800AE2C6C
:1019200083165208D6005108D50083127E2278080B
:10193000C900AE2C0317B401BE30B30083160313E5
:10194000520883120317B60083160313510883123B
:101950000317B5008A11031366278A158316D6016B
:10196000D501D8016F30D70083128D2179088316F5
:10197000D2007808D1008312BA0A83164E2CD40103
:101980006630D300D6015630D50083128023780804
:10199000CD008316D4015F30D300D6014F30D5007F
:1019A000831280237808CC00CD08031DE62ECC08D6
:1019B000031DE62E4908831650020319E12C8312F9
:1019C000E62E831248080319EC2C013A0319ED2C7A
:1019D000033A0319072EE52EE52EBA018316880176
:1019E000FF308312880001300317B600B7008A1158
:1019F0000313D9228A150A300317B6008A1103137C
:101A00004F218A158316D501D6016F3084008313C8
:101A10005508840756088A1183125E208A158000B3
:101A200000380319182D8316D60AD50A052D8312FE
:101A30008316D601BE30D500D8016F30D70083128F
:101A40008D2179088316D4007808D300D308031DAC
:101A50002C2DD4080319752D83123A080319372D3C
:101A6000013A0319512D033A03195B2D642D0130FE
:101A70000317B6008A1103134F218A1583165308E2
:101A800084008313541883178A11831213258A152F
:101A9000E13003178D0000308F008A1103132723D4
:101AA0008A1583165408D6005308D50083127E2267
:101AB0007808CA00642D83165408D6005308D50050
:101AC00083127E227808CB008316D601D501D80177
:101AD0006F30D70083128D2179088316D4007808DF
:101AE000D3008312BA0A8316262D0230D500FA30AD
:101AF00083120317B6008A1103134F218A15831628
:101B0000D50B772D013083120317B6008A1103130A
:101B10004F218A1583168801FF3083128800013017
:101B20000317B6000230B7008A110313D9228A15B1
:101B30000A300317B6008A1103134F218A15E830C3
:101B400003178D0000308F008A11031327238A1595
:101B50000317B701B601B50103134A080317B40010
:101B60000A30B800BA016F30B9008A110313F323A9
:101B70008A156F30840083138A1113258A15EB3080
:101B800003178D0000308F008A11031327238A1555
:101B90000317B701B601B50103134B080317B400CF
:101BA0000A30B800BA016F30B9008A110313F32369
:101BB0008A156F30840083138A1113258A158316C2
:101BC00088018312880102308316D500FA3083120F
:101BD0000317B6008A1103134F218A158316D50BFC
:101BE000E62D8801FF308312880002308316D5006D
:101BF000FA3083120317B6008A1103134F218A1596
:101C00008316D50BF82D880183128801E52EBA01C1
:101C10008316D501D6016F308400831355088407DD
:101C200056088A1183125E208A1580000038031935
:101C30001E2E8316D60AD50A0B2E831201300317E7
:101C4000B600B7008A110313D9228A150A30031788
:101C5000B6008A1103134F218A15BE308400831306
:101C60008A1113258A153D3003178D0001308F002E
:101C70008A11031327238A1501300317B600023097
:101C8000B7008A110313D9228A150A300317B60048
:101C90008A1103134F218A15463003178D00013036
:101CA0008F008A11031327238A158316D601BE30AD
:101CB000D500D8016F30D70083128D2179088316A3
:101CC000D4007808D300D308031D692ED408031963
:101CD000C72E83123A080319742E013A03197E2E77
:101CE000033A0319882E9C2E83165408D6005308F5
:101CF000D50083127E2240307807BB00831654083B
:101D0000D6005308D50083127E227808BC009C2E92
:101D10000317B4015F30B300831603135408831212
:101D20000317B60083160313530883120317B50075
:101D30008A11031366278A1507300317B60002308D
:101D4000B7008A110313D9228A150A300317B60087
:101D50008A1103134F218A158316530884008313B5
:101D6000541883178A11831213258A158316D601F6
:101D7000D501D8016F30D70083128D2179088316E1
:101D8000D4007808D3008312BA0A8316632E831214
:101D9000BC08031DCD2E0030CE2E0130F7003B08CD
:101DA0008316D5007708D600D801D7018A1183128F
:101DB000DA278A153B088316D500D601D801803072
:101DC000D7008A118312DA278A15ED2E0A300317FD
:101DD000B6008A1103134F218A158A150A12DB2FC8
:101DE0000A108A140A1582075B2C5C2C712C862C35
:101DF000902C9A2C03081F3983008316031787152C
:101E000008300313990002309A00A63098009030F1
:101E100083129800FF30B100B801B901BA01C701BF
:101E2000C801C901CA01CB01CC01CD014E10CE10B1
:101E30004E11CE114E12CE12831603170908C03967
:101E4000890003131F129F120030031788008312AA
:101E500087018801890183130313AB01AC01BD0124
:101E60000630BE000330BF000230C0000330C100A6
:101E7000C2000730C3000430C4000530C50008307C
:101E8000C6003030D1003530D2003830D300393080
:101E9000D400D501D0015130CF003130D8003230DC
:101EA000D9003730DA003130DB003030DC0032303E
:101EB000DD00DE01D7015830D6003030E100E2000D
:101EC000E300E400E501E0016130DF003030E800CC
:101ED000E900EA00EB00EC00ED00EE01E7016830FC
:101EE000E60048308316A0004930A1004830A20027
:101EF0004930A300A4014830BE004930BF0048303B
:101F0000C0004930C100C2013030F100F200F301DD
:101F1000F00171308312EF00003083168800FF302B
:101F200086000910891009118911803087008312F9
:101F3000B1001F179F1383169F1783121F14831658
:101F400003170908C039890003131F129F120130BB
:101F500003178800831203138B160B160B168316B8
:101F600001138C16C03083128B04353090008E0123
:101F70000B308F00DC308E000C108A11692A8A1514
:101F8000CE10CE114E1583168801831288014E1093
:101F9000CE1CCE2F8A11492D8A15DC2FCE1DD22FB3
:101FA0000028DC2FCE18DC2F8A11C42F8A154E1C76
:0C1FB000DB2F4E10C62BD22FC82F630071
:04400E00E22FFF3F5F
:00000001FF
;PIC16F887
;CRC=D818  CREATED="30-Oct-21 23:01"
