:1000000014308A000B2C0000FF00030E8301A100B6
:100010000A08A0008A010408A2007708A300780853
:10002000A4007908A5007A08A60003170D08031399
:10003000A70003170F080313A80003170C080313E6
:10004000A90003170E080313AA00831383120B1EC3
:100050002B288B1852288C308400801E31288C1A53
:100060005528220884002308F7002408F8002508F2
:10007000F9002608FA00270803178D000313280843
:1000800003178F000313290803178C0003132A0892
:1000900003178E00031320088A00210E8300FF0E31
:1000A0007F0E09008A110A1209298A110A124F29A2
:1000B0000A108A100A118207303400340A108A109C
:1000C0000A1182075F3400340A108A100A1182076D
:1000D0003234323400340A108A100A118207323462
:1000E000333400340A108A100A118207323434344F
:1000F00000340A108A100A118207233400340A10CF
:100100008A100A1182070034CE27C4223A10000058
:10011000201020102010201020100001201020108E
:1001200020105F1020102010201020102010201010
:100130002000201020105F10201020004922DF2313
:10014000571D000120102010201020102010000149
:100150002010201020105F102010201020102010E0
:100160002010201020102000201020105F102010E0
:10017000201020102000C3274E23C9233A1020103E
:10018000201020102000C320D3223A10201020106D
:10019000201020102000A016A024C416CE27C422B0
:1001A0002010201020100001A016A024C416C72B78
:1001B0002010201020102000D720492A492747105E
:1001C0002E172E1720102010201020100001D720ED
:1001D000492A492747102E172E17201020102010CB
:1001E00020100000201020102010201020102010BF
:1001F000000154213A1000012010201043213A0040
:1002000040224B200000D32B3A100001C02953207C
:1002100000010317E4018316031386148312861862
:1002200026290C1C2329311231088316870010302F
:10023000831287060C108E010B308F00DC308E008D
:100240000317E40A031303170B29031303176408A6
:10025000143C0318342902300313CE060430CE06B2
:10026000CE154E124B2903176408013C031842298E
:100270006408133C031C42290313CE114E12CE1204
:100280004B2903170313CE17311231088316870049
:100290001030831287068B108A110A123128A03081
:1002A0003907840083138C1E53291A088000A0305C
:1002B00039078400831300082E3C031D6729A030F2
:1002C0003907840083138001B9014E146829B90AE3
:1002D0008C128A110A1231284130840083170008D9
:1002E00003197F290630F800F701F70B7529F80B81
:1002F00074297B30F700F70B7B29800B72290800EB
:1003000003174818872903130710892903170313B4
:100310000714311031088316870083120317C81899
:100320009529031387109729031703138714B11016
:10033000310883168700831203174819A329031372
:100340000711A52903170313071531113108831667
:10035000870083120317C819B12903138711B32922
:10036000031703138715B1113108831687000000A6
:1003700083120914831609100230F700F70BBE2907
:10038000C129000083120910831609108312080086
:100390000317C90103133114310883168700003095
:1003A0008312071801300317C9040313B11431086D
:1003B000831687000030831287180130F70003107E
:1003C000F70D77080317C904031331153108831695
:1003D00087000030831207190130F700F70DF70D81
:1003E000FC30F70577080317C9040313B11531086A
:1003F000831687000030831287190130F700F70D4C
:10040000F70DF70DF830F70577080317C904490809
:10041000F8000313080083160910891009118312CC
:1004200089108316891007148714071587158312FE
:100430000915831609110000831209148316091087
:1004400000008312C82178080317C800031309109D
:100450008316091000008312091483160910302A2C
:10046000312A00008312C82178080317C70003133C
:100470000910831609108312311031088316870082
:100480008312B110310883168700831231113108AD
:10049000831687008312B1113108831687008312F7
:1004A0000317480EF700F030F70577084704F80007
:1004B0007808C700C71F5F2A83160313132AC508CD
:1004C000031D662A03138910682A0317031389146E
:1004D0008316891000008312091183160911000088
:1004E000831209108316091083120317460EC700E2
:1004F0000F30C7054708C8000313802103174608BB
:100500000F39C700C80003138021080028300317E3
:1005100091000C30920001309300063094000313D8
:10052000091083160910831289108316891083120B
:1005300009118316091183123110310883168700BF
:100540008312B110310883168700831231113108EC
:10055000831687008312B1113108831687000910B2
:10056000891009110F3083120317C10003136C2186
:100570000130031790001008033C031CCB2A033002
:10058000C8000313802105300317C10003136C2139
:100590000317900ABB2A0230C800031380210530DC
:1005A0000317C10003136C21031790011008033CCB
:1005B000031CE82A113010078400831700089500F7
:1005C000C5011508C60003130B220317900AD62A8B
:1005D00003138A110A16D92C031790011008033C43
:1005E000031C032B42301007840083130A301007CA
:1005F000930013088D0083168C130C1483120C08BF
:100600008000900AEE2A90011008053C031C192B6B
:100610003C301007840083130E301007930013083A
:100620008D0083168C130C1483120C088000900A22
:10063000042B03138A110A16E42C8318222B5E3034
:1006400084008317031759085D068039E300D91F1A
:10065000342BD609D709D809D909D60A0319D70ADC
:100660000319D80A0319D90ADD1F412BDA09DB095E
:10067000DC09DD09DA0A0319DB0A0319DC0A0319AC
:10068000DD0AF701F801F901FA01DE01DF01E001FD
:10069000E1015D085C045B045A0403197F2B2030E0
:1006A000E2000310D60DD70DD80DD90DDE0DDF0DEC
:1006B000E00DE10D5D086102031D682B5C0860021E
:1006C000031D682B5B085F02031D682B5A085E023E
:1006D000031C792B5A08DE025B08031C5B0FDF0248
:1006E0005C08031C5C0FE0025D08031C5D0FE10267
:1006F0000314F70DF80DF90DFA0DE20B512BE31F62
:100700008C2BF709F809F909FA09F70A0319F80A0D
:100710000319F90A0319FA0A5E088000840A5F08BF
:100720008000840A60088000840A61088000031346
:1007300008000317C901C801C7010130C600CB0179
:10074000CC01C21FE32B0130CB004208D10041088D
:10075000D0004008CF003F08CE00FF30D500D400C5
:10076000D300D2002030DA00D601D701D801D90158
:100770005108FA005008F9004F08F8004E08F70039
:100780000310771CD12B5208D60753080318530FB8
:10079000D70754080318540FD80755080318550FE6
:1007A000D907D90CD80CD70CD60CFA0CF90CF80CCC
:1007B000F70CDA0BC02B7A08C2007908C100780860
:1007C000C0007708BF00C608031DEF2BC708031D34
:1007D000EF2BC808031DEF2BC90803196B2C8310DE
:1007E0004208D9004108D8004008D7003F08D60089
:1007F000DD01DC01DB014308DA0003131D237A0865
:100800000317C9007908C8007808C7007708C60030
:100810004C084407F8004508FA000318FA0A78085B
:10082000CE007A08CF00D1010408D0005110831BFC
:10083000511483145230840083174208D9004108B0
:10084000D8004008D7003F08D600DD01DC01DB01FD
:100850004308DA0003131D23031750088400831391
:100860005118831730305207F7005308F800003052
:1008700003180130F8075408F9000030031801305C
:10088000F9075508FA00003003180130FA074E083E
:10089000840083134F188317770880004C0844079F
:1008A00084008313451883170008393C0318612C12
:1008B0004C0844078400831345188317073000074A
:1008C0008000CC0A4908C2004808C1004708C0009F
:1008D0004608BF00E32B4B0B762C4C0844078400E2
:1008E0008313451883172D308000CC0ACA010310EA
:1008F0004C0C4A020318AC2C4A08440784008313AA
:10090000451883170008CD004A084407F800450839
:10091000FA000318FA0A7808CE007A08CF004A08CD
:100920004C02FF3E440784008313451883170008D8
:10093000D0004E08840083134F188317500880009E
:100940004A084C02FF3E440784008313451883176E
:100950004D088000CA0A772C4C0844078400831392
:100960004518831780014408F8004508F90003136F
:10097000080003173F08C3003E08C2004308FA00FE
:100980004208840083137A18831780080319CC2C3B
:10099000C20A0319C30ABE2C4108FA0040088400A9
:1009A00083137A18831780080319EB2C40088400FE
:1009B0008313411883170008C6004208840083137C
:1009C0004318831746088000C20A0319C30AC00AE5
:1009D0000319C10ACC2C42088400831343188317DF
:1009E00080013E08F8003F08F90003130800800862
:1009F0000319142D0317C0010408BF004010831B06
:100A00004014000803130C1E032D990003173F0820
:100A10008400831340188317840A031D122D0313C7
:100A2000850A03170313F72C08000317420B192D2F
:100A30001C2D4030C3001D2DC30101304102C307EE
:100A400043088038C400C5014408C60003130B22C4
:100A5000080003174008073A03130319392D0B3A0E
:100A60000319402D063A03194C2D023A0319542D4F
:100A70005B2D01300317C100C20003131525622D41
:100A80000317C5010130C60003130B220230031700
:100A9000C10003136C21622D01300317C100023025
:100AA000C20003131525622D0317C5011030C600BF
:100AB00003130B22622D01300317C5004008C60046
:100AC00003130B2208000B080317BD0003138B133D
:100AD000831603178C170C14000000008312BD1F2F
:100AE000742D03138B1703170C087F390319B12DCD
:100AF000BD000D08BE000F08BF003D08C000031375
:100B0000292503173E088D003F088F0003130B08AB
:100B10000317C00003138B13831603178C170C14D1
:100B2000000000008312C01F982D03138B170317BA
:100B30000C0D0E0D7F390319B12DBD000D08BE003F
:100B40000F08BF003D08C0000313292503173E0806
:100B50008D003F088F008D0A03198F0A0313632D40
:100B60000317031308004E12CE122A3003179C00FD
:100B70009D014C309E0045309F004E30A000473014
:100B8000A1004830A2005430A300A4014330A500C6
:100B90004630A600A7014930A8004430A9005F30C4
:100BA000AA004730AB005730AC003130AD003230D6
:100BB000AE003330AF003430B000B1014930B20084
:100BC0004430B3005F30B4004E30B5004F30B60053
:100BD0004430B7004530B800B9012330BA00BB013A
:100BE000013091001C309000013093001E309200C3
:100BF0000130950025309400013097002830960090
:100C0000013099003230980001309B003A309A0050
:100C1000FA015630BE007A08BF003E0884008313F4
:100C20003F1883178001BD013D08053C031C5D2E64
:100C30000E303D07BE003C303D07840083130008A2
:100C4000BF0003130B08F7008B1303173E088D003A
:100C50003F088C0083168C130C1555308D00AA307C
:100C60008D008C148C18322E0C117708831203130C
:100C70008B043C3003173D07840083130008BE003B
:100C8000C201C101C0013E08BF000A30C300C50156
:100C90006F30C4000313992301300317C1000313FD
:100CA0006C210317BF015630BE00C1016F30C00078
:100CB0000313B9240317BD0A142E9701563096006A
:100CC000FA014F30BE007A08BF003E08840083134B
:100CD0003F1883178001BD013D08033C031CB52E5E
:100CE0000A303D07BE0042303D07840083130008F0
:100CF000BF0003130B08F7008B1303173E088D008A
:100D00003F088C0083168C130C1555308D00AA30CB
:100D10008D008C148C188A2E0C1177088312031303
:100D20008B04423003173D07840083130008BE0084
:100D3000C201C101C0013E08BF000A30C300C501A5
:100D40006F30C4000313992301300317C10003134C
:100D50006C210317BF014F30BE00C1016F30C000CE
:100D60000313B9240317BD0A6C2E99014F30980064
:100D700014300313C6000317C201C101C0010313DD
:100D800046080317BF000A30C300C5016F30C40016
:100D900003139923031793016F309200BC013C08A1
:100DA000053C031CEB2E03103C0D103E8400831702
:100DB000840A0008BE0084030008BD008400831379
:100DC0003E1883170313F72440300C1EE52E9900BC
:100DD0000317BC0ACF2E0130C100C2000313152532
:100DE0000A300317C10003136C21DC3003178D0098
:100DF00000308F000313632501300317C100023058
:100E0000C200031315250A300317C10003136C2118
:100E1000E73003178D0000308F0003136325CE11D8
:100E20000800800803192D2F03179A010408990060
:100E30001A10831B1A140008C00003132925031776
:100E40001908840083131A188317840A031D2B2F93
:100E50000313850A03170313112F0800031715083E
:100E6000F80114020318372F1408F700432FF70175
:100E700008309600940DF70D150877020318F70057
:100E8000F80D960B3A2F03130800F701F80103172A
:100E90001F0803102018F707F70CF80CA018F70725
:100EA000F70CF80C2019F707F70CF80CA019F70746
:100EB000F70CF80C201AF707F70CF80CA01AF70734
:100EC000F70CF80C201BF707F70CF80CA01BF70722
:100ED000F70CF80C0313080003171708FA0016089C
:100EE000840083137A18831700089A001908FA00FF
:100EF0001808840083137A18831700081A02031D48
:100F0000982F1708FA001608840083137A1883179D
:100F10008008031D8E2F0030F800B02F1708FA004C
:100F20001608960A0319970A980A0319990A6D2F49
:100F30001708FA001608840083131718831700088F
:100F40009A001908FA0018088400831319188317E7
:100F500000081A020318AE2FFF30AF2F0130F8003F
:100F600003130800031719080739F700190CF800D4
:100F7000F80CF80C1F30F80578081B078400831361
:100F80001C188317F801F80AF70AC72FF80DF70B9A
:100F9000C62F9A080319CF2F78088004D22FF8099A
:100FA000780880050313080003171C080739F700A9
:100FB0001C0CF800F80CF80C1F30F80578081D0719
:100FC000840083131E1883170008F800F70AE92F1E
:0A0FD000F80CF70BE82F03130800DC
:101000004E1601300317C100C2008A1103131525C3
:101010008A150A300317C1008A1103136C218A153F
:10102000BB3003178D0000308F008A110313632536
:101030008A1501300317C1000230C2008A11031360
:1010400015258A150A300317C1008A1103136C2174
:101050008A15C33003178D0000308F008A110313E7
:1010600063258A154E1E89288316061583120619D4
:101070008828B80A0130B80502300317900096306E
:10108000C1008A1103136C218A150317900B3F28A6
:101090000630C1000230C2008A11031315258A15DB
:1010A0000317C201C101C001031338080317BF00B1
:1010B0000A30C300C5016F30C4008A11031399239D
:1010C0008A150A300317C1008A1103136C218A158F
:1010D0006F30840083138A1111278A153808031989
:1010E0007528013A03197F288828CB3003178D0013
:1010F00000308F008A11031363258A158828D430A5
:1011000003178D0000308F008A11031363258A15A1
:101110003228CE19622ACE11380803199328013AD1
:1011200003197629622ACE11CE1603179001910178
:1011300092016F30840083131108840712088A110A
:10114000031358208A15800000380319AC280317B0
:10115000920A910A9928031301300317C100023043
:10116000C2008A11031315258A150A300317C1001E
:101170008A1103136C218A15843003178D00003007
:101180008F008A11031363258A154F30840083135F
:101190008A1111278A15883003178D0000308F00BF
:1011A0008A11031363258A1501300317C100C20099
:1011B0008A11031315258A158E3003178D00003010
:1011C0008F008A11031363258A15CE1E7529831695
:1011D00006158312061910290317900A033090058B
:1011E00010079100C1000130C2008A1103131525B8
:1011F0008A15993003178D0000308F008A11031370
:1012000063258A150230031791009630C1008A11B8
:1012100003136C218A150317910B052973290313F6
:101220008316861583128619742942300317100716
:1012300084008313800A42301007F800FA01031873
:10124000FA0A780891007A08920042301007840068
:101250008313000894000A3095008A1103132E2787
:101260008A15770803179300110884008313121856
:10127000831713088000423010078400831300088E
:101280009100C201C101C0011108BF000A30C300B2
:10129000C5016F30C4008A11031399238A150730E2
:1012A000031710079100C1000230C2008A11031316
:1012B00015258A150A300317C1008A1103136C2102
:1012C0008A156F30840083138A1111278A15023022
:1012D000031791009630C1008A1103136C218A15FF
:1012E0000317910B6A290313E528622A031790015B
:1012F000910192016F308400831311088407120852
:101300008A11031358208A158000003803198D298B
:101310000317920A910A7A290313CE11CE160130CF
:101320000317C1000230C2008A11031315258A1564
:101330000A300317C1008A1103136C218A159E30ED
:1013400003178D0000308F008A11031363258A155F
:101350005630840083138A1111278A15A23003178F
:101360008D0000308F008A11031363258A15013028
:101370000317C100C2008A11031315258A15A8306E
:1013800003178D0000308F008A11031363258A151F
:10139000CE1E622A8316061583120619FD2903172D
:1013A000900A10089400063095008A1103132E2726
:1013B0008A15770803179000033010079100C100C9
:1013C0000130C2008A11031315258A15B4300317A2
:1013D0008D0000308F008A11031363258A150230B7
:1013E000031791009630C1008A1103136C218A15EE
:1013F0000317910BF229602A0313831686158312B3
:101400008619612A3C300317100784008313800A71
:101410003C301007F800FA010318FA0A7808910026
:101420007A0892003C30100784008313000894006F
:101430000A3095008A1103132E278A15770803179F
:101440009300110884008313121883171308800077
:101450003C3010078400831300089100C201C101D1
:10146000C0011108BF000A30C300C5016F30C400BD
:101470008A11031399238A15073003171007910067
:10148000C1000230C2008A11031315258A150A30E3
:101490000317C1008A1103136C218A156F30840071
:1014A00083138A1111278A15023003179100963091
:1014B000C1008A1103136C218A150317910B572A57
:1014C0000313C8298A110A16ED2C031718081904EA
:1014D00003196E2A1908FA001808732A03132C0836
:1014E000FA002B0803179C007A089D001D08A10034
:1014F0001C08A0001B08A3001A08A2002108A500D0
:101500002008A4002508FA002408840083137A1810
:10151000831780080319C32A2308A7002208A600FE
:101520002708FA002608840083137A188317800896
:10153000031DA72A20082402F7002508FA00210825
:10154000031C210FFA027708F800CE2ABB2A2508CF
:10155000FA002408840083137A1883170008A8006F
:101560002708FA002608840083137A1883170008D6
:1015700028020319BF2AA60A0319A70A902AA40A57
:101580000319A50A822A20082402F7002508FA0078
:101590002108031C210FFA027708F80078089C073D
:1015A00003189D0A1D08FA001C08840083137A188A
:1015B00083178008031DE92A03132B088400831373
:1015C0002C188317203080000030F800F900552BCC
:1015D00003171D08A1001C08A0001B08A3001A087F
:1015E000A2002108A5002008A4002508FA0024086C
:1015F000840083137A188317800803192E2B23087D
:10160000A7002208A6002708FA00260884008313F2
:101610007A188317800803192A2B2508FA00240852
:10162000840083137A1883170008A8002708FA009B
:101630002608840083137A18831700082802031DE4
:10164000262B2408F8002508F900312BA60A0319D7
:10165000A70A032BA40A0319A50AF52A0030F800EB
:10166000F90079089F0078089E001F08FA001E08FC
:10167000840083137A18831780080319482B1E08E7
:10168000840083131F18831780019E0A03199F0A81
:101690001F080313AC0003171E080313AB00031746
:1016A0001C08F8001D08F9000313080003179D012A
:1016B0009B010A309C009A0118081904031D632B32
:1016C0000030F800372C1D089D0A1807840083138A
:1016D0001918831700089E001E082D3C031D7C2B43
:1016E00001309B001D089D0A1807840083131918F8
:1016F000831700089E00892B1E082B3C031D892B95
:101700001D089D0A18078400831319188317000801
:101710009E001E082F3C03182D2C1E08393C031C6C
:101720002D2C1E08303C031DB52B1D081807840006
:101730008313191883170008783C0319A92B1D0877
:10174000180784008313191883170008583C031DD9
:10175000B52B10309C009D0A1D089D0A18078400B7
:1017600083131918831700089E001C080A3C031DE8
:10177000DB2B1E082F3C0318DA2B1E08393C031CF8
:10178000DA2B0A309F001A08A0008A11031345279C
:101790008A15780803179F0030301E021F079A0031
:1017A0001D089D0A18078400831319188317000861
:1017B0009E00B92B2D2C1C08103C031D2D2C1E083F
:1017C000603C0318EA2B1E087A3C031CEA2B1E0817
:1017D000DF39EB2B1E089E001E082F3C0318F42B4C
:1017E0001E08393C0318FC2B1E08403C03182D2C06
:1017F0001E08463C031C2D2C1E082F3C03180D2CE4
:101800001E08393C031C0D2C1A0E9F00F0309F055A
:1018100030301E021F079A00162C1A0E9F00F0305F
:101820009F0541301E020A3E1F079A001D089D0AAF
:101830001807840083131918831700089E001E08D8
:10184000603C03182A2C1E087A3C031C2A2C1E0814
:10185000DF392B2C1E089E00EC2B1B0B352C1C0893
:101860000A3C031D352C9A099A0A1A08F80003133A
:1018700008000B080317AB0003138B138316031721
:101880008C170C14000000008312AB1F4A2C0313AA
:101890008B1703170C087F390319892CAB000D082F
:1018A000AC000F08AD002B0803130C1E552C99003B
:1018B00003172C088D002D088F0003130B08031746
:1018C000AE0003138B13831603178C170C14000040
:1018D00000008312AE1F6F2C03138B1703170C0D20
:1018E0000E0D7F390319892CAB000D08AC000F08D1
:1018F000AD002B0803130C1E7B2C990003172C083A
:101900008D002D088F008D0A03198F0A0313392CBF
:101910000317031308000317990101309A009B0174
:101920001B08073C031CB12C1B089C009E014D307A
:101930009D008A110313D4278A15003078180130CE
:1019400003179C001A089F001C08A0008A110313AB
:1019500045278A1578080317990703109A0D9B0AE3
:10196000902C1908F80078080313BB003B080317F4
:1019700099009A011A08073C031CD42C991BC42C0B
:1019800003138810C62C03170313881483168810BA
:10199000081083120810831608108312081403100D
:1019A0000317990D9A0ABA2C831603130811831290
:1019B00008118316081183120815031798011808D7
:1019C000073C031C1E2D99019A016F30840083137C
:1019D000190884071A088A11031358208A158000F1
:1019E00000380319F82C03179A0A990AE52C0313F7
:1019F000031718089C009E014D309D008A110313A7
:101A0000D4278A1500307818013003179900C201D5
:101A1000C101C0011908BF000A30C300C5016F3001
:101A2000C4008A11031399238A156F30840083132D
:101A30008A1111278A150317980ADF2C03133B0814
:101A4000093C031C3A2D031799019A016F30840059
:101A50008313190884071A088A11031364208A154E
:101A6000800000380319392D03179A0A990A262D88
:101A700003136F2D3B08093C0318592D3B08633CA9
:101A8000031C592D031799019A016F3084008313A9
:101A9000190884071A088A1103136B208A1580001D
:101AA00000380319582D03179A0A990A452D031374
:101AB0006F2D031799019A016F3084008313190861
:101AC00084071A088A11031372208A1580000038CF
:101AD00003196F2D03179A0A990A5C2D03132A30F4
:101AE0000C1E702D990040300C1E742D99006F3023
:101AF000840083138A11F7248A15003003178D00A0
:101B000001308F00031339245630840083138A1167
:101B1000F7248A1540300C1E8B2D99004F3084001D
:101B200083138A11F7248A1540300C1E952D9900D5
:101B30000317C201C101C00103133B080317BF0013
:101B40000A30C300C5016F30C4008A110313992302
:101B50008A156F30840083138A11F7248A15403068
:101B60000C1EB02D990023300C1EB42D99000130AD
:101B70000317C1000230C2008A11031315258A150C
:101B80000A300317C1008A1103136C218A15033030
:101B900003178D0001308F008A11031363258A1506
:101BA000031798011808073C031C112E99019A018C
:101BB0006F3084008313190884071A088A110313ED
:101BC00058208A15800000380319EB2D03179A0A54
:101BD000990AD82D0313031718089C009E014D3055
:101BE0009D008A110313D4278A150030781801301C
:101BF00003179900C201C101C0011908BF000A30D2
:101C0000C300C5016F30C4008A11031399238A15DC
:101C10006F30840083138A1111278A150317980ADD
:101C2000D22D031308000317900134309100900166
:101C300003134908031710020318602E1008033C11
:101C40000318242E403091001008110792009900CB
:101C500001309A009C0180309B008A110313B22747
:101C60008A15031712089C009E019D018A11031317
:101C7000D4278A1578185D2EC8300317C1008A1141
:101C800003136C218A15031710089C009E014D3028
:101C90009D008A110313D4278A150030781C013067
:101CA000031792001008990012089A009C014D3009
:101CB0009B008A110313B2278A150317900A182E66
:101CC00003138A110A16032D311231088316870077
:101CD0001030831287065A3003179A009B009C012C
:101CE00041309D009E009F015630A000A100A2013E
:101CF0004330A300A400A5015330A600A700A8010B
:101D0000013091001A309000013093001D30920094
:101D10000130950020309400013097002330960068
:101D200001309900263098009101563090009301BF
:101D30004F3092001430A900AA0103134A08031778
:101D40002A020318C82E34302A078400831300089F
:101D5000AB0003102A0D103E84008317840A00088C
:101D6000AD0084030008AC00C201C101C0012B0812
:101D7000BF000A30C3002D08C5002C08C4008A111A
:101D8000031399238A1503300317A907AA0A9D2E66
:101D9000C201C101C0012908BF000A30C300C5014A
:101DA0007B30C4008A11031399238A152A300C1E34
:101DB000D72E990040300C1EDB2E99007B3084001A
:101DC00083138A11F7248A15063003178D0001301A
:101DD0008F00031339245630840083138A11F724AB
:101DE0008A1540300C1EF22E99004F308400831368
:101DF0008A11F7248A1540300C1EFC2E9900031717
:101E0000AA0103134A0803172A020318212F0310FB
:101E10002A0D103E84008317840A0008AC00840356
:101E20000008AB00840083132C1883178A11031356
:101E3000F7248A1540300C1E1B2F99000317AA0A9D
:101E4000012F233003130C1E232F99003112310868
:101E5000831687001030831287068A110A161A2DFE
:102000002A3003179000FA015F30840083137A1896
:1020100083178001FA016630840083137A188317CE
:10202000800196019701D23084008313160884073B
:1020300017080A1203137F200A16800000380319BC
:1020400026280317970A960A1328031303179701E4
:10205000A0309600100898001708FA0016088400AF
:1020600083137A18831718080002031949281708E0
:10207000FA001608840083137A1883178008031D5A
:1020800045280030F800F9004D28960A0319970AF0
:102090002C281608F8001708F9007908920078082B
:1020A0009100120897001108960017089900160869
:1020B00098001908FA001808840083137A18831707
:1020C000800803196728980A0319990A59281608DD
:1020D0001802F7001908FA001708031C170FFA0274
:1020E0007708F800780893000313BA0103179601E4
:1020F00097016F30840083131608840717080A12AB
:10210000031379200A168000003803198C2803175E
:10211000970A960A7928031303179901A0309800AB
:102120009B016F309A000A128A15031365220A1662
:102130008A11790803179500780894009408031D04
:10214000A42895080319032903133A08FA3E031833
:10215000EE28063E582AEE280317BF016630BE005F
:102160001508C1001408C0000A120313B9240A1686
:10217000EE280317BF015F30BE001508C100140828
:10218000C0000A120313B9240A16EE280317150813
:102190009900140898000A128A15031356230A1688
:1021A0008A117808C700EE2803171508990014084B
:1021B00098000A128A15031356230A168A11780802
:1021C000C800EE280317BF01D230BE001508C100B9
:1021D0001408C0000A120313B9240A160317990140
:1021E00098019B016F309A000A128A150313652229
:1021F0000A168A11790803179500780894000313CA
:10220000BA0A03179E289701663096009901563046
:1022100098000A1203136C270A167808CC000317DB
:1022200097015F30960099014F3098000A1203130E
:102230006C270A167808CB00CC08031D4E2ACB0861
:10224000031D4E2A480803171302031929290313F3
:102250004E2A0313470803193429013A0319352973
:10226000033A0319202A4D2A4D2ABA0101300317D7
:10227000C100C2000A12031315250A160A300317FB
:10228000C1000A1203136C210A1603179801990161
:102290006F30840083131808840719080A12031387
:1022A0005E200A168000003803195B290317990A7B
:1022B000980A4829031303179901D23098009B010B
:1022C0006F309A000A128A15031365220A168A11C2
:1022D000790803179700780896009608031D73295C
:1022E00097080319C82903133A0803197E29013AEC
:1022F00003199829033A0319A629B32901300317B2
:10230000C1000A1203136C210A1603171608840071
:102310008313171883170A12031311270A16F230B2
:1023200003178D0000308F000A12031363250A166D
:10233000031717089900160898000A128A15031344
:1023400056230A168A117808C900B32903171708FB
:102350009900160898000A128A15031356230A16C4
:102360008A117808CA000317990198019B016F3000
:102370009A000A128A15031365220A168A1179082F
:1023800003179700780896000313BA0A03176D29FC
:102390000130C1000A1203136C210A160130031721
:1023A000C1000230C2000A12031315250A160A30B2
:1023B0000317C1000A1203136C210A16F930031720
:1023C0008D0000308F000A12031363250A160317CD
:1023D000C201C101C001031349080317BF000A303D
:1023E000C300C5016F30C4000A12031399230A16F3
:1023F0006F30840083130A1211270A16FC3003176A
:102400008D0000308F000A12031363250A1603178C
:10241000C201C101C00103134A080317BF000A30FB
:10242000C300C5016F30C4000A12031399230A16B2
:102430006F30840083130A1211270A164E174D2A93
:10244000031796019901D23098000A128A150313D6
:1024500056230A168A117808031796009701170861
:10246000073C031C472A0030161801309800170853
:10247000990018089A009C014D309B000A12031322
:10248000B2270A1603100317960C970A2F2A0A126E
:102490008A1503138B240A168A11552A0A3003174A
:1024A000C1000A1203136C210A168A110A16FC2CA9
:1024B0000A108A140A118207AB28AC28B928C6284A
:1024C000D428E2280317900103134A0803171002C7
:1024D0000318072C34301007910092010318920A58
:1024E00010089300013094000230950004309600EB
:1024F00008309700103098002030990040309A0042
:10250000143013078400831700089C009D009E016F
:102510009F01A001893084008317C03080051F0807
:1025200080049F3084008313CF3080051E08800410
:102530008830840083171D0880000330C1000A1210
:1025400003136C210A160317130DF700F70DFC3067
:10255000F70503131F08C33977049F0003300317DF
:10256000C1000A1203136C210A16B301B20103174A
:102570009B011B08633C031CD32A03139F149F1861
:10258000BF2A83161E088312B2071E0803181E0FE7
:10259000B30701300317C1000A1203136C210A1696
:1025A00003179B0AB92A0313330803179D0003136B
:1025B000320803179C008E30F7001D08F8001C0835
:1025C000F900FA01F808031DEF2A7908F800F9016B
:1025D0000830F702F808031DEF2AF701F72A031065
:1025E000F81BF62AF90DF80DF703EF2AF8137A080D
:1025F0009F0079089E0078089D0077089C009A301B
:10260000A3009930A2004C30A1008630A0001C0825
:102610000319CC2BA80020080319CC2BA802031CFB
:10262000162B7F30A8070318CC2B1C2B8130A80257
:10263000031CCC2B0319CC2B2808F700F801F90157
:10264000FA01A7011D08A600A6171E08A5001F086D
:10265000A4001930A8002308A40203183F2B01305E
:10266000A50203183F2BA60203183F2BA70203184D
:102670003F2BA70AA60AA50A2308A407712B220844
:10268000A50203185A2B0130A60203185A2BA702E1
:1026900003185A2BA70AA60A2208A5072308A4078D
:1026A000031C712BA50A031D712BA60A031D712B98
:1026B000A70A712B21088038A6020318702B01305D
:1026C000A7020318702BA70A21088038A607220842
:1026D000A507031C4E2BA60A031D4E2BA70A4E2B43
:1026E0007A14A80B742B7F2B0310A40DA50DA60D37
:1026F000A70D0310FA0DF90DF80DA90D2B2B291CB0
:10270000872B0310F80CF90CFA0CA90C8A2BF70391
:102710000319CC2BA91BB32B0310A40DA50DA60DDB
:10272000A70D2308A40203189F2B0130A50203184C
:102730009F2BA60203189F2BA702031CC22B220863
:10274000A5020318AA2B0130A6020318AA2BA70280
:10275000031CC22B21088038A6020318B32B0130BA
:10276000A702031CC22BFA0A031DC22BF90A031D80
:10277000C22BF80A031DC22BF70A0319CC2BF80C45
:10278000F90CFA0C1D08A8002108A806A81FCA2BDE
:10279000F817D02BF813D02BF701F801F901FA0143
:1027A0007A089F0079089E0078089D0077089C00B1
:1027B0008E30F7001C08F7021D08F9001E08F8000B
:1027C000F917F7080319EF2B0310F908031DEB2B7A
:1027D000F8080319EF2BF90CF80CF70BE42B9D1FED
:1027E000F62BF809F909F80A0319F90A790803130D
:1027F000B3007808B2003208F8000317110884000B
:1028000083131218831778088000900A642A031330
:102810008A110A16132D03081F3983008316031724
:10282000871508300313990002309A00A6309800EB
:10283000903083129800FF30B100B801B901BA019D
:10284000BB01C601C701C801C9010330CA00CB01E1
:10285000CC014E10CE104E11CE114E12CE124E1390
:10286000CE13831603170908C039890003131F12FA
:102870009F120030031788008312870188018901A5
:1028800083130313AB01AC01B401B501B601B70169
:102890000330BC000830BD000630BE000930BF0068
:1028A000C0010730C100C2010130C3000530C400BF
:1028B0000230C500CD013030D1003530D200383083
:1028C000D3003930D400D501D0015130CF003130A0
:1028D000D8003230D9003730DA003130DB00303008
:1028E000DC003230DD00DE01D7015830D600303058
:1028F000E100E200E300E400E501E0016130DF0017
:102900003030E800E900EA00EB00EC00ED00EE01F9
:10291000E7016830E60048308316A0004930A10086
:102920004830A2004930A300A4014830D200493009
:10293000D3004830D4004930D500D6013030F10002
:10294000F200F300F400F501F00171308312EF00A2
:1029500032308316EB003730EC003030ED00EE0003
:10296000EF01FC01EB30FB00F0308800FF30860007
:102970000910891009118911803087008312B10074
:102980001F179F1383169F1783121F148B160B1686
:102990000B16831601138C16C03083128B0435304E
:1029A00090008E010B308F00DC308E000C100A126C
:1029B000862A0A16CE10CE114E1583168811831260
:1029C00088154E100A12EC2A0A160A12B3250A16A6
:1029D000CE1CF02C0A128A1500280A168A112A2DFC
:1029E000CE1DF62C0A12B3250A162A2DCE182A2D32
:1029F0004E1CFC2C4E1000284E1F292DCE1F0B2DD7
:102A00000A128A15132E0A168A11CE130A128A1573
:102A10008B240A168A1164300317C1000A120313AB
:102A20006C210A16622A34081C3C0318292D0A124C
:102A30008A15642E0A168A11083003179000FA309E
:102A4000C1000A1203136C210A160317900B1F2DE5
:082A50000313F62CE82C6300CF
:04400E00E22FFF3F5F
:00000001FF
;PIC16F887
;CRC=5851  CREATED="11-Nov-21 15:06"
