:1000000011308A0002290000FF00030E8301A100C5
:100010000A08A0008A010408A2007708A300780853
:10002000A4007908A5007A08A60003170D08031399
:10003000A70003170F080313A80003170C080313E6
:10004000A90003170E080313AA00831383120B1EC3
:100050002B288B1852288C308400801E31288C1A53
:100060005528220884002308F7002408F8002508F2
:10007000F9002608FA00270803178D000313280843
:1000800003178F000313290803178C0003132A0892
:1000900003178E00031320088A00210E8300FF0E31
:1000A0007F0E09008A110A12DC288A110A1215290A
:1000B0000A108A100A118207303400340A108A109C
:1000C0000A11820700340A108A100A1182075F346D
:1000D000003449223A102010201020102010201047
:1000E00020100000C422D624C3223A102010201071
:1000F0002010201020100001D322CE294F293A10C1
:10010000201020102010201000014922DF23571D4D
:10011000201030183018200020102010201020103F
:100120005F1020102000201020105F1020102000F1
:10013000C3274E23C9233A1020102010201020007E
:10014000C320D3223A1020102010201020102000AD
:10015000A016A02444102010201020102010000110
:10016000A0162022452BC921C529201020100001EE
:10017000A016A0294527D327D2292010201000013E
:10018000A016A02444102D10C72B3A1020102000D8
:10019000C3274E23C92320224F27451020102010AB
:1001A00020102000C3274E23C92320224F274510AB
:1001B000201020102010200083160317960103132F
:1001C000861483128618FB280C1CF6288316081147
:1001D0000430831288060C108E010B308F00DC3047
:1001E0008E0083160317960A8312031383160317D0
:1001F000DF2883120313831603171608143C031811
:100200000C29023083120313D5060430D506D51508
:10021000551211298316031783120313D511551292
:10022000D5128B108A110A12312841303C07840004
:1002300083138C1E19291A08800041303C07840062
:10024000831300082E3C031D2D2941303C078400F8
:1002500083138001BC0155142E29BC0A8C128A110B
:100260000A123128513084008317000803194529E8
:100270000630F800F701F70B3B29F80B3A297B30E1
:10028000F700F70B4129800B382908008316091065
:100290008910091183128910831689100714871495
:1002A000071587158312091583160911000083129B
:1002B000091483160910000083120317D9010313D0
:1002C000311431088316870000308312071801307B
:1002D0000317D9040313B1143108831687000030C3
:1002E000831287180130F7000310F70D7708031702
:1002F000D9040313311531088316870000308312A7
:1003000007190130F700F70DF70DFC30F7057708F6
:100310000317D9040313B115310883168700003081
:10032000831287190130F700F70DF70DF70DF8303C
:10033000F70577080317D9045908F8007808D8009A
:100340000313091083160910000083120914831681
:100350000910AA29AB29000083120317D90103133E
:1003600031143108831687000030831207180130DA
:100370000317D9040313B114310883168700003022
:10038000831287180130F7000310F70D7708031761
:10039000D904031331153108831687000030831206
:1003A00007190130F700F70DF70DFC30F705770856
:1003B0000317D9040313B1153108831687000030E1
:1003C000831287190130F700F70DF70DF70DF8309C
:1003D000F70577080317D9045908F8007808D700FB
:1003E0000313091083160910831231103108831684
:1003F00087008312B11031088316870083123111F0
:100400003108831687008312B111310883168700E3
:1004100083120317580EF700F030F70577085704DA
:10042000F8007808D700D71F182A831603134E291F
:10043000D508031D1F2A03138910212A031703134C
:10044000891483168910000083120911831609117B
:100450000000831209108316091083120317560E29
:10046000D7000F30D7055708D80058183B2A031378
:1004700007103D2A031703130714311031088316A0
:10048000870083120317D818492A031387104B2AB1
:10049000031703138714B1103108831687008312E2
:1004A00003175819572A03130711592A031703135F
:1004B0000715311131088316870083120317D819E5
:1004C000652A03138711672A031703138715B111D0
:1004D000310883168700000083120914831609105F
:1004E0000230F700F70B722A752A000083120910F8
:1004F000831609108312031756080F39D7005708BF
:10050000D8005818872A03130710892A03170313E2
:100510000714311031088316870083120317D81887
:10052000952A03138710972A031703138714B11012
:10053000310883168700831203175819A32A03135F
:100540000711A52A03170313071531113108831664
:10055000870083120317D819B12A03138711B32A0E
:10056000031703138715B1113108831687000000A4
:1005700083120914831609100230F700F70BBE2A04
:10058000C12A000083120910831609108312080083
:1005900028300317CD000C30CE000130CF000630DC
:1005A000D0000313091083160910831289108316D3
:1005B0008910831209118316091183123110310831
:1005C000831687008312B1103108831687008312C7
:1005D00031113108831687008312B1113108831657
:1005E00087000910891009110F3083120317D100F9
:1005F0000313322101300317CC004C08033C031CC9
:10060000512B0330D8005818092B031307100B2B5C
:100610000317031307143110310883168700831260
:100620000317D818172B03138710192B031703135D
:100630008714B110310883168700831203175819E5
:10064000252B03130711272B03170313071531114C
:1006500031088316870083120317D819332B03132D
:100660008711352B031703138715B1113108831632
:100670008700000083120914831609100230F70066
:10068000F70B402B432B000083120910831609102F
:10069000053083120317D100031332210317CC0A4C
:1006A000FD2A0230D8005818592B031307105B2B72
:1006B00003170313071431103108831687008312C0
:1006C0000317D818672B03138710692B031703131D
:1006D0008714B11031088316870083120317581945
:1006E000752B03130711772B03170313071531110C
:1006F00031088316870083120317D819832B03133D
:100700008711852B031703138715B1113108831641
:100710008700000083120914831609100230F700C5
:10072000F70B902B932B00008312091083160910EE
:10073000053083120317D100031332210317CC01B4
:100740004C08033C031CB22B4D304C07840083172C
:100750000008D100D5015108D60003134621031724
:10076000CC0AA02B03138A110A16962A0317520BE0
:10077000BA2BBD2B4030D300BE2BD3010130510228
:10078000D30753088038D400D5015408D60003138A
:100790004621080003175008073A03130319DA2B00
:1007A0000B3A0319E12B063A0319ED2B023A031910
:1007B000F52BFC2B01300317D100D2000313B62315
:1007C000032C0317D5010130D60003134621023054
:1007D0000317D10003133221032C01300317D1007A
:1007E0000230D2000313B623032C0317D5011030B7
:1007F000D60003134621032C01300317D5005008FF
:10080000D6000313462108000B080317CD0003137D
:100810008B13831603178C170C140000000083122F
:10082000CD1F152C03138B1703170C087F390319E1
:10083000522CCD000D08CE000F08CF004D08D0007F
:100840000313CA2303174E088D004F088F000313AC
:100850000B080317D00003138B13831603178C1791
:100860000C14000000008312D01F392C03138B17C7
:1008700003170C0D0E0D7F390319522CCD000D08F6
:10088000CE000F08CF004D08D0000313CA23031772
:100890004E088D004F088F008D0A03198F0A03132D
:1008A000042C0317031308000317D801D701D6013E
:1008B0000130D500DA01DB01D11F9E2C0130DA00B6
:1008C0005108E0005008DF004F08DE004E08DD0050
:1008D000FF30E400E300E200E1002030E900E50140
:1008E000E601E701E8016008FA005F08F9005E0828
:1008F000F8005D08F7000310771C8C2C6108E507F1
:1009000062080318620FE60763080318630FE7071E
:1009100064080318640FE807E80CE70CE60CE50C24
:10092000FA0CF90CF80CF70CE90B7B2C7A08D100C7
:100930007908D0007808CF007708CE00D508031DCD
:10094000AA2CD608031DAA2CD708031DAA2CD80848
:100950000319562E83105108E8005008E7004F088D
:10096000E6004E08E500EC01EB01EA015208E9005F
:100970008318BD2C90308400831768086C0680397A
:10098000831695008312E81FD02CE509E609E709D4
:10099000E809E50A0319E60A0319E70A0319E80A50
:1009A000EC1FDD2CE909EA09EB09EC09E90A031956
:1009B000EA0A0319EB0A0319EC0AF701F801F90135
:1009C000FA018316900191019201930183126C0840
:1009D0006B046A0469040319392D203083169400CE
:1009E00003108312E50DE60DE70DE80D8316900D5B
:1009F000910D920D930D83126C0883161302031D43
:100A0000112D83126B0883161202031D112D831200
:100A10006A0883161102031D112D831269088316BB
:100A20001002031C322D8312690883169002831270
:100A30006A08031C6A0F1D2D202D83169102831254
:100A40006B08031C6B0F252D282D83169202831231
:100A50006C08031C6C0F2D2D302D8316930283120E
:100A600003148316F70DF80DF90DFA0D940BF02C05
:100A700083128316951F472DF709F809F909FA091A
:100A8000F70A0319F80A0319F90A0319FA0A1008F0
:100A90008000840A11088000840A12088000840AF9
:100AA000130880007A088312D8007908D7007808E4
:100AB000D6007708D5005B085307F8005408FA0001
:100AC0000318FA0A7808DD007A08DE00E00104085D
:100AD000DF006010831B601483146130840083176F
:100AE0005108E8005008E7004F08E6004E08E5000E
:100AF000EC01EB01EA015208E9008318822D9030E5
:100B00008400831768086C06803983169500831269
:100B1000E81F952DE509E609E709E809E50A031943
:100B2000E60A0319E70A0319E80AEC1FA22DE909EE
:100B3000EA09EB09EC09E90A0319EA0A0319EB0AC5
:100B40000319EC0AF701F801F901FA018316900183
:100B500091019201930183126C086B046A04690489
:100B60000319FE2D20308316940003108312E50D27
:100B7000E60DE70DE80D8316900D910D920D930D86
:100B800083126C0883161302031DD62D83126B0883
:100B900083161202031DD62D83126A0883161102D2
:100BA000031DD62D8312690883161002031CF72D2E
:100BB000831269088316900283126A08031C6A0F65
:100BC000E22DE52D8316910283126B08031C6B0F37
:100BD000EA2DED2D8316920283126C08031C6C0F14
:100BE000F22DF52D83169302831203148316F70D4D
:100BF000F80DF90DFA0D940BB52D83128316951F80
:100C00000C2EF709F809F909FA09F70A0319F80A85
:100C10000319F90A0319FA0A10088000840A110856
:100C20008000840A12088000840A1308800083125E
:100C30005F08840083136018831730306107F70062
:100C40006208F800003003180130F8076308F90063
:100C5000003003180130F9076408FA000030031867
:100C60000130FA075D08840083135E188317770844
:100C700080005B085307840083135418831700080F
:100C8000393C03184C2E5B08530784008313541817
:100C90008317073000078000DB0A5808D100570887
:100CA000D0005608CF005508CE009E2C5A0B612E5E
:100CB0005B08530784008313541883172D3080007A
:100CC000DB0AD90103105B0C59020318972E59084F
:100CD000530784008313541883170008DC00590855
:100CE0005307F8005408FA000318FA0A7808DD00E0
:100CF0007A08DE0059085B02FF3E53078400831325
:100D0000541883170008DF005D08840083135E1801
:100D100083175F08800059085B02FF3E5307840079
:100D20008313541883175C088000D90A622E5B086D
:100D30005307840083135418831780015308F80065
:100D40005408F9000313080003174E080739F70089
:100D50004E0CF800F80CF80C1F30F80578084F0717
:100D600084008313501883170008F800F70AB92E7F
:100D7000F80CF70BB82E0313080003174D080739BA
:100D8000F7004D0CF800F80CF80C1F30F805780847
:100D90004F078400831350188317F801F80AF70AE5
:100DA000D22EF80DF70BD12ECE080319DA2E7808C3
:100DB0008004DD2EF8097808800503130800551615
:100DC00001300317D100D2000313B6230A300317F2
:100DD000D10003133221983003178D0000308F00AB
:100DE0000313042401300317D1000230D20003138F
:100DF000B6230A300317D10003133221A0300317A2
:100E00008D0000308F0003130424551E782F8316A5
:100E1000061583120619772FB80A0330B805023079
:100E20000317CC009630D100031332210317CC0BEB
:100E3000122F0630D1000230D2000313B62303175D
:100E4000D101D001CF01031338080317CE000A30B7
:100E5000D200D401D830D300031354240A3003172E
:100E6000D10003133221D830840083138008031982
:100E7000522F0317CE010408CD004E10831B4E14D1
:100E80000008D0000313CA2303174D0884008313FE
:100E90004E188317840A031D502F0313850A031766
:100EA0000313362F3808FC3E0318772F043E802F9B
:100EB000A83003178D0000308F0003130424772F10
:100EC000B03003178D0000308F0003130424772FF8
:100ED000B83003178D0000308F0003130424772FE0
:100EE000C03003178D0000308F0003130424052F3A
:100EF000D5197D2F8A1500288A118A110A16A42A6D
:100F00000A148A140A158207582F602F682F702F31
:100F100080080319A52F0317D0010408CF00501033
:100F2000831B5014000803130C1E942F9900031701
:100F30004F088400831350188317840A031DA32FBE
:100F40000313850A03170313882F08000317CC0126
:100F50004C081E3C031CBA2F831603138810023062
:100F60008312880664300317D1000313322103175C
:100F7000CC0AA82F03138A110A16B22A01300317CC
:100F8000D100D2000313B6230A300317D100031394
:100F9000322141308400831380080319E82F03179E
:100FA000CE010408CD004E10831B4E140008D00063
:100FB0000313CA2303174D08840083134E188317A5
:100FC000840A031DE62F0313850A03170313CC2F8E
:100FD00001300317D100031332218A110A16212B85
:10100000D5113808FC3E0318392C043E3C2CD51170
:10101000D51601300317D1000230D2008A11031314
:10102000B6238A150A300317D1008A11031332211F
:101030008A15693003178D0000308F008A11031361
:1010400004248A15D51E88288316061583120619CE
:101050008728B90A39080F3C031CB901023003176D
:10106000CC009630D1008A11031332218A15031760
:10107000CC0B3128D101D001CF010313390803175C
:10108000CE000A30D200D4017130D3008A1103138C
:1010900054248A1509300317D1000230D2008A1176
:1010A0000313B6238A150A300317D1008A110313DC
:1010B00032218A15713084008313800803197B283C
:1010C0000317CE010408CD004E10831B4E140008F8
:1010D000D0008A110313CA238A1503174D08840010
:1010E00083134E188317840A031D79280313850A76
:1010F000031703135D2801300317D1008A1103136E
:1011000032218A158316081001308312880622289E
:10111000392CD511D51601300317D1000230D20079
:101120008A110313B6238A150A300317D1008A11D6
:10113000031332218A15723003178D0000308F009F
:101140008A11031304248A15D51EE1298316061576
:10115000831206196B29BA0A3A08073C031CBA0124
:1011600002300317CC009630D1008A1103133221CC
:101170008A150317CC0BB328D101D001CF0103137B
:101180003A080317CE000A30D200D401D830D30079
:101190008A11031354248A1509300317D100023031
:1011A000D2008A110313B6238A150A300317D1001F
:1011B0008A11031332218A15D830840083138008E2
:1011C0000319FD280317CE010408CD004E10831B20
:1011D0004E140008D0008A110313CA238A1503177E
:1011E0004D08840083134E188317840A031DFB28BF
:1011F0000313850A03170313DF2801300317D100F7
:101200008A11031332218A1520300317D0008A1166
:101210000313CA238A153A300317D0008A11031327
:10122000CA238A1520300317D0008A110313CA235A
:101230008A1501300317D1008A11031332218A1550
:101240003A080317CE00D0015630CF008A1103139D
:10125000A4268A150030781801300317CC00D1017C
:10126000D001CF014C08CE000A30D200D401D830D2
:10127000D3008A11031354248A15D83084008313B1
:10128000800803195E290317CE010408CD004E1013
:10129000831B4E140008D0008A110313CA238A1539
:1012A00003174D08840083134E188317840A031D07
:1012B0005C290313850A0317031340290130031720
:1012C000D1008A11031332218A15831608100130C8
:1012D00083128806E0298316861583128619E02971
:1012E0003A080317CE00D0015630CF008A110313FD
:1012F000A4268A150030781C01300317CC00031394
:101300003A080317CD004C08CE00D0015630CF006C
:101310008A110313BD268A150D300317D100023040
:10132000D2008A110313B6238A1502300317CC00AA
:101330009630D1008A11031332218A150317CC0B82
:10134000982903133A080317CE00D0015630CF0076
:101350008A110313A4268A15003078180130031768
:10136000CC00D101D001CF014C08CE000A30D20010
:10137000D401D830D3008A11031354248A15D830ED
:101380008400831380080319E0290317CE010408A1
:10139000CD004E10831B4E140008D0008A11031399
:1013A000CA238A1503174D08840083134E18831728
:1013B000840A031DDE290313850A03170313C229B8
:1013C000A428392CD511D51601300317D1000230CD
:1013D000D2008A110313B6238A150A300317D100ED
:1013E0008A11031332218A157C3003178D000030D7
:1013F0008F008A11031304248A15D51E3A2B8316F5
:10140000061583120619C42ABB0A3B08033C031CB9
:10141000BB0102300317CC009630D1008A110313B0
:1014200032218A150317CC0B0C2AD101D001CF0130
:1014300003133B080317CE000A30D200D401D83082
:10144000D3008A11031354248A1509300317D100DD
:101450000230D2008A110313B6238A150A3003170B
:10146000D1008A11031332218A15D83084008313E6
:1014700080080319562A0317CE010408CD004E1028
:10148000831B4E140008D0008A110313CA238A1547
:1014900003174D08840083134E188317840A031D15
:1014A000542A0313850A03170313382A013003173C
:1014B000D1008A11031332218A1520300317D0007E
:1014C0008A110313CA238A153A300317D0008A11F0
:1014D0000313CA238A1520300317D0008A1103137F
:1014E000CA238A1501300317D1008A110313322150
:1014F0008A153B080317CE00D0015730CF008A1160
:101500000313A4268A150030781801300317CC0085
:10151000D101D001CF014C08CE000A30D200D40155
:10152000D830D3008A11031354248A15D83084008C
:10153000831380080319B72A0317CE010408CD00CE
:101540004E10831B4E140008D0008A110313CA23C7
:101550008A1503174D08840083134E188317840AD5
:10156000031DB52A0313850A03170313992A0130B3
:101570000317D1008A11031332218A15831608102C
:10158000013083128806392B83168615831286193B
:10159000392B3B080317CE00D0015730CF008A11FA
:1015A0000313A4268A150030781C01300317CC00E1
:1015B00003133B080317CD004C08CE00D001573071
:1015C000CF008A110313BD268A150D300317D100F1
:1015D0000230D2008A110313B6238A150230031792
:1015E000CC009630D1008A11031332218A150317DB
:1015F000CC0BF12A03133B080317CE00D001573060
:10160000CF008A110313A4268A1500307818013000
:101610000317CC00D101D001CF014C08CE000A3015
:10162000D200D401D830D3008A11031354248A1570
:10163000D8308400831380080319392B0317CE0197
:101640000408CD004E10831B4E140008D0008A11F0
:101650000313CA238A1503174D08840083134E18F9
:101660008317840A031D372B0313850A03170313FB
:101670001B2BFD29392C0317CC01CD01CE01D8300D
:10168000840083134D0884074E088A1103135820E1
:101690008A15800000380319522B0317CE0ACD0A91
:1016A0003F2B0313D511D51601300317D10002309B
:1016B000D2008A110313B6238A150A300317D1000A
:1016C0008A11031332218A15853003178D000030EB
:1016D0008F008A11031304248A1501300317D100E7
:1016E000D2008A110313B6238A158C3003178D009C
:1016F00000308F008A11031304248A15D51E392C5B
:101700008316061583120619AA2B0317CC0A033079
:10171000CC0505304C07CD00D1000130D2008A1134
:101720000313B6238A15933003178D0000308F0002
:101730008A11031304248A1502300317CD00963052
:10174000D1008A11031332218A150317CD0B9F2B69
:10175000372C03138316861583128619382C7B3099
:1017600003174C0784008313800A7B304C07F80072
:10177000FA010318FA0A7808CD007A08CE007B3007
:101780004C07840083130008D0000A30D1005108B0
:10179000F80150020318CF2B5008F700DB2BF7019C
:1017A0000830D200D00DF70D510877020318F7006A
:1017B000F80DD20BD22B7708CF004D08840083138D
:1017C0004E1883174F0880007B304C07840083132A
:1017D0000008CD00D101D001CF014D08CE000A3064
:1017E000D200D401D830D3008A11031354248A15AF
:1017F000093003174C07CD00D1000230D2008A1106
:101800000313B6238A150A300317D1008A11031374
:1018100032218A15D83084008313800803192B2CB9
:101820000317CE010408CD004E10831B4E14000890
:10183000D0008A110313CA238A1503174D088400A8
:1018400083134E188317840A031D292C0313850A5A
:10185000031703130D2C02300317CD009630D1006F
:101860008A11031332218A150317CD0B2E2C031373
:101870007E2B8A110A127C2F0A108A100A15820701
:1018800007288928E2293B2B5512D512FA01E830A6
:101890000317CD007A08CE004D08840083134E183C
:1018A00083178001CC014C08033C031CB62C7B3011
:1018B0004C07840083130008CD00D101D001CF0173
:1018C0004D08CE000A30D200D401D830D3008A119E
:1018D000031354248A1501300317D1008A1103130E
:1018E00032218A150317CF01E830CE00D101D8305C
:1018F000D0004F08D3004E08D2005308FA00520817
:10190000840083137A188317800803198B2CD20A5A
:101910000319D30A7D2C5108FA0050088400831360
:101920007A18831780080319AA2C5008840083139F
:10193000511883170008D6005208840083135318E7
:10194000831756088000D20A0319D30AD00A031954
:10195000D10A8B2C520884008313531883178001FB
:101960004E08F8004F08F900CC0A532C83160313D5
:10197000CB01E830CA00023083120317D1008A116C
:10198000031332218A158316CD017130CC00023049
:1019900083120317D1008A11031332218A1503170A
:1019A000CD01CE015830840083134D0884074E08C2
:1019B0008A1103135E208A15800000380319E52C74
:1019C0000317CE0ACD0AD22C0313FA01D8308400B3
:1019D00083137A1883178001FA0158308400831327
:1019E0007A18831780010317CD014D08073C031CAB
:1019F000602D4D08CE00D0015630CF008A11031360
:101A0000A4268A15781C5D2D0317D101D001CF01C2
:101A10004D08CE000A30D200D401D830D3008A114C
:101A2000031354248A1501300317D1008A110313BC
:101A300032218A150317CF015830CE00D101D8309A
:101A4000D0004F08D3004E08D2005308FA005208C5
:101A5000840083137A18831780080319332DD20A60
:101A60000319D30A252D5108FA0050088400831366
:101A70007A18831780080319522D500884008313A5
:101A8000511883170008D600520884008313531896
:101A9000831756088000D20A0319D30AD00A031903
:101AA000D10A332D52088400831353188317800101
:101AB0004E08F8004F08F90003130317CD0AF52C60
:101AC000FA01D830840083137A1883178001FA0151
:101AD000DD30840083137A1883178001CD014D080F
:101AE000043C031CDA2D4D08CE00D0015730CF0046
:101AF0008A110313A4268A15781CD72D0317D10148
:101B0000D001CF014D08CE000A30D200D401D83028
:101B1000D3008A11031354248A1501300317D1000E
:101B20008A11031332218A150317CF01DD30CE004D
:101B3000D101D830D0004F08D3004E08D20053084E
:101B4000FA005208840083137A1883178008031957
:101B5000AD2DD20A0319D30A9F2D5108FA0050085F
:101B6000840083137A18831780080319CC2D50083A
:101B700084008313511883170008D600520884008C
:101B800083135318831756088000D20A0319D30A07
:101B9000D00A0319D10AAD2D5208840083135318BB
:101BA000831780014E08F8004F08F900031303174C
:101BB000CD0A6F2D83160313D3015830D2000230A3
:101BC00083120317D1008A11031332218A15831659
:101BD000D501DD30D400F6013130CE003230CF00F7
:101BE00083120317CC014C08083C031C272E03105A
:101BF0004C0DC83E84008313840A0008CE00840381
:101C00000008CD004E08D0004D08CF005008D2008B
:101C10004F08D1005208FA005108840083137A1843
:101C2000831780080319182ED10A0319D20A0A2E25
:101C30004F085102F7005208FA005008031C500FD9
:101C4000FA027708F8007808F607CC0AF32D073077
:101C5000F607D101D001CF017608CE000A30D200BC
:101C6000D401D830D3008A11031354248A15831663
:101C7000CF01D830CE0083120317CC014C08073CAB
:101C8000031C5C2E03104C0DC83E84008313840A91
:101C90000008CE0084030008CD00840083134E1892
:101CA00083178A11031388278A1540300C1E562E7D
:101CB00099000317CC0A3E2E0130D100D2008A11C0
:101CC0000313B6238A150A300317D1008A110313B0
:101CD00032218A15C83003178D0000308F008A1119
:101CE000031304248A1501300317D1000230D200F7
:101CF0008A110313B6238A150A300317D1008A11FB
:101D0000031332218A15D23003178D0000308F0063
:101D10008A11031304248A15E6017130E500D511F8
:101D20008A110A16AB2A03174C084D0403199C2E7E
:101D30004D08FA004C08A12E03132C08FA002B08BA
:101D40000317D0007A08D1005108D5005008D400FC
:101D50004F08D7004E08D6005508D9005408D800BF
:101D60005908FA005808840083137A1883178008EA
:101D70000319F12E5708DB005608DA005B08FA0059
:101D80005A08840083137A1883178008031DD52E00
:101D900054085802F7005908FA005508031C550F5B
:101DA000FA027708F800FC2EE92E5908FA005808C4
:101DB000840083137A1883170008DC005B08FA009C
:101DC0005A08840083137A18831700085C020319E9
:101DD000ED2EDA0A0319DB0ABE2ED80A0319D90A36
:101DE000B02E54085802F7005908FA005508031C91
:101DF000550FFA027708F8007808D0070318D10ABF
:101E00005108FA005008840083137A188317800859
:101E1000031D172F03132B08840083132C1883171B
:101E2000203080000030F800F900832F031751089C
:101E3000D5005008D4004F08D7004E08D6005508EA
:101E4000D9005408D8005908FA00580884008313B0
:101E50007A188317800803195C2F5708DB0056088F
:101E6000DA005B08FA005A08840083137A18831793
:101E700080080319582F5908FA0058088400831362
:101E80007A1883170008DC005B08FA005A088400FF
:101E900083137A18831700085C02031D542F580817
:101EA000F8005908F9005F2FDA0A0319DB0A312F0D
:101EB000D80A0319D90A232F0030F800F90079084D
:101EC000D3007808D2005308FA0052088400831324
:101ED0007A18831780080319762F52088400831319
:101EE000531883178001D20A0319D30A5308031326
:101EF000AC00031752080313AB0003175008F80097
:081F00005108F9000313080069
:102000000317D101CF010A30D000CE014C084D0496
:10201000031D0D280030F80000295108D10A4C0793
:10202000840083134D1883170008D20052082D3CFA
:10203000031D26280130CF005108D10A4C07840027
:1020400083134D1883170008D200332852082B3C05
:10205000031D33285108D10A4C07840083134D18FF
:1020600083170008D20052082F3C0318F6285208A4
:10207000393C031CF6285208303C031D5F285108E8
:102080004C07840083134D1883170008783C03190C
:10209000532851084C07840083134D1883170008F8
:1020A000583C031D5F281030D000D10A5108D10AD6
:1020B0004C07840083134D1883170008D200500882
:1020C0000A3C031DA42852082F3C0318A3285208D9
:1020D000393C031CA3280A30D3004E08D400F70172
:1020E000F801530803105418F707F70CF80CD4182C
:1020F000F707F70CF80C5419F707F70CF80CD4197C
:10210000F707F70CF80C541AF707F70CF80CD41A69
:10211000F707F70CF80C541BF707F70CF80CD41B57
:10212000F707F70CF80C7808D30030305202530749
:10213000CE005108D10A4C07840083134D18831731
:102140000008D2006328F6285008103C031DF6282A
:102150005208603C0318B32852087A3C031CB32889
:102160005208DF39B4285208D20052082F3C031815
:10217000BD285208393C0318C5285208403C0318B2
:10218000F6285208463C031CF62852082F3C031838
:10219000D6285208393C031CD6284E0ED300F03006
:1021A000D305303052025307CE00DF284E0ED30045
:1021B000F030D305413052020A3E5307CE00510899
:1021C000D10A4C07840083134D1883170008D200EE
:1021D0005208603C0318F32852087A3C031CF32889
:1021E0005208DF39F4285208D200B5284F0BFE28D8
:1021F00050080A3C031DFE28CE09CE0A4E08F800FE
:102200000313080003081F3983008316031787157B
:1022100008300313990002309A00A63098009030DD
:1022200083129800FF30B100B801B901BA01BB01B7
:10223000BC01BD015510D5105511D5115512D5123F
:10224000F601831603170908C039890003131F120A
:102250009F120030031788008312870188018901CB
:1022600083130313AB01AC014830C1004930C200F5
:102270004830C3004930C400C501D630D6000F3005
:10228000D7003030DA00DB00DC00DD00DE00DF00EC
:10229000E000E100E201D9015A30D8002A3083166B
:1022A000A000A1014930A2004430A3005F30A40087
:1022B0004730A5005730A600A7014930A800443098
:1022C000A9005F30AA004E30AB004F30AC00443064
:1022D000AD004530AE00AF014C30B0004530B1002C
:1022E0004E30B2004730B3004830B4005430B5002F
:1022F000B6015330B7005F30B8005330B900BA01AF
:102300005430BB00BC005F30BD006330BE006130A4
:10231000BF006D30C0006230C1006930C20065305E
:10232000C3006E30C400C5012330C600C70183124C
:10233000E401A030E300E601A230E500E801A830A6
:10234000E700EA01B030E900EC01B730EB00EE0144
:10235000BB30ED00F001C630EF002A3003179000CB
:10236000910149309200443093005F30940047302F
:1023700095005730960097014930980044309900F5
:102380005F309A004E309B004F309C0044309D00DF
:1023900045309E009F014C30A0004530A1004E30DA
:1023A000A2004730A3004830A4005430A500A60185
:1023B0004330A7005F30A8004630A900AA0144308E
:1023C000AB004530AC005630AD004930AE00433074
:1023D000AF004530B0003130B1003230B2003330A0
:1023E000B3003430B400B5015330B6004530B70007
:1023F0004E30B8005330B9004F30BA005230BB00F5
:102400003130BC003230BD003330BE003430BF004C
:10241000C0012330C100C201013083160313C9007B
:102420001030C8000130CB001230CA000130CD009E
:102430001830CC000130CF002030CE000130D10068
:102440002730D0000130D3002B30D2000130D5002E
:102450003630D4000130D7004130D6003030F300A0
:10246000F400F501F2017330F100FB01FC01FD0104
:10247000FE013030DA00DB00DC01D901DA30D800AF
:102480003030DF00E000E100E200E300E400E500BE
:10249000E600E701DE01DF30DD003030EA00EB006E
:1024A000EC00ED00EE01E901EA30E8003230831281
:1024B0000317C3003730C400C5013230C6003730BF
:1024C000C700C8010030831603138800FF30860060
:1024D0000910891009118911803087008312B10019
:1024E0001F179F1383169F1783121F14831603173A
:1024F0000908C039890003131F129F120130031706
:102500008800831203138B160B160B168316011308
:102510008C16C03083128B04353090008E010B3046
:102520008F00DC308E000C100A12C82A0A16B9017E
:10253000D510D511551583168801831288015510C1
:10254000D51CA62A0A12DF2E0A16BE2BD51DAE2ACE
:102550000A128A15442C0A168A11BE2BD518BE2BD6
:102560000A12A62F0A16B508031DBA2A34081A3C07
:1025700003181B2B0317D101D001031335080317D0
:10258000CF00031334080317CE000A30D200013005
:10259000D4004330D3000A12031354240A16013026
:1025A000EC004330EB000317D101D00103133708CF
:1025B0000317CF00031336080317CE000A30D200EA
:1025C0000130D4004630D3000A12031354240A16F3
:1025D0000130EE004630ED000317C9014908073C01
:1025E000031C0F2B0310490D633E84008313840AE0
:1025F0000008CD0084030008CC00840083134D182C
:1026000083170A12031388270A1601300317D10013
:102610000A12031332210A160317C90AEE2A0430DC
:10262000CC00FA30D1000A12031332210A16031724
:10263000CC0B112B0313551CBD2B5510BD010A12D9
:10264000BE2F0A160317CC01CD01D83084008313A6
:102650004C0884074D080A12031363200A168000F1
:1026600000380319382B0317CD0ACC0A252B031386
:102670000317CD014130CC00CF01D830CE000A1273
:102680008A15031393260A168A1179080317CB00BB
:102690007808CA000130D1000230D2000A120313B8
:1026A000B6230A160317CA08031D592BCB080319B2
:1026B0009B2B03133D08FC3E03187F2B043EC02BCD
:1026C0007F2B03174B08CD004A08CC0003130020D2
:1026D0007808BE007F2B03174B08CD004A08CC00BA
:1026E0000313002040307807BF007F2B03174B08EF
:1026F000CD004A08CC00031300207808C000013048
:102700000317D1000A12031332210A160317CD0151
:10271000CC01CF01D830CE000A128A1503139326BC
:102720000A168A1179080317CB007808CA00031328
:10273000BD0A522B0317031339083E02031DBD2B9C
:10274000C008031DA52B0030A62B0130F7003F0861
:102750000317CD007708CE00D001CF010A12031372
:10276000BD260A163F080317CD00CE01D0018030E8
:10277000CF000A120313BD260A16AE2AA02A630050
:102780000A148A140A118207602B612B6B2B762B9B
:04400E00E22FFF3F5F
:00000001FF
;PIC16F887
;CRC=A8A1  CREATED="26-Oct-21 14:13"
