:1000000013308A00402B0000FF00030E8301A10083
:100010000A08A0008A010408A2007708A300780853
:10002000A4007908A5007A08A60003170D08031399
:10003000A70003170F080313A80003170C080313E6
:10004000A90003170E080313AA00831383120B1EC3
:100050002B288B1852288C308400801E31288C1A53
:100060005528220884002308F7002408F8002508F2
:10007000F9002608FA00270803178D000313280843
:1000800003178F000313290803178C0003132A0892
:1000900003178E00031320088A00210E8300FF0E31
:1000A0007F0E09008A110A12EF288A110A122029EC
:1000B0000A108A100A118207303400340A108A109C
:1000C0000A1182075F3400340A108A100A1182076D
:1000D000233400340A108A100A1182070034CE2714
:1000E000C4223A10000030183018201020102010C0
:1000F0002010201000012010201020105F10201070
:10010000201020102010201020102000201020107F
:100110005F10201020004922DF23571D00013018F6
:10012000301830182010201020102010000120104E
:10013000201020105F102010201020102010201000
:10014000201020102000201020105F102010201000
:1001500020102000C3274E23C9233A10201020105E
:1001600020102000C320D3223A102010201020108D
:1001700020102000A016A024C416CE27C4222010D0
:10018000201020100001A016A024C416C72B201098
:10019000201020102000D720492A492747102E1769
:1001A0002E1720102010201020100001D720492ADF
:1001B000492747102E172E1720102010201020102E
:1001C000000020102010201020102010201000010E
:1001D00054213A1000012010201043213A00031747
:1001E000E901831603138614831286180A290C1C4E
:1001F0000729831608110430831288060C108E011B
:100200000B308F00DC308E000317E90A031303174D
:10021000F128031303176908143C03181829023046
:100220000313D2060430D206D21552121C2903172A
:100230000313D2115212D2128B108A110A123128D2
:10024000A0303D07840083138C1E24291A088000E7
:10025000A0303D078400831300082E3C031D38297D
:10026000A0303D07840083138001BD015214392959
:10027000BD0A8C128A110A123128C02953200000AD
:1002800020102010201020102010201020102010EE
:1002900020002010201020102010201020102010EE
:1002A00020102000363084008317000803196529C8
:1002B0000630F800F701F70B5B29F80B5A297B3061
:1002C000F700F70B6129800B5829080003173D1828
:1002D0006D29031307106F29031703130714311037
:1002E00031088316870083120317BD187B29031377
:1002F00087107D29031703138714B1103108831663
:100300008700831203173D198929031307118B29CD
:100310000317031307153111310883168700831261
:100320000317BD199729031387119929031703137D
:100330008715B11131088316870000008312091454
:10034000831609100230F700F70BA429A729000033
:100350008312091083160910831208000317BE01C7
:1003600003133114310883168700003083120718F5
:1003700001300317BE040313B1143108831687003C
:100380000030831287180130F7000310F70D77084B
:100390000317BE040313311531088316870000309C
:1003A000831207190130F700F70DF70DFC30F70540
:1003B00077080317BE040313B115310883168700AD
:1003C0000030831287190130F700F70DF70DF70D94
:1003D000F830F70577080317BE043E08F80003134A
:1003E00008008316091089100911831289108316D9
:1003F00089100714871407158715831209158316AA
:1004000009110000831209148316091000008312D9
:10041000AE2178080317BD000313091083160910D5
:1004200000008312091483160910162A172A0000E7
:100430008312AE2178080317BC000313091083163A
:100440000910831231103108831687008312B1100E
:100450003108831687008312311131088316870013
:100460008312B111310883168700831203173D0EE2
:10047000F700F030F70577083C04F8007808BC0076
:10048000BC1F452A83160313F929BA08031D4C2AF9
:10049000031389104E2A0317031389148316891036
:1004A000000083120911831609110000831209103C
:1004B00083160910831203173B0EBC000F30BC05D6
:1004C0003C08BD000313662103173B080F39BC002D
:1004D000BD0003136621080028308316D8000C30B5
:1004E000D9000130DA000630DB00831209108316D0
:1004F000091083128910831689108312091183163B
:100500000911831231103108831687008312B1104C
:100510003108831687008312311131088316870052
:100520008312B1113108831687000910891009114F
:100530000F3083120317B6000313522101308316C4
:10054000D7005708033C031CB32A03308312031758
:10055000BD000313662105300317B60003135221B3
:100560008316D70AA12A023083120317BD00031392
:10057000662105300317B600031352218316D701F5
:100580005708033C031CD82AD8305707840083132C
:100590000008DC0083120317BA01831603135C08FA
:1005A00083120317BB000313F1218316D70AC02A55
:1005B00083128A110A160A2C0317370BE02AE32A42
:1005C0004030B800E42AB80101303602B8073808D4
:1005D0008038B900BA013908BB000313F1210800C3
:1005E00003173508073A03130319002B0B3A0319B5
:1005F000072B063A0319132B023A03191B2B222B44
:1006000001300317B600B7000313DC22292B0317B0
:10061000BA010130BB000313F12102300317B60009
:1006200003135221292B01300317B6000230B70003
:100630000313DC22292B0317BA011030BB0003136C
:10064000F121292B01300317BA003508BB00031331
:10065000F12108000B080317B20003138B13831654
:1006600003178C170C14000000008312B21F3B2BE1
:1006700003138B1703170C087F390319782BB2006B
:100680000D08B3000F08B4003208B5000313F022C0
:10069000031733088D0034088F0003130B0803176A
:1006A000B50003138B13831603178C170C1400006B
:1006B00000008312B51F5F2B03138B1703170C0D5C
:1006C0000E0D7F390319782BB2000D08B3000F0807
:1006D000B4003208B5000313F022031733088D006D
:1006E00034088F008D0A03198F0A03132A2B03176E
:1006F0000313080083187F2B5330840083170317DC
:100700004E0852068039D800CE1F912BCB09CC0958
:10071000CD09CE09CB0A0319CC0A0319CD0A031956
:10072000CE0AD21F9E2BCF09D009D109D209CF0AF8
:100730000319D00A0319D10A0319D20AF701F801E3
:10074000F901FA01D301D401D501D60152085104AF
:1007500050044F040319DC2B2030D7000310CB0DBD
:10076000CC0DCD0DCE0DD30DD40DD50DD60D52081B
:100770005602031DC52B51085502031DC52B5008F9
:100780005402031DC52B4F085302031CD62B4F08E0
:10079000D3025008031C500FD4025108031C510F00
:1007A000D5025208031C520FD6020314F70DF80DA0
:1007B000F90DFA0DD70BAE2BD81FE92BF709F80965
:1007C000F909FA09F70A0319F80A0319F90A0319CA
:1007D000FA0A53088000840A54088000840A5508E5
:1007E0008000840A56088000031308000317BE0126
:1007F000BD01BC010130BB00C001C101B71F402CCD
:100800000130C0003708C6003608C5003508C400EE
:100810003408C300FF30CA00C900C800C700203038
:10082000CF00CB01CC01CD01CE014608FA0045082E
:10083000F9004408F8004308F7000310771C2E2C39
:100840004708CB0748080318480FCC074908031886
:10085000490FCD074A0803184A0FCE07CE0CCD0C1E
:10086000CC0CCB0CFA0CF90CF80CF70CCF0B1D2CA4
:100870007A08B7007908B6007808B5007708B400A0
:10088000BB08031D4C2CBC08031D4C2CBD08031DCC
:100890004C2CBE080319C82C83103708CE0036082C
:1008A000CD003508CC003408CB00D201D101D001F5
:1008B0003808CF0003137A237A080317BE0079089B
:1008C000BD007808BC007708BB0041083907F80074
:1008D0003A08FA000318FA0A7808C3007A08C40034
:1008E000C6010408C5004610831B46148314473014
:1008F000840083173708CE003608CD003508CC00B9
:100900003408CB00D201D101D0013808CF00031345
:100910007A23031745088400831346188317303061
:100920004707F7004808F800003003180130F807BF
:100930004908F900003003180130F9074A08FA00A5
:10094000003003180130FA07430884008313441869
:1009500083177708800041083907840083133A1809
:1009600083170008393C0318BE2C4108390784005E
:1009700083133A188317073000078000C10A3E0826
:10098000B7003D08B6003C08B5003B08B400402C59
:10099000400BD32C41083907840083133A1883177E
:1009A0002D308000C10ABF010310410C3F02031823
:1009B000092D3F083907840083133A18831700086C
:1009C000C2003F083907F8003A08FA000318FA0A8B
:1009D0007808C3007A08C4003F084102FF3E390787
:1009E000840083133A1883170008C5004308840065
:1009F000831344188317450880003F084102FF3ED7
:100A00003907840083133A18831742088000BF0A0D
:100A1000D42C41083907840083133A1883178001C6
:100A20003908F8003A08F900031308008008031990
:100A3000342D8316E0010408DF006010831B60146E
:100A4000000883120317B5000313F02283165F0812
:100A50008400831360188317840A031D322D8312C8
:100A6000850A83168312162D080083165C08F80188
:100A70005B0203183E2D5B08F7004A2DF701083092
:100A8000DD00DB0DF70D5C0877020318F700F80DA9
:100A9000DD0B412D83120800521601300317B600FA
:100AA000B7000313DC220A300317B60003135221E8
:100AB000AA3003178D0000308F0003132A23013062
:100AC0000317B6000230B7000313DC220A30031705
:100AD000B60003135221B23003178D0000308F008F
:100AE00003132A23521EBF2D8316061583120619DF
:100AF000BE2DBC0A0130BC0502308316D7009630EB
:100B000083120317B600031352218316D70B7F2DD0
:100B1000063083120317B6000230B7000313DC223D
:100B20000317B701B601B50103133C080317B4005E
:100B30000A30B800BA017330B9000313F6230A3043
:100B40000317B60003135221733084008313162554
:100B50003C080319AF2D013A0319B72DBE2DBA3049
:100B600003178D0000308F0003132A23BE2DC330DE
:100B700003178D0000308F0003132A23722DD21922
:100B8000662FD2113C080319C92D013A0319942E7E
:100B9000662FD211D2168316D701D801D90173302E
:100BA0008400831358088407590883125820800052
:100BB00000380319E02D8316D90AD80ACF2D8312E5
:100BC00001300317B6000230B7000313DC220A30ED
:100BD0000317B600031352216F3003178D00003046
:100BE0008F0003132A23733003178D0000308F000A
:100BF00003132A2301300317B600B7000313DC22C6
:100C00007B3003178D0000308F0003132A23D21E80
:100C1000932E8316061583120619302E8316D70AD3
:100C20000330D7055707D80083120317B6000130E9
:100C3000B7000313DC22863003178D0000308F00CD
:100C400003132A2302308316D80096308312031729
:100C5000B600031352218316D80B252E912E831232
:100C60008316861583128619922E473083165707EE
:100C700084008313800A47305707F800FA010318ED
:100C8000FA0A7808D8007A08D90047305707840054
:100C900083130008DB000A30DC0083123525770857
:100CA0008316DA00580884008313591883175A08EA
:100CB000800047305707840083130008D800831250
:100CC0000317B701B601B501831603135808831241
:100CD0000317B4000A30B800BA017330B900031327
:100CE000F623073083165707D80083120317B60080
:100CF0000230B7000313DC220A300317B6000313D7
:100D00005221733084008313162502308316D800D5
:100D1000963083120317B600031352218316D80BA3
:100D2000882E8312072E662F8316D701D801D9018A
:100D3000733084008313580884075908831258209D
:100D4000800000380319A92E8316D90AD80A982ED4
:100D50008312D211D21601300317B6000230B70049
:100D60000313DC220A300317B600031352218B3021
:100D700003178D0000308F0003132A238F300317D1
:100D80008D0000308F0003132A2301300317B600B3
:100D9000B7000313DC22973003178D0000308F005B
:100DA00003132A23D21E662F8316061583120619F3
:100DB000032F8316D70A5708DB000630DC008312A6
:100DC000352577088316D70003305707D8008312DC
:100DD0000317B6000130B7000313DC22A33003175A
:100DE0008D0000308F0003132A2302308316D800B1
:100DF000963083120317B600031352218316D80BC3
:100E0000F82E642F83128316861583128619652F98
:100E100041308316570784008313800A41305707F7
:100E2000F800FA010318FA0A7808D8007A08D900FD
:100E300041305707840083130008DB000A30DC00D0
:100E40008312352577088316DA0058088400831347
:100E5000591883175A0880004130570784008313BC
:100E60000008D80083120317B701B601B501831635
:100E70000313580883120317B4000A30B800BA01EC
:100E80007330B9000313F623073083165707D800D1
:100E900083120317B6000230B7000313DC220A30B6
:100EA0000317B600031352217330840083131625F1
:100EB00002308316D800963083120317B60003134E
:100EC00052218316D80B5B2F8312D22E8A110A1659
:100ED000172C03173408B8003308B7003808FA0095
:100EE0003708840083137A188317800803197C2F2E
:100EF000B70A0319B80A6E2F3608FA0035088400BD
:100F000083137A188317800803199B2F35088400F0
:100F10008313361883170008BB0037088400831337
:100F2000381883173B088000B70A0319B80AB50AB6
:100F30000319B60A7C2F37088400831338188317E7
:100F400080013308F8003408F90003130800031780
:100F50003508B7003408B6003708FA0036088400B0
:100F600083137A18831780080319BA2FB60A031956
:100F7000B70AAC2F34083602F7003708FA003508F4
:100F8000031C350FFA027708F800031308008008E5
:100F90000319E42F0317B5010408B4003510831BAF
:100FA0003514000803130C1ED32F990003173408BF
:100FB0008400831335188317840A031DE22F03135B
:100FC000850A03170313C72F08008316D701570894
:100FD0001E3C031CF72F88100230831288066430F1
:100FE0000317B600031352218316D70AE72F081000
:0C0FF0000130831288068A110A16252C95
:101000005212D2122A300317900091014C309200F4
:10101000453093004E30940047309500483096009C
:10102000543097009801433099005F309A00463061
:101030009B009C0149309D0044309E005F309F0022
:101040004730A0005730A1003130A2003230A30059
:101050003330A4003430A500A6014930A700443045
:10106000A8005F30A9004E30AA004F30AB004430DA
:10107000AC004530AD00AE012330AF00B00101300F
:1010800083160313D8001030D7000130DA00123075
:10109000D9000130DC001930DB000130DE001D30EA
:1010A000DD000130E0002730DF000130E2002F30AA
:1010B000E100FA015A3083120317B3007A08B40032
:1010C000330884008313341883178001B201320877
:1010D000053C031C94284130320784008313000828
:1010E000B300B701B601B5013308B4000A30B80047
:1010F000BA017330B9008A110313F6238A1501303F
:101100000317B6008A11031352218A150317B4017D
:101110005A30B300B6017330B5008A110313692742
:101120008A150317B20A672883160313DE015A30A3
:10113000DD00FA01533083120317B3007A08B400BC
:10114000330884008313341883178001B2013208F6
:10115000033C031CD4284730320784008313000863
:10116000B300B701B601B5013308B4000A30B800C6
:10117000BA017330B9008A110313F6238A150130BE
:101180000317B6008A11031352218A150317B401FD
:101190005330B300B6017330B5008A1103136927C9
:1011A0008A150317B20AA72883160313E0015330E8
:1011B000DF008312CB0131308316D9003230DA00E0
:1011C000E3016308053C031C03290310630DD73EAC
:1011D00084008313840A0008E50084030008E40007
:1011E000650883120317B50083160313640883127E
:1011F0000317B4008A110313A7278A157808CB07B1
:101200008316E30AE12805308312CB070317B701E1
:10121000B601B50103134B080317B4000A30B80038
:10122000BA017330B9008A110313F6238A158316A5
:10123000DA017330D900E3016308053C031C3A2945
:101240000310630DD73E84008313840A0008E50071
:1012500084030008E40084008313651883178A114F
:101260008312C7278A1540300C1E34299900831633
:10127000E30A1C29013083120317B600B7008A1154
:101280000313DC228A150A300317B6008A110313F0
:1012900052218A15CB3003178D0000308F008A1140
:1012A00003132A238A1501300317B6000230B70052
:1012B0008A110313DC228A150A300317B6008A113B
:1012C000031352218A15D63003178D0000308F008A
:1012D0008A1103132A238A15D2118A110A161E2C89
:1012E00083165F086004031979296008FA005F0813
:1012F0007E2983122C08FA002B088316E3007A0853
:10130000E4006408E8006308E7006208EA00610896
:10131000E9006808EC006708EB006C08FA006B084D
:10132000840083137A18831780080319CE296A086A
:10133000EE006908ED006E08FA006D088400831362
:101340007A1883178008031DB22967086B02F7001B
:101350006C08FA006808031C680FFA027708F800A6
:10136000D929C6296C08FA006B08840083137A18FF
:1013700083170008EF006E08FA006D0884008313DD
:101380007A18831700086F020319CA29ED0A031996
:10139000EE0A9B29EB0A0319EC0A8D2967086B02F8
:1013A000F7006C08FA006808031C680FFA02770857
:1013B000F8007808E3070318E40A6408FA006308F1
:1013C000840083137A1883178008031DF42983127D
:1013D0002B08840083132C188317203080000030E2
:1013E000F800F900602A83166408E8006308E70043
:1013F0006208EA006108E9006808EC006708EB0091
:101400006C08FA006B08840083137A18831780082D
:101410000319392A6A08EE006908ED006E08FA001F
:101420006D08840083137A18831780080319352AFE
:101430006C08FA006B08840083137A18831700087D
:10144000EF006E08FA006D08840083137A18831782
:1014500000086F02031D312A6B08F8006C08F900C0
:101460003C2AED0A0319EE0A0E2AEB0A0319EC0ACC
:10147000002A0030F800F9007908E6007808E50055
:101480006608FA006508840083137A1883178008B9
:101490000319532A65088400831366188317800193
:1014A000E50A0319E60A66088312AC00831665088C
:1014B0008312AB0083166308F8006408F9008312F6
:1014C00008008316E401E2010A30E300E1015F084D
:1014D0006004031D6E2A0030F800612B6408E40AE2
:1014E0005F0784008313601883170008E500650810
:1014F0002D3C031D872A0130E2006408E40A5F07DF
:1015000084008313601883170008E500942A650897
:101510002B3C031D942A6408E40A5F0784008313AC
:10152000601883170008E50065082F3C0318572B47
:101530006508393C031C572B6508303C031DC02A45
:1015400064085F0784008313601883170008783CE1
:101550000319B42A64085F07840083136018831793
:101560000008583C031DC02A1030E300E40A640858
:10157000E40A5F0784008313601883170008E500FE
:1015800063080A3C031D052B65082F3C0318042B38
:101590006508393C031C042B0A30E6006108E700AB
:1015A000F701F801660803106718F707F70CF80C45
:1015B000E718F707F70CF80C6719F707F70CF80CA2
:1015C000E719F707F70CF80C671AF707F70CF80C90
:1015D000E71AF707F70CF80C671BF707F70CF80C7E
:1015E000E71BF707F70CF80C7808E60030306502C7
:1015F0006607E1006408E40A5F078400831360184B
:1016000083170008E500C42A572B6308103C031D0C
:10161000572B6508603C0318142B65087A3C031CA3
:10162000142B6508DF39152B6508E50065082F3C8C
:1016300003181E2B6508393C0318262B6508403C0F
:101640000318572B6508463C031C572B65082F3C95
:101650000318372B6508393C031C372B610EE60055
:10166000F030E605303065026607E100402B610E80
:10167000E600F030E605413065020A3E6607E1000B
:101680006408E40A5F078400831360188317000866
:10169000E5006508603C0318542B65087A3C031C80
:1016A000542B6508DF39552B6508E500162B620BB6
:1016B0005F2B63080A3C031D5F2BE109E10A610807
:1016C000F8008312080083165E08FA005D088400A3
:1016D00083137A1883170008E1006008FA005F0896
:1016E000840083137A18831700086102031D8F2B6F
:1016F0005E08FA005D08840083137A188317800857
:10170000031D852B0030F800A72B5E08FA005D084A
:10171000DD0A0319DE0ADF0A0319E00A642B5E08FA
:10172000FA005D08840083135E1883170008E10047
:101730006008FA005F0884008313601883170008AC
:1017400061020318A52BFF30A62B0130F80083128D
:10175000080083165F080739F7005F0CF800F80CE3
:10176000F80C1F30F80578086107840083136218AD
:101770008317F801F80AF70ABE2BF80DF70BBD2BFB
:10178000E0080319C62B78088004C92BF8097808EB
:101790008005831208002A308316D700FA016330CF
:1017A000840083137A1883178001FA016A30840059
:1017B00083137A1883178001DD01DE01BE308400B7
:1017C00083135D0884075E088A1183126A208A15D4
:1017D000800000380319F12B8316DE0ADD0ADE2BA8
:1017E00083128316DE01A030DD005708DF005E089B
:1017F000FA005D08840083137A1883175F080002DB
:101800000319142C5E08FA005D08840083137A180B
:1018100083178008031D102C0030F800F900182CE5
:10182000DD0A0319DE0AF72B5D08F8005E08F900EF
:101830007908D9007808D800590883120317B50031
:1018400083160313580883120317B4008A11031375
:10185000A7278A1578088316DA008312BE0183163B
:10186000DD01DE017330840083135D0884075E08A8
:101870008A11831264208A15800000380319452CD0
:101880008316DE0ADD0A322C83128316E001A030B3
:10189000DF00E2017330E1008312702179088316C2
:1018A000DC007808DB00DB08031D592CDC08031979
:1018B000C42C83123E08FA3E0318B32C063EF22EC7
:1018C000B32C0317B4016A30B300831603135C080A
:1018D00083120317B600831603135B0883120317E2
:1018E000B5008A11031369278A15B32C0317B401B5
:1018F0006330B300831603135C0883120317B6002A
:10190000831603135B0883120317B5008A110313B0
:1019100069278A15B32C83165C08E0005B08DF009A
:10192000831261227808CC00B32C83165C08E00097
:101930005B08DF00831261227808CD00B32C031707
:10194000B401BE30B300831603135C08831203177F
:10195000B600831603135B0883120317B5008A11C0
:10196000031369278A158316E001DF01E201733052
:10197000E1008312702179088316DC007808DB000F
:101980008312BE0A8316532CDE016A30DD00E001AB
:101990005A30DF00831263237808D1008316DE01FA
:1019A0006330DD00E0015330DF00831263237808E9
:1019B000D000D108031DE82ED008031DE82E4D08E5
:1019C00083165A020319E62C8312E82E83124C0860
:1019D0000319F12C013A0319F22C033A03190D2EC5
:1019E000E72EE72EBE0183168801FF3083128800A0
:1019F00001300317B600B7008A110313DC228A15E1
:101A00000A300317B6008A11031352218A15831670
:101A1000DF01E0017330840083135F0884076008EE
:101A20008A1183125E208A158000003803191D2D4B
:101A30008316E00ADF0A0A2D83128316E001BE3006
:101A4000DF00E2017330E100831270217908831610
:101A5000DE007808DD00DD08031D312DDE080319E6
:101A60007A2D83123E0803193C2D013A0319562D95
:101A7000033A0319602D692D01300317B6008A114E
:101A8000031352218A1583165D08840083135E18A0
:101A900083178A11831216258A15E13003178D00EA
:101AA00000308F008A1103132A238A1583165E08DB
:101AB000E0005D08DF00831261227808CE00692D06
:101AC00083165E08E0005D08DF008312612278085B
:101AD000CF008316E001DF01E2017330E1008312E1
:101AE000702179088316DE007808DD008312BE0AB3
:101AF00083162B2D0230DF00FA3083120317B60055
:101B00008A11031352218A158316DF0B7C2D0130B5
:101B100083120317B6008A11031352218A15831604
:101B20008801FF308312880001300317B6000230AD
:101B3000B7008A110313DC228A150A300317B60096
:101B40008A11031352218A15E83003178D000030E3
:101B50008F008A1103132A238A150317B701B601D0
:101B6000B50103134E080317B4000A30B800BA01D8
:101B70007330B9008A110313F6238A157330840079
:101B800083138A1116258A15EB3003178D00003058
:101B90008F008A1103132A238A150317B701B60190
:101BA000B50103134F080317B4000A30B800BA0197
:101BB0007330B9008A110313F6238A157330840039
:101BC00083138A1116258A158316880183128801CA
:101BD00002308316DF00FA3083120317B6008A1131
:101BE000031352218A158316DF0BEB2D8801FF307A
:101BF0008312880002308316DF00FA308312031745
:101C0000B6008A11031352218A158316DF0BFD2DAE
:101C10008801831288015217E72EBE018316DF0167
:101C2000E0017330840083135F08840760088A1121
:101C300083125E208A15800000380319242E831633
:101C4000E00ADF0A112E831201300317B600B70035
:101C50008A110313DC228A150A300317B6008A1191
:101C6000031352218A15BE30840083138A1116256E
:101C70008A15403003178D0001308F008A1103133D
:101C80002A238A1501300317B6000230B7008A11E3
:101C90000313DC228A150A300317B6008A110313D6
:101CA00052218A15493003178D0001308F008A11A7
:101CB00003132A238A158316E001BE30DF00E201F8
:101CC0007330E1008312702179088316DE007808F2
:101CD000DD00DD08031D6F2EDE080319CD2E8312F3
:101CE0003E0803197A2E013A0319842E033A031988
:101CF0008E2EA22E83165E08E0005D08DF008312A0
:101D0000612240307807BF0083165E08E0005D085E
:101D1000DF00831261227808C000A22E0317B401ED
:101D20006330B300831603135E0883120317B600F3
:101D3000831603135D0883120317B5008A1103137A
:101D400069278A1507300317B6000230B7008A11D9
:101D50000313DC228A150A300317B6008A11031315
:101D600052218A1583165D08840083135E18831739
:101D70008A11831216258A158316E001DF01E2011C
:101D80007330E1008312702179088316DE00780831
:101D9000DD008312BE0A8316692E8312C008031D5C
:101DA000D32E0030D42E0130F7003F088316DF0019
:101DB0007708E000E201E1018312A9233F088316BE
:101DC000DF00E001E2018030E1008312A923EF2E61
:101DD0000A300317B6008A11031352218A158A119B
:101DE0000A162C2C0A108A140A158207602C612C02
:081DF000762C8B2C952C9F2C06
:102000008316D70183124F08831657020318012A3B
:1020100038305707D800D9010318D90A5708DA0011
:102020000130DB000230DC000430DD000830DE006F
:102030001030DF002030E0004030E100DB305A0794
:10204000840083130008E300E400E501E601E701F2
:10205000893084008317C0308005660880049F3073
:1020600084008313CF3080056508800488308400A5
:10207000831764088000033083120317B6000A1226
:10208000031352210A1683165A0DF700F70DFC3080
:10209000F70583121F08C33977049F000330031725
:1020A000B6000A12031352210A16B301B2018316B5
:1020B000E2016208633C031C732883129F149F187B
:1020C0005F2883161E088312B2071E0803181E0F0E
:1020D000B30701300317B6000A12031352210A1680
:1020E0008316E20A5928831233088316E400831208
:1020F00032088316E3008E30F7006408F8006308A6
:10210000F900FA01F808031D8F287908F800F90191
:102110000830F702F808031D8F28F70197280310ED
:10212000F81B9628F90DF80DF7038F28F8137A0895
:10213000E6007908E5007808E4007708E3009A30C3
:10214000EA009930E9004C30E8008630E700630887
:102150000319C22983120317940083160313670817
:102160000319C229831203179402031CBF287F306E
:102170009407031CBE2883160313C229CB28813081
:1021800094020318C62883160313C229031DCB2803
:1021900083160313C2291408F700F801F901FA01A4
:1021A0009301831603136408831203179200921796
:1021B0008316031365088312031791008316031314
:1021C00066088312031790001930940083160313D6
:1021D0006A08831203179002031802290130910242
:1021E00003180229920203180229930203180229F4
:1021F000930A920A910A831603136A08831203173B
:1022000090074C2983160313690883120317910260
:10221000031829290130920203182929930203186F
:102220002929930A920A8316031369088312031754
:102230009107831603136A08831203179007031C80
:102240004C29910A031D4C29920A031D4C29930A1B
:102250004C298316031368088038831203179202EF
:1022600003184B290130930203184B29930A831654
:102270000313680880388312031792078316031329
:102280006908831203179107031C1929920A031D79
:102290001929930A19297A14940B4F295A290310E2
:1022A000900D910D920D930D0310FA0DF90DF80D8F
:1022B000950DE628151C62290310F80CF90CFA0C90
:1022C000950C6729F70B672983160313C229951B01
:1022D0009C290310900D910D920D930D83160313FD
:1022E0006A088312031790020318802901309102B3
:1022F000031880299202031880299302031CAE2937
:1023000083160313690883120317910203188F2998
:102310000130920203188F299302031CAE29831601
:1023200003136808803883120317920203189C294C
:1023300001309302031CAE29FA0A031DAE29F90AE3
:10234000031DAE29F80A031DAE29F70A031DAB29A8
:1023500083160313C229F80CF90CFA0C8316031325
:10236000640883120317940083160313680883120A
:1023700003179406941FBE29F817C829F813C82913
:1023800083160313F701F801F901FA018312031709
:102390007A0883160313E6007908E5007808E4005C
:1023A0007708E3008E30F7006308F7026408F9004D
:1023B0006508F800F917F7080319E9290310F90867
:1023C000031DE529F8080319E929F90CF80CF70BA6
:1023D000DE29E41FF029F809F909F80A0319F90AB6
:1023E00079088312B3007808B2003208F800831627
:1023F0005808840083135918831778088000D70A77
:10240000022883128A110A16312C831608134030D1
:1024100083128806493003179000443091004730FA
:10242000920057309300313094003230950096017D
:102430004E3097004F3098004430990045309A0054
:102440009B015A309C009D009E0141309F00A000DE
:10245000A1015630A200A300A4014330A500A600AC
:10246000A7015330A800A900AA0101308316031365
:10247000D8001030D7000130DA001730D900013011
:10248000DC001C30DB000130DE001F30DD000130DD
:10249000E0002230DF000130E2002530E1000130B1
:1024A000E4002830E300D8015A30D700DA01533075
:1024B000D9001430E500E60183124F088316660246
:1024C0000318992A38306607840083130008E70050
:1024D00002306607F7000310F70D7708D73E840037
:1024E0008313840A0008E90084030008E8008312CB
:1024F0000317B701B601B5018316031367088312EA
:102500000317B4000A30B800831603136908831256
:102510000317BA0083160313680883120317B90060
:102520000A120313F6230A1603308316E507E60A98
:102530005C2A83120317B701B601B5018316031392
:10254000650883120317B4000A30B800BA01753069
:10255000B9000A120313F6230A162A300C1EAE2AFB
:10256000990040300C1EB22A990075308400831304
:102570000A12C7270A163D3003178D0001308F005D
:1025800003130B080317AD0003138B1383160317F4
:102590008C170C14000000008312AD1FD22A031305
:1025A0008B1703170C087F3903190F2BAD000D088B
:1025B000AE000F08AF002D0803130C1EDD2A990092
:1025C00003172E088D002F088F0003130B08031725
:1025D000B00003138B13831603178C170C14000021
:1025E00000008312B01FF72A03138B1703170C0D7B
:1025F0000E0D7F3903190F2BAD000D08AE000F082B
:10260000AF002D0803130C1E032B990003172E088F
:102610008D002F088F008D0A03198F0AC02A831698
:102620000313E601023083124F0783166602031874
:10263000332B0310660DD73E84008313840A0008F1
:10264000E80084030008E7008400831368188317F8
:102650000A128312C7270A1640300C1E2D2B990030
:102660008316E60A122B233083120C1E352B990099
:10267000831608134030831288068A110A16452CE7
:1026800003081F39830083160317871508300313C7
:10269000990002309A00A63098009030831298007A
:1026A000FF30B100BC01BD01BE01CB01CC01CD01A9
:1026B000CE010330CF00D001D1015210D2105211FF
:1026C000D2115212D2125213831603170908C039BD
:1026D000890003131F129F12003003178800831212
:1026E00087018801890183130313AB01AC01B80191
:1026F000B901BA01BB010630C1000430C200073085
:10270000C3000530C4000330C5000430C600C70054
:102710000630C8000430C9000830CA003030D50087
:102720003530D6003830D7003930D800D901D4013F
:102730005530D3003130DC003230DD003730DE0080
:102740003130DF003030E0003230E100E201DB0107
:102750005C30DA003030E500E600E700E800E9012F
:10276000E4016530E3003030EC00ED00EE00EF00F6
:10277000F000F100F201EB016C30EA004830831602
:10278000A0004930A1004830A2004930A300A401B4
:102790004830BE004930BF004830C0004930C10059
:1027A000C2013030CD00CE00CF00D000D101F40105
:1027B000CD30F3003230D2003730D3003030D40087
:1027C000D500D601F601D230F50000308800FF3088
:1027D0008600091089100911891180308700831241
:1027E000B1001F179F1383169F1783121F148B1698
:1027F0000B160B16831601138C16C03083128B0434
:10280000353090008E010B308F00DC308E000C10C4
:102810000A126C2A0A16D210D21152158316880198
:10282000831288015210D21C192C0A124C2D0A1640
:10283000462CD21D212C0A128A1500280A168A114C
:10284000462CD218462C0A12E52F0A16521C2E2CA2
:1028500052100A128A15CB2B0A168A11521F452CC8
:10286000002838081C3C0318452C02308316D7007A
:10287000FA3083120317B6000A12031352210A1604
:102880008316D70B382C8312052A212C132C6300B6
:04400E00E22FFF3F5F
:00000001FF
;PIC16F887
;CRC=CDE9  CREATED="02-Nov-21 01:20"
