:1000000014308A00A62C0000FF00030E8301A1001B
:100010000A08A0008A010408A2007708A300780853
:10002000A4007908A5007A08A60003170D08031399
:10003000A70003170F080313A80003170C080313E6
:10004000A90003170E080313AA00831383120B1EC3
:100050002B288B1852288C308400801E31288C1A53
:100060005528220884002308F7002408F8002508F2
:10007000F9002608FA00270803178D000313280843
:1000800003178F000313290803178C0003132A0892
:1000900003178E00031320088A00210E8300FF0E31
:1000A0007F0E09008A110A1209298A110A124F29A2
:1000B0000A108A100A118207303400340A108A109C
:1000C0000A1182075F3400340A108A100A1182076D
:1000D0003234323400340A108A100A118207323462
:1000E000333400340A108A100A118207323434344F
:1000F00000340A108A100A118207233400340A10CF
:100100008A100A1182070034CE27C4223A10000058
:10011000201020102010201020100001201020108E
:1001200020105F1020102010201020102010201010
:100130002000201020105F10201020004922DF2313
:10014000571D000120102010201020102010000149
:100150002010201020105F102010201020102010E0
:100160002010201020102000201020105F102010E0
:10017000201020102000C3274E23C9233A1020103E
:10018000201020102000C320D3223A10201020106D
:10019000201020102000A016A024C416CE27C422B0
:1001A0002010201020100001A016A024C416C72B78
:1001B0002010201020102000D720492A492747105E
:1001C0002E172E1720102010201020100001D720ED
:1001D000492A492747102E172E17201020102010CB
:1001E00020100000201020102010201020102010BF
:1001F000000154213A1000012010201043213A0040
:1002000040224B200000D32B3A100001C02953207C
:1002100000010317EA01831603138614831286185C
:1002200026290C1C2329311231088316870010302F
:10023000831287060C108E010B308F00DC308E008D
:100240000317EA0A031303170B29031303176A089A
:100250000A3C0318342902300313D4060430D406B0
:10026000D41554124B2903176A08013C031842297C
:100270006A08093C031C42290313D4115412D412F6
:100280004B2903170313D417311231088316870043
:100290001030831287068B108A110A123128A03081
:1002A0003F07840083138C1E53291A088000A03056
:1002B0003F078400831300082E3C031D6729A030EC
:1002C0003F07840083138001BF0154146829BF0ACB
:1002D0008C128A110A123128E834E834E837613781
:1002E00067004324C127C8274127470047308400BF
:1002F0008317000803198A290130F800F701F70B6A
:100300007F29F80B7E294A30F700F70B85298829C9
:10031000800B7C29080003174E189229031307103D
:10032000942903170313071431103108831687002B
:1003300083120317CE18A02903138710A2290317CD
:1003400003138714B1103108831687008312031733
:100350004E19AE2903130711B0290317031307150C
:10036000311131088316870083120317CE19BC2977
:1003700003138711BE29031703138715B111310821
:100380008316870000008312091483160910C829F8
:100390008312091083160910831208000317CF0176
:1003A00003133114310883168700003083120718B5
:1003B00001300317CF040313B114310883168700EB
:1003C0000030831287180130F7000310F70D77080B
:1003D0000317CF040313311531088316870000304B
:1003E000831207190130F700F70DF70DFC30F70500
:1003F00077080317CF040313B1153108831687005C
:100400000030831287190130F700F70DF70DF70D53
:10041000F830F70577080317CF044F08F8000313E7
:100420000800831609108910091183128910831698
:100430008910071487140715871583120915831669
:100440000911000083120914831609100000831299
:10045000CE2178080317CE00031309108316091064
:100460000000831209148316091000008312CE21A4
:1004700078080317CD00031309108316091083129F
:1004800031103108831687008312B11031088316AA
:100490008700831231113108831687008312B1114E
:1004A000310883168700831203174E0EF700F030D1
:1004B000F70577084D04F8007808CD00CD1F632AB2
:1004C00083160313192ACB08031D6A2A0313891004
:1004D0006C2A0317031389148316891000008312F2
:1004E00009118316091100008312091083160910DF
:1004F000831203174C0ECD000F30CD054D08CE00F2
:1005000003138B2103174C080F39CD00CE000313C2
:100510008B2108002830031797000C309800013019
:10052000990006309A0003130910831609108312EC
:1005300089108316891083120911831609118312F9
:1005400031103108831687008312B11031088316E9
:100550008700831231113108831687008312B1118D
:100560003108831687000910891009110F30831292
:100570000317C700031376210130031796001608EE
:10058000033C031CCF2A0330CE0003138B2105301C
:100590000317C700031376210317960ABF2A0230F8
:1005A000CE0003138B2105300317C70003137621F8
:1005B000031796011608033C031CEC2A1730160794
:1005C0008400831700089B00CB011B08CC00031399
:1005D00011220317960ADA2A03138A110A167B2DB1
:1005E0000317480BF42AF72A4030C900F82AC9013A
:1005F00001304702C90749088038CA00CB014A08C0
:10060000CC0003131122080003174608073A03130E
:100610000319142B0B3A03191B2B063A0319272B2A
:10062000023A03192F2B362B01300317C700C800DD
:100630000313F0223D2B0317CB010130CC00031331
:10064000112202300317C700031376213D2B01301E
:100650000317C7000230C8000313F0223D2B031715
:10066000CB011030CC00031311223D2B01300317B6
:10067000CB004608CC000313112208000B08031717
:10068000C30003138B13831603178C170C1400007D
:1006900000008312C31F4F2B03138B1703170C0883
:1006A0007F3903198C2BC3000D08C4000F08C50047
:1006B0004308C60003130423031744088D004508AC
:1006C0008F0003130B080317C60003138B13831645
:1006D00003178C170C14000000008312C61F732B25
:1006E00003138B1703170C0D0E0D7F3903198C2B79
:1006F000C3000D08C4000F08C5004308C60003135B
:100700000423031744088D0045088F008D0A031940
:100710008F0A03133E2B03170313080003179601D8
:100720001608033C031CA52B4830160784008313CE
:100730000A301607990019088D0083168C130C14C3
:1007400083120C088000960A902B96011608053C2F
:10075000031CBB2B42301607840083130E30160790
:10076000990019088D0083168C130C1483120C0841
:100770008000960AA62B03138A110A16C32D83182C
:10078000C42B64308400831703175F086306803925
:10079000E900DF1FD62BDC09DD09DE09DF09DC0AF1
:1007A0000319DD0A0319DE0A0319DF0AE31FE32B2D
:1007B000E009E109E209E309E00A0319E10A031982
:1007C000E20A0319E30AF701F801F901FA01E40169
:1007D000E501E601E70163086204610460040319AE
:1007E000212C2030E8000310DC0DDD0DDE0DDF0DC7
:1007F000E40DE50DE60DE70D63086702031D0A2C05
:1008000062086602031D0A2C61086502031D0A2C9A
:1008100060086402031C1B2C6008E4026108031CCE
:10082000610FE5026208031C620FE6026308031C05
:10083000630FE7020314F70DF80DF90DFA0DE80B3D
:10084000F32BE91F2E2CF709F809F909FA09F70A21
:100850000319F80A0319F90A0319FA0A640880004F
:10086000840A65088000840A66088000840A670894
:100870008000031308000317CF01CE01CD01013022
:10088000CC00D101D201C81F852C0130D10048080D
:10089000D7004708D6004608D5004508D400FF30E9
:1008A000DB00DA00D900D8002030E000DC01DD01F7
:1008B000DE01DF015708FA005608F9005508F80074
:1008C0005408F7000310771C732C5808DC075908EC
:1008D0000318590FDD075A0803185A0FDE075B0883
:1008E00003185B0FDF07DF0CDE0CDD0CDC0CFA0CF1
:1008F000F90CF80CF70CE00B622C7A08C8007908A8
:10090000C7007808C6007708C500CC08031D912CE5
:10091000CD08031D912CCE08031D912CCF0803197F
:100920000D2D83104808DF004708DE004608DD0073
:100930004508DC00E301E201E1014908E00003139E
:10094000BF237A080317CF007908CE007808CD00BE
:100950007708CC0052084A07F8004B08FA00031841
:10096000FA0A7808D4007A08D500D7010408D6001E
:100970005710831B5714831458308400831748087A
:10098000DF004708DE004608DD004508DC00E30123
:10099000E201E1014908E0000313BF2303175608F1
:1009A000840083135718831730305807F70059080D
:1009B000F800003003180130F8075A08F900003039
:1009C00003180130F9075B08FA0000300318013002
:1009D000FA0754088400831355188317770880009A
:1009E00052084A07840083134B1883170008393CC8
:1009F0000318032D52084A07840083134B188317EA
:100A0000073000078000D20A4F08C8004E08C70010
:100A10004D08C6004C08C500852C510B182D5208F6
:100A20004A07840083134B1883172D308000D20AA5
:100A3000D0010310520C500203184E2D50084A07E3
:100A4000840083134B1883170008D30050084A070B
:100A5000F8004B08FA000318FA0A7808D4007A085C
:100A6000D50050085202FF3E4A07840083134B18FA
:100A700083170008D6005408840083135518831781
:100A80005608800050085202FF3E4A078400831334
:100A90004B18831753088000D00A192D52084A07B3
:100AA000840083134B18831780014A08F8004B0811
:100AB000F9000313080003174508C9004408C800DB
:100AC0004908FA004808840083137A1883178008BD
:100AD00003196E2DC80A0319C90A602D4708FA00C8
:100AE0004608840083137A188317800803198D2D14
:100AF000460884008313471883170008CC00480871
:100B000084008313491883174C088000C80A03190E
:100B1000C90AC60A0319C70A6E2D48088400831340
:100B20004918831780014408F8004508F9000313A9
:100B3000080080080319B62D0317C6010408C50074
:100B40004610831B4614000803130C1EA52D9900A4
:100B5000031745088400831346188317840A031D6E
:100B6000B42D0313850A03170313992D080054129B
:100B7000D4122A300317A200A3014C30A400453040
:100B8000A5004E30A6004730A7004830A8005430DA
:100B9000A900AA014330AB004630AC00AD0149309A
:100BA000AE004430AF005F30B0004730B100573086
:100BB000B2003130B3003230B4003330B5003430DD
:100BC000B600B7014930B8004430B9005F30BA0010
:100BD0004E30BB004F30BC004430BD004530BE003D
:100BE000BF012330C000C1010130970022309600C0
:100BF000013099002430980001309B002B309A007E
:100C000001309D002E309C0001309F0038309E0046
:100C10000130A1004030A000FA015D30C4007A0824
:100C2000C500440884008313451883178001C3015D
:100C30004308053C031C612E0E304307C4004230BC
:100C40004307840083130008C50003130B08F70053
:100C50008B13031744088D0045088C0083168C13F2
:100C60000C1555308D00AA308D008C148C18362E42
:100C70000C117708831203138B04423003174307C8
:100C8000840083130008C400C801C701C6014408DA
:100C9000C5000A30C900CB017B30CA0003133B24D6
:100CA00001300317C700031376210317C5015D3018
:100CB000C400C7017B30C60003135B250317C30ABA
:100CC000182E9D015D309C00FA015630C4007A0850
:100CD000C500440884008313451883178001C301AD
:100CE0004308033C031CB92E0A304307C4004830B4
:100CF0004307840083130008C50003130B08F700A3
:100D00008B13031744088D0045088C0083168C1341
:100D10000C1555308D00AA308D008C148C188E2E39
:100D20000C117708831203138B0448300317430711
:100D3000840083130008C400C801C701C601440829
:100D4000C5000A30C900CB017B30CA0003133B2425
:100D500001300317C700031376210317C50156306E
:100D6000C400C7017B30C60003135B250317C30A09
:100D7000702E9F0156309E0014300313CC000317D1
:100D8000C801C701C60103134C080317C5000A3088
:100D9000C900CB017B30CA0003133B240317990120
:100DA0007B309800C2014208053C031CEF2E031063
:100DB000420D163E84008317840A0008C400840391
:100DC0000008C30084008313441883170313992574
:100DD00040300C1EE92E99000317C20AD32E0130B1
:100DE000C700C8000313F0220A300317C70003131B
:100DF0007621DC3003178D0000308F0003133E2373
:100E000001300317C7000230C8000313F0220A3074
:100E10000317C70003137621E73003178D00003056
:100E20008F0003133E23D411080080080319312FCB
:100E30000317A00104089F002010831B2014000842
:100E4000C6000313042303171F088400831320180C
:100E50008317840A031D2F2F0313850A0317031317
:100E6000152F080003171B08F8011A0203183B2F5F
:100E70001A08F700472FF70108309C009A0DF70D6C
:100E80001B0877020318F700F80D9C0B3E2F031385
:100E90000800F701F8010317250803102618F707C3
:100EA000F70CF80CA618F707F70CF80C2619F7073B
:100EB000F70CF80CA619F707F70CF80C261AF70729
:100EC000F70CF80CA61AF707F70CF80C261BF70717
:100ED000F70CF80CA61BF707F70CF80C0313080027
:100EE00003171D08FA001C08840083137A1883175F
:100EF0000008A0001F08FA001E08840083137A1857
:100F0000831700082002031D9C2F1D08FA001C08EF
:100F1000840083137A1883178008031D922F0030F2
:100F2000F800B42F1D08FA001C089C0A03199D0A3A
:100F30009E0A03199F0A712F1D08FA001C088400DD
:100F400083131D1883170008A0001F08FA001E084D
:100F5000840083131F188317000820020318B22F80
:100F6000FF30B32F0130F8000313080003171F08E8
:100F70000739F7001F0CF800F80CF80C1F30F805C3
:100F8000780821078400831322188317F801F80AD0
:100F9000F70ACB2FF80DF70BCA2FA0080319D32F90
:100FA00078088004D62FF809780880050313080014
:100FB000031722080739F700220CF800F80CF80C88
:100FC0001F30F8057808230784008313241883173B
:100FD0000008F800F70AED2FF80CF70BEC2F0313BD
:020FE000080007
:10100000541601300317C700C8008A110313F022D9
:101010008A150A300317C7008A11031376218A152F
:10102000BB3003178D0000308F008A1103133E235D
:101030008A1501300317C7000230C8008A11031354
:10104000F0228A150A300317C7008A11031376218C
:101050008A15C33003178D0000308F008A110313E7
:101060003E238A15541E89288316061583120619F5
:101070008828BE0A0130BE0502300317960096305C
:10108000C7008A11031376218A150317960B3F2890
:101090000630C7000230C8008A110313F0228A15F7
:1010A0000317C801C701C60103133E080317C50093
:1010B0000A30C900CB017B30CA008A1103133B24DC
:1010C0008A150A300317C7008A11031376218A157F
:1010D0007B30840083138A1115278A153E08031973
:1010E0007528013A03197F288828CB3003178D0013
:1010F00000308F008A1103133E238A158828D430CC
:1011000003178D0000308F008A1103133E238A15C8
:101110003228D419622AD4113E0803199328013ABF
:1011200003197629622AD411D41603179601970160
:1011300098017B30840083131708840718088A11EC
:10114000031358208A15800000380319AC280317B0
:10115000980A970A9928031301300317C700023031
:10116000C8008A110313F0228A150A300317C7003A
:101170008A11031376218A15843003178D000030FD
:101180008F008A1103133E238A155630840083137F
:101190008A1115278A15883003178D0000308F00BB
:1011A0008A1103133E238A1501300317C700C800B4
:1011B0008A110313F0228A158E3003178D00003038
:1011C0008F008A1103133E238A15D41E75298316B6
:1011D00006158312061910290317960A033096057F
:1011E00016079700C7000130C8008A110313F022C8
:1011F0008A15993003178D0000308F008A11031370
:101200003E238A150230031797009630C7008A11D3
:10121000031376218A150317970B052973290313E6
:10122000831686158312861974294830031716070A
:1012300084008313800A48301607F800FA01031867
:10124000FA0A780897007A08980048301607840050
:10125000831300089A000A309B008A110313322777
:101260008A15770803179900170884008313181844
:10127000831719088000483016078400831300087C
:101280009700C801C701C6011708C5000A30C90088
:10129000CB017B30CA008A1103133B248A15073027
:1012A000031716079700C7000230C8008A110313FE
:1012B000F0228A150A300317C7008A11031376211A
:1012C0008A157B30840083138A1115278A15023012
:1012D000031797009630C7008A11031376218A15E9
:1012E0000317970B6A290313E528622A031796014F
:1012F000970198017B30840083131708840718082E
:101300008A11031358208A158000003803198D298B
:101310000317980A970A7A290313D411D4160130B7
:101320000317C7000230C8008A110313F0228A1580
:101330000A300317C7008A11031376218A159E30DD
:1013400003178D0000308F008A1103133E238A1586
:101350005D30840083138A1115278A15A230031784
:101360008D0000308F008A1103133E238A1501304F
:101370000317C700C8008A110313F0228A15A8308A
:1013800003178D0000308F008A1103133E238A1546
:10139000D41E622A8316061583120619FD29031727
:1013A000960A16089A0006309B008A11031332270A
:1013B0008A15770803179600033016079700C700B1
:1013C0000130C8008A110313F0228A15B4300317C4
:1013D0008D0000308F008A1103133E238A150230DE
:1013E000031797009630C7008A11031376218A15D8
:1013F0000317970BF229602A0313831686158312AD
:101400008619612A42300317160784008313800A65
:1014100042301607F800FA010318FA0A7808970014
:101420007A089800423016078400831300089A0057
:101430000A309B008A11031332278A157708031795
:10144000990017088400831318188317190880005F
:10145000423016078400831300089700C801C701B3
:10146000C6011708C5000A30C900CB017B30CA008D
:101470008A1103133B248A150730031716079700B8
:10148000C7000230C8008A110313F0228A150A30FF
:101490000317C7008A11031376218A157B30840055
:1014A00083138A1115278A15023003179700963087
:1014B000C7008A11031376218A150317970B572A41
:1014C0000313C8298A110A16CC2D03171E081F04FE
:1014D00003196E2A1F08FA001E08732A03132C082A
:1014E000FA002B080317A2007A08A3002308A7001C
:1014F0002208A6002108A9002008A8002708AB00A0
:101500002608AA002B08FA002A08840083137A18F8
:10151000831780080319C32A2908AD002808AC00E6
:101520002D08FA002C08840083137A18831780088A
:10153000031DA72A26082A02F7002B08FA0027080D
:10154000031C270FFA027708F800CE2ABB2A2B08C3
:10155000FA002A08840083137A1883170008AE0063
:101560002D08FA002C08840083137A1883170008CA
:101570002E020319BF2AAC0A0319AD0A902AAA0A3F
:101580000319AB0A822A26082A02F7002B08FA0060
:101590002708031C270FFA027708F8007808A2072B
:1015A0000318A30A2308FA002208840083137A1878
:1015B00083178008031DE92A03132B088400831373
:1015C0002C188317203080000030F800F900552BCC
:1015D00003172308A7002208A6002108A900200855
:1015E000A8002708AB002608AA002B08FA002A0842
:1015F000840083137A188317800803192E2B290877
:10160000AD002808AC002D08FA002C0884008313D4
:101610007A188317800803192A2B2B08FA002A0846
:10162000840083137A1883170008AE002D08FA008F
:101630002C08840083137A18831700082E02031DD8
:10164000262B2A08F8002B08F900312BAC0A0319C5
:10165000AD0A032BAA0A0319AB0AF52A0030F800D9
:10166000F9007908A5007808A4002508FA002408E4
:10167000840083137A18831780080319482B2408E1
:1016800084008313251883178001A40A0319A50A6F
:1016900025080313AC00031724080313AB0003173A
:1016A0002208F8002308F900031308000317A30118
:1016B000A1010A30A200A0011E081F04031D632B14
:1016C0000030F800372C2308A30A1E078400831378
:1016D0001F1883170008A40024082D3C031D7C2B31
:1016E0000130A1002308A30A1E07840083131F18DA
:1016F00083170008A400892B24082B3C031D892B89
:101700002308A30A1E07840083131F1883170008E9
:10171000A40024082F3C03182D2C2408393C031C5A
:101720002D2C2408303C031DB52B23081E078400F4
:1017300083131F1883170008783C0319A92B23086B
:101740001E07840083131F1883170008583C031DCD
:10175000B52B1030A200A30A2308A30A1E07840099
:1017600083131F1883170008A40022080A3C031DD6
:10177000DB2B24082F3C0318DA2B2408393C031CEC
:10178000DA2B0A30A5002008A6008A110313492786
:101790008A1578080317A500303024022507A00019
:1017A0002308A30A1E07840083131F188317000849
:1017B000A400B92B2D2C2208103C031D2D2C24082D
:1017C000603C0318EA2B24087A3C031CEA2B24080B
:1017D000DF39EB2B2408A40024082F3C0318F42B3A
:1017E0002408393C0318FC2B2408403C03182D2CFA
:1017F0002408463C031C2D2C24082F3C03180D2CD8
:101800002408393C031C0D2C200EA500F030A50542
:10181000303024022507A000162C200EA500F03041
:10182000A505413024020A3E2507A0002308A30A8B
:101830001E07840083131F1883170008A4002408C0
:10184000603C03182A2C24087A3C031C2A2C240808
:10185000DF392B2C2408A400EC2B210B352C22087B
:101860000A3C031D352CA009A00A2008F800031328
:1018700008000B080317C10003138B13831603170B
:101880008C170C14000000008312C11F4A2C031394
:101890008B1703170C087F390319892CC1000D0819
:1018A000C2000F08C300410803130C1E552C9900F9
:1018B000031742088D0043088F0003130B0803171A
:1018C000C40003138B13831603178C170C1400002A
:1018D00000008312C41F6F2C03138B1703170C0D0A
:1018E0000E0D7F390319892CC1000D08C2000F08A5
:1018F000C300410803130C1E7B2C990003174208F8
:101900008D0043088F008D0A03198F0A0313392CA9
:1019100003170313080003179F010130A000A10162
:101920002108073C031CB12C2108A200A40153305C
:10193000A3008A110313D8278A15003078180130C4
:101940000317A2002008A5002208A6008A1103138D
:1019500049278A15780803179F070310A00DA10ACD
:10196000902C1F08F80078080313C10041080317E2
:101970009F00A0012008073C031CD42C9F1BC42CF3
:1019800003138810C62C03170313881483168810BA
:10199000081083120810831608108312081403100D
:1019A00003179F0DA00ABA2C831603130811831284
:1019B0000811831608118312081503179E011E08CB
:1019C000073C031C1E2D9F01A0017B308400831364
:1019D0001F08840720088A11031358208A158000E5
:1019E00000380319F82C0317A00A9F0AE52C0313EB
:1019F00003171E08A200A4015330A3008A11031389
:101A0000D8278A1500307818013003179F00C801C5
:101A1000C701C6011F08C5000A30C900CB017B30D1
:101A2000CA008A1103133B248A157B308400831378
:101A30008A1115278A1503179E0ADF2C0313410804
:101A4000093C031C3A2D03179F01A0017B30840041
:101A500083131F08840720088A11031364208A1542
:101A6000800000380319392D0317A00A9F0A262D7C
:101A700003136F2D4108093C0318592D4108633C9D
:101A8000031C592D03179F01A0017B308400831391
:101A90001F08840720088A1103136B208A15800011
:101AA00000380319582D0317A00A9F0A452D031368
:101AB0006F2D03179F01A0017B30840083131F0843
:101AC000840720088A11031372208A1580000038C9
:101AD00003196F2D0317A00A9F0A5C2D03132A30E8
:101AE0000C1E702D990040300C1E742D99007B3017
:101AF000840083138A1199258A15003003178D00FD
:101B000001308F00031339245D30840083138A1160
:101B100099258A1540300C1E8B2D99005630840073
:101B200083138A1199258A1540300C1E952D990032
:101B30000317C801C701C601031341080317C500F5
:101B40000A30C900CB017B30CA008A1103133B2441
:101B50008A157B30840083138A1199258A154030B9
:101B60000C1EB02D990023300C1EB42D99000130AD
:101B70000317C7000230C8008A110313F0228A1528
:101B80000A300317C7008A11031376218A15033020
:101B900003178D0001308F008A1103133E238A152D
:101BA00003179E011E08073C031C112E9F01A00174
:101BB0007B30840083131F08840720088A110313D5
:101BC00058208A15800000380319EB2D0317A00A4E
:101BD0009F0AD82D031303171E08A200A401533037
:101BE000A3008A110313D8278A1500307818013012
:101BF00003179F00C801C701C6011F08C5000A30AE
:101C0000C900CB017B30CA008A1103133B248A151B
:101C10007B30840083138A1115278A1503179E0AC7
:101C2000D22D031308000317960134309700960154
:101C300003134F08031716020318602E1608033CFF
:101C40000318242E403097001608170798009F00AD
:101C50000130A000A2018030A1008A110313B62731
:101C60008A1503171808A200A401A3018A110313FF
:101C7000D8278A1578185D2EC8300317C7008A1137
:101C8000031376218A1503171608A200A401533006
:101C9000A3008A110313D8278A150030781C01305D
:101CA0000317980016089F001808A000A2015330DF
:101CB000A1008A110313B6278A150317960A182E56
:101CC00003138A110A16E22D311231088316870098
:101CD00010308312870649300317A4004430A50052
:101CE0004730A6005730A7003130A8003230A90095
:101CF000AA014E30AB004F30AC004430AD0045304F
:101D0000AE00AF015A30B000B100B2014130B300B3
:101D1000B400B5015630B600B700B8014330B90081
:101D2000BA00BB015330BC00BD00BE0101309700BA
:101D300024309600013099002B30980001309B0030
:101D400030309A0001309D0033309C0001309F00FC
:101D500036309E000130A1003930A0000130A300D0
:101D60003C30A20097015D309600990156309800F2
:101D70001430BF00C00103135008031740020318BA
:101D8000EA2E34304007840083130008C10002307B
:101D90004007F7000310F70D7708163E84008317FD
:101DA000840A0008C30084030008C200C801C701F8
:101DB000C6014108C5000A30C9004308CB004208EB
:101DC000CA008A1103133B248A1503300317BF0787
:101DD000C00ABB2EC801C701C6013F08C5000A30B2
:101DE000C900CB017D30CA008A1103133B248A1538
:101DF0002A300C1EF92E990040300C1EFD2E990041
:101E00007D30840083138A1199258A1506300317C3
:101E10008D0001308F00031339240317C0010230F5
:101E200003135007031740020318302F0310400D0F
:101E3000163E84008317840A0008C2008403000849
:101E4000C10084008313421883178A110313992554
:101E50008A1540300C1E2A2F99000317C00A0F2F35
:101E6000233003130C1E322F9900311231088316D0
:0E1E700087001030831287068A110A16F82D9B
:102000002A3003179600FA016630840083137A1889
:1020100083178001FA016D30840083137A188317C7
:1020200080019C019D01D230840083131C08840729
:102030001D080A1203137F200A16800000380319B6
:10204000262803179D0A9C0A1328031303179D01D2
:10205000A0309C0016089E001D08FA001C08840091
:1020600083137A1883171E080002031949281D08D4
:10207000FA001C08840083137A1883178008031D54
:1020800045280030F800F9004D289C0A03199D0AE4
:102090002C281C08F8001D08F90079089800780819
:1020A000970018089D0017089C001D089F001C0839
:1020B0009E001F08FA001E08840083137A188317F5
:1020C0008008031967289E0A03199F0A59281C08CB
:1020D0001E02F7001F08FA001D08031C1D0FFA025C
:1020E0007708F800780899000313C00103179C01D2
:1020F0009D017B30840083131C0884071D080A128D
:10210000031379200A168000003803198C2803175E
:102110009D0A9C0A7928031303179F01A0309E0093
:10212000A1017B30A0000A128A15031365220A164A
:102130008A11790803179B0078089A009A08031DF2
:10214000A4289B080319032903134008FA3E031827
:10215000EE28063E582AEE280317C5016D30C4004C
:102160001B08C7001A08C6000A1203135B250A16CB
:10217000EE280317C5016630C4001B08C7001A0803
:10218000C6000A1203135B250A16EE2803171B0864
:102190009F001A089E000A128A15031356230A1676
:1021A0008A117808CD00EE2803171B089F001A0833
:1021B0009E000A128A15031356230A168A117808FC
:1021C000CE00EE280317C501D230C4001B08C7009B
:1021D0001A08C6000A1203135B250A1603179F018B
:1021E0009E01A1017B30A0000A128A15031365220B
:1021F0000A168A11790803179B0078089A000313BE
:10220000C00A03179E289D016D309C009F015D3020
:102210009E000A12031370270A167808D2000317CB
:102220009D0166309C009F0156309E000A120313E8
:1022300070270A167808D100D208031D4E2AD1084B
:10224000031D4E2A4E0803171902031929290313E7
:102250004E2A03134D0803193429013A031935296D
:10226000033A0319202A4D2A4D2AC00101300317D1
:10227000C700C8000A120313F0220A160A30031717
:10228000C7000A12031376210A1603179E019F0145
:102290007B30840083131E0884071F080A1203136F
:1022A0005E200A168000003803195B2903179F0A75
:1022B0009E0A4829031303179F01D2309E00A101F3
:1022C0007B30A0000A128A15031365220A168A11B0
:1022D000790803179D0078089C009C08031D73294A
:1022E0009D080319C8290313400803197E29013AE0
:1022F00003199829033A0319A629B32901300317B2
:10230000C7000A12031376210A1603171C0884005B
:1023100083131D1883170A12031315270A16F230A8
:1023200003178D0000308F000A1203133E230A1694
:1023300003171D089F001C089E000A128A1503132C
:1023400056230A168A117808CF00B32903171D08EF
:102350009F001C089E000A128A15031356230A16B2
:102360008A117808D00003179F019E01A1017B30DC
:10237000A0000A128A15031365220A168A11790829
:1023800003179D0078089C000313C00A03176D29EA
:102390000130C7000A12031376210A160130031711
:1023A000C7000230C8000A120313F0220A160A30CE
:1023B0000317C7000A12031376210A16F930031710
:1023C0008D0000308F000A1203133E230A160317F4
:1023D000C801C701C60103134F080317C5000A301F
:1023E000C900CB017B30CA000A1203133B240A1632
:1023F0007B30840083130A1215270A16FC3003175A
:102400008D0000308F000A1203133E230A160317B3
:10241000C801C701C601031350080317C5000A30DD
:10242000C900CB017B30CA000A1203133B240A16F1
:102430007B30840083130A1215270A1654174D2A7D
:1024400003179C019F01D2309E000A128A150313C4
:1024500056230A168A11780803179C009D011D084F
:10246000073C031C472A00301C1801309E001D0841
:102470009F001E08A000A2015330A1000A120313FE
:10248000B6270A16031003179C0C9D0A2F2A0A125E
:102490008A1503138B240A168A11552A0A3003174A
:1024A000C7000A12031376210A168A110A16DB2DB9
:1024B0000A108A140A118207AB28AC28B928C6284A
:1024C000D428E22803179601970103135008031735
:1024D00017020318A22C343017079800990103182B
:1024E000990A17089A0001309B0002309C000430C2
:1024F0009D0008309E0010309F002030A00040302A
:10250000A1001B301A07840083170008A300A40051
:10251000A501A601A701893084008317C03080057A
:10252000260880049F3084008313CF30800525085F
:102530008004883084008317240880000330C7009B
:102540000A12031376210A1603171A0DF700F70D66
:10255000FC30F70503131F08C33977049F000330CD
:102560000317C7000A12031376210A16B301B2013A
:102570000317A2012208633C031CD42A03139F14EF
:102580009F18C02A83161E088312B2071E0803185C
:102590001E0FB30701300317C7000A120313762179
:1025A0000A160317A20ABA2A031333080317A40052
:1025B000031332080317A3008E30F7002408F80035
:1025C0002308F900FA01F808031DF02A7908F80039
:1025D000F9010830F702F808031DF02AF701F82A7C
:1025E0000310F81BF72AF90DF80DF703F02AF8137A
:1025F0007A08A6007908A5007808A4007708A30047
:102600009A30AA009930A9004C30A8008630A70063
:1026100023080319CD2BAF0027080319CD2BAF02D8
:10262000031C172B7F30AF070318CD2B1D2B8130D8
:10263000AF02031CCD2B0319CD2B2F08F700F80197
:10264000F901FA01AE012408AD00AD172508AC0070
:102650002608AB001930AF002A08AB020318402B44
:102660000130AC020318402BAD020318402BAE0220
:102670000318402BAE0AAD0AAC0A2A08AB07722B2E
:102680002908AC0203185B2B0130AD0203185B2B49
:10269000AE0203185B2BAE0AAD0A2908AC072A0864
:1026A000AB07031C722BAC0A031D722BAD0A031D72
:1026B000722BAE0A722B28088038AD020318712BDA
:1026C0000130AE020318712BAE0A28088038AD071E
:1026D0002908AC07031C4F2BAD0A031D4F2BAE0A74
:1026E0004F2B7A14AF0B752B802B0310AB0DAC0D59
:1026F000AD0DAE0D0310FA0DF90DF80DB00D2C2B2C
:10270000301C882B0310F80CF90CFA0CB00C8B2B36
:10271000F7030319CD2BB01BB42B0310AB0DAC0D7D
:10272000AD0DAE0D2A08AB020318A02B0130AC0290
:102730000318A02BAD020318A02BAE02031CC32B61
:102740002908AC020318AB2B0130AD020318AB2BE8
:10275000AE02031CC32B28088038AD020318B42B2B
:102760000130AE02031CC32BFA0A031DC32BF90A66
:10277000031DC32BF80A031DC32BF70A0319CD2B26
:10278000F80CF90CFA0C2408AF002808AF06AF1FAC
:10279000CB2BF817D12BF813D12BF701F801F90146
:1027A000FA017A08A6007908A5007808A40077083D
:1027B000A3008E30F7002308F7022408F90025084B
:1027C000F800F917F7080319F02B0310F908031D97
:1027D000EC2BF8080319F02BF90CF80CF70BE52B90
:1027E000A41FF72BF809F909F80A0319F90A79085F
:1027F0000313B3007808B2003208F8000317180872
:102800008400831319188317780880003430170761
:10281000840083130008980039301707840083135D
:102820000008980218089600990116089800981B4D
:1028300099038E30F7001908F8001808F900FA011A
:10284000991F272CF809F909F90A0319F80AF80859
:10285000031D342C7908F800F9010830F702F80854
:10286000031D342CF7013D2C0310F81B3B2CF90DF4
:10287000F80DF703342C991FF8139B019A01990165
:102880007E3098007A089F0079089E0078089D00A5
:1028900077089C001908A0001D08A006A01F552C51
:1028A00003110310991B0314882C1908A0001C089D
:1028B000A1001808A1020319632CA01F882C03088B
:1028C000013A8300882C1D08A1001908A1020319F0
:1028D0006F2CA01F882C0308013A8300882C1E0847
:1028E000A1001A08A10203197B2CA01F882C030841
:1028F000013A8300882C1F08A1001B08A1020319BC
:10290000872CA01F882C0308013A8300882C031011
:10291000031C8D2C03135514031739301707980027
:1029200099010318990A34301707840083130008AB
:102930009A00180884008313191883171A08800056
:10294000970A652A03138A110A16F22D03081F3904
:102950008300831603178711193003139900A630DB
:102960009800903083129800FF30B100BE01BF0183
:10297000C001C101CC01CD01CE01CF010330D00097
:10298000D101D2015410D4105411D4115412D412C4
:102990005413D4135510831603170908C03989003E
:1029A00003131F129F120030031788008312870140
:1029B0008801890183130313AB01AC01B401B50194
:1029C000B601B701B801B901BA01BB01BC01BD0133
:1029D0000330C2000830C3000630C4000930C5000F
:1029E000C6010730C700C8010130C9000530CA0060
:1029F0000230CB00D3013030D8003530D900383028
:102A0000DA003930DB00DC01D7015830D600313034
:102A1000DF003230E0003730E1003130E2003030AA
:102A2000E3003230E400E501DE015F30DD003030EC
:102A3000E800E900EA00EB00EC01E7016830E6009D
:102A40003030EF00F000F100F200F300F400F50187
:102A5000EE016F30ED0048308316A0004930A10030
:102A60004830A2004930A300A4014830D2004930C8
:102A7000D3004830D4004930D500D6013030EB00C7
:102A8000EC00ED00EE00EF01FC01EB30FB0032301A
:102A9000831203179000373091003030920093007A
:102AA00094010130FE001030FD00F0308316031356
:102AB0008800FF30860009108910091189118030C3
:102AC00087008312B1001F179F1383169F1783126D
:102AD0001F140B160B16831601138C16C0308312AD
:102AE0008B04353090008E010B308F00DC308E006F
:102AF0000C100A128A2A0A16D410D41154158316FF
:102B0000881183128815541001300317C700023052
:102B1000C8000A120313F0220A160A300317C7006E
:102B20000A12031376210A166C3003178D00013048
:102B30008F000A1203133E230A1603179501150886
:102B4000093C031CB92D0313311231088316870089
:102B5000103083128706023003179600FA30C70040
:102B60000A12031376210A160317960BAE2D950A47
:102B70009F2D71308D0001308F000A1203133E2308
:102B80000A160A128E2B0A160A12B7250A16D41C28
:102B9000CF2D0A128A1500280A168A11022ED41D7A
:102BA000D52D0A12B7250A16022ED418022E541C4F
:102BB000DB2D54100028541F012ED41FEA2D0A12B9
:102BC0008A15132E0A168A11D4130A128A158B2419
:102BD0000A168A1164300317C7000A1203137621FC
:102BE0000A16622A551C012E55100A128A15642EE7
:102BF0000A168A11C8300317C7000A120313762178
:082C00000A16D52DC72D630053
:04400E00E22FFF3F5F
:00000001FF
;PIC16F887
;CRC=6221  CREATED="18-Nov-21 21:50"
