:100000000D308A00802D0000FF00030E8301A10047
:100010000A08A0008A010408A2007708A300780853
:10002000A4007908A5007A08A60003170D08031399
:10003000A70003170F080313A80003170C080313E6
:10004000A90003170E080313AA00831383120B1EC3
:100050002B288B1852288C308400801E31288C1A53
:100060005528220884002308F7002408F8002508F2
:10007000F9002608FA00270803178D000313280843
:1000800003178F000313290803178C0003132A0892
:1000900003178E00031320088A00210E8300FF0E31
:1000A0007F0E09008A110A12DB288A110A120C2914
:1000B0000A108A100A118207303400340A108A109C
:1000C0000A11820700340A108A100A1182072334A9
:1000D0000034CE27C4223A10000030183018201007
:1000E00020102010201020100001201020102010BF
:1000F0005F10201020102010201020102010200051
:10010000201020105F10201020004922DF23571DEF
:100110000001301830183018201020102010201046
:1001200000012010201020105F102010201020103F
:1001300020102010201020102000201020105F1010
:100140002010201020102000C3274E23C9233A106E
:100150002010201020102000C320D3223A1020109D
:100160002010201020102000A016A024C416CE2796
:10017000C4222010201020100001A016A024C416B4
:10018000C72B2010201020102000D720492A4927F3
:1001900047102E172E1720102010201020100001BD
:1001A000D720492A492747102E172E172010201034
:1001B0002010201000000317D901831603138614A2
:1001C00083128618F6280C1CF328831608110430B5
:1001D000831288060C108E010B308F00DC308E00ED
:1001E0000317D90A03130317DD280313031759084C
:1001F000143C0318042902300313CD060430CD0645
:10020000CD154D12082903170313CD114D12CD1230
:100210008B108A110A123128A03039078400831309
:100220008C1E10291A088000A0303907840083131F
:1002300000082E3C031D2429A030390784008313B5
:100240008001B9014D142529B90A8C128A110A12AC
:100250003128201020102010201020102010000124
:10026000201020102010201020102010201020100E
:100270000000363084008317000803194C2906302B
:10028000F800F701F70B4229F80B41297B30F70002
:10029000F70B4829800B3F29080003173D18542904
:1002A00003130710562903170313071431103108DD
:1002B0008316870083120317BD1862290313871062
:1002C0006429031703138714B110310883168700BC
:1002D000831203173D19702903130711722903179D
:1002E0000313071531113108831687008312031792
:1002F000BD197E290313871180290317031387155E
:10030000B111310883168700000083120914831687
:1003100009100230F700F70B8B298E290000831299
:10032000091083160910831208000317BE01031376
:10033000311431088316870000308312071801300A
:100340000317BE040313B11431088316870000306D
:10035000831287180130F7000310F70D7708031791
:10036000BE04031331153108831687000030831251
:1003700007190130F700F70DF70DFC30F705770886
:100380000317BE040313B11531088316870000302C
:10039000831287190130F700F70DF70DF70DF830CC
:1003A000F70577080317BE043E08F800031308009A
:1003B0008316091089100911831289108316891078
:1003C0000714871407158715831209158316091159
:1003D000000083120914831609100000831295216E
:1003E00078080317BD0003130910831609100000D5
:1003F0008312091483160910FD29FE2900008312B7
:10040000952178080317BC000313091083160910FF
:10041000831231103108831687008312B11031081E
:1004200083168700831231113108831687008312E7
:10043000B111310883168700831203173D0EF700B0
:10044000F030F70577083C04F8007808BC00BC1FC2
:100450002C2A83160313E029BA08031D332A031339
:100460008910352A03170313891483168910000095
:1004700083120911831609110000831209108316D3
:100480000910831203173B0EBC000F30BC053C085B
:10049000BD0003134D2103173B080F39BC00BD00FD
:1004A00003134D21080028308316CE000C30CF00F6
:1004B0000130D0000630D1008312091083160910D4
:1004C000831289108316891083120911831609116A
:1004D000831231103108831687008312B11031085E
:1004E0008316870083123111310883168700831227
:1004F000B1113108831687000910891009110F30D6
:1005000083120317B6000313392101308316CD007F
:100510004D08033C031C9A2A033083120317BD00C5
:1005200003134D2105300317B60003133921831639
:10053000CD0A882A023083120317BD0003134D2110
:1005400005300317B600031339218316CD014D087A
:10055000033C031CBF2ACE304D07840083130008E0
:10056000D20083120317BA018316031352088312B1
:100570000317BB000313D8218316CD0AA72A8312C1
:100580008A150A12432E0317370BC72ACA2A40308E
:10059000B800CB2AB80101303602B80738088038D5
:1005A000B900BA013908BB000313D82108000317AA
:1005B0003508073A03130319E72A0B3A0319EE2A01
:1005C000063A0319FA2A023A0319022B092B0130C1
:1005D0000317B600B7000313C322102B0317BA0189
:1005E0000130BB000313D82102300317B6000313F8
:1005F0003921102B01300317B6000230B700031366
:10060000C322102B0317BA011030BB000313D821EB
:10061000102B01300317BA003508BB000313D82193
:1006200008000B080317B20003138B13831603177C
:100630008C170C14000000008312B21F222B03132E
:100640008B1703170C087F3903195F2BB2000D08B5
:10065000B3000F08B4003208B5000313D722031704
:1006600033088D0034088F0003130B080317B500FF
:1006700003138B13831603178C170C140000000050
:100680008312B51F462B03138B1703170C0D0E0D8A
:100690007F3903195F2BB2000D08B3000F08B400B7
:1006A0003208B5000313D722031733088D0034082E
:1006B0008F008D0A03198F0A0313112B03170313DD
:1006C00008008318662B53308400831703174E08E5
:1006D00052068039D800CE1F782BCB09CC09CD0922
:1006E000CE09CB0A0319CC0A0319CD0A0319CE0A85
:1006F000D21F852BCF09D009D109D209CF0A0319FE
:10070000D00A0319D10A0319D20AF701F801F90135
:10071000FA01D301D401D501D60152085104500485
:100720004F040319C32B2030D7000310CB0DCC0D81
:10073000CD0DCE0DD30DD40DD50DD60D52085602CC
:10074000031DAC2B51085502031DAC2B500854025D
:10075000031DAC2B4F085302031CBD2B4F08D302C3
:100760005008031C500FD4025108031C510FD5022E
:100770005208031C520FD6020314F70DF80DF90DA1
:10078000FA0DD70B952BD81FD02BF709F809F909CB
:10079000FA09F70A0319F80A0319F90A0319FA0AF8
:1007A00053088000840A54088000840A5508800099
:1007B000840A56088000031308000317BE01BD0118
:1007C000BC010130BB00C001C101B71F272C0130A3
:1007D000C0003708C6003608C5003508C400340814
:1007E000C300FF30CA00C900C800C7002030CF00D6
:1007F000CB01CC01CD01CE014608FA004508F90035
:100800004408F8004308F7000310771C152C47082C
:10081000CB0748080318480FCC0749080318490FAD
:10082000CD074A0803184A0FCE07CE0CCD0CCC0CCE
:10083000CB0CFA0CF90CF80CF70CCF0B042C7A0843
:10084000B7007908B6007808B5007708B400BB088F
:10085000031D332CBC08031D332CBD08031D332C92
:10086000BE080319AF2C83103708CE003608CD0020
:100870003508CC003408CB00D201D101D0013808B2
:10088000CF00031361237A080317BE007908BD0067
:100890007808BC007708BB0041083907F8003A081F
:1008A000FA000318FA0A7808C3007A08C400C601DF
:1008B0000408C5004610831B461483144730840087
:1008C00083173708CE003608CD003508CC00340831
:1008D000CB00D201D101D0013808CF00031361232E
:1008E00003174508840083134618831730304707E1
:1008F000F7004808F800003003180130F8074908ED
:10090000F900003003180130F9074A08FA000030F6
:1009100003180130FA07430884008313441883172F
:100920007708800041083907840083133A18831739
:100930000008393C0318A52C4108390784008313AB
:100940003A188317073000078000C10A3E08B70035
:100950003D08B6003C08B5003B08B400272C400B0E
:10096000BA2C41083907840083133A1883172D30B5
:100970008000C10ABF010310410C3F020318F02C94
:100980003F083907840083133A1883170008C20010
:100990003F083907F8003A08FA000318FA0A7808FD
:1009A000C3007A08C4003F084102FF3E39078400B3
:1009B00083133A1883170008C50043088400831383
:1009C00044188317450880003F084102FF3E39075D
:1009D000840083133A18831742088000BF0ABB2C97
:1009E00041083907840083133A18831780013908B6
:1009F000F8003A08F90003130800800803191B2DBA
:100A00008316D4010408D3005410831B5414000827
:100A100083120317B5000313D722831653088400EB
:100A2000831354188317840A031D192D8312850A12
:100A300083168312FD2C080083165208F801510218
:100A40000318252D5108F700312DF7010830D30088
:100A5000D10DF70D520877020318F700F80DD30BEC
:100A6000282D831208004D1601300317B600B70079
:100A70000313C3220A300317B60003133921A4302D
:100A800003178D0000308F0003131123013003176B
:100A9000B6000230B7000313C3220A300317B600B2
:100AA00003133921AC3003178D0000308F0003137E
:100AB00011234D1EA62D8316061583120619A52D8A
:100AC000B80A0130B80502308316CD009630831283
:100AD0000317B600031339218316CD0B662D06309C
:100AE00083120317B6000230B7000313C3220317A3
:100AF000B701B601B501031338080317B4000A3073
:100B0000B800BA016E30B9000313DD230A300317B1
:100B1000B600031339216E3084008313FD24380896
:100B20000319962D013A03199E2DA52DB4300317F4
:100B30008D0000308F0003131123A52DBD30031746
:100B40008D0000308F0003131123592DCD194D2F27
:100B5000CD1138080319B02D013A03197B2E4D2F02
:100B6000CD11CD168316CD01CE01CF016E3084009C
:100B700083134E0884074F088312582080000038E2
:100B80000319C72D8316CF0ACE0AB62D8312013062
:100B90000317B6000230B7000313C3220A3003174D
:100BA000B60003133921693003178D0000308F0020
:100BB000031311236D3003178D0000308F000313D2
:100BC000112301300317B600B7000313C322753099
:100BD00003178D0000308F0003131123CD1E7A2ED2
:100BE0008316061583120619172E8316CD0A0330B5
:100BF000CD054D07CE0083120317B6000130B700B4
:100C00000313C322803003178D0000308F000313BD
:100C1000112302308316CE00963083120317B600DC
:100C2000031339218316CE0B0C2E782E83128316D4
:100C3000861583128619792E433083164D0784005A
:100C40008313800A43304D07F800FA010318FA0AAB
:100C50007808CE007A08CF0043304D078400831314
:100C60000008D1000A30D20083121C2577088316B1
:100C7000D0004E08840083134F188317500880005B
:100C800043304D07840083130008CE0083120317FE
:100C9000B701B601B501831603134E08831203177B
:100CA000B4000A30B800BA016E30B9000313DD2376
:100CB000073083164D07CE0083120317B6000230AB
:100CC000B7000313C3220A300317B60003133921F8
:100CD0006E3084008313FD2402308316CE009630DC
:100CE00083120317B600031339218316CE0B6F2E20
:100CF0008312EE2D4D2F8316CD01CE01CF016E3024
:100D0000840083134E0884074F0883125820800004
:100D100000380319902E8316CF0ACE0A7F2E831235
:100D2000CD11CD1601300317B6000230B700031302
:100D3000C3220A300317B600031339218530031785
:100D40008D0000308F0003131123893003178D00AD
:100D500000308F000313112301300317B600B700D2
:100D60000313C322913003178D0000308F0003134B
:100D70001123CD1E4D2F8316061583120619EA2E58
:100D80008316CD0A4D08D1000630D20083121C25EF
:100D900077088316CD0003304D07CE00831203176A
:100DA000B6000130B7000313C3229D3003178D0036
:100DB00000308F000313112302308316CE009630CB
:100DC00083120317B600031339218316CE0BDF2ECF
:100DD0004B2F831283168615831286194C2F3D30B4
:100DE00083164D0784008313800A3D304D07F800B9
:100DF000FA010318FA0A7808CE007A08CF003D30CD
:100E00004D07840083130008D1000A30D2008312FA
:100E10001C2577088316D0004E08840083134F18D2
:100E20008317500880003D304D078400831300086D
:100E3000CE0083120317B701B601B5018316031361
:100E40004E0883120317B4000A30B800BA016E309E
:100E5000B9000313DD23073083164D07CE0083123C
:100E60000317B6000230B7000313C3220A3003177A
:100E7000B600031339216E3084008313FD24023041
:100E80008316CE00963083120317B6000313392160
:100E90008316CE0B422F8312B92E8A150A12502EBA
:100EA00003173408B8003308B7003808FA003708C9
:100EB000840083137A18831780080319632FB70AF5
:100EC0000319B80A552F3608FA0035088400831331
:100ED0007A18831780080319822F3508840083133A
:100EE000361883170008BB003708840083133818AE
:100EF00083173B088000B70A0319B80AB50A03191B
:100F0000B60A632F370884008313381883178001CB
:100F10003308F8003408F9000313080003173508F4
:100F2000B7003408B6003708FA0036088400831387
:100F30007A18831780080319A12FB60A0319B70A74
:100F4000932F34083602F7003708FA003508031CDF
:100F5000350FFA027708F800031308008316CD0155
:100F60004D081E3C031CC02F8810023083128806D7
:100F700064300317B600031339218316CD0AB02F4E
:080F800083128A150A125A2E91
:101000004D12CD122A300317900091014C309200FE
:10101000453093004E30940047309500483096009C
:10102000543097009801433099005F309A00463061
:101030009B009C0149309D0044309E005F309F0022
:101040004730A0005730A1003130A2003230A30059
:101050003330A4003430A500A6014930A700443045
:10106000A8005F30A9004E30AA004F30AB004430DA
:10107000AC004530AD00AE012330AF00B00101300F
:1010800083160313CE001030CD000130D000123093
:10109000CF000130D2001930D1000130D4001D3012
:1010A000D3000130D6002730D5000130D8002F30D2
:1010B000D700FA01553083120317B3007A08B40041
:1010C000330884008313341883178001B201320877
:1010D000053C031C94283D3032078400831300082C
:1010E000B300B701B601B5013308B4000A30B80047
:1010F000BA016E30B9008A110313DD238A1501305D
:101100000317B6008A11031339218A150317B40196
:101110005530B300B6016E30B5008A110313502765
:101120008A150317B20A672883160313D4015530B2
:10113000D300FA014E3083120317B3007A08B400CB
:10114000330884008313341883178001B2013208F6
:10115000033C031CD4284330320784008313000867
:10116000B300B701B601B5013308B4000A30B800C6
:10117000BA016E30B9008A110313DD238A150130DC
:101180000317B6008A11031339218A150317B40116
:101190004E30B300B6016E30B5008A1103135027EC
:1011A0008A150317B20AA72883160313D6014E30F7
:1011B000D5008312C70131308316CF003230D00002
:1011C000D9015908053C031C03290310590DCD3ED4
:1011D00084008313840A0008DB0084030008DA001B
:1011E0005B0883120317B500831603135A08831292
:1011F0000317B4008A1103138E278A157808C707CE
:101200008316D90AE12805308312C7070317B701EF
:10121000B601B501031347080317B4000A30B8003C
:10122000BA016E30B9008A110313DD238A158316C3
:10123000D0016E30CF00D9015908053C031C572955
:101240000310590DCD3E84008313840A0008DB008F
:1012500084030008DA005A08840083135B1883179C
:10126000800803194F2983120317B5010408B4003D
:101270003510831B3514000803130C1E3D299900FB
:10128000031734088400831335188317840A031D59
:101290004C290313850A03178316031330294030A2
:1012A00083120C1E512999008316D90A1C2901307A
:1012B00083120317B600B7008A110313C3228A15DD
:1012C0000A300317B6008A11031339218A15C53075
:1012D00003178D0000308F008A11031311238A1524
:1012E00001300317B600B7008A110313C3228A1511
:1012F0000A300317B6008A11031339218A15D0303A
:1013000003178D0000308F008A11031311238A15F3
:10131000CD118A150A12552E831653085404031949
:1013200095295408FA0053089A2983122C08FA00C8
:101330002B088316D7007A08D8005808DC00570815
:10134000DB005608DE005508DD005C08E0005B08A5
:10135000DF006008FA005F08840083137A1883179F
:1013600080080319EA295E08E2005D08E1006208CE
:10137000FA006108840083137A1883178008031D1C
:10138000CE295B085F02F7006008FA005C08031CC6
:101390005C0FFA027708F800F529E2296008FA00E4
:1013A0005F08840083137A1883170008E30062083B
:1013B000FA006108840083137A1883170008630217
:1013C0000319E629E10A0319E20AB729DF0A03191A
:1013D000E00AA9295B085F02F7006008FA005C08D0
:1013E000031C5C0FFA027708F8007808D707031887
:1013F000D80A5808FA005708840083137A1883170C
:101400008008031D102A83122B08840083132C18D4
:101410008317203080000030F800F9007C2A831602
:101420005808DC005708DB005608DE005508DD00D0
:101430005C08E0005B08DF006008FA005F088400D9
:1014400083137A18831780080319552A5E08E2006F
:101450005D08E1006208FA006108840083137A18CD
:10146000831780080319512A6008FA005F08840076
:1014700083137A1883170008E3006208FA006108F2
:10148000840083137A18831700086302031D4D2A12
:101490005F08F8006008F900582AE10A0319E20A17
:1014A0002A2ADF0A0319E00A1C2A0030F800F90092
:1014B0007908DA007808D9005A08FA005908840037
:1014C00083137A188317800803196F2A5908840038
:1014D00083135A1883178001D90A0319DA0A5A08A4
:1014E0008312AC00831659088312AB008316570889
:1014F000F8005808F900831208008316D801D601B5
:101500000A30D700D50153085404031D8A2A00303D
:10151000F8007D2B5808D80A530784008313541809
:1015200083170008D90059082D3C031DA32A013058
:10153000D6005808D80A5307840083135418831719
:101540000008D900B02A59082B3C031DB02A5808BE
:10155000D80A530784008313541883170008D9004E
:1015600059082F3C0318732B5908393C031C732B63
:101570005908303C031DDC2A5808530784008313A4
:10158000541883170008783C0319D02A58085307C9
:1015900084008313541883170008583C031DDC2A69
:1015A0001030D700D80A5808D80A5307840083138C
:1015B000541883170008D90057080A3C031D212B33
:1015C00059082F3C0318202B5908393C031C202BA9
:1015D0000A30DA005508DB00F701F8015A08031059
:1015E0005B18F707F70CF80CDB18F707F70CF80C8B
:1015F0005B19F707F70CF80CDB19F707F70CF80C79
:101600005B1AF707F70CF80CDB1AF707F70CF80C66
:101610005B1BF707F70CF80CDB1BF707F70CF80C54
:101620007808DA00303059025A07D5005808D80A2D
:10163000530784008313541883170008D900E02A45
:10164000732B5708103C031D732B5908603C03187B
:10165000302B59087A3C031C302B5908DF39312BC9
:101660005908D90059082F3C03183A2B5908393C1E
:101670000318422B5908403C0318732B5908463C69
:10168000031C732B59082F3C0318532B5908393C62
:10169000031C532B550EDA00F030DA0530305902B6
:1016A0005A07D5005C2B550EDA00F030DA054130D0
:1016B00059020A3E5A07D5005808D80A5307840031
:1016C0008313541883170008D9005908603C031885
:1016D000702B59087A3C031C702B5908DF39712B89
:1016E0005908D900322B560B7B2B57080A3C031D97
:1016F0007B2BD509D50A5508F800831208008316FC
:101700005408FA005308840083137A1883170008DA
:10171000D7005608FA005508840083137A188317F7
:1017200000085702031DAB2B5408FA00530884002D
:1017300083137A1883178008031DA12B0030F8004B
:10174000C32B5408FA005308D30A0319D40AD50A44
:101750000319D60A802B5408FA0053088400831317
:10176000541883170008D7005608FA00550884005B
:10177000831356188317000857020318C12BFF3034
:10178000C22B0130F800831208002A308316CD00E6
:10179000FA015E30840083137A1883178001FA01FE
:1017A0006530840083137A1883178001D301D40134
:1017B000BE30840083135308840754088A118312AF
:1017C0005E208A15800000380319EB2B8316D40A9B
:1017D000D30AD82B83128316D401A030D3004D082E
:1017E000D5005408FA005308840083137A1883172D
:1017F0005508000203190E2C5408FA0053088400FF
:1018000083137A1883178008031D0A2C0030F80010
:10181000F900122CD30A0319D40AF12B5308F8004B
:101820005408F9007908CF007808CE004F088312D9
:101830000317B500831603134E0883120317B40071
:101840008A1103138E278A1578088316D000831215
:10185000BA018316D301D4016E3084008313530878
:10186000840754088A11831263208A158000003887
:1018700003193F2C8316D40AD30A2C2C8312831607
:10188000D401A030D300D6016E30D50083128C2154
:1018900079088316D2007808D100D108031D532C93
:1018A000D2080319BE2C83123A08FA3E0318AD2C55
:1018B000063E762DAD2C0317B4016530B3008316B8
:1018C0000313520883120317B6008316031351083B
:1018D00083120317B5008A11031350278A15AD2C04
:1018E0000317B4015E30B30083160313520883124A
:1018F0000317B60083160313510883120317B500AC
:101900008A11031350278A15AD2C83165208D40070
:101910005108D30083127D227808C800AD2C8316AD
:101920005208D4005108D30083127D227808C900E0
:10193000AD2C0317B401BE30B30083160313520855
:1019400083120317B600831603135108831203177B
:10195000B5008A11031350278A158316D401D301C9
:10196000D6016E30D50083128C2179088316D200FF
:101970007808D1008312BA0A83164D2CD401653041
:10198000D300D6015530D50083127F237808CB00D1
:101990008316D4015E30D300D6014E30D5008312B9
:1019A0007F237808CA00CB08031D6C2DCA08031DCD
:1019B0006C2D4908831650020319E02C83126C2DFC
:1019C000831248080319EB2C013A0319EC2C033A53
:1019D00003196B2D6B2D6B2D83168801FF3083123D
:1019E000880002308316D300FA3083120317B60042
:1019F0008A11031339218A158316D30BF42C013075
:101A000083120317B600B7008A110313C3228A1585
:101A10000A300317B6008A11031339218A15BE3024
:101A2000840083138A11FD248A15293003178D0041
:101A300001308F008A11031311238A150130031717
:101A4000B6008A11031339218A1583168801FF30E5
:101A50008312880001300317B6000230B7008A11E4
:101A60000313C3228A150A300317B6008A11031321
:101A700039218A15303003178D0001308F008A110B
:101A8000031311238A1583168801831288010230FB
:101A90008316D300FA3083120317B6008A1103139A
:101AA00039218A158316D30B4A2D8801FF30831202
:101AB000880002308316D300FA3083120317B60071
:101AC0008A11031339218A158316D30B5C2D8801E3
:101AD000831288016B2D732D0A300317B6008A110B
:101AE000031339218A158A150A125F2E0A148A10E7
:101AF0000A1582075A2C5B2C702C852C8F2C992C64
:101B000003081F3983008316031787150830031352
:101B1000990002309A00A630980090308312980005
:101B2000FF30B100B801B901BA01C701C801C9014C
:101B3000CA01CB01CC014D10CD104D11CD114D126C
:101B4000CD12831603170908C039890003131F1229
:101B50009F120030031788008312870188018901D2
:101B600083130313AB01AC010130BD000230BE0092
:101B70000730BF000130C000C1010230C200C30104
:101B80000530C4000830C5000930C6003030D00030
:101B9000D100D200D300D401CF015030CE0030307C
:101BA000D700D800D900DA00DB00DC00DD01D60167
:101BB0005730D5003030E000E100E200E300E401FE
:101BC000DF016030DE003030E700E800E900EA00C5
:101BD000EB00EC00ED01E6016730E50048308316CC
:101BE000A0004930A1004830A2004930A300A40160
:101BF0004830BE004930BF004830C0004930C10005
:101C0000C2013030F000F100F2018312EF017030B8
:101C1000EE003030FB00FC00FD01F4017B30F300EE
:101C2000003083168800FF308600091089100911E2
:101C30008911803087008312B1001F179F1383160C
:101C40009F1783121F14831603170908C0398900D0
:101C500003131F129F12013003178800831203130E
:101C60008B160B160B16831601138C16C0308312BD
:101C70008B04353090008E010B308F00DC308E00ED
:101C80000C108A11532A8A15CD10CD114D158316CB
:101C90008801831288014D10CD1C522E8A11332DDC
:101CA0008A15602ECD1D562E0028602ECD18602E70
:101CB0008A11AE2F8A154D1C5F2E4D10C52B562E46
:041CC0004C2E630043
:04400E00E22FFF3F5F
:00000001FF
;PIC16F887
;CRC=7A79  CREATED="29-Oct-21 16:30"
