:100000000C308A009A2C0000FF00030E8301A1002F
:100010000A08A0008A010408A2007708A300780853
:10002000A4007908A5007A08A60003170D08031399
:10003000A70003170F080313A80003170C080313E6
:10004000A90003170E080313AA00831383120B1EC3
:100050002B288B1852288C308400801E31288C1A53
:100060005528220884002308F7002408F8002508F2
:10007000F9002608FA00270803178D000313280843
:1000800003178F000313290803178C0003132A0892
:1000900003178E00031320088A00210E8300FF0E31
:1000A0007F0E09008A110A12D6288A110A1207291E
:1000B0000A108A100A118207303400340A108A109C
:1000C0000A11820723340034CE27C4223A100000DC
:1000D000301830182010201020102010201000019F
:1000E0002010201020105F10201020102010201051
:1000F000201020102000201020105F102010200061
:100100004922DF23571D0001301830183018201005
:1001100020102010201000012010201020105F104F
:10012000201020102010201020102010201020005F
:10013000201020105F102010201020102000C32756
:100140004E23C9233A102010201020102000C32075
:10015000D3223A1020102010201020102000A016CA
:10016000A024C416CE27C422201020102010000185
:10017000A016A024C416C72B201020102010200089
:10018000D720492A492747102E172E172010201054
:10019000201020100001D720492A492747102E1788
:1001A0002E17201020102010201000000317B90176
:1001B00083160313861483128618F1280C1CEE286C
:1001C000831608110430831288060C108E010B3040
:1001D0008F00DC308E000317B90A03130317D828E9
:1001E000031303173908143C0318FF2802300313C4
:1001F000D6060430D606D615561203290317031364
:10020000D6115612D6128B108A110A123128A0303C
:100210003907840083138C1E0B291A088000A03034
:1002200039078400831300082E3C031D1F29A030CA
:100230003907840083138001B90156142029B90AB3
:100240008C128A110A12312810308400831700089A
:10025000031937290630F800F701F70B2D29F80BA1
:100260002C297B30F700F70B3329800B2A29080053
:10027000031717183F290313071041290317031306
:10028000071431103108831687008312031797185B
:100290004D29031387104F29031703138714B11037
:1002A0003108831687008312031717195B2903137C
:1002B00007115D2903170313071531113108831640
:1002C00087008312031797196929031387116B2974
:1002D000031703138715B111310883168700000037
:1002E00083120914831609100230F700F70B7629E0
:1002F000792900008312091083160910831208005F
:100300000317980103133114310883168700003056
:10031000831207180130031798040313B11431082E
:10032000831687000030831287180130F70003100E
:10033000F70D770803179804031331153108831656
:1003400087000030831207190130F700F70DF70D11
:10035000FC30F7057708031798040313B11531082B
:10036000831687000030831287190130F700F70DDC
:10037000F70DF70DF830F7057708031798041808FC
:10038000F80003130800831609108910091183125D
:10039000891083168910071487140715871583128F
:1003A0000915831609110000831209148316091018
:1003B00000008312802178080317970003130910A7
:1003C0008316091000008312091483160910E82906
:1003D000E92900008312802178080317960003138F
:1003E0000910831609108312311031088316870013
:1003F0008312B1103108831687008312311131083E
:10040000831687008312B111310883168700831287
:100410000317170EF700F030F70577081604F800F9
:1004200078089600961F172A83160313CB29940881
:10043000031D1E2A03138910202A0317031389148E
:100440008316891000008312091183160911000018
:10045000831209108316091083120317150E9600D4
:100460000F30960516089700031338210317150857
:100470000F3996009700031338210800283083169F
:10048000BF000C30C0000130C1000630C200831232
:10049000091083160910831289108316891083129C
:1004A0000911831609118312311031088316870050
:1004B0008312B1103108831687008312311131087D
:1004C000831687008312B111310883168700091043
:1004D000891009110F308312031790000313242190
:1004E00001308316BE003E08033C031C852A0330FE
:1004F0008312031797000313382105300317900068
:10050000031324218316BE0A732A023083120317B1
:10051000970003133821053003179000031324219B
:100520008316BE013E08033C031CAA2ABF303E07C7
:10053000840083130008C3008312031794018316F9
:10054000031343088312031795000313C321831673
:10055000BE0A922A83128A150A12342D0317110B30
:10056000B22AB52A40309200B62A92010130100218
:100570009207120880389300940113089500031322
:10058000C321080083166F08073A83120319D22A81
:100590000B3A0319D92A063A0319E52A023A031934
:1005A000ED2AF42A01300317900091000313AE22C4
:1005B000FF2A03179401013095000313C321023071
:1005C0000317900003132421FF2A01300317900022
:1005D000023091000313AE22FF2A0317940110305A
:1005E00095000313C321FF2A0130031794008316DB
:1005F00003136F088312031795000313C321080028
:100600000B088316EC0083128B13831603178C17C9
:100610000C14000000000313EC1F112B83128B1726
:100620008316831203170C087F390319722B831664
:100630000313EC00831203170D0883160313ED0058
:10064000831203170F0883160313EE006C08EF00E4
:100650008312C22283166D08831203178D0083163E
:1006600003136E08831203178F0003130B088316FE
:10067000EF0083128B13831603178C170C140000E2
:1006800000000313EF1F472B83128B17831683126F
:1006900003170C0D0E0D7F390319722B83160313EC
:1006A000EC00831203170D0883160313ED00831269
:1006B00003170F0883160313EE006C08EF00831274
:1006C000C22283166D08831203178D00831603134D
:1006D0006E08831203178F008D0A03198F0A031304
:1006E000002B0317031308008318792B3030840084
:1006F000831703172B082F068039B500AB1F8B2BF0
:10070000A809A909AA09AB09A80A0319A90A031982
:10071000AA0A0319AB0AAF1F982BAC09AD09AE09A1
:10072000AF09AC0A0319AD0A0319AE0A0319AF0ADF
:10073000F701F801F901FA01B001B101B201B30109
:100740002F082E042D042C040319D62B2030B400BE
:100750000310A80DA90DAA0DAB0DB00DB10DB20D72
:10076000B30D2F083302031DBF2B2E083202031DC9
:10077000BF2B2D083102031DBF2B2C083002031C98
:10078000D02B2C08B0022D08031C2D0FB1022E080F
:10079000031C2E0FB2022F08031C2F0FB3020314E9
:1007A000F70DF80DF90DFA0DB40BA82BB51FE32BBF
:1007B000F709F809F909FA09F70A0319F80A0319F8
:1007C000F90A0319FA0A30088000840A3108800007
:1007D000840A32088000840A33088000031308006A
:1007E00003179B019A019901013098009D019E0118
:1007F000941F3A2C01309D001408A3001308A20096
:100800001208A1001108A000FF30A700A600A50053
:10081000A4002030AC00A801A901AA01AB01230863
:10082000FA002208F9002108F8002008F700031058
:10083000771C282C2408A80725080318250FA907CA
:1008400026080318260FAA0727080318270FAB0747
:10085000AB0CAA0CA90CA80CFA0CF90CF80CF70CB0
:10086000AC0B172C7A089400790893007808920052
:10087000770891009808031D462C9908031D462C03
:100880009A08031D462C9B080319C22C83101408D8
:10089000AB001308AA001208A9001108A800AF01B4
:1008A000AE01AD011508AC00031374237A080317D9
:1008B0009B0079089A0078089900770898001E082C
:1008C0001607F8001708FA000318FA0A7808A000BB
:1008D0007A08A100A3010408A2002310831B23149B
:1008E00083142430840083171408AB001308AA0073
:1008F0001208A9001108A800AF01AE01AD0115084A
:10090000AC000313742303172208840083132318F5
:10091000831730302407F7002508F800003003184B
:100920000130F8072608F900003003180130F907F4
:100930002708FA00003003180130FA072008840065
:10094000831321188317770880001E081607840078
:100950008313171883170008393C0318B82C1E0896
:1009600016078400831317188317073000078000C9
:100970009E0A1B0894001A08930019089200180890
:1009800091003A2C1D0BCD2C1E08160784008313F2
:10099000171883172D3080009E0A9C0103101E0C2F
:1009A0001C020318032D1C08160784008313171854
:1009B000831700089F001C081607F8001708FA00A4
:1009C0000318FA0A7808A0007A08A1001C081E0281
:1009D000FF3E160784008313171883170008A20030
:1009E00020088400831321188317220880001C0824
:1009F0001E02FF3E160784008313171883171F0873
:100A000080009C0ACE2C1E0816078400831317183A
:100A1000831780011608F8001708F900031308006F
:100A2000800803192C2D8316C0010408BF00401054
:100A3000831B40140008EF008312C22283163F0874
:100A40008400831340188317840A031D2A2D831200
:100A5000850A83168312102D080083164308F801B7
:100A600042020318362D4208F700422DF7010830E4
:100A7000C400C20DF70D430877020318F700F80D04
:100A8000C40B392D8312080056160130031790004D
:100A900091000313AE220A300317900003132421A0
:100AA0009F3003178D0000308F00031300230130A7
:100AB00003179000023091000313AE220A3003178F
:100AC000900003132421A73003178D0000308F00FE
:100AD00003130023561EB72D83160615831206191D
:100AE000B62DB80A0130B80502308316BE00963024
:100AF000831203179000031324218316BE0B772D56
:100B00000630831203179000023091000313AE22C7
:100B100003179401930192010313380803179100FE
:100B20000A3095009701673096000313F0230A30CE
:100B300003179000031324216730840083131025CA
:100B400038080319A72D013A0319AF2DB62DAF3080
:100B500003178D0000308F0003130023B62DB8302B
:100B600003178D0000308F00031300236A2DD61960
:100B70005E2FD61138080319C12D013A03198C2EA6
:100B80005E2FD611D6168316BE01BF01C001673095
:100B9000840083133F088407400883125820800094
:100BA00000380319D82D8316C00ABF0AC72D831237
:100BB000013003179000023091000313AE220A3077
:100BC0000317900003132421643003178D000030B5
:100BD0008F0003130023683003178D0000308F004F
:100BE0000313002301300317900091000313AE227A
:100BF000703003178D0000308F0003130023D61EC2
:100C00008B2E8316061583120619282E8316BE0A0C
:100C10000330BE053E07BF0083120317900001306A
:100C200091000313AE227B3003178D0000308F003C
:100C30000313002302308316BF009630831203177C
:100C40009000031324218316BF0B1D2E892E8312BF
:100C500083168615831286198A2E433083163E0723
:100C600084008313800A43303E07F800FA0103181A
:100C7000FA0A7808BF007A08C00043303E078400B3
:100C800083130008C2000A30C30083122D257708A1
:100C90008316C1003F08840083134018831741085E
:100CA000800043303E07840083130008BF00831296
:100CB0000317940193019201831603133F088312D3
:100CC000031791000A3095009701673096000313CF
:100CD000F023073083163E07BF00831203179000EE
:100CE000023091000313AE220A3003179000031361
:100CF0002421673084008313102502308316BF003F
:100D00009630831203179000031324218316BF0B20
:100D1000802E8312FF2D5E2F8316BE01BF01C001FE
:100D20006730840083133F088407400883125820EB
:100D3000800000380319A12E8316C00ABF0A902E26
:100D40008312D611D616013003179000023091009D
:100D50000313AE220A3003179000031324218030BE
:100D600003178D0000308F00031300238430031716
:100D70008D0000308F000313002301300317900013
:100D800091000313AE228C3003178D0000308F00CA
:100D900003130023D61E5E2F831606158312061931
:100DA000FB2E8316BE0A3E08C2000630C300831223
:100DB0002D2577088316BE0003303E07BF0083123F
:100DC00003179000013091000313AE2298300317EF
:100DD0008D0000308F000313002302308316BF0004
:100DE0009630831203179000031324218316BF0B40
:100DF000F02E5C2F831283168615831286195D2FC1
:100E00003D3083163E0784008313800A3D303E0741
:100E1000F800FA010318FA0A7808BF007A08C0003F
:100E20003D303E07840083130008C2000A30C3002F
:100E300083122D2577088316C1003F088400831391
:100E400040188317410880003D303E07840083131B
:100E50000008BF00831203179401930192018316C7
:100E600003133F088312031791000A30950097017E
:100E7000673096000313F023073083163E07BF0048
:100E8000831203179000023091000313AE220A3040
:100E90000317900003132421673084008313102567
:100EA00002308316BF00963083120317900003139D
:100EB00024218316BF0B532F8312CA2E8A150A12C0
:100EC000412D031711089500100894001508FA0029
:100ED0001408840083137A18831780080319742F69
:100EE000940A0319950A662F1308FA001208840061
:100EF00083137A18831780080319932F120884002C
:100F000083131318831700089800140884008313B0
:100F10001518831718088000940A0319950A920A75
:100F20000319930A742F1408840083131518831768
:100F300080011008F8001108F90003130800831657
:100F40006F08831203179100831603136E08831230
:100F5000031790001108FA001008840083137A1810
:100F6000831780080319B82F900A0319910AAA2F32
:100F7000831603136E08831203171002F70011087B
:100F8000FA00831603136F08031C6F0FFA02770829
:100F9000F800831208008316BE013E081E3C031CA5
:100FA000DD2F88100230831288066430031790000A
:100FB000031324218316BE0ACD2F83128A150A1229
:020FC0004B2DB7
:101000005612D6122A308316CA00CB014C30CC00BF
:101010004530CD004E30CE004730CF004830D000B4
:101020005430D100D2014330D3005F30D400463079
:10103000D500D6014930D7004430D8005F30D90000
:101040004730DA005730DB003130DC003230DD0071
:101050003330DE003430DF00E0014930E10044305D
:10106000E2005F30E3004E30E4004F30E5004430F2
:10107000E6004530E700E8012330E900EA01BF015E
:10108000CA30BE00C101CC30C000C301D330C200A1
:10109000C501D730C400C701E130C600C901E9303D
:1010A000C800FA015E308312031790007A0891009D
:1010B000100884008313111883178001831603130B
:1010C000EC016C08053C031C90283D306C07840043
:1010D0008313000883120317900094019301920177
:1010E000100891000A3095009701673096008A1128
:1010F0000313F0238A150130031790008A1103139C
:1011000024218A15031791015E3090009301673006
:1011100092008A11031361278A158316EC0A61284D
:10112000C5015E30C400FA015730831203179000E6
:101130007A08910010088400831311188317800126
:1011400083160313EC016C08033C031CD2284330C4
:101150006C07840083130008831203179000940126
:1011600093019201100891000A30950097016730B1
:1011700096008A110313F0238A150130031790009B
:101180008A11031324218A15031791015730900007
:101190009301673092008A11031361278A15831621
:1011A000EC0AA328C7015730C6008312C7013130AB
:1011B0008316C0003230C100EB016B08053C031CF4
:1011C000F92803106B0DBE3E84008313840A0008C7
:1011D000ED0084030008EC006D08EF006C08EE00E1
:1011E0008A1183129F278A157808C7078316EB0A8E
:1011F000DD2805308312C70703179401930192017C
:1012000003134708031791000A30950097016730D0
:1012100096008A110313F0238A158316C1016730E3
:10122000C000EB016B08053C031C492903106B0D42
:10123000BE3E84008313840A0008ED008403000886
:10124000EC006C08840083136D1883178008031961
:101250004129EF010408EE006F10831B6F14000892
:1012600083120C1E3129990083166E0884008313A3
:101270006F188317840A031D40298312850A831679
:101280002629403083120C1E432999008316EB0A4D
:101290001229013083120317900091008A11031361
:1012A000AE228A150A30031790008A1103132421F5
:1012B0008A15C03003178D0000308F008A11031388
:1012C00000238A1501300317900091008A1103133F
:1012D000AE228A150A30031790008A1103132421C5
:1012E0008A15CB3003178D0000308F008A1103134D
:1012F00000238A15D6118A150A12462D8316C901B4
:10130000C7010A30C800C60144084504031D8B29E3
:101310000030F8007E2A4908C90A44078400831374
:10132000451883170008CA004A082D3C031DA4294C
:101330000130C7004908C90A4407840083134518CF
:1013400083170008CA00B1294A082B3C031DB129A4
:101350004908C90A44078400831345188317000805
:10136000CA004A082F3C0318742A4A08393C031C57
:10137000742A4A08303C031DDD29490844078400CB
:101380008313451883170008783C0319D1294908AD
:10139000440784008313451883170008583C031D35
:1013A000DD291030C800C90A4908C90A4407840069
:1013B0008313451883170008CA0048080A3C031D18
:1013C000222A4A082F3C0318212A4A08393C031CC8
:1013D000212A0A30CB004608CC00F701F8014B085F
:1013E00003104C18F707F70CF80CCC18F707F70C9C
:1013F000F80C4C19F707F70CF80CCC19F707F70C99
:10140000F80C4C1AF707F70CF80CCC1AF707F70C86
:10141000F80C4C1BF707F70CF80CCC1BF707F70C74
:10142000F80C7808CB0030304A024B07C600490858
:10143000C90A440784008313451883170008CA00AB
:10144000E129742A4808103C031D742A4A08603CAC
:101450000318312A4A087A3C031C312A4A08DF392A
:10146000322A4A08CA004A082F3C03183B2A4A0875
:10147000393C0318432A4A08403C0318742A4A0896
:10148000463C031C742A4A082F3C0318542A4A0875
:10149000393C031C542A460ECB00F030CB053030CB
:1014A0004A024B07C6005D2A460ECB00F030CB0542
:1014B00041304A020A3E4B07C6004908C90A4407A0
:1014C00084008313451883170008CA004A08603C4B
:1014D0000318712A4A087A3C031C712A4A08DF392A
:1014E000722A4A08CA00332A470B7C2A48080A3C59
:1014F000031D7C2AC609C60A4608F80083120800A4
:101500008316440845040319892A4508FA0044084B
:101510008E2A83122C08FA002B088316C8007A083A
:10152000C9004908CD004808CC004708CF0046084C
:10153000CE004D08D1004C08D0005108FA005008E8
:10154000840083137A18831780080319DE2A4F0852
:10155000D3004E08D2005308FA00520884008313C7
:101560007A1883178008031DC22A4C085002F7001E
:101570005108FA004D08031C4D0FFA027708F800D5
:10158000E92AD62A5108FA005008840083137A18F1
:1015900083170008D4005308FA005208840083130C
:1015A0007A188317000854020319DA2AD20A031999
:1015B000D30AAB2AD00A0319D10A9D2A4C0850023B
:1015C000F7005108FA004D08031C4D0FFA02770886
:1015D000F8007808C8070318C90A4908FA0048083B
:1015E000840083137A1883178008031D042B831249
:1015F0002B08840083132C188317203080000030C0
:10160000F800F900702B83164908CD004808CC007B
:101610004708CF004608CE004D08D1004C08D00046
:101620005108FA005008840083137A188317800841
:101630000319492B4F08D3004E08D2005308FA0073
:101640005208840083137A18831780080319452BE6
:101650005108FA005008840083137A188317000891
:10166000D4005308FA005208840083137A188317B1
:1016700000085402031D412B5008F8005108F900DE
:101680004C2BD20A0319D30A1E2BD00A0319D10AF4
:10169000102B0030F800F9007908CB007808CA0058
:1016A0004B08FA004A08840083137A1883178008CD
:1016B0000319632B4A08840083134B188317800196
:1016C000CA0A0319CB0A4B088312AC0083164A08D6
:1016D0008312AB0083164808F8004908F90083120A
:1016E00008002A308316BE00C501A030C4003E08A1
:1016F000C6004508FA004408840083137A1883174B
:10170000460800020319962B4508FA004408840095
:1017100083137A1883178008031D922B0030F8007A
:10172000F9009A2BC40A0319C50A792B4408F8005A
:101730004508F9007908C0007808BF004008EF00AC
:101740003F08EE008A1183129F278A1578088316B6
:10175000C100C5015730C40083127E21FA01780808
:10176000D2007A08D3008316C5015E30C40083120C
:101770007E217808F700F801F901FA017A08CF0014
:101780007908CE007808CD007708CC00BA0183161E
:10179000C401C501673084008313440884074508E9
:1017A0008A1183125E208A15800000380319DD2B10
:1017B0008316C50AC40ACA2B83128316C501A0303A
:1017C000C400C7016730C6008312802279088316DF
:1017D000C3007808C200C208031DF12BC308031917
:1017E000462C83123A08FB3E03182E2C053E912C02
:1017F0002E2C83164308C5004208C40083127E21A4
:101800007808F700F801F901FA017A08CB007908A5
:10181000CA007808C9007708C8002E2C8316430830
:10182000C5004208C40083127E21FA017808D00066
:101830007A08D1002E2C83164308C5004208C40044
:1018400083127E217808D4002E2C83164308C5000D
:101850004208C40083127E217808D50001300317A6
:1018600090008A11031324218A158316C501C4012F
:10187000C7016730C6008312802279088316C3002F
:101880007808C2008312BA0A8316EB2B831255081C
:1018900083164102031D5E2C8801FF3083128800ED
:1018A0000A308316C400FA308312031790008A119D
:1018B000031324218A158316C40B532C8312520858
:1018C0005002031D8E2C53085102031D8E2C4C0810
:1018D0004802031D8E2C4D084902031D8E2C4E0814
:1018E0004A02031D8E2C4F084B02031D8E2C8316BB
:1018F0008801F030831288000A308316C400FA3061
:101900008312031790008A11031324218A1583166A
:10191000C40B7F2C88010F30831288008A150A12AD
:10192000502D0A108A100A158207F82BF92B0E2C5D
:101930001B2C252C03081F398300831603178715DA
:1019400008300313990002309A00A63098009030B6
:1019500083129800FF30B100B801B901BA01C70184
:10196000D401D5015610D6105611D6115612D612E2
:10197000831603170908C039890003131F129F1229
:1019800000300317880083128701880189018313BF
:101990000313AB01AC010530BD000730BE000330BE
:1019A000BF000530C0000430C1000530C200C301D3
:1019B000C401C501C6013030D900DA00DB00DC000B
:1019C000DD01D8015930D7003030E000E100E200FD
:1019D000E300E400E500E601DF016030DE004830AE
:1019E0008316A0004930A1004830A2004930A3006E
:1019F000A40130308312E900EA00EB01E80169300C
:101A0000E700003083168800FF3086000910891037
:101A100009118911803087008312B1001F179F13AD
:101A200083169F1783121F14831603170908C039E2
:101A3000890003131F129F120130031788008312BD
:101A400003138B160B160B16831601138C16C0305E
:101A500083128B04353090008E010B308F00DC3008
:101A60008E000C108A113E2A8A15D610D6115615F2
:101A700083168801831288015610D61C432D8A11C3
:101A8000442D8A15512DD61D472D0028512DD618CD
:101A9000512D8A11CB2F8A15561C502D5610712BA3
:061AA000472D3D2D6300FF
:04400E00E22FFF3F5F
:00000001FF
;PIC16F887
;CRC=2E7B  CREATED="28-Oct-21 22:35"
