:100000000E308A005F2E0000FF00030E8301A10066
:100010000A08A0008A010408A2007708A300780853
:10002000A4007908A5007A08A60003170D08031399
:10003000A70003170F080313A80003170C080313E6
:10004000A90003170E080313AA00831383120B1EC3
:100050002B288B1852288C308400801E31288C1A53
:100060005528220884002308F7002408F8002508F2
:10007000F9002608FA00270803178D000313280843
:1000800003178F000313290803178C0003132A0892
:1000900003178E00031320088A00210E8300FF0E31
:1000A0007F0E09008A110A12F1288A110A122229E8
:1000B0000A108A100A118207303400340A108A109C
:1000C0000A1182075F3400340A108A100A1182076D
:1000D00000340A108A100A11820723340034CE2714
:1000E000C4223A10000030183018201020102010C0
:1000F0002010201000012010201020105F10201070
:10010000201020102010201020102000201020107F
:100110005F10201020004922DF23571D00013018F6
:10012000301830182010201020102010000120104E
:10013000201020105F102010201020102010201000
:10014000201020102000201020105F102010201000
:1001500020102000C3274E23C9233A10201020105E
:1001600020102000C320D3223A102010201020108D
:1001700020102000A016A024C416CE27C4222010D0
:10018000201020100001A016A024C416C72B201098
:10019000201020102000D720492A492747102E1769
:1001A0002E1720102010201020100001D720492ADF
:1001B000492747102E172E1720102010201020102E
:1001C000000020102010201020102010201000010E
:1001D000201020102010201020102010201020109F
:1001E00000000317D901831603138614831286189F
:1001F0000C290C1C09298316081104308312880667
:100200000C108E010B308F00DC308E000317D90AE2
:1002100003130317F328031303175908143C031897
:100220001A2902300313CC060430CC06CC154C122C
:100230001E2903170313CC114C12CC128B108A11F8
:100240000A123128A0303907840083138C1E262916
:100250001A088000A03039078400831300082E3C60
:10026000031D3A29A0303907840083138001B901A6
:100270004C143B29B90A8C128A110A123128201019
:1002800020102010201020102010201020102000FE
:1002900020102010201020102010201020102010DE
:1002A00020003630840083170008031964290630C3
:1002B000F800F701F70B5A29F80B59297B30F700A2
:1002C000F70B6029800B5729080003173D186C298C
:1002D000031307106E290317031307143110310895
:1002E0008316870083120317BD187A29031387101A
:1002F0007C29031703138714B11031088316870074
:10030000831203173D198829031307118A2903173C
:100310000313071531113108831687008312031761
:10032000BD199629031387119829031703138715FD
:10033000B111310883168700000083120914831657
:1003400009100230F700F70BA329A6290000831239
:10035000091083160910831208000317BE01031346
:1003600031143108831687000030831207180130DA
:100370000317BE040313B11431088316870000303D
:10038000831287180130F7000310F70D7708031761
:10039000BE04031331153108831687000030831221
:1003A00007190130F700F70DF70DFC30F705770856
:1003B0000317BE040313B1153108831687000030FC
:1003C000831287190130F700F70DF70DF70DF8309C
:1003D000F70577080317BE043E08F800031308006A
:1003E0008316091089100911831289108316891048
:1003F0000714871407158715831209158316091129
:100400000000831209148316091000008312AD2125
:1004100078080317BD0003130910831609100000A4
:100420008312091483160910152A162A0000831254
:10043000AD2178080317BC000313091083160910B7
:10044000831231103108831687008312B1103108EE
:1004500083168700831231113108831687008312B7
:10046000B111310883168700831203173D0EF70080
:10047000F030F70577083C04F8007808BC00BC1F92
:10048000442A83160313F829BA08031D4B2A0313C1
:1004900089104D2A0317031389148316891000004D
:1004A00083120911831609110000831209108316A3
:1004B0000910831203173B0EBC000F30BC053C082B
:1004C000BD000313652103173B080F39BC00BD00B5
:1004D00003136521080028308316CE000C30CF00AE
:1004E0000130D0000630D1008312091083160910A4
:1004F000831289108316891083120911831609113A
:10050000831231103108831687008312B11031082D
:1005100083168700831231113108831687008312F6
:10052000B1113108831687000910891009110F30A5
:1005300083120317B6000313512101308316CD0037
:100540004D08033C031CB22A033083120317BD007D
:100550000313652105300317B600031351218316D9
:10056000CD0AA02A023083120317BD0003136521B0
:1005700005300317B600031351218316CD014D0832
:10058000033C031CD72ACE304D0784008313000898
:10059000D20083120317BA01831603135208831281
:1005A0000317BB000313F0218316CD0ABF2A831261
:1005B0008A150A12222F0317370BDF2AE22A40304E
:1005C000B800E32AB80101303602B807380880388D
:1005D000B900BA013908BB000313F0210800031762
:1005E0003508073A03130319FF2A0B3A0319062BA0
:1005F000063A0319122B023A03191A2B212B013048
:100600000317B600B7000313DB22282B0317BA0128
:100610000130BB000313F02102300317B6000313AF
:100620005121282B01300317B6000230B700031305
:10063000DB22282B0317BA011030BB000313F02173
:10064000282B01300317BA003508BB000313F02133
:1006500008000B080317B20003138B13831603174C
:100660008C170C14000000008312B21F3A2B0313E6
:100670008B1703170C087F390319772BB2000D086D
:10068000B3000F08B4003208B5000313EF220317BC
:1006900033088D0034088F0003130B080317B500CF
:1006A00003138B13831603178C170C140000000020
:1006B0008312B51F5E2B03138B1703170C0D0E0D42
:1006C0007F390319772BB2000D08B3000F08B4006F
:1006D0003208B5000313EF22031733088D003408E6
:1006E0008F008D0A03198F0A0313292B0317031395
:1006F000080083187E2B53308400831703174E089D
:1007000052068039D800CE1F902BCB09CC09CD09D9
:10071000CE09CB0A0319CC0A0319CD0A0319CE0A54
:10072000D21F9D2BCF09D009D109D209CF0A0319B5
:10073000D00A0319D10A0319D20AF701F801F90105
:10074000FA01D301D401D501D60152085104500455
:100750004F040319DB2B2030D7000310CB0DCC0D39
:10076000CD0DCE0DD30DD40DD50DD60D520856029C
:10077000031DC42B51085502031DC42B50085402FD
:10078000031DC42B4F085302031CD52B4F08D30263
:100790005008031C500FD4025108031C510FD502FE
:1007A0005208031C520FD6020314F70DF80DF90D71
:1007B000FA0DD70BAD2BD81FE82BF709F809F9096B
:1007C000FA09F70A0319F80A0319F90A0319FA0AC8
:1007D00053088000840A54088000840A5508800069
:1007E000840A56088000031308000317BE01BD01E8
:1007F000BC010130BB00C001C101B71F3F2C01305B
:10080000C0003708C6003608C5003508C4003408E3
:10081000C300FF30CA00C900C800C7002030CF00A5
:10082000CB01CC01CD01CE014608FA004508F90004
:100830004408F8004308F7000310771C2D2C4708E4
:10084000CB0748080318480FCC0749080318490F7D
:10085000CD074A0803184A0FCE07CE0CCD0CCC0C9E
:10086000CB0CFA0CF90CF80CF70CCF0B1C2C7A08FB
:10087000B7007908B6007808B5007708B400BB085F
:10088000031D4B2CBC08031D4B2CBD08031D4B2C1A
:10089000BE080319C72C83103708CE003608CD00D8
:1008A0003508CC003408CB00D201D101D001380882
:1008B000CF00031379237A080317BE007908BD001F
:1008C0007808BC007708BB0041083907F8003A08EF
:1008D000FA000318FA0A7808C3007A08C400C601AF
:1008E0000408C5004610831B461483144730840057
:1008F00083173708CE003608CD003508CC00340801
:10090000CB00D201D101D0013808CF0003137923E5
:1009100003174508840083134618831730304707B0
:10092000F7004808F800003003180130F8074908BC
:10093000F900003003180130F9074A08FA000030C6
:1009400003180130FA0743088400831344188317FF
:100950007708800041083907840083133A18831709
:100960000008393C0318BD2C410839078400831363
:100970003A188317073000078000C10A3E08B70005
:100980003D08B6003C08B5003B08B4003F2C400BC6
:10099000D22C41083907840083133A1883172D306D
:1009A0008000C10ABF010310410C3F020318082D4B
:1009B0003F083907840083133A1883170008C200E0
:1009C0003F083907F8003A08FA000318FA0A7808CD
:1009D000C3007A08C4003F084102FF3E3907840083
:1009E00083133A1883170008C50043088400831353
:1009F00044188317450880003F084102FF3E39072D
:100A0000840083133A18831742088000BF0AD32C4E
:100A100041083907840083133A1883178001390885
:100A2000F8003A08F9000313080080080319332D71
:100A30008316D6010408D5005610831B56140008EF
:100A400083120317B5000313EF22831655088400A1
:100A5000831356188317840A031D312D8312850AC8
:100A600083168312152D080083165208F8015102CF
:100A700003183D2D5108F700492DF7010830D30028
:100A8000D10DF70D520877020318F700F80DD30BBC
:100A9000402D831208004C1601300317B600B70032
:100AA0000313DB220A300317B60003135121AA30C7
:100AB00003178D0000308F00031329230130031723
:100AC000B6000230B7000313DB220A300317B6006A
:100AD00003135121B23003178D0000308F00031330
:100AE00029234C1EBE2D8316061583120619BD2D13
:100AF000B80A0130B80502308316CD009630831253
:100B00000317B600031351218316CD0B7E2D06303B
:100B100083120317B6000230B7000313DB2203175A
:100B2000B701B601B501031338080317B4000A3042
:100B3000B800BA016D30B9000313F5230A3003176A
:100B4000B600031351216D30840083131525380836
:100B50000319AE2D013A0319B62DBD2DBA30031776
:100B60008D0000308F0003132923BD2DC3300317E0
:100B70008D0000308F0003132923712DCC19652FB0
:100B8000CC1138080319C82D013A0319932E652F8B
:100B9000CC11CC168316CD01CE01CF016D3084006F
:100BA00083134E0884074F088312582080000038B2
:100BB0000319DF2D8316CF0ACE0ACE2D8312013002
:100BC0000317B6000230B7000313DB220A30031705
:100BD000B600031351216F3003178D0000308F00D2
:100BE00003132923733003178D0000308F00031384
:100BF000292301300317B600B7000313DB227B3033
:100C000003178D0000308F0003132923CC1E922E72
:100C100083160615831206192F2E8316CD0A03306C
:100C2000CD054D07CE0083120317B6000130B70083
:100C30000313DB22863003178D0000308F0003136F
:100C4000292302308316CE00963083120317B60094
:100C5000031351218316CE0B242E902E831283165C
:100C6000861583128619912E433083164D07840012
:100C70008313800A43304D07F800FA010318FA0A7B
:100C80007808CE007A08CF0043304D0784008313E4
:100C90000008D1000A30D200831234257708831669
:100CA000D0004E08840083134F188317500880002B
:100CB00043304D07840083130008CE0083120317CE
:100CC000B701B601B501831603134E08831203174B
:100CD000B4000A30B800BA016D30B9000313F5232F
:100CE000073083164D07CE0083120317B60002307B
:100CF000B7000313DB220A300317B6000313512198
:100D00006D3084008313152502308316CE00963093
:100D100083120317B600031351218316CE0B872EBF
:100D20008312062E652F8316CD01CE01CF016D30C3
:100D3000840083134E0884074F08831258208000D4
:100D400000380319A82E8316CF0ACE0A972E8312D5
:100D5000CC11CC1601300317B6000230B7000313D4
:100D6000DB220A300317B600031351218B3003171F
:100D70008D0000308F00031329238F3003178D005F
:100D800000308F000313292301300317B600B7008A
:100D90000313DB22973003178D0000308F000313FD
:100DA0002923CC1E652F8316061583120619022FE0
:100DB0008316CD0A4D08D1000630D20083123425A7
:100DC00077088316CD0003304D07CE00831203173A
:100DD000B6000130B7000313DB22A33003178D00E8
:100DE00000308F000313292302308316CE00963083
:100DF00083120317B600031351218316CE0BF72E6F
:100E0000632F83128316861583128619642F3D3053
:100E100083164D0784008313800A3D304D07F80088
:100E2000FA010318FA0A7808CE007A08CF003D309C
:100E30004D07840083130008D1000A30D2008312CA
:100E4000342577088316D0004E08840083134F188A
:100E50008317500880003D304D078400831300083D
:100E6000CE0083120317B701B601B5018316031331
:100E70004E0883120317B4000A30B800BA016D306F
:100E8000B9000313F523073083164D07CE008312F4
:100E90000317B6000230B7000313DB220A30031732
:100EA000B600031351216D308400831315250230E1
:100EB0008316CE00963083120317B6000313512118
:100EC0008316CE0B5A2F8312D12E8A150A122F2F7A
:100ED00003173408B8003308B7003808FA00370899
:100EE000840083137A188317800803197B2FB70AAD
:100EF0000319B80A6D2F3608FA00350884008313E9
:100F00007A188317800803199A2F350884008313F1
:100F1000361883170008BB0037088400831338187D
:100F200083173B088000B70A0319B80AB50A0319EA
:100F3000B60A7B2F37088400831338188317800183
:100F40003308F8003408F9000313080003173508C4
:100F5000B7003408B6003708FA0036088400831357
:100F60007A18831780080319B92FB60A0319B70A2C
:100F7000AB2F34083602F7003708FA003508031C97
:100F8000350FFA027708F800031308008316CD0125
:100F90004D081E3C031CD82F88100230831288068F
:100FA00064300317B600031351218316CD0AC82FEE
:100FB00083128A150A12392F831655080739F7004C
:100FC000550CF800F80CF80C1F30F8057808570796
:100FD0008400831358188317F801F80AF70AF12FD1
:100FE000F80DF70BF02FD6080319F92F78088004B5
:0C0FF000FC2FF809780880058312080027
:101000004C12CC122A300317900091014C30920000
:10101000453093004E30940047309500483096009C
:10102000543097009801433099005F309A00463061
:101030009B009C0149309D0044309E005F309F0022
:101040004730A0005730A1003130A2003230A30059
:101050003330A4003430A500A6014930A700443045
:10106000A8005F30A9004E30AA004F30AB004430DA
:10107000AC004530AD00AE012330AF00B00101300F
:1010800083160313CE001030CD000130D000123093
:10109000CF000130D2001930D1000130D4001D3012
:1010A000D3000130D6002730D5000130D8002F30D2
:1010B000D700FA01543083120317B3007A08B40042
:1010C000330884008313341883178001B201320877
:1010D000053C031C94283D3032078400831300082C
:1010E000B300B701B601B5013308B4000A30B80047
:1010F000BA016D30B9008A110313F5238A15013046
:101100000317B6008A11031351218A150317B4017E
:101110005430B300B6016D30B5008A11031368274F
:101120008A150317B20A672883160313D4015430B3
:10113000D300FA014D3083120317B3007A08B400CC
:10114000330884008313341883178001B2013208F6
:10115000033C031CD4284330320784008313000867
:10116000B300B701B601B5013308B4000A30B800C6
:10117000BA016D30B9008A110313F5238A150130C5
:101180000317B6008A11031351218A150317B401FE
:101190004D30B300B6016D30B5008A1103136827D6
:1011A0008A150317B20AA72883160313D6014D30F8
:1011B000D5008312C70131308316CF003230D00002
:1011C000D9015908053C031C03290310590DCD3ED4
:1011D00084008313840A0008DB0084030008DA001B
:1011E0005B0883120317B500831603135A08831292
:1011F0000317B4008A110313A6278A157808C707B6
:101200008316D90AE12805308312C7070317B701EF
:10121000B601B501031347080317B4000A30B8003C
:10122000BA016D30B9008A110313F5238A158316AC
:10123000D0016D30CF00D9015908053C031C572956
:101240000310590DCD3E84008313840A0008DB008F
:1012500084030008DA005A08840083135B1883179C
:10126000800803194F2983120317B5010408B4003D
:101270003510831B3514000803130C1E3D299900FB
:10128000031734088400831335188317840A031D59
:101290004C290313850A03178316031330294030A2
:1012A00083120C1E512999008316D90A1C2901307A
:1012B00083120317B600B7008A110313DB228A15C5
:1012C0000A300317B6008A11031351218A15CB3057
:1012D00003178D0000308F008A11031329238A150C
:1012E00001300317B6000230B7008A110313DB2266
:1012F0008A150A300317B6008A11031351218A1583
:10130000D63003178D0000308F008A110313292374
:101310008A15CC118A150A12342F831655085604E3
:10132000031996295608FA0055089B2983122C08A0
:10133000FA002B088316D9007A08DA005A08DE0072
:101340005908DD005808E0005708DF005E08E20099
:101350005D08E1006208FA006108840083137A18CE
:10136000831780080319EB296008E4005F08E30095
:101370006408FA006308840083137A1883178008CE
:10138000031DCF295D086102F7006208FA005E08BC
:10139000031C5E0FFA027708F800F629E3296208B9
:1013A000FA006108840083137A1883170008E500A7
:1013B0006408FA006308840083137A18831700080E
:1013C00065020319E729E30A0319E40AB829E10AC7
:1013D0000319E20AAA295D086102F7006208FA000F
:1013E0005E08031C5E0FFA027708F8007808D90738
:1013F0000318DA0A5A08FA005908840083137A1885
:1014000083178008031D112A83122B08840083137D
:101410002C188317203080000030F800F9007D2A56
:1014200083165A08DE005908DD005808E000570806
:10143000DF005E08E2005D08E1006208FA00610872
:10144000840083137A18831780080319562A6008CA
:10145000E4005F08E3006408FA0063088400831373
:101460007A18831780080319522A6208FA00610863
:10147000840083137A1883170008E5006408FA00D3
:101480006308840083137A18831700086502031D1C
:101490004E2A6108F8006208F900592AE30A031984
:1014A000E40A2B2AE10A0319E20A1D2A0030F80097
:1014B000F9007908DC007808DB005C08FA005B08BA
:1014C000840083137A18831780080319702A5B0835
:1014D000840083135C1883178001DB0A0319DC0A7C
:1014E0005C088312AC0083165B088312AB00831682
:1014F0005908F8005A08F900831208008316DA0127
:10150000D8010A30D900D70155085604031D8B2A8B
:101510000030F8007E2B5A08DA0A5507840083133E
:10152000561883170008DB005B082D3C031DA42A16
:101530000130D8005A08DA0A550784008313561878
:1015400083170008DB00B12A5B082B3C031DB12A7E
:101550005A08DA0A550784008313561883170008BF
:10156000DB005B082F3C0318742B5B08393C031C21
:10157000742B5B08303C031DDD2A5A085507840094
:101580008313561883170008783C0319D12A5A0888
:10159000550784008313561883170008583C031D11
:1015A000DD2A1030D900DA0A5A08DA0A5507840011
:1015B0008313561883170008DB0059080A3C031DE3
:1015C000222B5B082F3C0318212B5B08393C031CA2
:1015D000212B0A30DC005708DD00F701F8015C0818
:1015E00003105D18F707F70CF80CDD18F707F70C78
:1015F000F80C5D19F707F70CF80CDD19F707F70C75
:10160000F80C5D1AF707F70CF80CDD1AF707F70C62
:10161000F80C5D1BF707F70CF80CDD1BF707F70C50
:10162000F80C7808DC0030305B025C07D7005A0801
:10163000DA0A550784008313561883170008DB0065
:10164000E12A742B5908103C031D742B5B08603C85
:101650000318312B5B087A3C031C312B5B08DF3904
:10166000322B5B08DB005B082F3C03183B2B5B082D
:10167000393C0318432B5B08403C0318742B5B0870
:10168000463C031C742B5B082F3C0318542B5B084F
:10169000393C031C542B570EDC00F030DC05303095
:1016A0005B025C07D7005D2B570EDC00F030DC05D9
:1016B00041305B020A3E5C07D7005A08DA0A550738
:1016C00084008313561883170008DB005B08603C16
:1016D0000318712B5B087A3C031C712B5B08DF3904
:1016E000722B5B08DB00332B580B7C2B59080A3C10
:1016F000031D7C2BD709D70A5708F800831208006E
:1017000083165408FA005308840083137A18831749
:101710000008D7005608FA005508840083137A1889
:10172000831700085702031DAC2B5408FA00530816
:10173000840083137A1883178008031DA22B0030BE
:10174000F800C42B5408FA005308D30A0319D40A2A
:10175000D50A0319D60A812B5408FA0053088400CD
:101760008313541883170008D7005608FA00550849
:101770008400831356188317000857020318C22BDE
:10178000FF30C32B0130F800831208002A30831683
:10179000CD00FA015D30840083137A18831780012D
:1017A000FA016430840083137A1883178001D3010F
:1017B000D401BE30840083135308840754088A116F
:1017C000831264208A15800000380319EC2B8316DD
:1017D000D40AD30AD92B83128316D401A030D300A4
:1017E0004D08D5005408FA005308840083137A1872
:1017F00083175508000203190F2C5408FA005308E8
:10180000840083137A1883178008031D0B2C003083
:10181000F800F900132CD30A0319D40AF22B530849
:10182000F8005408F9007908CF007808CE004F0876
:1018300083120317B500831603134E088312031790
:10184000B4008A110313A6278A1578088316D000DE
:101850008312BA018316D301D4016D30840083133F
:101860005308840754088A11831269208A1580005E
:1018700000380319402C8316D40AD30A2D2C831266
:101880008316D601A030D500D8016D30D700831261
:101890008D2179088316D2007808D100D108031D64
:1018A000542CD2080319BF2C83123A08FA3E0318AD
:1018B000AE2C063E552EAE2C0317B4016430B30097
:1018C00083160313520883120317B60083160313FB
:1018D000510883120317B5008A11031368278A156C
:1018E000AE2C0317B4015D30B30083160313520806
:1018F00083120317B60083160313510883120317CC
:10190000B5008A11031368278A15AE2C8316520876
:10191000D6005108D50083127E227808C800AE2C6C
:1019200083165208D6005108D50083127E2278080B
:10193000C900AE2C0317B401BE30B30083160313E5
:10194000520883120317B60083160313510883123B
:101950000317B5008A11031368278A158316D60169
:10196000D501D8016D30D70083128D2179088316F7
:10197000D2007808D1008312BA0A83164E2CD40103
:101980006430D300D6015430D50083128023780808
:10199000CB008316D4015D30D300D6014D30D50085
:1019A000831280237808CA00CB08031D4B2ECA0877
:1019B000031D4B2E4908831650020319E12C831294
:1019C0004B2E831248080319EC2C013A0319ED2C15
:1019D000033A03196C2D4A2E4A2E83168801FF30D4
:1019E0008312880002308316D300FA308312031763
:1019F000B6008A11031351218A158316D30BF52CD7
:101A0000013083120317B600B7008A110313DB22DB
:101A10008A150A300317B6008A11031351218A155B
:101A2000BE30840083138A1115258A15E13003170F
:101A30008D0000308F008A11031329238A1501308D
:101A40000317B6008A11031351218A1583168801E2
:101A5000FF308312880001300317B6000230B70050
:101A60008A110313DB228A150A300317B6008A1184
:101A7000031351218A15E83003178D0000308F00C1
:101A80008A11031329238A1583168801831288017A
:101A900002308316D300FA3083120317B6008A117E
:101AA000031351218A158316D30B4B2D8801FF3068
:101AB0008312880002308316D300FA308312031792
:101AC000B6008A11031351218A158316D30B5D2D9D
:101AD0008801831288014A2EBA018316D501D601E6
:101AE0006D30840083135508840756088A118312C9
:101AF0005E208A15800000380319832D8316D60ACC
:101B0000D50A702D831201300317B600B7008A1171
:101B10000313DB228A150A300317B6008A11031358
:101B200051218A15BE30840083138A1115258A1528
:101B30003F3003178D0001308F008A1103132923D2
:101B40008A1501300317B6000230B7008A1103135B
:101B5000DB228A150A300317B6008A1103135121BC
:101B60008A15483003178D0001308F008A11031346
:101B700029238A158316D601BE30D500D8016D30D1
:101B8000D70083128D2179088316D4007808D300FA
:101B9000D308031DCE2DD40803192C2E83123A0826
:101BA0000319D92D013A0319E32D033A0319ED2D39
:101BB000012E83165408D6005308D50083127E22C6
:101BC00040307807BB0083165408D6005308D50070
:101BD00083127E227808BC00012E0317B4015D3009
:101BE000B30083160313540883120317B600831639
:101BF0000313530883120317B5008A1103136827D0
:101C00008A1507300317B6000230B7008A11031394
:101C1000DB228A150A300317B6008A1103135121FB
:101C20008A158316530884008313541883178A1166
:101C3000831215258A158316D601D501D8016D307A
:101C4000D70083128D2179088316D4007808D30039
:101C50008312BA0A8316C82D8312BC08031D322EC4
:101C60000030332E0130F7003B088316D50077088B
:101C7000D600D801D7018A118312DC278A153B08C8
:101C80008316D500D601D8018030D7008A1183127F
:101C9000DC278A15522E0A300317B6008A11031367
:101CA00051218A158A150A123E2F0A108A140A1524
:101CB00082075B2C5C2C712C862C902C9A2C0308B0
:101CC0001F39830083160317871508300313990003
:101CD00002309A00A6309800903083129800FF30AE
:101CE000B100B801B901BA01C701C801C901CA01EF
:101CF000CB014C10CC104C11CC114C12CC128316D1
:101D000003170908C039890003131F129F120030FE
:101D10000317880083128701880189018313031345
:101D2000AB01AC010130BD000230BE000730BF0086
:101D30000130C000C1010230C200C3010530C4003F
:101D40000830C5000930C6003030CF003530D00033
:101D50003830D1003930D200D301CE014F30CD0020
:101D60003130D6003230D7003730D8003130D9008A
:101D70003030DA003230DB00DC01D5015630D400DF
:101D80003030DF00E000E100E200E301DE015F301F
:101D9000DD003030E600E700E800E900EA00EB0093
:101DA000EC01E5016630E40048308316A0004930BC
:101DB000A1004830A2004930A300A4014830BE0071
:101DC0004930BF004830C0004930C100C201303046
:101DD0008312EF00F000F101EE016F30ED000030F2
:101DE00083168800FF3086000910891009118911B7
:101DF000803087008312B1001F179F1383169F172F
:101E000083121F14831603170908C03989000313AE
:101E10001F129F12013003178800831203138B16C1
:101E20000B160B16831601138C16C03083128B040D
:101E3000353090008E010B308F00DC308E000C109E
:101E40008A116B2A8A15CC10CC114C158316880187
:101E5000831288014C10CC1C312F8A114B2D8A150E
:101E60003F2FCC1D352F00283F2FCC183F2F8A1134
:101E7000C62F8A154C1C3E2F4C10C62B352F2B2FEE
:021E80006300FD
:04400E00E22FFF3F5F
:00000001FF
;PIC16F887
;CRC=C6CE  CREATED="29-Oct-21 20:56"
