:100000000B308A00552B0000FF00030E8301A10076
:100010000A08A0008A010408A2007708A300780853
:10002000A4007908A5007A08A60003170D08031399
:10003000A70003170F080313A80003170C080313E6
:10004000A90003170E080313AA00831383120B1EC3
:100050002B288B1852288C308400801E31288C1A53
:100060005528220884002308F7002408F8002508F2
:10007000F9002608FA00270803178D000313280843
:1000800003178F000313290803178C0003132A0892
:1000900003178E00031320088A00210E8300FF0E31
:1000A0007F0E09008A110A12D2288A110A12032926
:1000B0000A108A100A118207303400340A108A109C
:1000C0000A1182075F340034CE27C4223A100000A0
:1000D000301830182010201020102010201000019F
:1000E0002010201020105F10201020102010201051
:1000F000201020102000201020105F102010200061
:100100004922DF23571D0001301830183018201005
:1001100020102010201000012010201020105F104F
:10012000201020102010201020102010201020005F
:10013000201020105F1020102000C3274E23C92359
:100140003A102010201020102000C320D3223A1093
:1001500020102010201020102000A016A024C4166B
:10016000CE27C4222010201020100001A016A024A9
:10017000C416C72B2010201020102000C3274E23A8
:10018000C92320224F2745102010201020102000C6
:10019000C3274E23C92320224F27451020102010AB
:1001A000201020000317A601831603138614831260
:1001B0008618ED280C1CEA288316081104308312D7
:1001C00088060C108E010B308F00DC308E00031778
:1001D000A60A03130317D428031303172608143C95
:1001E0000318FB2802300313C9060430C906C915D9
:1001F0004912FF2803170313C9114912C9128B10A2
:100200008A110A1231285A303907840083138C1E50
:1002100007291A0880005A30390784008313000820
:100220002E3C031D1B295A3039078400831380019B
:10023000B90149141C29B90A8C128A110A123128F1
:10024000D930840083130008031933290630F800DD
:10025000F701F70B2929F80B28297B30F700F70B5A
:100260002F29800B26290800831660183B2983124A
:1002700007103D29831683120714311031088316A5
:100280008700E018472983128710492983168312B3
:100290008714B1103108831687006019532983121F
:1002A000071155298316831207153111310883165A
:1002B0008700E0195F298312871161298316831251
:1002C0008715B111310883168700000083120914C5
:1002D000831609100230F700F70B6C296F29000014
:1002E0008312091083160910831208008316E10196
:1002F00083123114310883168700003083120718E7
:1003000001308316E1048312B1143108831687008B
:100310000030831287180130F7000310F70D7708BB
:100320008316E104831231153108831687000030EB
:10033000831207190130F700F70DF70DFC30F705B0
:1003400077088316E1048312B115310883168700FC
:100350000030831287190130F700F70DF70DF70D04
:10036000F830F70577088316E1046108F800831276
:100370000800831609108910091183128910831649
:10038000891007148714071587158312091583161A
:10039000091100008312091483160910000083124A
:1003A000762178088316E00083120910831609105D
:1003B00000008312091483160910DE29DF290000CA
:1003C0008312762178088316DF00831209108316C2
:1003D0000910831231103108831687008312B1107F
:1003E0003108831687008312311131088316870084
:1003F0008312B111310883168700600EF700F030C8
:10040000F70577085F04F8007808DF00DF1BC129D3
:10041000DD08031D0F2A83128910112A8316831207
:10042000891483168910000083120911831609119B
:10043000000083120910831609105E0EDF000F30D2
:10044000DF055F08E0008312342183165E080F3950
:10045000DF00E00083123421080028308316D50025
:100460000C30D6000130D7000630D80083120910B6
:1004700083160910831289108316891083120911BB
:1004800083160911831231103108831687008312F5
:10049000B110310883168700831231113108831699
:1004A00087008312B1113108831687000910891063
:1004B00009110F30D9008312202101308316D40096
:1004C0005408033C031C702A0330E00083123421DB
:1004D00005308316D900831220218316D40A602A9E
:1004E0000230E0008312342105308316D9008312D4
:1004F00020218316D4015408033C031C8D2AD530D7
:100500005407840083130008D900DD015908DE0078
:100510008312B9218316D40A7B2A83128A150A1200
:10052000442C83165A0B952A982A4030DB00992ACE
:10053000DB0101305902DB075B088038DC00DD019C
:100540005C08DE008312B921080083165808073AB8
:1005500083120319B52A0B3A0319BC2A063A031968
:10056000C82A023A0319D02AD72A01308316D900A3
:10057000DA0083129122DE2A8316DD010130DE00CB
:100580008312B92102308316D90083122021DE2A7A
:1005900001308316D9000230DA0083129122DE2A5C
:1005A0008316DD011030DE008312B921DE2A01300E
:1005B0008316DD005808DE008312B92108000B08FD
:1005C0008316D50083128B13831603178C170C1414
:1005D000000000000313D51FF02A83128B17831627
:1005E000831203170C087F390319512B8316031349
:1005F000D500831203170D0883160313D600831248
:1006000003170F0883160313D7005508D800831269
:10061000A52283165608831203178D008316031331
:100620005708831203178F0003130B088316D80093
:1006300083128B13831603178C170C140000000011
:100640000313D81F262B83128B17831683120317CD
:100650000C0D0E0D7F390319512B83160313D50092
:10066000831203170D0883160313D6008312031792
:100670000F0883160313D7005508D8008312A5224C
:1006800083165608831203178D0083160313570829
:10069000831203178F008D0A03198F0A0313DF2AB1
:1006A0000317031308008318582B20308400831786
:1006B00003171B081F068039A5009B1F6A2B98098A
:1006C00099099A099B09980A0319990A03199A0A20
:1006D00003199B0A9F1F772B9C099D099E099F095F
:1006E0009C0A03199D0A03199E0A03199F0AF70120
:1006F000F801F901FA01A001A101A201A3011F085B
:100700001E041D041C040319B52B2030A400031083
:10071000980D990D9A0D9B0DA00DA10DA20DA30D85
:100720001F082302031D9E2B1E082202031D9E2B61
:100730001D082102031D9E2B1C082002031CAF2B49
:100740001C08A0021D08031C1D0FA1021E08031C8B
:100750001E0FA2021F08031C1F0FA3020314F70D94
:10076000F80DF90DFA0DA40B872BA51FC22BF70965
:10077000F809F909FA09F70A0319F80A0319F90A35
:100780000319FA0A20088000840A21088000840ADC
:1007900022088000840A23088000031308008316BF
:1007A000E101E001DF010130DE00E301E401DA1FD5
:1007B000292C0130E3005A08831203179300831693
:1007C0000313590883120317920083160313580862
:1007D000831203179100831603135708831203171C
:1007E0009000FF30970096009500940020309C0008
:1007F000980199019A019B011308FA001208F90067
:100800001108F8001008F7000310771C152C1408C5
:10081000980715080318150F990716080318160FDF
:100820009A0717080318170F9B079B0C9A0C990C33
:10083000980CFA0CF90CF80CF70C9C0B042C7A08A9
:1008400083160313DA007908D9007808D8007708EE
:10085000D700DE08031D352CDF08031D352CE0080A
:10086000031D352CE1080319DB2C83105A08831271
:1008700003179B00831603135908831203179A006A
:100880008316031358088312031799008316031362
:1008900057088312031798009F019E019D0183163C
:1008A00003135B08831203179C00031353237A0876
:1008B0008316E1007908E0007808DF007708DE00A1
:1008C00064085C07F8005D08FA000318FA0A780863
:1008D0008312031790007A08910093010408920094
:1008E0001310831B1314831414308400831783168E
:1008F00003135A08831203179B0083160313590826
:10090000831203179A0083160313580883120317E0
:1009100099008316031357088312031798009F0149
:100920009E019D01831603135B08831203179C002D
:100930000313532303171208840083131318831718
:1009400030301407F7001508F800003003180130A4
:10095000F8071608F900003003180130F9071708E6
:10096000FA00003003180130FA07100884008313DE
:1009700011188317770880008316031364085C0737
:10098000840083135D1883170008393C0318D12CA9
:1009900064085C07840083135D1883170730000721
:1009A0008000E40A6108DA006008D9005F08D80016
:1009B0005E08D700292C630BE62C64085C078400D2
:1009C00083135D1883172D308000E40AE2010310C1
:1009D000640C62020318242D62085C0784008313F0
:1009E0005D1883170008E50062085C07F8005D08E1
:1009F000FA000318FA0A78088312031790007A089D
:100A000091008316031362086402FF3E5C078400B2
:100A100083135D18831700088312031792001008D0
:100A200084008313111883171208800083160313A0
:100A300062086402FF3E5C07840083135D1883171D
:100A400065088000E20AE72C64085C0784008313D1
:100A50005D18831780015C08F8005D08F9008312B7
:100A60000800800803194D2D8316D6010408D5000F
:100A70005610831B56140008D8008312A522831633
:100A800055088400831356188317840A031D4B2DC1
:100A90008312850A83168312312D080083165908A4
:100AA000F80158020318572D5808F700632DF70175
:100AB0000830DA00D80DF70D590877020318F7004F
:100AC000F80DDA0B5A2D83120800491601308316EF
:100AD000D900DA00831291220A308316D9008312DA
:100AE00020219D3003178D0000308F000313DF227B
:100AF00001308316D9000230DA00831291220A30C5
:100B00008316D90083122021A53003178D000030F1
:100B10008F000313DF22491ED42D8316061583127E
:100B20000619D32DB80A0130B80502308316D40057
:100B30009630D900831220218316D40B982D0630CD
:100B4000D9000230DA00831291228316DA01D9012A
:100B5000D801831238088316D7000A30DB00DD0184
:100B60006E30DC008312CF230A308316D900831243
:100B700020216E3084008313312538080319C42DD9
:100B8000013A0319CC2DD32DAD3003178D00003061
:100B90008F000313DF22D32DB63003178D000030F2
:100BA0008F000313DF228B2DC9195F2FC91138085D
:100BB0000319DE2D013A03199B2E5F2FC911C916A7
:100BC0008316D401D501D6016E30840083135508F5
:100BD0008407560883125820800000380319F52D29
:100BE0008316D60AD50AE42D831201308316D90064
:100BF0000230DA00831291220A308316D900831260
:100C00002021643003178D0000308F000313DF2292
:100C1000683003178D0000308F000313DF2201308E
:100C20008316D900DA0083129122703003178D00E9
:100C300000308F000313DF22C91E9A2E831606157B
:100C400083120619412E8316D40A0330D4055407A3
:100C5000D500D9000130DA00831291227B300317CE
:100C60008D0000308F000313DF2202308316D50081
:100C70009630D900831220218316D50B382E982E5A
:100C800083128316861583128619992E4430831693
:100C9000540784008313800A44305407F800FA0193
:100CA0000318FA0A7808D5007A08D60044305407A9
:100CB000840083130008D8000A30D90083124E251F
:100CC00077088316D70055088400831356188317B6
:100CD0005708800044305407840083130008D5006F
:100CE000DA01D901D8015508D7000A30DB00DD014F
:100CF0006E30DC008312CF23073083165407D500F3
:100D0000D9000230DA00831291220A308316D9000A
:100D1000831220216E308400831331250230831624
:100D2000D5009630D900831220218316D50B912E41
:100D300083121C2E5F2F8316D401D501D6016E308D
:100D400084008313550884075608831258208000B6
:100D500000380319B02E8316D60AD50A9F2E8312A7
:100D6000C911C91601308316D9000230DA00831286
:100D700091220A308316D900831220218030031774
:100D80008D0000308F000313DF22843003178D00A5
:100D900000308F000313DF2201308316D900DA0000
:100DA000831291228C3003178D0000308F000313C3
:100DB000DF22C91E5F2F8316061583120619062F20
:100DC0008316D40A5408D8000630D90083124E2561
:100DD00077088316D40003305407D500D9000130BA
:100DE000DA0083129122983003178D0000308F00B3
:100DF0000313DF2202308316D5009630D900831208
:100E000020218316D50BFD2E5D2F831283168615A8
:100E1000831286195E2F3E30831654078400831395
:100E2000800A3E305407F800FA010318FA0A7808DD
:100E3000D5007A08D6003E3054078400831300089A
:100E4000D8000A30D90083124E2577088316D700C0
:100E500055088400831356188317570880003E30C6
:100E60005407840083130008D500DA01D901D801A2
:100E70005508D7000A30DB00DD016E30DC0083123C
:100E8000CF23073083165407D500D9000230DA008B
:100E9000831291220A308316D900831220216E30EA
:100EA00084008313312502308316D5009630D90093
:100EB000831220218316D50B562F8312D92E8A1523
:100EC0000A12512C83165708DB005608DA005B081B
:100ED000FA005A08840083137A18831780080319CC
:100EE000752FDA0A0319DB0A672F5908FA00580828
:100EF000840083137A18831780080319942F5808E5
:100F000084008313591883170008DE005A088400F0
:100F100083135B1883175E088000DA0A0319DB0A63
:100F2000D80A0319D90A752F5A08840083135B184D
:100F3000831780015608F8005708F900831208004B
:100F40008316D40154081E3C031CB22F88100230B3
:100F50008312880664308316D900831220218316F9
:100F6000D40AA22F83128A150A125B2C0130831631
:100F7000D900DA00831291220A308316D900831235
:100F800020215A3084008313312501308316D90083
:100F9000831220218A150A12762C831654080739E9
:100FA000F700540CF800F80CF80C1F30F80578081E
:100FB00056078400831357188317F801F80AF70AB5
:100FC000E22FF80DF70BE12FD5080319EA2F780867
:0E0FD0008004ED2FF8097808800583120800D0
:101000004912C912FA0151308316D6007A08D70066
:10101000560884008313571883178001D50155089B
:10102000053C031C3C283E30550784008313000810
:10103000D600DA01D901D8015608D7000A30DB0002
:10104000DD016E30DC008A118312CF238A15013056
:101050008316D9008A11831220218A158316D7019D
:101060005130D600D9016E30D8008A118312622720
:101070008A158316D50A0F28A7015130A600FA0158
:101080007330D6007A08D7005608840083135718A7
:1010900083178001FA014A30D6007A08D700560833
:1010A00084008313571883178001D5015508033C2A
:1010B000031C832844305507840083130008D6009E
:1010C000DA01D901D8015608D7000A30DB00DD016A
:1010D0006E30DC008A118312CF238A15013083160B
:1010E000D9008A11831220218A158316D701733003
:1010F000D600D9016E30D8008A11831262278A1572
:101100008316D50A5628D9017330D800D7014A3042
:10111000D600580884008313591883170008DA0092
:10112000560884008313571883175A0880008008D4
:1011300003199D28D60AD80A8928A9014A30A8008F
:101140008312C80131308316A2003230A300D401CB
:101150005408053C031CDE280310540DA03E8400F7
:101160008313840A0008D60084030008D5005608BB
:10117000D8005508D7005808DA005708D9005A088F
:10118000FA005908840083137A188317800803191A
:10119000CD28D90A0319DA0ABF2857085902F700DF
:1011A0005A08FA005808031C580FFA027708F8008A
:1011B00078088312C8078316D40AA828053083123A
:1011C000C8078316DA01D901D801831248088316AB
:1011D000D7000A30DB00DD016E30DC008A1183129B
:1011E000CF238A158316A3016E30A200D4015408C0
:1011F000053C031C2E290310540DA03E84008313CC
:10120000840A0008D60084030008D500550884002D
:10121000831356188317800803192629D801040858
:10122000D7005810831B5814000883120C1E16296F
:101230009900831657088400831358188317840A6B
:10124000031D25298312850A83160B29403083123A
:101250000C1E282999008316D40AF7280130D900DA
:10126000DA008A11831291228A150A308316D90076
:101270008A11831220218A15BE3003178D00003099
:101280008F008A110313DF228A1501308316D900DB
:101290000230DA008A11831291228A150A308316ED
:1012A000D9008A11831220218A15C83003178D00B6
:1012B00000308F008A110313DF228A15C9118A15A5
:1012C0000A12562C83165408550403196B29550825
:1012D000FA005408702983122C08FA002B08831690
:1012E000D8007A08D9005908DD005808DC005708F2
:1012F000DF005608DE005D08E1005C08E0006108E0
:10130000FA006008840083137A1883178008031991
:10131000C0295F08E3005E08E2006308FA00620883
:10132000840083137A1883178008031DA4295C089E
:101330006002F7006108FA005D08031C5D0FFA0205
:101340007708F800CB29B8296108FA006008840002
:1013500083137A1883170008E4006308FA00620810
:10136000840083137A188317000864020319BC29C8
:10137000E20A0319E30A8D29E00A0319E10A7F2929
:101380005C086002F7006108FA005D08031C5D0F4D
:10139000FA027708F8007808D8070318D90A59081C
:1013A000FA005808840083137A1883178008031DF5
:1013B000E62983122B08840083132C18831720300E
:1013C00080000030F800F900522A83165908DD0029
:1013D0005808DC005708DF005608DE005D08E10011
:1013E0005C08E0006108FA006008840083137A1842
:1013F0008317800803192B2A5F08E3005E08E200C8
:101400006308FA006208840083137A18831780083F
:101410000319272A6108FA006008840083137A18E8
:1014200083170008E4006308FA006208840083134D
:101430007A18831700086402031D232A6008F80045
:101440006108F9002E2AE20A0319E30A002AE00AD9
:101450000319E10AF2290030F800F9007908DB00ED
:101460007808DA005B08FA005A08840083137A18B7
:10147000831780080319452A5A08840083135B18D0
:1014800083178001DA0A0319DB0A5B088312AC00B8
:1014900083165A088312AB0083165808F8005908BF
:1014A000F900831208008316D901D7010A30D80049
:1014B000D60154085504031D602A0030F800532B50
:1014C0005908D90A54078400831355188317000854
:1014D000DA005A082D3C031D792A0130D70059083B
:1014E000D90A540784008313551883170008DA00BB
:1014F000862A5A082B3C031D862A5908D90A540704
:1015000084008313551883170008DA005A082F3C0B
:101510000318492B5A08393C031C492B5A08303C04
:10152000031DB22A590854078400831355188317E2
:101530000008783C0319A62A59085407840083132D
:10154000551883170008583C031DB22A1030D800E4
:10155000D90A5908D90A54078400831355188317E8
:101560000008DA0058080A3C031DF72A5A082F3CE5
:101570000318F62A5A08393C031CF62A0A30DB0005
:101580005608DC00F701F8015B0803105C18F70748
:10159000F70CF80CDC18F707F70CF80C5C19F707D8
:1015A000F70CF80CDC19F707F70CF80C5C1AF707C6
:1015B000F70CF80CDC1AF707F70CF80C5C1BF707B4
:1015C000F70CF80CDC1BF707F70CF80C7808DB00BD
:1015D00030305A025B07D6005908D90A54078400F4
:1015E0008313551883170008DA00B62A492B5808C8
:1015F000103C031D492B5A08603C0318062B5A085F
:101600007A3C031C062B5A08DF39072B5A08DA00EC
:101610005A082F3C0318102B5A08393C0318182B72
:101620005A08403C0318492B5A08463C031C492BD6
:101630005A082F3C0318292B5A08393C031C292B24
:10164000560EDB00F030DB0530305A025B07D60067
:10165000322B560EDB00F030DB0541305A020A3ED9
:101660005B07D6005908D90A54078400831355181C
:1016700083170008DA005A08603C0318462B5A0802
:101680007A3C031C462B5A08DF39472B5A08DA00EC
:10169000082B570B512B58080A3C031D512BD60918
:1016A000D60A5608F8008312080003081F39830081
:1016B00083160317871508300313990002309A0028
:1016C000A6309800903083129800FF30B100B80126
:1016D000B901BA01C8014910C9104911C91149120B
:1016E000C912831603170908C039890003131F1292
:1016F0009F12003003178800831287018801890137
:1017000083130313AB01AC010530BE000730BF00EB
:101710000330C0000530C1000430C2000530C300F2
:10172000C401C501C601C7013030CC00CD00CE00D8
:10173000CF00D001CB014C30CA003030D300D400F0
:10174000D500D600D700D800D901D2015330D1003E
:101750004830DA004930DB004830DC004930DD0039
:10176000DE012A308316AC00AD014C30AE004530AE
:10177000AF004E30B0004730B1004830B2005430B6
:10178000B300B4014330B5005F30B6004630B70057
:10179000B8014930B9004430BA005F30BB0047306F
:1017A000BC005730BD003130BE003230BF00333096
:1017B000C0003430C100C2014930C3004430C4000D
:1017C0005F30C5004E30C6004F30C7004430C800FF
:1017D0004530C900CA012330CB00CC01A101AC3097
:1017E000A000A301AE30A200A501B530A400A7015E
:1017F000B930A600A901C330A800AB01CB30AA00C4
:101800003030F000F100F2018312EF017030EE0091
:1018100030308316CD00CE00CF00D000D101F401CE
:10182000CD30F30000308800FF30860009108910A9
:1018300009118911803087008312B1001F179F138F
:1018400083169F1783121F14831603170908C039C4
:10185000890003131F129F1201300317880083129F
:1018600003138B160B160B16831601138C16C03040
:1018700083128B04353090008E010B308F00DC30EA
:101880008E000C108A112D2A8A15C910C91149150C
:1018900083168801831288014910C91C532C8A11B0
:1018A000652D8A150E2DC91D572C00280E2DC9181F
:1018B0000E2D8A11A02F8A15B508031D632C34083C
:1018C0001A3C0318702C04308316D400FA30D90067
:1018D0008A11831220218A158316D40B662C831259
:1018E000491C0D2D4910BA018A11B62F8A1583168D
:1018F000D401D5016E308400831354088407550841
:101900008A1183125E208A158000003803198D2CFD
:101910008316D50AD40A7A2C83128316D5015A303D
:10192000D400D7016E30D600831262217908831665
:10193000D3007808D2000130D9000230DA008A11D1
:10194000831291228A158316D208031DAA2CD3086C
:101950000319E82C83123A08FC3E0318D02C043EED
:10196000102DD02C83165308D5005208D4008312B2
:1019700053227808BB00D02C83165308D500520898
:10198000D4008312532240307807BC00D02C831639
:101990005308D5005208D400831253227808BD00A2
:1019A00001308316D9008A11831220218A158316EB
:1019B000D501D401D7016E30D60083126221790897
:1019C0008316D3007808D2008312BA0AA32C831698
:1019D00083123B08443C031D0D2D003A031D0D2DC1
:1019E000BD08031DF52C0030F62C0130F7003C0833
:1019F0008316D4007708D500D701D6018A11831247
:101A0000CD278A153C088316D400D501D701803034
:101A1000D6008A118312CD278A15572C4D2C6300CE
:101A20000A148A100A158207B12CB22CBC2CC72CC0
:04400E00E22FFF3F5F
:00000001FF
;PIC16F887
;CRC=0A3F  CREATED="28-Oct-21 15:34"
