:1000000014308A00A62C0000FF00030E8301A1001B
:100010000A08A0008A010408A2007708A300780853
:10002000A4007908A5007A08A60003170D08031399
:10003000A70003170F080313A80003170C080313E6
:10004000A90003170E080313AA00831383120B1EC3
:100050002B288B1852288C308400801E31288C1A53
:100060005528220884002308F7002408F8002508F2
:10007000F9002608FA00270803178D000313280843
:1000800003178F000313290803178C0003132A0892
:1000900003178E00031320088A00210E8300FF0E31
:1000A0007F0E09008A110A1209298A110A124F29A2
:1000B0000A108A100A118207303400340A108A109C
:1000C0000A1182075F3400340A108A100A1182076D
:1000D0003234323400340A108A100A118207323462
:1000E000333400340A108A100A118207323434344F
:1000F00000340A108A100A118207233400340A10CF
:100100008A100A1182070034CE27C4223A10000058
:10011000201020102010201020100001201020108E
:1001200020105F1020102010201020102010201010
:100130002000201020105F10201020004922DF2313
:10014000571D000120102010201020102010000149
:100150002010201020105F102010201020102010E0
:100160002010201020102000201020105F102010E0
:10017000201020102000C3274E23C9233A1020103E
:10018000201020102000C320D3223A10201020106D
:10019000201020102000A016A024C416CE27C422B0
:1001A0002010201020100001A016A024C416C72B78
:1001B0002010201020102000D720492A492747105E
:1001C0002E172E1720102010201020100001D720ED
:1001D000492A492747102E172E17201020102010CB
:1001E00020100000201020102010201020102010BF
:1001F000000154213A1000012010201043213A0040
:1002000040224B200000D32B3A100001C02953207C
:1002100000010317E901831603138614831286185D
:1002200026290C1C2329311231088316870010302F
:10023000831287060C108E010B308F00DC308E008D
:100240000317E90A031303170B290313031769089C
:10025000143C0318342902300313D4060430D406A6
:10026000D41554124B2903176908013C031842297D
:100270006908133C031C42290313D4115412D412ED
:100280004B2903170313D417311231088316870043
:100290001030831287068B108A110A123128A03081
:1002A0003F07840083138C1E53291A088000A03056
:1002B0003F078400831300082E3C031D6729A030EC
:1002C0003F07840083138001BF0154146829BF0ACB
:1002D0008C128A110A1231284630840083170008D4
:1002E00003197F290630F800F701F70B7529F80B81
:1002F00074297B30F700F70B7B29800B72290800EB
:1003000003174D18872903130710892903170313AF
:100310000714311031088316870083120317CD1894
:100320009529031387109729031703138714B11016
:10033000310883168700831203174D19A32903136D
:100340000711A52903170313071531113108831667
:10035000870083120317CD19B12903138711B3291D
:10036000031703138715B1113108831687000000A6
:1003700083120914831609100230F700F70BBE2907
:10038000C129000083120910831609108312080086
:100390000317CE0103133114310883168700003090
:1003A0008312071801300317CE040313B114310868
:1003B000831687000030831287180130F70003107E
:1003C000F70D77080317CE04031331153108831690
:1003D00087000030831207190130F700F70DF70D81
:1003E000FC30F70577080317CE040313B115310865
:1003F000831687000030831287190130F700F70D4C
:10040000F70DF70DF830F70577080317CE044E08FF
:10041000F8000313080083160910891009118312CC
:1004200089108316891007148714071587158312FE
:100430000915831609110000831209148316091087
:1004400000008312C82178080317CD000313091098
:100450008316091000008312091483160910302A2C
:10046000312A00008312C82178080317CC00031337
:100470000910831609108312311031088316870082
:100480008312B110310883168700831231113108AD
:10049000831687008312B1113108831687008312F7
:1004A00003174D0EF700F030F70577084C04F800FD
:1004B0007808CC00CC1F5F2A83160313132ACA08BE
:1004C000031D662A03138910682A0317031389146E
:1004D0008316891000008312091183160911000088
:1004E0008312091083160910831203174B0ECC00D8
:1004F0000F30CC054C08CD000313802103174B08A7
:100500000F39CC00CD0003138021080028300317D9
:1005100096000C30970001309800063099000313C4
:10052000091083160910831289108316891083120B
:1005300009118316091183123110310883168700BF
:100540008312B110310883168700831231113108EC
:10055000831687008312B1113108831687000910B2
:10056000891009110F3083120317C60003136C2181
:100570000130031795001508033C031CCB2A0330F8
:10058000CD000313802105300317C60003136C212F
:100590000317950ABB2A0230CD00031380210530D2
:1005A0000317C60003136C21031795011508033CBC
:1005B000031CE82A163015078400831700089A00E8
:1005C000CA011A08CB0003130B220317950AD62A77
:1005D00003138A110A167E2D031795011508033C93
:1005E000031C032B48301507840083130A301507BA
:1005F000980018088D0083168C130C1483120C08B5
:100600008000950AEE2A95011508053C031C192B5C
:1006100042301507840083130E3015079800180820
:100620008D0083168C130C1483120C088000950A1D
:10063000042B03138A110A16892D8318222B633089
:100640008400831703175E0862068039E800DE1F06
:10065000342BDB09DC09DD09DE09DB0A0319DC0ABE
:100660000319DD0A0319DE0AE21F412BDF09E00945
:10067000E109E209DF0A0319E00A0319E10A031993
:10068000E20AF701F801F901FA01E301E401E501E9
:10069000E6016208610460045F0403197F2B2030C7
:1006A000E7000310DB0DDC0DDD0DDE0DE30DE40DC9
:1006B000E50DE60D62086602031D682B6108650200
:1006C000031D682B60086402031D682B5F0863022A
:1006D000031C792B5F08E3026008031C600FE4022F
:1006E0006108031C610FE5026208031C620FE60249
:1006F0000314F70DF80DF90DFA0DE70B512BE81F58
:100700008C2BF709F809F909FA09F70A0319F80A0D
:100710000319F90A0319FA0A63088000840A6408B5
:100720008000840A65088000840A6608800003133C
:1007300008000317CE01CD01CC010130CB00D00160
:10074000D101C71FE32B0130D0004708D60046086F
:10075000D5004508D4004408D300FF30DA00D900A2
:10076000D800D7002030DF00DB01DC01DD01DE0135
:100770005608FA005508F9005408F8005308F70025
:100780000310771CD12B5708DB0758080318580FA4
:10079000DC0759080318590FDD075A0803185A0FC8
:1007A000DE07DE0CDD0CDC0CDB0CFA0CF90CF80CB3
:1007B000F70CDF0BC02B7A08C7007908C600780851
:1007C000C5007708C400CB08031DEF2BCC08031D20
:1007D000EF2BCD08031DEF2BCE0803196B2C8310D4
:1007E0004708DE004608DD004508DC004408DB0061
:1007F000E201E101E0014808DF0003131D237A084C
:100800000317CE007908CD007808CC007708CB001C
:1008100051084907F8004A08FA000318FA0A78084C
:10082000D3007A08D400D6010408D5005610831BE3
:10083000561483145730840083174708DE00460897
:10084000DD004508DC004408DB00E201E101E001D5
:100850004808DF0003131D23031755088400831382
:100860005618831730305707F7005808F800003043
:1008700003180130F8075908F90000300318013057
:10088000F9075A08FA00003003180130FA07530834
:100890008400831354188317770880005108490790
:1008A000840083134A1883170008393C0318612C0D
:1008B00051084907840083134A188317073000073B
:1008C0008000D10A4E08C7004D08C6004C08C5007C
:1008D0004B08C400E32B500B762C510849078400C9
:1008E00083134A1883172D308000D10ACF010310DB
:1008F000510C4F020318AC2C4F0849078400831396
:100900004A1883170008D2004F084907F8004A0820
:10091000FA000318FA0A7808D3007A08D4004F08BE
:100920005102FF3E4907840083134A1883170008C9
:10093000D50053088400831354188317550880008A
:100940004F085102FF3E4907840083134A1883175A
:1009500052088000CF0A772C51084907840083137E
:100960004A18831780014908F8004A08F900031360
:10097000080003174408C8004308C7004808FA00E5
:100980004708840083137A18831780080319CC2C36
:10099000C70A0319C80ABE2C4608FA004508840095
:1009A00083137A18831780080319EB2C45088400F9
:1009B0008313461883170008CB004708840083136D
:1009C000481883174B088000C70A0319C80AC50ACC
:1009D0000319C60ACC2C47088400831348188317D0
:1009E00080014308F8004408F90003130800800858
:1009F0000319142D0317C5010408C4004510831BF7
:100A00004514000803130C1E032D99000317440816
:100A10008400831345188317840A031D122D0313C2
:100A2000850A03170313F72C08000317470B192D2A
:100A30001C2D4030C8001D2DC80101304602C807DA
:100A400048088038C900CA014908CB0003130B22AB
:100A5000080003174508073A03130319392D0B3A09
:100A60000319402D063A03194C2D023A0319542D4F
:100A70005B2D01300317C600C70003131525622D37
:100A80000317CA010130CB0003130B2202300317F6
:100A9000C60003136C21622D01300317C60002301B
:100AA000C70003131525622D0317CA011030CB00B0
:100AB00003130B22622D01300317CA004508CB0037
:100AC00003130B2208000B080317C20003138B1338
:100AD000831603178C170C14000000008312C21F2A
:100AE000742D03138B1703170C087F390319B12DCD
:100AF000C2000D08C3000F08C4004208C50003135C
:100B00002925031743088D0044088F0003130B08A1
:100B10000317C50003138B13831603178C170C14CC
:100B2000000000008312C51F982D03138B170317B5
:100B30000C0D0E0D7F390319B12DC2000D08C30035
:100B40000F08C4004208C5000313292503174308F2
:100B50008D0044088F008D0A03198F0A0313632D3B
:100B60000317031308005412D4122A300317A100EC
:100B7000A2014C30A3004530A4004E30A500473000
:100B8000A6004830A7005430A800A9014330AA00AD
:100B90004630AB00AC014930AD004430AE005F30B0
:100BA000AF004730B0005730B1003130B2003230C2
:100BB000B3003330B4003430B500B6014930B7006B
:100BC0004430B8005F30B9004E30BA004F30BB003F
:100BD0004430BC004530BD00BE012330BF00C00121
:100BE00001309600213095000130980023309700A5
:100BF00001309A002A30990001309C002D309B0072
:100C000001309E0037309D000130A0003F309F0032
:100C1000FA015D30C3007A08C400430884008313DE
:100C2000441883178001C2014208053C031C5D2E55
:100C30000E304207C300423042078400831300088D
:100C4000C40003130B08F7008B13031743088D0030
:100C500044088C0083168C130C1555308D00AA3077
:100C60008D008C148C18322E0C117708831203130C
:100C70008B04423003174207840083130008C3002B
:100C8000C701C601C5014308C4000A30C800CA0133
:100C90007B30C9000313992301300317C6000313E7
:100CA0006C210317C4015D30C300C6017B30C50051
:100CB0000313B9240317C20A142E9C015D309B0054
:100CC000FA015630C3007A08C40043088400831335
:100CD000441883178001C2014208033C031CB52E4F
:100CE0000A304207C30048304207840083130008DB
:100CF000C40003130B08F7008B13031743088D0080
:100D000044088C0083168C130C1555308D00AA30C6
:100D10008D008C148C188A2E0C1177088312031303
:100D20008B04483003174207840083130008C30074
:100D3000C701C601C5014308C4000A30C800CA0182
:100D40007B30C9000313992301300317C600031336
:100D50006C210317C4015630C300C6017B30C500A7
:100D60000313B9240317C20A6C2E9E0156309D004E
:100D700014300313CC000317C701C601C5010313C8
:100D80004C080317C4000A30C800CA017B30C900F0
:100D900003139923031798017B309700C101410881
:100DA000053C031CEB2E0310410D153E84008317F8
:100DB000840A0008C30084030008C200840083136F
:100DC000431883170313F72440300C1EE52E9900B7
:100DD0000317C10ACF2E0130C600C7000313152523
:100DE0000A300317C60003136C21DC3003178D0093
:100DF00000308F000313632501300317C600023053
:100E0000C700031315250A300317C60003136C210E
:100E1000E73003178D0000308F0003136325D411D2
:100E20000800800803192D2F03179F0104089E0056
:100E30001F10831B1F140008C50003132925031767
:100E40001E08840083131F188317840A031D2B2F89
:100E50000313850A03170313112F080003171A0839
:100E6000F80119020318372F1908F700432FF7016B
:100E700008309B00990DF70D1A0877020318F70048
:100E8000F80D9B0B3A2F03130800F701F801031725
:100E9000240803102518F707F70CF80CA518F70716
:100EA000F70CF80C2519F707F70CF80CA519F7073C
:100EB000F70CF80C251AF707F70CF80CA51AF7072A
:100EC000F70CF80C251BF707F70CF80CA51BF70718
:100ED000F70CF80C0313080003171C08FA001B0892
:100EE000840083137A18831700089F001E08FA00F5
:100EF0001D08840083137A18831700081F02031D3E
:100F0000982F1C08FA001B08840083137A18831793
:100F10008008031D8E2F0030F800B02F1C08FA0047
:100F20001B089B0A03199C0A9D0A03199E0A6D2F30
:100F30001C08FA001B08840083131C188317000880
:100F40009F001E08FA001D08840083131E188317D3
:100F500000081F020318AE2FFF30AF2F0130F8003A
:100F60000313080003171E080739F7001E0CF800CA
:100F7000F80CF80C1F30F80578082007840083135C
:100F800021188317F801F80AF70AC72FF80DF70B95
:100F9000C62F9F080319CF2F78088004D22FF80995
:100FA0007808800503130800031721080739F700A4
:100FB000210CF800F80CF80C1F30F805780822070F
:100FC00084008313231883170008F800F70AE92F19
:0A0FD000F80CF70BE82F03130800DC
:10100000541601300317C600C7008A1103131525B3
:101010008A150A300317C6008A1103136C218A153A
:10102000BB3003178D0000308F008A110313632536
:101030008A1501300317C6000230C7008A11031356
:1010400015258A150A300317C6008A1103136C216F
:101050008A15C33003178D0000308F008A110313E7
:1010600063258A15541E89288316061583120619CE
:101070008828BE0A0130BE0502300317950096305D
:10108000C6008A1103136C218A150317950B3F289C
:101090000630C6000230C7008A11031315258A15D1
:1010A0000317C701C601C50103133E080317C40097
:1010B0000A30C800CA017B30C9008A110313992382
:1010C0008A150A300317C6008A1103136C218A158A
:1010D0007B30840083138A1111278A153E08031977
:1010E0007528013A03197F288828CB3003178D0013
:1010F00000308F008A11031363258A158828D430A5
:1011000003178D0000308F008A11031363258A15A1
:101110003228D419622AD4113E0803199328013ABF
:1011200003197629622AD411D41603179501960162
:1011300097017B30840083131608840717088A11EF
:10114000031358208A15800000380319AC280317B0
:10115000970A960A9928031301300317C600023034
:10116000C7008A11031315258A150A300317C60014
:101170008A1103136C218A15843003178D00003007
:101180008F008A11031363258A1556308400831358
:101190008A1111278A15883003178D0000308F00BF
:1011A0008A11031363258A1501300317C600C7008F
:1011B0008A11031315258A158E3003178D00003010
:1011C0008F008A11031363258A15D41E752983168F
:1011D00006158312061910290317950A0330950581
:1011E00015079600C6000130C7008A1103131525A4
:1011F0008A15993003178D0000308F008A11031370
:1012000063258A150230031796009630C6008A11AE
:1012100003136C218A150317960B052973290313F1
:10122000831686158312861974294830031715070B
:1012300084008313800A48301507F800FA01031868
:10124000FA0A780896007A08970048301507840053
:101250008313000899000A309A008A1103132E277D
:101260008A15770803179800160884008313171847
:10127000831718088000483015078400831300087E
:101280009600C701C601C5011608C4000A30C8008F
:10129000CA017B30C9008A11031399238A150730CC
:1012A000031715079600C6000230C7008A11031302
:1012B00015258A150A300317C6008A1103136C21FD
:1012C0008A157B30840083138A1111278A15023016
:1012D000031796009630C6008A1103136C218A15F5
:1012E0000317960B6A290313E528622A0317950151
:1012F000960197017B308400831316088407170832
:101300008A11031358208A158000003803198D298B
:101310000317970A960A7A290313D411D4160130B9
:101320000317C6000230C7008A11031315258A155A
:101330000A300317C6008A1103136C218A159E30E8
:1013400003178D0000308F008A11031363258A155F
:101350005D30840083138A1111278A15A230031788
:101360008D0000308F008A11031363258A15013028
:101370000317C600C7008A11031315258A15A83064
:1013800003178D0000308F008A11031363258A151F
:10139000D41E622A8316061583120619FD29031727
:1013A000950A1508990006309A008A1103132E2712
:1013B0008A15770803179500033015079600C600B5
:1013C0000130C7008A11031315258A15B43003179D
:1013D0008D0000308F008A11031363258A150230B7
:1013E000031796009630C6008A1103136C218A15E4
:1013F0000317960BF229602A0313831686158312AE
:101400008619612A42300317150784008313800A66
:1014100042301507F800FA010318FA0A7808960016
:101420007A0897004230150784008313000899005A
:101430000A309A008A1103132E278A15770803179A
:101440009800160884008313171883171808800063
:10145000423015078400831300089600C701C601B7
:10146000C5011608C4000A30C800CA017B30C90093
:101470008A11031399238A1507300317150796005D
:10148000C6000230C7008A11031315258A150A30D9
:101490000317C6008A1103136C218A157B30840060
:1014A00083138A1111278A1502300317960096308C
:1014B000C6008A1103136C218A150317960B572A4D
:1014C0000313C8298A110A16922D03171D081E043A
:1014D00003196E2A1E08FA001D08732A03132C082C
:1014E000FA002B080317A1007A08A2002208A60020
:1014F0002108A5002008A8001F08A7002608AA00A8
:101500002508A9002A08FA002908840083137A18FC
:10151000831780080319C32A2808AC002708AB00EA
:101520002C08FA002B08840083137A18831780088C
:10153000031DA72A25082902F7002A08FA00260811
:10154000031C260FFA027708F800CE2ABB2A2A08C5
:10155000FA002908840083137A1883170008AD0065
:101560002C08FA002B08840083137A1883170008CC
:101570002D020319BF2AAB0A0319AC0A902AA90A43
:101580000319AA0A822A25082902F7002A08FA0064
:101590002608031C260FFA027708F8007808A1072E
:1015A0000318A20A2208FA002108840083137A187B
:1015B00083178008031DE92A03132B088400831373
:1015C0002C188317203080000030F800F900552BCC
:1015D00003172208A6002108A5002008A8001F085C
:1015E000A7002608AA002508A9002A08FA00290849
:1015F000840083137A188317800803192E2B280878
:10160000AC002708AB002C08FA002B0884008313D9
:101610007A188317800803192A2B2A08FA00290848
:10162000840083137A1883170008AD002C08FA0091
:101630002B08840083137A18831700082D02031DDA
:10164000262B2908F8002A08F900312BAB0A0319C8
:10165000AC0A032BA90A0319AA0AF52A0030F800DC
:10166000F9007908A4007808A3002408FA002308E8
:10167000840083137A18831780080319482B2308E2
:1016800084008313241883178001A30A0319A40A72
:1016900024080313AC00031723080313AB0003173C
:1016A0002108F8002208F900031308000317A2011B
:1016B000A0010A30A1009F011D081E04031D632B19
:1016C0000030F800372C2208A20A1D07840083137B
:1016D0001E1883170008A30023082D3C031D7C2B34
:1016E0000130A0002208A20A1D07840083131E18DF
:1016F00083170008A300892B23082B3C031D892B8B
:101700002208A20A1D07840083131E1883170008ED
:10171000A30023082F3C03182D2C2308393C031C5D
:101720002D2C2308303C031DB52B22081D078400F7
:1017300083131E1883170008783C0319A92B22086D
:101740001D07840083131E1883170008583C031DCF
:10175000B52B1030A100A20A2208A20A1D0784009E
:1017600083131E1883170008A30021080A3C031DD9
:10177000DB2B23082F3C0318DA2B2308393C031CEE
:10178000DA2B0A30A4001F08A5008A11031345278D
:101790008A1578080317A4003030230224079F001D
:1017A0002208A20A1D07840083131E18831700084D
:1017B000A300B92B2D2C2108103C031D2D2C230830
:1017C000603C0318EA2B23087A3C031CEA2B23080D
:1017D000DF39EB2B2308A30023082F3C0318F42B3D
:1017E0002308393C0318FC2B2308403C03182D2CFC
:1017F0002308463C031C2D2C23082F3C03180D2CDA
:101800002308393C031C0D2C1F0EA400F030A40546
:101810003030230224079F00162C1F0EA400F03046
:10182000A405413023020A3E24079F002208A20A91
:101830001D07840083131E1883170008A3002308C4
:10184000603C03182A2C23087A3C031C2A2C23080A
:10185000DF392B2C2308A300EC2B200B352C21087F
:101860000A3C031D352C9F099F0A1F08F80003132B
:1018700008000B080317C00003138B13831603170C
:101880008C170C14000000008312C01F4A2C031395
:101890008B1703170C087F390319892CC0000D081A
:1018A000C1000F08C200400803130C1E552C9900FC
:1018B000031741088D0042088F0003130B0803171C
:1018C000C30003138B13831603178C170C1400002B
:1018D00000008312C31F6F2C03138B1703170C0D0B
:1018E0000E0D7F390319892CC0000D08C1000F08A7
:1018F000C200400803130C1E7B2C990003174108FB
:101900008D0042088F008D0A03198F0A0313392CAA
:1019100003170313080003179E0101309F00A00165
:101920002008073C031CB12C2008A100A301533060
:10193000A2008A110313D4278A15003078180130C9
:101940000317A1001F08A4002108A5008A11031392
:1019500045278A15780803179E0703109F0DA00AD4
:10196000902C1E08F80078080313C10041080317E3
:101970009E009F011F08073C031CD42C9E1BC42CF7
:1019800003138810C62C03170313881483168810BA
:10199000081083120810831608108312081403100D
:1019A00003179E0D9F0ABA2C831603130811831286
:1019B0000811831608118312081503179D011D08CD
:1019C000073C031C1E2D9E019F017B308400831366
:1019D0001E0884071F088A11031358208A158000E7
:1019E00000380319F82C03179F0A9E0AE52C0313ED
:1019F00003171D08A100A3015330A2008A1103138D
:101A0000D4278A1500307818013003179E00C701CB
:101A1000C601C5011E08C4000A30C800CA017B30D7
:101A2000C9008A11031399238A157B30840083131C
:101A30008A1111278A1503179D0ADF2C0313410809
:101A4000093C031C3A2D03179E019F017B30840043
:101A500083131E0884071F088A11031364208A1544
:101A6000800000380319392D03179F0A9E0A262D7E
:101A700003136F2D4108093C0318592D4108633C9D
:101A8000031C592D03179E019F017B308400831393
:101A90001E0884071F088A1103136B208A15800013
:101AA00000380319582D03179F0A9E0A452D03136A
:101AB0006F2D03179E019F017B30840083131E0846
:101AC00084071F088A11031372208A1580000038CA
:101AD00003196F2D03179F0A9E0A5C2D03132A30EA
:101AE0000C1E702D990040300C1E742D99007B3017
:101AF000840083138A11F7248A15003003178D00A0
:101B000001308F00031339245D30840083138A1160
:101B1000F7248A1540300C1E8B2D99005630840016
:101B200083138A11F7248A1540300C1E952D9900D5
:101B30000317C701C601C501031341080317C400F9
:101B40000A30C800CA017B30C9008A1103139923E7
:101B50008A157B30840083138A11F7248A1540305C
:101B60000C1EB02D990023300C1EB42D99000130AD
:101B70000317C6000230C7008A11031315258A1502
:101B80000A300317C6008A1103136C218A1503302B
:101B900003178D0001308F008A11031363258A1506
:101BA00003179D011D08073C031C112E9E019F0178
:101BB0007B30840083131E0884071F088A110313D7
:101BC00058208A15800000380319EB2D03179F0A4F
:101BD0009E0AD82D031303171D08A100A30153303B
:101BE000A2008A110313D4278A1500307818013017
:101BF00003179E00C701C601C5011E08C4000A30B4
:101C0000C800CA017B30C9008A11031399238A15C1
:101C10007B30840083138A1111278A1503179D0ACC
:101C2000D22D031308000317950134309600950157
:101C300003134F08031715020318602E1508033C01
:101C40000318242E403096001508160797009E00B2
:101C500001309F00A1018030A0008A110313B22738
:101C60008A1503171708A100A301A2018A11031303
:101C7000D4278A1578185D2EC8300317C6008A113C
:101C800003136C218A1503171508A100A301533013
:101C9000A2008A110313D4278A150030781C013062
:101CA0000317970015089E0017089F00A1015330E5
:101CB000A0008A110313B2278A150317950A182E5C
:101CC00003138A110A16A82D3112310883168700D2
:101CD00010308312870649300317A3004430A40054
:101CE0004730A5005730A6003130A7003230A80099
:101CF000A9014E30AA004F30AB004430AC00453053
:101D0000AD00AE015A30AF00B000B1014130B200B9
:101D1000B300B4015630B500B600B7014330B80087
:101D2000B900BA015330BB00BC00BD0101309600C0
:101D300023309500013098002A30970001309A0036
:101D40002F30990001309C0032309B0001309E0002
:101D500035309D000130A00038309F000130A200D6
:101D60003B30A10096015D309500980156309700F8
:101D70001430BE00BF010313500803173F020318BD
:101D8000EA2E34303F07840083130008C00002307D
:101D90003F07F7000310F70D7708153E84008317FF
:101DA000840A0008C20084030008C100C701C601FC
:101DB000C5014008C4000A30C8004208CA004108F2
:101DC000C9008A11031399238A1503300317BE072C
:101DD000BF0ABB2EC701C601C5013E08C4000A30B8
:101DE000C800CA017D30C9008A11031399238A15DE
:101DF0002A300C1EF92E990040300C1EFD2E990041
:101E00007D30840083138A11F7248A150630031766
:101E10008D0001308F00031339240317BF010230F6
:101E20000313500703173F020318302F03103F0D11
:101E3000153E84008317840A0008C100840300084B
:101E4000C00084008313411883178A110313F724F9
:101E50008A1540300C1E2A2F99000317BF0A0F2F36
:101E6000233003130C1E322F9900311231088316D0
:0E1E700087001030831287068A110A16BE2DD5
:102000002A3003179500FA016630840083137A188A
:1020100083178001FA016D30840083137A188317C7
:1020200080019B019C01D230840083131B0884072C
:102030001C080A1203137F200A16800000380319B7
:10204000262803179C0A9B0A1328031303179C01D5
:10205000A0309B0015089D001C08FA001B08840096
:1020600083137A1883171D080002031949281C08D6
:10207000FA001B08840083137A1883178008031D55
:1020800045280030F800F9004D289B0A03199C0AE6
:102090002C281B08F8001C08F9007908970078081C
:1020A000960017089C0016089B001C089E001B0841
:1020B0009D001E08FA001D08840083137A188317F8
:1020C0008008031967289D0A03199E0A59281B08CE
:1020D0001D02F7001E08FA001C08031C1C0FFA0260
:1020E0007708F800780898000313C00103179B01D4
:1020F0009C017B30840083131B0884071C080A1290
:10210000031379200A168000003803198C2803175E
:102110009C0A9B0A7928031303179E01A0309D0097
:10212000A0017B309F000A128A15031365220A164C
:102130008A11790803179A00780899009908031DF5
:10214000A4289A080319032903134008FA3E031828
:10215000EE28063E582AEE280317C4016D30C3004E
:102160001A08C6001908C5000A120313B9240A1672
:10217000EE280317C4016630C3001A08C600190808
:10218000C5000A120313B9240A16EE2803171A0809
:102190009E0019089D000A128A15031356230A1679
:1021A0008A117808CD00EE2803171A089E00190836
:1021B0009D000A128A15031356230A168A117808FD
:1021C000CE00EE280317C401D230C3001A08C6009F
:1021D0001908C5000A120313B9240A1603179E0131
:1021E0009D01A0017B309F000A128A15031365220E
:1021F0000A168A11790803179A00780899000313C0
:10220000C00A03179E289C016D309B009E015D3023
:102210009D000A1203136C270A167808D2000317D0
:102220009C0166309B009E0156309D000A120313EC
:102230006C270A167808D100D208031D4E2AD1084F
:10224000031D4E2A4E0803171802031929290313E8
:102250004E2A03134D0803193429013A031935296D
:10226000033A0319202A4D2A4D2AC00101300317D1
:10227000C600C7000A12031315250A160A300317F1
:10228000C6000A1203136C210A1603179D019E0152
:102290007B30840083131D0884071E080A12031371
:1022A0005E200A168000003803195B2903179E0A76
:1022B0009D0A4829031303179E01D2309D00A001F7
:1022C0007B309F000A128A15031365220A168A11B1
:1022D000790803179C0078089B009B08031D73294D
:1022E0009C080319C8290313400803197E29013AE1
:1022F00003199829033A0319A629B32901300317B2
:10230000C6000A1203136C210A1603171B08840067
:1023100083131C1883170A12031311270A16F230AD
:1023200003178D0000308F000A12031363250A166D
:1023300003171C089E001B089D000A128A15031330
:1023400056230A168A117808CF00B32903171C08F0
:102350009E001B089D000A128A15031356230A16B5
:102360008A117808D00003179E019D01A0017B30DF
:102370009F000A128A15031365220A168A1179082A
:1023800003179C0078089B000313C00A03176D29EC
:102390000130C6000A1203136C210A16013003171C
:1023A000C6000230C7000A12031315250A160A30A8
:1023B0000317C6000A1203136C210A16F93003171B
:1023C0008D0000308F000A12031363250A160317CD
:1023D000C701C601C50103134F080317C4000A3023
:1023E000C800CA017B30C9000A12031399230A16D8
:1023F0007B30840083130A1211270A16FC3003175E
:102400008D0000308F000A12031363250A1603178C
:10241000C701C601C501031350080317C4000A30E1
:10242000C800CA017B30C9000A12031399230A1697
:102430007B30840083130A1211270A1654174D2A81
:1024400003179B019E01D2309D000A128A150313C7
:1024500056230A168A11780803179B009C011C0852
:10246000073C031C472A00301B1801309D001C0844
:102470009E001D089F00A1015330A0000A12031303
:10248000B2270A16031003179B0C9C0A2F2A0A1264
:102490008A1503138B240A168A11552A0A3003174A
:1024A000C6000A1203136C210A168A110A16A12DFE
:1024B0000A108A140A118207AB28AC28B928C6284A
:1024C000D428E22803179501960103135008031737
:1024D00016020318A22C343016079700980103182F
:1024E000980A1608990001309A0002309B000430C7
:1024F0009C0008309D0010309E0020309F0040302E
:10250000A0001A301907840083170008A200A30056
:10251000A401A501A601893084008317C03080057D
:10252000250880049F3084008313CF308005240861
:102530008004883084008317230880000330C6009D
:102540000A1203136C210A160317190DF700F70D71
:10255000FC30F70503131F08C33977049F000330CD
:102560000317C6000A1203136C210A16B301B20145
:102570000317A1012108633C031CD42A03139F14F1
:102580009F18C02A83161E088312B2071E0803185C
:102590001E0FB30701300317C6000A1203136C2184
:1025A0000A160317A10ABA2A031333080317A30054
:1025B000031332080317A2008E30F7002308F80037
:1025C0002208F900FA01F808031DF02A7908F8003A
:1025D000F9010830F702F808031DF02AF701F82A7C
:1025E0000310F81BF72AF90DF80DF703F02AF8137A
:1025F0007A08A5007908A4007808A3007708A2004B
:102600009A30A9009930A8004C30A7008630A60067
:1026100022080319CD2BAE0026080319CD2BAE02DC
:10262000031C172B7F30AE070318CD2B1D2B8130D9
:10263000AE02031CCD2B0319CD2B2E08F700F80199
:10264000F901FA01AD012308AC00AC172408AB0076
:102650002508AA001930AE002908AA020318402B49
:102660000130AB020318402BAC020318402BAD0223
:102670000318402BAD0AAC0AAB0A2908AA07722B33
:102680002808AB0203185B2B0130AC0203185B2B4C
:10269000AD0203185B2BAD0AAC0A2808AB0729086A
:1026A000AA07031C722BAB0A031D722BAC0A031D75
:1026B000722BAD0A722B27088038AC020318712BDD
:1026C0000130AD020318712BAD0A27088038AC0722
:1026D0002808AB07031C4F2BAC0A031D4F2BAD0A78
:1026E0004F2B7A14AE0B752B802B0310AA0DAB0D5C
:1026F000AC0DAD0D0310FA0DF90DF80DAF0D2C2B2F
:102700002F1C882B0310F80CF90CFA0CAF0C8B2B38
:10271000F7030319CD2BAF1BB42B0310AA0DAB0D80
:10272000AC0DAD0D2908AA020318A02B0130AB0295
:102730000318A02BAC020318A02BAD02031CC32B63
:102740002808AB020318AB2B0130AC020318AB2BEB
:10275000AD02031CC32B27088038AC020318B42B2E
:102760000130AD02031CC32BFA0A031DC32BF90A67
:10277000031DC32BF80A031DC32BF70A0319CD2B26
:10278000F80CF90CFA0C2308AE002708AE06AE1FB1
:10279000CB2BF817D12BF813D12BF701F801F90146
:1027A000FA017A08A5007908A4007808A300770840
:1027B000A2008E30F7002208F7022308F90024084F
:1027C000F800F917F7080319F02B0310F908031D97
:1027D000EC2BF8080319F02BF90CF80CF70BE52B90
:1027E000A31FF72BF809F909F80A0319F90A790860
:1027F0000313B3007808B2003208F8000317170873
:102800008400831318188317780880003430160763
:10281000840083130008970039301607840083135F
:102820000008970217089500980115089700971B54
:1028300098038E30F7001808F8001708F900FA011D
:10284000981F272CF809F909F90A0319F80AF8085A
:10285000031D342C7908F800F9010830F702F80854
:10286000031D342CF7013D2C0310F81B3B2CF90DF4
:10287000F80DF703342C981FF8139A019901980169
:102880007E3097007A089E0079089D0078089C00A9
:1028900077089B0018089F001C089F069F1F552C57
:1028A00003110310981B0314882C18089F001B08A1
:1028B000A0001708A0020319632C9F1F882C03088F
:1028C000013A8300882C1C08A0001808A0020319F4
:1028D0006F2C9F1F882C0308013A8300882C1D0849
:1028E000A0001908A00203197B2C9F1F882C030845
:1028F000013A8300882C1E08A0001A08A0020319C0
:10290000872C9F1F882C0308013A8300882C031012
:10291000031C8D2C03135514031739301607970029
:1029200098010318980A34301607840083130008AE
:10293000990017088400831318188317190880005A
:10294000960A652A03138A110A16B82D03081F393F
:10295000830083160317871508300313990002308C
:102960009A00A6309800903083129800FF30B10092
:10297000BE01BF01C001C101CC01CD01CE01CF011B
:102980000330D000D101D2015410D4105411D4110D
:102990005412D4125413D413551083160317090874
:1029A000C039890003131F129F12003003178800DB
:1029B000831287018801890183130313AB01AC01E2
:1029C000B401B501B601B701B801B901BA01BB0143
:1029D000BC01BD010330C2000830C3000630C40092
:1029E0000930C500C6010730C700C8010130C90061
:1029F0000530CA000230CB00D3013030D80035306A
:102A0000D9003830DA003930DB00DC01D70158302A
:102A1000D6003130DF003230E0003730E1003130B5
:102A2000E2003030E3003230E400E501DE015F30E7
:102A3000DD003030E800E900EA00EB00EC01E701DE
:102A40006830E6003030EF00F000F100F200F300F3
:102A5000F400F501EE016F30ED0048308316A00060
:102A60004930A1004830A2004930A300A4014830F9
:102A7000D2004930D3004830D4004930D500D601C7
:102A80003030EB00EC00ED00EE00EF01FC01EB302C
:102A9000FB00323083120317900037309100303042
:102AA0009200930094010130FE001030FD00F030E0
:102AB000831603138800FF3086000910891009115E
:102AC0008911803087008312B1001F179F1383166E
:102AD0009F1783121F148B160B160B1683160113E8
:102AE0008C16C03083128B04353090008E010B3071
:102AF0008F00DC308E000C100A12862A0A16D410C1
:102B0000D4115415831688118312881554100A1293
:102B1000EC2A0A160A12B3250A16D41C952D0A129D
:102B20008A1500280A168A11C82DD41D9B2D0A1259
:102B3000B3250A16C82DD418C82D541CA12D541025
:102B40000028541FC72DD41FB02D0A128A15132E2A
:102B50000A168A11D4130A128A158B240A168A11AE
:102B600064300317C6000A1203136C210A16622A86
:102B7000551CC72D55100A128A15642E0A168A1183
:102B8000C8300317C6000A1203136C210A169B2DC6
:042B90008D2D630024
:04400E00E22FFF3F5F
:00000001FF
;PIC16F887
;CRC=AD20  CREATED="11-Nov-21 15:54"
