:1000000011308A00A9290000FF00030E8301A1001E
:100010000A08A0008A010408A2007708A300780853
:10002000A4007908A5007A08A60003170D08031399
:10003000A70003170F080313A80003170C080313E6
:10004000A90003170E080313AA00831383120B1EC3
:100050002B288B1852288C308400801E31288C1A53
:100060005528220884002308F7002408F8002508F2
:10007000F9002608FA00270803178D000313280843
:1000800003178F000313290803178C0003132A0892
:1000900003178E00031320088A00210E8300FF0E31
:1000A0007F0E09008A110A12F2288A110A123829D1
:1000B0000A108A100A118207303400340A108A109C
:1000C0000A1182075F3400340A108A100A1182076D
:1000D000233400340A108A100A1182070034CE2714
:1000E000C4223A10000030183018201020102010C0
:1000F0002010201000012010201020105F10201070
:10010000201020102010201020102000201020107F
:100110005F10201020004922DF23571D00013018F6
:10012000301830182010201020102010000120104E
:10013000201020105F102010201020102010201000
:10014000201020102000201020105F102010201000
:1001500020102000C3274E23C9233A10201020105E
:1001600020102000C320D3223A102010201020108D
:1001700020102000A016A024C416CE27C4222010D0
:10018000201020100001A016A024C416C72B201098
:10019000201020102000D720492A492747102E1769
:1001A0002E1720102010201020100001D720492ADF
:1001B000492747102E172E1720102010201020102E
:1001C000000020102010201020102010201000010E
:1001D00054213A1000012010201043213A00D32B63
:1001E0003A1000010317E4018316031386148312E7
:1001F00086180F290C1C0C29311231088316870030
:100200001030831287060C108E010B308F00DC300B
:100210008E000317E40A03130317F42803130317CC
:100220006408143C03181D2902300313CE06043061
:10023000CE06CE154E12342903176408013C03186C
:100240002B296408133C031C2B290313CE114E12D7
:10025000CE12342903170313CE1731123108831637
:1002600087001030831287068B108A110A123128FA
:10027000A0303907840083138C1E3C291A088000A3
:10028000A03039078400831300082E3C031D502939
:10029000A0303907840083138001B9014E1451291D
:1002A000B90A8C128A110A12312820152020000068
:1002B000C02953200001413084008317000803192E
:1002C0006E290630F800F701F70B6429F80B632953
:1002D0007B30F700F70B6A29800B612908000317B0
:1002E00048187629031307107829031703130714F6
:1002F000311031088316870083120317C818842928
:10030000031387108629031703138714B1103108CC
:1003100083168700831203174819922903130711C4
:100320009429031703130715311131088316870029
:1003300083120317C819A02903138711A2290317D1
:1003400003138715B111310883168700000083124B
:100350000914831609100230F700F70BAD29B029F4
:100360000000831209108316091083120800031776
:10037000C90103133114310883168700003083123A
:10038000071801300317C9040313B1143108831689
:1003900087000030831287180130F7000310F70D33
:1003A00077080317C9040313311531088316870032
:1003B0000030831207190130F700F70DF70DFC30FC
:1003C000F70577080317C9040313B115310883161D
:1003D00087000030831287190130F700F70DF70D01
:1003E000F70DF830F70577080317C9044908F80036
:1003F000031308008316091089100911831289104C
:100400008316891007148714071587158312091599
:1004100083160911000083120914831609100000C5
:100420008312B72178080317C80003130910831635
:100430000910000083120914831609101F2A202AAC
:1004400000008312B72178080317C70003130910AF
:100450008316091083123110310883168700831226
:10046000B1103108831687008312311131088316C9
:1004700087008312B1113108831687008312031796
:10048000480EF700F030F70577084704F8007808C1
:10049000C700C71F4E2A83160313022AC508031D6F
:1004A000552A03138910572A031703138914831637
:1004B00089100000831209118316091100008312AC
:1004C00009108316091083120317460EC7000F3058
:1004D000C7054708C80003136F21031746080F39E3
:1004E000C700C80003136F210800283003179100CC
:1004F0000C30920001309300063094000313091071
:10050000831609108312891083168910831209112A
:100510008316091183123110310883168700831264
:10052000B110310883168700831231113108831608
:1005300087008312B11131088316870009108910D2
:1005400009110F3083120317C10003135B2101301F
:10055000031790001008033C031CBA2A0330C8009C
:1005600003136F2105300317C10003135B21031729
:10057000900AAA2A0230C80003136F21053003171E
:10058000C10003135B21031790011008033C031CF7
:10059000D72A113010078400831700089500C50181
:1005A0001508C6000313FA210317900AC52A03137E
:1005B0008A110A16772A0317420BDF2AE22A4030F3
:1005C000C300E32AC30101304102C3074308803856
:1005D000C400C5014408C6000313FA21080003172C
:1005E0004008073A03130319FF2A0B3A0319062B95
:1005F000063A0319122B023A03191A2B212B013048
:100600000317C100C2000313DB22282B0317C50107
:100610000130C6000313FA2102300317C10003138F
:100620005B21282B01300317C1000230C2000313E5
:10063000DB22282B0317C5011030C6000313FA2153
:10064000282B01300317C5004008C6000313FA2108
:1006500008000B080317BD0003138B138316031741
:100660008C170C14000000008312BD1F3A2B0313DB
:100670008B1703170C087F390319772BBD000D0862
:10068000BE000F08BF003D08C0000313EF22031790
:100690003E088D003F088F0003130B080317C000AE
:1006A00003138B13831603178C170C140000000020
:1006B0008312C01F5E2B03138B1703170C0D0E0D37
:1006C0007F390319772BBD000D08BE000F08BF004E
:1006D0003D08C0000313EF2203173E088D003F08BA
:1006E0008F008D0A03198F0A0313292B0317031395
:1006F000080083187E2B5E30840083170317590887
:100700005D068039E300D91F902BD609D709D80997
:10071000D909D60A0319D70A0319D80A0319D90A1D
:10072000DD1F9D2BDA09DB09DC09DD09DA0A031973
:10073000DB0A0319DC0A0319DD0AF701F801F901E4
:10074000FA01DE01DF01E001E1015D085C045B0408
:100750005A040319DB2B2030E2000310D60DD70D0D
:10076000D80DD90DDE0DDF0DE00DE10D5D08610244
:10077000031DC42B5C086002031DC42B5B085F02D1
:10078000031DC42B5A085E02031CD52B5A08DE0237
:100790005B08031C5B0FDF025C08031C5C0FE002BC
:1007A0005D08031C5D0FE1020314F70DF80DF90D50
:1007B000FA0DE20BAD2BE31FE82BF709F809F90955
:1007C000FA09F70A0319F80A0319F90A0319FA0AC8
:1007D0005E088000840A5F088000840A6008800048
:1007E000840A61088000031308000317C901C801C7
:1007F000C7010130C600CB01CC01C21F3F2C013024
:10080000CB004208D1004108D0004008CF003F088B
:10081000CE00FF30D500D400D300D2002030DA0063
:10082000D601D701D801D9015108FA005008F900C2
:100830004F08F8004E08F7000310771C2D2C5208C3
:10084000D60753080318530FD70754080318540F3B
:10085000D80755080318550FD907D90CD80CD70C51
:10086000D60CFA0CF90CF80CF70CDA0B1C2C7A08E5
:10087000C2007908C1007808C0007708BF00C60828
:10088000031D4B2CC708031D4B2CC808031D4B2C04
:10089000C9080319C72C83104208D9004108D800A1
:1008A0004008D7003F08D600DD01DC01DB0143082A
:1008B000DA00031379237A080317C9007908C800FE
:1008C0007808C7007708C6004C084407F8004508B8
:1008D000FA000318FA0A7808CE007A08CF00D1018E
:1008E0000408D0005110831B51148314523084002B
:1008F00083174208D9004108D8004008D7003F08B4
:10090000D600DD01DC01DB014308DA0003137923A3
:10091000031750088400831351188317303052078F
:10092000F7005308F800003003180130F8075408A6
:10093000F900003003180130F9075508FA000030BB
:1009400003180130FA074E08840083134F188317E9
:10095000770880004C0844078400831345188317E8
:100960000008393C0318BD2C4C084407840083134D
:1009700045188317073000078000CC0A4908C200D9
:100980004808C1004708C0004608BF003F2C4B0B79
:10099000D22C4C08440784008313451883172D304C
:1009A0008000CC0ACA0103104C0C4A020318082D1F
:1009B0004A08440784008313451883170008CD00B4
:1009C0004A084407F8004508FA000318FA0A7808AC
:1009D000CE007A08CF004A084C02FF3E440784004C
:1009E0008313451883170008D0004E088400831332
:1009F0004F188317500880004A084C02FF3E4407F6
:100A000084008313451883174D088000CA0AD32C2D
:100A10004C08440784008313451883178001440859
:100A2000F8004508F9000313080080080319312D68
:100A300003179A01040899001A10831B1A1400085E
:100A4000C0000313EF2203171908840083131A1838
:100A50008317840A031D2F2D0313850A031703131D
:100A6000152D080003171508F801140203183B2D73
:100A70001408F700472DF70108309600940DF70D84
:100A8000150877020318F700F80D960B3E2D031397
:100A900008004E1601300317C100C2000313DB2209
:100AA0000A300317C10003135B21AA3003178D001E
:100AB00000308F000313292301300317C1000230D7
:100AC000C2000313DB220A300317C10003135B21AA
:100AD000B23003178D0000308F00031329234E1E00
:100AE000B82D8316061583120619B72DB80A0130E2
:100AF000B8050230031790009630C10003135B2144
:100B00000317900B7C2D0630C1000230C200031386
:100B1000DB220317C201C101C00103133808031708
:100B2000BF000A30C300C5016F30C4000313F523B2
:100B30000A300317C10003135B216F308400831355
:100B4000152538080319A82D013A0319B02DB72D22
:100B5000BA3003178D0000308F0003132923B72DFF
:100B6000C33003178D0000308F00031329236F2D2E
:100B7000CE19432FCE1138080319C22D013A03199B
:100B80007F2E432FCE11CE160317900191019201B3
:100B90006F30840083131108840712080313582050
:100BA000800000380319D92D0317920A910AC82D25
:100BB000031301300317C1000230C2000313DB220C
:100BC0000A300317C10003135B216F3003178D0038
:100BD00000308F0003132923733003178D0000307A
:100BE0008F000313292301300317C100C200031330
:100BF000DB227B3003178D0000308F000313292385
:100C0000CE1E7E2E8316061583120619252E031777
:100C1000900A0330900510079100C1000130C20016
:100C20000313DB22863003178D0000308F0003137F
:100C300029230230031791009630C10003135B2172
:100C40000317910B1C2E7C2E03138316861583121B
:100C500086197D2E42300317100784008313800A03
:100C600042301007F800FA010318FA0A78089100D8
:100C70007A08920042301007840083130008940021
:100C80000A309500031332257708031793001108E3
:100C90008400831312188317130880004230100752
:100CA0008400831300089100C201C101C001110832
:100CB000BF000A30C300C5016F30C4000313F52321
:100CC0000730031710079100C1000230C200031360
:100CD000DB220A300317C10003135B216F3084004D
:100CE000831315250230031791009630C1000313BA
:100CF0005B210317910B752E0313002E432F03174F
:100D00009001910192016F308400831311088407D0
:100D1000120803135820800000380319942E03177B
:100D2000920A910A832E0313CE11CE1601300317B7
:100D3000C1000230C2000313DB220A300317C100D6
:100D400003135B218B3003178D0000308F000313DA
:100D500029238F3003178D0000308F0003132923C0
:100D600001300317C100C2000313DB2297300317C1
:100D70008D0000308F0003132923CE1E432F8316CE
:100D8000061583120619EA2E0317900A100894001C
:100D900006309500031332257708031790000330BF
:100DA00010079100C1000130C2000313DB22A33001
:100DB00003178D0000308F0003132923023003171F
:100DC00091009630C10003135B210317910BE12EB4
:100DD000412F03138316861583128619422F3C3048
:100DE0000317100784008313800A3C301007F800B3
:100DF000FA010318FA0A780891007A0892003C3048
:100E0000100784008313000894000A309500031330
:100E100032257708031793001108840083131218F2
:100E20008317130880003C301007840083130008E8
:100E30009100C201C101C0011108BF000A30C30006
:100E4000C5016F30C4000313F523073003171007E3
:100E50009100C1000230C2000313DB220A300317E5
:100E6000C10003135B216F3084008313152502300A
:100E7000031791009630C10003135B210317910BF8
:100E80003A2F0313BD2E8A110A16842A03173F082E
:100E9000C3003E08C2004308FA00420884008313DE
:100EA0007A18831780080319592FC20A0319C30A35
:100EB0004B2F4108FA004008840083137A188317E7
:100EC00080080319782F4008840083134118831782
:100ED0000008C6004208840083134318831746089D
:100EE0008000C20A0319C30AC00A0319C10A592F94
:100EF0004208840083134318831780013E08F800DA
:100F00003F08F9000313080080080319A12F0317F5
:100F1000C0010408BF004010831B401400080313E5
:100F20000C1E902F990003173F088400831340186C
:100F30008317840A031D9F2F0313850A03170313C6
:100F4000842F0800F701F80103171F080310201869
:100F5000F707F70CF80CA018F707F70CF80C201996
:100F6000F707F70CF80CA019F707F70CF80C201A84
:100F7000F707F70CF80CA01AF707F70CF80C201B72
:100F8000F707F70CF80CA01BF707F70CF80C031386
:100F90000800031719080739F700190CF800F80CB6
:100FA000F80C1F30F80578081B07840083131C1801
:100FB0008317F801F80AF70ADE2FF80DF70BDD2F7B
:100FC0009A080319E62F78088004E92FF8097808B1
:060FD00080050313080078
:101000004E12CE122A3003179C009D014C309E00D8
:1010100045309F004E30A0004730A1004830A2006C
:101020005430A300A4014330A5004630A600A70118
:101030004930A8004430A9005F30AA004730AB0017
:101040005730AC003130AD003230AE003330AF003D
:101050003430B000B1014930B2004430B3005F30E9
:10106000B4004E30B5004F30B6004430B7004530C4
:10107000B800B9012330BA00BB01013091001C3027
:101080009000013093001E30920001309500253011
:1010900094000130970028309600013099003230DA
:1010A000980001309B003A309A00FA015630BE0099
:1010B0007A08BF003E08840083133F18831780011D
:1010C000BD013D08053C031C8E283C303D078400D3
:1010D00083130008BE00C201C101C0013E08BF0069
:1010E0000A30C300C5016F30C4008A110313F52311
:1010F0008A1501300317C1008A1103135B218A1579
:101100000317BF015630BE00C1016F30C0008A1105
:10111000031346278A150317BD0A61289701563025
:101120009600FA014F30BE007A08BF003E088400E6
:1011300083133F1883178001BD013D08033C031C46
:10114000CA2842303D07840083130008BE00C20154
:10115000C101C0013E08BF000A30C300C5016F30A5
:10116000C4008A110313F5238A1501300317C10047
:101170008A1103135B218A150317BF014F30BE008C
:10118000C1016F30C0008A11031346278A15031767
:10119000BD0A9D2899014F30980014300313C600F2
:1011A0000317C201C101C001031346080317BF00A2
:1011B0000A30C300C5016F30C4008A110313F52340
:1011C0008A15031793016F309200BC013C08053C5F
:1011D000031C042903103C0D103E84008317840A6D
:1011E0000008BE0084030008BD00840083133E187D
:1011F00083178A11031384278A1540300C1EFE289A
:1012000099000317BC0AE6280130C100C2008A1108
:101210000313DB228A150A300317C1008A11031356
:101220005B218A15CB3003178D0000308F008A11A7
:10123000031329238A1501300317C1000230C200AD
:101240008A110313DB228A150A300317C1008A11A1
:1012500003135B218A15D63003178D0000308F00F1
:101260008A11031329238A15CE118A110A168B2A93
:10127000031718081904031941291908FA00180856
:10128000462903132C08FA002B0803179C007A0840
:101290009D001D08A1001C08A0001B08A3001A083F
:1012A000A2002108A5002008A4002508FA002408AF
:1012B000840083137A18831780080319962923085A
:1012C000A7002208A6002708FA0026088400831336
:1012D0007A1883178008031D7A2920082402F70052
:1012E0002508FA002108031C210FFA027708F800EC
:1012F000A1298E292508FA002408840083137A186E
:1013000083170008A8002708FA0026088400831322
:101310007A1883170008280203199229A60A0319CC
:10132000A70A6329A40A0319A50A5529200824023B
:10133000F7002508FA002108031C210FFA0277089C
:10134000F80078089C0703189D0A1D08FA001C087D
:10135000840083137A1883178008031DBC290313A4
:101360002B08840083132C18831720308000003052
:10137000F800F900282A03171D08A1001C08A00086
:101380001B08A3001A08A2002108A5002008A40039
:101390002508FA002408840083137A18831780082C
:1013A0000319012A2308A7002208A6002708FA002B
:1013B0002608840083137A18831780080319FD29EF
:1013C0002508FA002408840083137A18831700087C
:1013D000A8002708FA002608840083137A188317C8
:1013E00000082802031DF9292408F8002508F9003F
:1013F000042AA60A0319A70AD629A40A0319A50ACA
:10140000C8290030F800F90079089F0078089E008C
:101410001F08FA001E08840083137A1883178008B7
:1014200003191B2A1E08840083131F1883178001C9
:101430009E0A03199F0A1F080313AC0003171E0816
:101440000313AB0003171C08F8001D08F900031371
:10145000080003179D019B010A309C009A0118089F
:101460001904031D362A0030F8000A2B1D089D0AB6
:101470001807840083131918831700089E001E089C
:101480002D3C031D4F2A01309B001D089D0A1807A3
:10149000840083131918831700089E005C2A1E0815
:1014A0002B3C031D5C2A1D089D0A1807840083132A
:1014B0001918831700089E001E082F3C0318002BE4
:1014C0001E08393C031C002B1E08303C031D882AD3
:1014D0001D08180784008313191883170008783C27
:1014E00003197C2A1D081807840083131918831711
:1014F0000008583C031D882A10309C009D0A1D08D6
:101500009D0A1807840083131918831700089E008A
:101510001C080A3C031DAE2A1E082F3C0318AD2AE6
:101520001E08393C031CAD2A0A309F001A08A0008F
:101530008A110313A2278A15780803179F003030F9
:101540001E021F079A001D089D0A180784008313B6
:101550001918831700089E008C2A002B1C08103CC9
:10156000031D002B1E08603C0318BD2A1E087A3C90
:10157000031CBD2A1E08DF39BE2A1E089E001E0855
:101580002F3C0318C72A1E08393C0318CF2A1E080F
:10159000403C0318002B1E08463C031C002B1E0871
:1015A0002F3C0318E02A1E08393C031CE02A1A0EBF
:1015B0009F00F0309F0530301E021F079A00E92A75
:1015C0001A0E9F00F0309F0541301E020A3E1F0791
:1015D0009A001D089D0A18078400831319188317A1
:1015E00000089E001E08603C0318FD2A1E087A3C75
:1015F000031CFD2A1E08DF39FE2A1E089E00BF2A92
:101600001B0B082B1C080A3C031D082B9A099A0A7D
:101610001A08F8000313080003171708FA00160841
:10162000840083137A18831700089A001908FA00B7
:101630001808840083137A18831700081A02031D00
:10164000382B1708FA001608840083137A188317BA
:101650008008031D2E2B0030F800502B1708FA00CD
:101660001608960A0319970A980A0319990A0D2B66
:101670001708FA0016088400831317188317000848
:101680009A001908FA0018088400831319188317A0
:1016900000081A0203184E2BFF304F2B0130F800C0
:1016A0000313080003171C080739F7001C0CF80087
:1016B000F80CF80C1F30F80578081D078400831318
:1016C0001E1883170008F800F70A672BF80CF70BB1
:1016D000662B031308000317990101309A009B0140
:1016E0001B08073C031C8F2B1B089C009E014D30E0
:1016F0009D000313522300307818013003179C001B
:101700001A089F001C08A0008A110313A2278A153B
:1017100078080317990703109A0D9B0A702B190874
:10172000F80078080313BB003B08031799009A01DF
:101730001A08073C031CB22B991BA22B0313881019
:10174000A42B031703138814831688100810831220
:101750000810831608108312081403100317990D3C
:101760009A0A982B83160313081183120811831603
:1017700008118312081501300317C1000230C2009E
:101780008A110313DB228A150A300317C1008A115C
:1017900003135B218A15EF3003178D0000308F0093
:1017A0008A11031329238A15031798011808073C87
:1017B000031C132C99019A016F30840083131908BC
:1017C00084071A088A11031358208A1580000038EC
:1017D0000319EF2B03179A0A990ADC2B031303173B
:1017E00018089C009E014D309D00031352230030C9
:1017F0007818013003179900C201C101C00119080E
:10180000BF000A30C300C5016F30C4008A11031342
:10181000F5238A156F30840083138A1115258A15E4
:101820000317980AD62B031308002A3003179000D9
:10183000FA015F30840083137A1883178001FA015C
:101840006630840083137A1883178001960197010C
:10185000D230840083131608840717088A110313F3
:101860006A208A158000003803193B2C0317970A59
:10187000960A282C031303179701A030960010082E
:1018800098001708FA001608840083137A18831743
:101890001808000203195E2C1708FA0016088400C5
:1018A00083137A1883178008031D5A2C0030F80020
:1018B000F900622C960A0319970A412C1608F800C1
:1018C0001708F9007908920078089100120897002B
:1018D0001108960017089900160898001908FA00D0
:1018E0001808840083137A188317800803197C2C46
:1018F000980A0319990A6E2C16081802F70019089D
:10190000FA001708031C170FFA027708F800780886
:1019100093000313BA010317960197016F308400F7
:1019200083131608840717088A11031364208A1585
:10193000800000380319A12C0317970A960A8E2CF1
:10194000031303179901A03098009B016F309A0090
:101950000313382179080317950078089400940838
:10196000031DB52C95080319082D03133A08FA3EF8
:101970000318F72C063E412EF72C0317BF016630E3
:10198000BE001508C1001408C0008A1103134627C1
:101990008A15F72C0317BF015F30BE001508C10080
:1019A0001408C0008A11031346278A15F72C031761
:1019B0001508990014089800031329227808C70015
:1019C000F72C03171508990014089800031329220F
:1019D0007808C800F72C0317BF01D230BE001508E5
:1019E000C1001408C0008A11031346278A15031783
:1019F000990198019B016F309A00031338217908EF
:101A000003179500780894000313BA0A0317AF2C44
:101A100097016630960099015630980003130C2305
:101A20007808CC00031797015F30960099014F307A
:101A3000980003130C237808CB00CC08031D372E25
:101A4000CB08031D372E48080317130203192A2D4C
:101A50000313372E031347080319352D013A0319D1
:101A6000362D033A0319112E362E362EBA010130C7
:101A70000317C100C2008A110313DB228A150A3042
:101A80000317C1008A1103135B218A1503179801FC
:101A900099016F30840083131808840719088A118C
:101AA00003135E208A158000003803195C2D03178C
:101AB000990A980A492D031303179901D230980007
:101AC0009B016F309A0003133821790803179700A0
:101AD000780896009608031D702D97080319B92DF4
:101AE00003133A0803197B2D013A0319952D033A84
:101AF00003199F2DA82D01300317C1008A1103136C
:101B00005B218A150317160884008313171883179F
:101B10008A11031315258A15E13003178D00003053
:101B20008F008A11031329238A15031717089900B8
:101B300016089800031329227808C900A82D031756
:101B40001708990016089800031329227808CA007C
:101B50000317990198019B016F309A0003133821F4
:101B6000790803179700780896000313BA0A031739
:101B70006A2D0130C1008A1103135B218A150130DF
:101B80000317C1000230C2008A110313DB228A1539
:101B90000A300317C1008A1103135B218A15E8304C
:101BA00003178D0000308F008A11031329238A1533
:101BB0000317C201C101C001031349080317BF0085
:101BC0000A30C300C5016F30C4008A110313F52326
:101BD0008A156F30840083138A1115258A15EB301E
:101BE00003178D0000308F008A11031329238A15F3
:101BF0000317C201C101C00103134A080317BF0044
:101C00000A30C300C5016F30C4008A110313F523E5
:101C10008A156F30840083138A1115258A154E1793
:101C2000362E031796019901D2309800031329220A
:101C300078080317960097011708073C031C342EF9
:101C400000301618013098001708990018089A00FB
:101C50009C014D309B008A110313C9278A1503107C
:101C60000317960C970A1C2E03136B233E2E0A3083
:101C70000317C1008A1103135B218A158A110A1602
:101C8000962A0A108A140A158207BC2CBD2CCA2C6D
:101C9000D72CE12CEB2C0317900190011008033C8A
:101CA000031C8A2E343010079100990001309A00ED
:101CB0009C0180309B008A110313C9278A150317E2
:101CC00011089C009E019D01031352237818872E52
:101CD000C8300317C1008A1103135B218A1503174B
:101CE00010089C009E014D309D00031352230030CC
:101CF000781C0130031791001008990011089A0010
:101D00009C014D309B008A110313C9278A150317C4
:101D1000900A4E2E90011008033C031CCB2E443039
:101D200010079100990001309A009C0180309B00BF
:101D30008A110313C9278A15031711089C009E01F5
:101D40009D01031352237818C82EC8300317C10011
:101D50008A1103135B218A150430031710079100C1
:101D6000043010079C009E014D309D000313522348
:101D70000030781C013003179200110899001208F6
:101D80009A009C014D309B008A110313C9278A15C4
:101D90000317900A8B2E03138A110A169F2A0B0829
:101DA0000317BB0003138B13831603178C170C1434
:101DB000000000008312BB1FE02E03138B170317D4
:101DC0000C087F3903191F2FBB000D08BC000F083A
:101DD000BD003B0803130C1EEB2E990003173C08B3
:101DE0008D003D088F0003130B080317BE0003137B
:101DF0008B13831603178C170C140000000083123A
:101E0000BE1F052F03138B1703170C0D0E0D7F3903
:101E100003191F2FBB000D08BC000F08BD003B08B5
:101E200003130C1E112F990003173C088D003D0869
:101E30008F008D0A03198F0A0313CF2E0317031384
:101E4000080031123108831687001030831287068C
:101E5000493003179E0044309F004730A0005730A0
:101E6000A1003130A2003230A300A4014E30A50001
:101E70004F30A6004430A7004530A800A9015A30D1
:101E8000AA00AB00AC014130AD00AE00AF0156304E
:101E9000B000B100B2014330B300B400B50153301B
:101EA000B600B700B801013091001E30900001303B
:101EB000930025309200013095002A3094000130C3
:101EC00097002D3096000130990030309800013095
:101ED0009B0033309A0001309D0036309C00910108
:101EE0005630900093014F3092001430B900BA017F
:101EF00003134A0803173A020318A72F34303A078E
:101F0000840083130008BB0002303A07F700031077
:101F1000F70D7708103E84008317840A0008BD007F
:101F200084030008BC00C201C101C0013B08BF001E
:101F30000A30C3003D08C5003C08C4008A110313E1
:101F4000F5238A1503300317B907BA0A782FC2019F
:101F5000C101C0013908BF000A30C300C5017B3090
:101F6000C4008A110313F5238A15553003178D0019
:101F700001308F000313CF267B30840083138A1136
:101F800084278A15583003178D0001308F00031302
:101F9000CF260317BA01023003134A0703173A0288
:101FA0000318EC2F03103A0D103E84008317840AA7
:101FB0000008BC0084030008BB00840083133C18A5
:101FC00083178A11031384278A1540300C1EE62FCD
:101FD00099000317BA0ACB2F233003130C1EEE2FE0
:101FE000990031123108831687001030831287065A
:061FF0008A110A16B62A50
:102000000317900103134A08031710020318A529A8
:1020100034301007910092010318920A10089300BF
:10202000013094000230950004309600083097008B
:10203000103098002030990040309A001430130777
:102040008400831700089C009D009E019F01A00151
:10205000893084008317C03080051F0880049F30BA
:1020600084008313CF3080051E08800488308400EC
:1020700083171D0880000330C1000A1203135B217F
:102080000A160317130DF700F70DFC30F7050313BD
:102090001F08C33977049F0003300317C1000A12D9
:1020A00003135B210A16B301B20103179B011B083E
:1020B000633C031C712803139F149F185D2883162B
:1020C0001E088312B2071E0803181E0FB307013043
:1020D0000317C1000A1203135B210A1603179B0A98
:1020E00057280313330803179D00031332080317FF
:1020F0009C008E30F7001D08F8001C08F900FA015A
:10210000F808031D8D287908F800F9010830F70256
:10211000F808031D8D28F70195280310F81B942853
:10212000F90DF80DF7038D28F8137A089F00790848
:102130009E0078089D0077089C009A30A300993093
:10214000A2004C30A1008630A0001C0803196A29A7
:10215000A800200803196A29A802031CB4287F30AC
:10216000A80703186A29BA288130A802031C6A2923
:1021700003196A292808F700F801F901FA01A701F3
:102180001D08A600A6171E08A5001F08A4001930E8
:10219000A8002308A4020318DD280130A5020318B3
:1021A000DD28A6020318DD28A7020318DD28A70AE8
:1021B000A60AA50A2308A4070F292208A5020318C6
:1021C000F8280130A6020318F828A7020318F828F7
:1021D000A70AA60A2208A5072308A407031C0F299B
:1021E000A50A031D0F29A60A031D0F29A70A0F29F7
:1021F00021088038A60203180E290130A70203180F
:102200000E29A70A21088038A6072208A507031C63
:10221000EC28A60A031DEC28A70AEC287A14A80BC0
:1022200012291D290310A40DA50DA60DA70D03103D
:10223000FA0DF90DF80DA90DC928291C252903103F
:10224000F80CF90CFA0CA90C2829F70303196A29D0
:10225000A91B51290310A40DA50DA60DA70D230838
:10226000A40203183D290130A50203183D29A60246
:1022700003183D29A702031C60292208A5020318A0
:1022800048290130A60203184829A702031C602927
:1022900021088038A602031851290130A702031C27
:1022A0006029FA0A031D6029F90A031D6029F80A4A
:1022B000031D6029F70A03196A29F80CF90CFA0CB6
:1022C0001D08A8002108A806A81F6829F8176E296C
:1022D000F8136E29F701F801F901FA017A089F0055
:1022E00079089E0078089D0077089C008E30F700E2
:1022F0001C08F7021D08F9001E08F800F917F70876
:1023000003198D290310F908031D8929F8080319F9
:102310008D29F90CF80CF70B82299D1F9429F809D7
:10232000F909F80A0319F90A79080313B3007808C0
:10233000B2003208F8000317110884008313121842
:10234000831778088000900A022803138A110A165E
:10235000AF2A03081F398300831603178715083037
:102360000313990002309A00A6309800903083122F
:102370009800FF30B100B801B901BA01BB01C60134
:10238000C701C801C9010330CA00CB01CC014E10FE
:10239000CE104E11CE114E12CE124E13CE13831606
:1023A00003170908C039890003131F129F12003058
:1023B000031788008312870188018901831303139F
:1023C000AB01AC01B401B501B601B7010330BC00EB
:1023D0000830BD000630BE000930BF00C001073024
:1023E000C1000130C2000830C3000130C400C50183
:1023F000CD013030D1003530D2003830D300393003
:10240000D400D501D0015130CF003130D800323066
:10241000D9003730DA003130DB003030DC003230C8
:10242000DD00DE01D7015830D6003030E100E20097
:10243000E300E400E501E0016130DF003030E80056
:10244000E900EA00EB00EC00ED00EE01E701683086
:10245000E60048308316A0004930A1004830A200B1
:102460004930A300A4014830D2004930D30048309D
:10247000D4004930D500D6013030F100F200F3002D
:10248000F400F501F00171308312EF003230831651
:10249000EB003730EC003030ED00EE00EF01FC01D6
:1024A000EB30FB00F0308800FF3086000910891007
:1024B00009118911803087008312B1001F179F1303
:1024C00083169F1783121F148B160B160B16831679
:1024D00001138C16C03083128B04353090008E01AE
:1024E0000B308F00DC308E000C100A12752A0A1691
:1024F000CE10CE114E1583168811831288154E10FA
:10250000CE1C862A0A12492D0A16C62ACE1D8E2AEC
:102510000A128A1500280A168A11C62ACE18C62A57
:102520004E1C982A4E100A128A15152C0A168A116A
:102530004E1FC52ACE1FA72A0A128A154B2E0A162D
:102540008A11CE130A128A156B230A168A11643077
:102550000317C1000A1203135B210A16002834086E
:102560001C3C0318C52A0A128A15212F0A168A1143
:10257000083003179000FA30C1000A1203135B21E0
:102580000A160317900BBB2A03138E2A802A6300B6
:04400E00E22FFF3F5F
:00000001FF
;PIC16F887
;CRC=A196  CREATED="08-Nov-21 23:59"
