:100000000B308A00542B0000FF00030E8301A10077
:100010000A08A0008A010408A2007708A300780853
:10002000A4007908A5007A08A60003170D08031399
:10003000A70003170F080313A80003170C080313E6
:10004000A90003170E080313AA00831383120B1EC3
:100050002B288B1852288C308400801E31288C1A53
:100060005528220884002308F7002408F8002508F2
:10007000F9002608FA00270803178D000313280843
:1000800003178F000313290803178C0003132A0892
:1000900003178E00031320088A00210E8300FF0E31
:1000A0007F0E09008A110A12C9288A110A12FA2839
:1000B0000A108A100A118207303400340A108A109C
:1000C0000A1182075F340034CE27C4223A100000A0
:1000D0003018301800012010201020105F10201060
:1000E00020102010201020102010200020102010A0
:1000F0005F10201020004922DF23571D0001301817
:100100003018301800012010201020105F1020102F
:10011000201020102010201020102010200020106F
:1001200020105F1020102000C3274E23C9233A104F
:100130002010201020102000C320D3223A102010BD
:100140002010201020102000A016A024C416CE27B6
:10015000C4222010201020100001A016A024C416D4
:10016000C72B2010201020102000C3274E23C923A6
:1001700020224F2745102010201020102000C327D8
:100180004E23C92320224F27451020102010201075
:1001900020000317A6018316031386148312861802
:1001A000E4280C1CE1288316081104308312880609
:1001B0000C108E010B308F00DC308E000317A60A66
:1001C00003130317CB28031303172608143C031843
:1001D000F22802300313C9060430C906C9154912B2
:1001E000F62803170313C9114912C9128B108A117B
:1001F0000A1231285A303907840083138C1EFE28D6
:100200001A0880005A3039078400831300082E3CF6
:10021000031D12295A303907840083138001B90164
:1002200049141329B90A8C128A110A123128D930BB
:1002300084008313000803192A290630F800F70107
:10024000F70B2029F80B1F297B30F700F70B262925
:10025000800B1D29080083166018322983120710AD
:10026000342983168312071431103108831687004E
:10027000E0183E29831287104029831683128714C1
:10028000B11031088316870060194A2983120711BB
:100290004C29831683120715311131088316870004
:1002A000E01956298312871158298316831287155E
:1002B000B1113108831687000000831209148316D8
:1002C00009100230F700F70B63296629000083123A
:1002D000091083160910831208008316E1018312A6
:1002E000311431088316870000308312071801305B
:1002F0008316E1048312B11431088316870000309D
:10030000831287180130F7000310F70D7708831662
:10031000E1048312311531088316870000308312FF
:1003200007190130F700F70DF70DFC30F7057708D6
:100330008316E1048312B11531088316870000305B
:10034000831287190130F700F70DF70DF70DF8301C
:10035000F70577088316E1046108F80083120800A6
:1003600083160910891009118312891083168910C8
:1003700007148714071587158312091583160911A9
:1003800000008312091483160910000083126D21E6
:1003900078088316E0008312091083160910000004
:1003A0008312091483160910D529D6290000831257
:1003B0006D2178088316DF00831209108316091057
:1003C000831231103108831687008312B11031086F
:1003D0008316870083123111310883168700831238
:1003E000B111310883168700600EF700F030F70571
:1003F00077085F04F8007808DF00DF1BB829DD0804
:10040000031D062A83128910082A83168312891471
:100410008316891000008312091183160911000048
:1004200083120910831609105E0EDF000F30DF05FE
:100430005F08E00083122B2183165E080F39DF006E
:10044000E00083122B21080028308316D5000C30E1
:10045000D6000130D7000630D80083120910831669
:1004600009108312891083168910831209118316CB
:100470000911831231103108831687008312B110DD
:1004800031088316870083123111310883168700E3
:100490008312B111310883168700091089100911E0
:1004A0000F30D9008312172101308316D40054086D
:1004B000033C031C672A0330E00083122B21053024
:1004C0008316D900831217218316D40A572A0230C3
:1004D000E00083122B2105308316D90083121721E7
:1004E0008316D4015408033C031C842AD5305407D6
:1004F000840083130008D900DD015908DE0083124F
:10050000B0218316D40A722A83128A150A12432C48
:1005100083165A0B8C2A8F2A4030DB00902ADB018D
:1005200001305902DB075B088038DC00DD015C0824
:10053000DE008312B021080083165808073A8312A0
:100540000319AC2A0B3A0319B32A063A0319BF2A36
:10055000023A0319C72ACE2A01308316D900DA00DD
:1005600083128822D52A8316DD010130DE00831232
:10057000B02102308316D90083121721D52A013009
:100580008316D9000230DA0083128822D52A831616
:10059000DD011030DE008312B021D52A0130831630
:1005A000DD005808DE008312B02108000B08831616
:1005B000D50083128B13831603178C170C140000BD
:1005C00000000313D51FE72A83128B1783168312AB
:1005D00003170C087F390319482B83160313D50022
:1005E000831203170D0883160313D6008312031713
:1005F0000F0883160313D7005508D80083129C22D6
:1006000083165608831203178D00831603135708A9
:10061000831203178F0003130B088316D80083126D
:100620008B13831603178C170C14000000000313A0
:10063000D81F1D2B83128B178316831203170C0DE3
:100640000E0D7F390319482B83160313D50083122F
:1006500003170D0883160313D600831203170F0820
:1006600083160313D7005508D80083129C228316E3
:100670005608831203178D0083160313570883123D
:1006800003178F008D0A03198F0A0313D62A031745
:100690000313080083184F2B20308400831703179F
:1006A0001B081F068039A5009B1F612B980999091B
:1006B0009A099B09980A0319990A03199A0A0319B6
:1006C0009B0A9F1F6E2B9C099D099E099F099C0AEE
:1006D00003199D0A03199E0A03199F0AF701F801DD
:1006E000F901FA01A001A101A201A3011F081E0442
:1006F0001D041C040319AC2B2030A4000310980D1A
:10070000990D9A0D9B0DA00DA10DA20DA30D1F0813
:100710002302031D952B1E082202031D952B1D0885
:100720002102031D952B1C082002031CA62B1C086C
:10073000A0021D08031C1D0FA1021E08031C1E0F92
:10074000A2021F08031C1F0FA3020314F70DF80DCC
:10075000F90DFA0DA40B7E2BA51FB92BF709F8098B
:10076000F909FA09F70A0319F80A0319F90A03192A
:10077000FA0A20088000840A21088000840A2208DE
:100780008000840A23088000031308008316E10117
:10079000E001DF010130DE00E301E401DA1F202C7B
:1007A0000130E3005A0883120317930083160313E2
:1007B00059088312031792008316031358088312F3
:1007C0000317910083160313570883120317900031
:1007D000FF30970096009500940020309C0098010F
:1007E00099019A019B011308FA001208F9001108F7
:1007F000F8001008F7000310771C0C2C1408980759
:1008000015080318150F990716080318160F9A07ED
:1008100017080318170F9B079B0C9A0C990C980C40
:10082000FA0CF90CF80CF70C9C0BFB2B7A088316CE
:100830000313DA007908D9007808D8007708D700C0
:10084000DE08031D2C2CDF08031D2C2CE008031DE3
:100850002C2CE1080319D22C83105A088312031799
:100860009B00831603135908831203179A008316FB
:1008700003135808831203179900831603135708AC
:100880008312031798009F019E019D018316031395
:100890005B08831203179C0003134A237A0883160C
:1008A000E1007908E0007808DF007708DE006408DE
:1008B0005C07F8005D08FA000318FA0A780883124A
:1008C000031790007A089100930104089200131016
:1008D000831B1314831414308400831783160313AB
:1008E0005A08831203179B008316031359088312B7
:1008F00003179A00831603135808831203179900ED
:100900008316031357088312031798009F019E0153
:100910009D01831603135B08831203179C000313C6
:100920004A230317120884008313131883173030E7
:100930001407F7001508F800003003180130F80715
:100940001608F900003003180130F9071708FA00FB
:10095000003003180130FA071008840083131118BF
:100960008317770880008316031364085C078400EC
:1009700083135D1883170008393C0318C82C6408DA
:100980005C07840083135D1883170730000780001D
:10099000E40A6108DA006008D9005F08D8005E0840
:1009A000D700202C630BDD2C64085C0784008313C4
:1009B0005D1883172D308000E40AE2010310640CF7
:1009C000620203181B2D62085C07840083135D1804
:1009D00083170008E50062085C07F8005D08FA006C
:1009E0000318FA0A78088312031790007A08910016
:1009F0008316031362086402FF3E5C0784008313BE
:100A00005D188317000883120317920010088400F2
:100A100083131118831712088000831603136208CA
:100A20006402FF3E5C07840083135D18831765082A
:100A30008000E20ADE2C64085C07840083135D18E2
:100A4000831780015C08F8005D08F9008312080034
:100A500080080319442D8316D6010408D5005610CA
:100A6000831B56140008D80083129C228316550855
:100A70008400831356188317840A031D422D8312A2
:100A8000850A83168312282D080083165908F80159
:100A9000580203184E2D5808F7005A2DF701083058
:100AA000DA00D80DF70D590877020318F700F80D92
:100AB000DA0B512D83120800491601308316D90034
:100AC000DA00831288220A308316D9008312172194
:100AD000943003178D0000308F000313D6220130AD
:100AE0008316D9000230DA00831288220A30831676
:100AF000D900831217219C3003178D0000308F001E
:100B00000313D622491ECB2D831606158312061910
:100B1000CA2DB80A0130B80502308316D4009630C9
:100B2000D900831217218316D40B8F2D0630D900DC
:100B30000230DA00831288228316DA01D901D80143
:100B4000831238088316D7000A30DB00DD016E30CF
:100B5000DC008312C6230A308316D90083121721C2
:100B60006E3084008313282538080319BB2D013A01
:100B70000319C32DCA2DA43003178D0000308F0038
:100B80000313D622CA2DAD3003178D0000308F001D
:100B90000313D622822DC919562FC91138080319FB
:100BA000D52D013A0319922E562FC911C916831655
:100BB000D401D501D6016E30840083135508840713
:100BC000560883125820800000380319EC2D831634
:100BD000D60AD50ADB2D831201308316D9000230E4
:100BE000DA00831288220A308316D9008312172173
:100BF000643003178D0000308F000313D622683055
:100C000003178D0000308F000313D62201308316A6
:100C1000D900DA00831288226B3003178D00003070
:100C20008F000313D622C91E912E83160615831238
:100C30000619382E8316D40A0330D4055407D5007C
:100C4000D9000130DA0083128822763003178D0034
:100C500000308F000313D62202308316D500963061
:100C6000D900831217218316D50B2F2E8F2E8312B6
:100C70008316861583128619902E443083165407E6
:100C800084008313800A44305407F800FA010318E3
:100C9000FA0A7808D5007A08D60044305407840050
:100CA00083130008D8000A30D9008312452577083D
:100CB0008316D700550884008313561883175708E6
:100CC000800044305407840083130008D500DA0103
:100CD000D901D8015508D7000A30DB00DD016E309C
:100CE000DC008312C623073083165407D500D900D1
:100CF0000230DA00831288220A308316D900831268
:100D000017216E3084008313282502308316D50006
:100D10009630D900831217218316D50B882E8312A3
:100D2000132E562F8316D401D501D6016E308400C0
:100D30008313550884075608831258208000003812
:100D40000319A72E8316D60AD50A962E8312C91127
:100D5000C91601308316D9000230DA0083128822C6
:100D60000A308316D900831217217B3003178D00B8
:100D700000308F000313D6227F3003178D00003020
:100D80008F000313D62201308316D900DA008312B4
:100D90008822833003178D0000308F000313D62282
:100DA000C91E562F8316061583120619FD2E8316AB
:100DB000D40A5408D8000630D90083124525770894
:100DC0008316D40003305407D500D9000130DA006F
:100DD000831288228F3003178D0000308F00031399
:100DE000D62202308316D5009630D90083121721FF
:100DF0008316D50BF42E542F831283168615831277
:100E00008619552F3E308316540784008313800AB9
:100E10003E305407F800FA010318FA0A7808D500A2
:100E20007A08D6003E305407840083130008D800A7
:100E30000A30D9008312452577088316D700550854
:100E40008400831356188317570880003E305407D8
:100E5000840083130008D500DA01D901D8015508B0
:100E6000D7000A30DB00DD016E30DC008312C623C0
:100E7000073083165407D500D9000230DA008312F8
:100E800088220A308316D900831217216E3084001D
:100E90008313282502308316D5009630D90083129B
:100EA00017218316D50B4D2F8312D02E8A150A12C7
:100EB000502C83165708DB005608DA005B08FA004E
:100EC0005A08840083137A188317800803196C2F3B
:100ED000DA0A0319DB0A5E2F5908FA005808840061
:100EE00083137A188317800803198B2F58088400FE
:100EF0008313591883170008DE005A0884008313EF
:100F00005B1883175E088000DA0A0319DB0AD80A27
:100F10000319D90A6C2F5A08840083135B188317AE
:100F200080015608F8005708F9008312080083165C
:100F3000D40154081E3C031CA92F881002308312D0
:100F4000880664308316D900831217218316D40AC9
:100F5000992F83128A150A125A2C01308316D90050
:100F6000DA00831288220A308316D90083121721EF
:100F70005A3084008313282501308316D900831248
:100F800017218A150A12752C831654080739F700A1
:100F9000540CF800F80CF80C1F30F80578085607C8
:100FA0008400831357188317F801F80AF70AD92F1A
:100FB000F80DF70BD82FD5080319E12F7808800416
:0C0FC000E42FF80978088005831208006F
:101000004912C912FA0151308316D6007A08D70066
:10101000560884008313571883178001D50155089B
:10102000053C031C3C283E30550784008313000810
:10103000D600DA01D901D8015608D7000A30DB0002
:10104000DD016E30DC008A118312C6238A1501305F
:101050008316D9008A11831217218A158316D701A6
:101060005130D600D9016E30D8008A118312592729
:101070008A158316D50A0F28A7015130A600FA0158
:101080007330D6007A08D7005608840083135718A7
:1010900083178001FA014A30D6007A08D700560833
:1010A00084008313571883178001D5015508033C2A
:1010B000031C832844305507840083130008D6009E
:1010C000DA01D901D8015608D7000A30DB00DD016A
:1010D0006E30DC008A118312C6238A150130831614
:1010E000D9008A11831217218A158316D70173300C
:1010F000D600D9016E30D8008A11831259278A157B
:101100008316D50A5628D9017330D800D7014A3042
:10111000D600580884008313591883170008DA0092
:10112000560884008313571883175A0880008008D4
:1011300003199D28D60AD80A8928A9014A30A8008F
:101140008312C8015F308316A200A300D4015408A3
:10115000053C031CDD280310540DA03E84008313BE
:10116000840A0008D60084030008D5005608D80079
:101170005508D7005808DA005708D9005A08FA006D
:101180005908840083137A18831780080319CC2820
:10119000D90A0319DA0ABE2857085902F7005A0873
:1011A000FA005808031C580FFA027708F80078086C
:1011B0008312C8078316D40AA72805308312C807EC
:1011C0008316DA01D901D801831248088316D700A3
:1011D0000A30DB00DD016E30DC008A118312C62389
:1011E0008A158316A3016E30A200D4015408053C71
:1011F000031C2D290310540DA03E84008313840A80
:101200000008D60084030008D50055088400831325
:1012100056188317800803192529D8010408D70018
:101220005810831B5814000883120C1E15299900AE
:10123000831657088400831358188317840A031DE4
:1012400024298312850A83160A29403083120C1E32
:10125000272999008316D40AF6280130D900DA002C
:101260008A11831288228A150A308316D9008A11BE
:10127000831217218A15B53003178D0000308F00B7
:101280008A110313D6228A1501308316D900023041
:10129000DA008A11831288228A150A308316D9004F
:1012A0008A11831217218A15BF3003178D00003071
:1012B0008F008A110313D6228A15C9118A150A12C2
:1012C000552C83165408550403196A295508FA0049
:1012D00054086F2983122C08FA002B088316D800B3
:1012E0007A08D9005908DD005808DC005708DF00EB
:1012F0005608DE005D08E1005C08E0006108FA00C5
:101300006008840083137A18831780080319BF29A3
:101310005F08E3005E08E2006308FA0062088400E8
:1013200083137A1883178008031DA3295C086002C1
:10133000F7006108FA005D08031C5D0FFA027708E8
:10134000F800CA29B7296108FA00600884008313ED
:101350007A1883170008E4006308FA006208840022
:1013600083137A188317000864020319BB29E20A61
:101370000319E30A8C29E00A0319E10A7E295C08B3
:101380006002F7006108FA005D08031C5D0FFA02B5
:101390007708F8007808D8070318D90A5908FA001E
:1013A0005808840083137A1883178008031DE529E1
:1013B00083122B08840083132C188317203080009D
:1013C0000030F800F900512A83165908DD0058084A
:1013D000DC005708DF005608DE005D08E1005C080D
:1013E000E0006108FA006008840083137A1883170C
:1013F000800803192A2A5F08E3005E08E2006308F8
:10140000FA006208840083137A188317800803198E
:10141000262A6108FA006008840083137A1883176B
:101420000008E4006308FA006208840083137A1855
:10143000831700086402031D222A6008F80061086F
:10144000F9002D2AE20A0319E30AFF29E00A031929
:10145000E10AF1290030F800F9007908DB0078088A
:10146000DA005B08FA005A08840083137A1883179D
:1014700080080319442A5A08840083135B188317D1
:101480008001DA0A0319DB0A5B088312AC008316B9
:101490005A088312AB0083165808F8005908F9005F
:1014A000831208008316D901D7010A30D800D6016B
:1014B00054085504031D5F2A0030F800522B5908C8
:1014C000D90A540784008313551883170008DA00DB
:1014D0005A082D3C031D782A0130D7005908D90A33
:1014E000540784008313551883170008DA00852AEF
:1014F0005A082B3C031D852A5908D90A5407840031
:101500008313551883170008DA005A082F3C031874
:10151000482B5A08393C031C482B5A08303C031D01
:10152000B12A5908540784008313551883170008FB
:10153000783C0319A52A59085407840083135518C9
:1015400083170008583C031DB12A1030D800D90A6F
:101550005908D90A540784008313551883170008C3
:10156000DA0058080A3C031DF62A5A082F3C0318D3
:10157000F52A5A08393C031CF52A0A30DB005608C4
:10158000DC00F701F8015B0803105C18F707F70CA3
:10159000F80CDC18F707F70CF80C5C19F707F70CD8
:1015A000F80CDC19F707F70CF80C5C1AF707F70CC6
:1015B000F80CDC1AF707F70CF80C5C1BF707F70CB4
:1015C000F80CDC1BF707F70CF80C7808DB00303060
:1015D0005A025B07D6005908D90A540784008313BE
:1015E000551883170008DA00B52A482B5808103C14
:1015F000031D482B5A08603C0318052B5A087A3CF7
:10160000031C052B5A08DF39062B5A08DA005A0842
:101610002F3C03180F2B5A08393C0318172B5A0874
:10162000403C0318482B5A08463C031C482B5A08D8
:101630002F3C0318282B5A08393C031C282B560E24
:10164000DB00F030DB0530305A025B07D600312B6F
:10165000560EDB00F030DB0541305A020A3E5B07D4
:10166000D6005908D90A54078400831355188317E4
:101670000008DA005A08603C0318452B5A087A3CE7
:10168000031C452B5A08DF39462B5A08DA00072B72
:10169000570B502B58080A3C031D502BD609D60A6D
:1016A0005608F8008312080003081F3983008316C8
:1016B0000317871508300313990002309A00A630EB
:1016C0009800903083129800FF30B100B801B90142
:1016D000BA01C8014910C9104911C9114912C912EA
:1016E000831603170908C039890003131F129F12BC
:1016F0000030031788008312870188018901831352
:101700000313AB01AC010530BE000730BF0003304E
:10171000C0000530C1000430C2000530C300C40160
:10172000C501C601C7013030CC00CD00CE00CF00CE
:10173000D001CB014C30CA003030D300D400D500EA
:10174000D600D700D800D901D2015330D10048309B
:10175000DA004930DB004830DC004930DD00DE01D2
:101760002A308316AC00AD014C30AE004530AF00DE
:101770004E30B0004730B1004830B2005430B300B2
:10178000B4014330B5005F30B6004630B700B80151
:101790004930B9004430BA005F30BB004730BC006C
:1017A0005730BD003130BE003230BF003330C00092
:1017B0003430C100C2014930C3004430C4005F303E
:1017C000C5004E30C6004F30C7004430C800453019
:1017D000C900CA012330CB00CC01A101AC30A0006C
:1017E000A301AE30A200A501B530A400A701B93015
:1017F000A600A901C330A800AB01CB30AA0030304D
:10180000F000F100F2018312EF017030EE00303091
:101810008316CD00CE00CF00D000D101F401CD3031
:10182000F30000308800FF3086000910891009118C
:101830008911803087008312B1001F179F13831610
:101840009F1783121F14831603170908C0398900D4
:1018500003131F129F120130031788008312031312
:101860008B160B160B16831601138C16C0308312C1
:101870008B04353090008E010B308F00DC308E00F1
:101880000C108A11242A8A15C910C911491583160A
:101890008801831288014910C91C522C8A115C2DC1
:1018A0008A150D2DC91D562C00280D2DC9180D2D7A
:1018B0008A11972F8A15B508031D622C34081A3C2B
:1018C00003186F2C04308316D400FA30D9008A1123
:1018D000831217218A158316D40B652C8312491C99
:1018E0000C2D4910BA018A11AD2F8A158316D40127
:1018F000D5016E30840083135408840755088A117B
:1019000083125E208A158000003803198C2C831600
:10191000D50AD40A792C83128316D5015A30D40003
:10192000D7016E30D6008312612179088316D30067
:101930007808D2000130D9000230DA008A1183120F
:1019400088228A158316D208031DA92CD3080319EF
:10195000E72C83123A08FC3E0318CF2C043E0F2DCF
:10196000CF2C83165308D5005208D400831252227C
:101970007808BB00CF2C83165308D5005208D4003A
:101980008312522240307807BC00CF2C83165308B4
:10199000D5005208D400831252227808BD000130CD
:1019A0008316D9008A11831217218A158316D5014F
:1019B000D401D7016E30D6008312612179088316D5
:1019C000D3007808D2008312BA0AA22C831683129D
:1019D0003B08443C031D0C2D003A031D0C2DBD0893
:1019E000031DF42C0030F52C0130F7003C08831661
:1019F000D4007708D500D701D6018A118312C427F5
:101A00008A153C088316D400D501D7018030D60052
:101A10008A118312C4278A15562C4C2C63000A1491
:0E1A20008A100A158207B02CB12CBB2CC62CE4
:04400E00E22FFF3F5F
:00000001FF
;PIC16F887
;CRC=0B05  CREATED="27-Oct-21 21:08"
