:100000001A308A00DD2A0000FF00030E8301A100E0
:100010000A08A0008A010408A2007708A300780853
:10002000A4007908A5007A08A60003170D08031399
:10003000A70003170F080313A80003170C080313E6
:10004000A90003170E080313AA00831383120B1EC3
:100050002B288B1852288C308400801E31288C1A53
:100060005528220884002308F7002408F8002508F2
:10007000F9002608FA00270803178D000313280843
:1000800003178F000313290803178C0003132A0892
:1000900003178E00031320088A00210E8300FF0E31
:1000A0007F0E09008A110A1203298A110A125329A4
:1000B0000A108A100A118207303400340A108A109C
:1000C0000A1182075F3400340A108A100A1182076D
:1000D0003234323400340A108A100A118207323462
:1000E000333400340A108A100A118207323434344F
:1000F00000340A108A100A1182070034CE27C42265
:100100003A100000201020102010201020100001B4
:100110002010201020105F10201020102010201020
:10012000201020102000201020105F102010200030
:100130004922DF23571D000120102010201020101D
:10014000201000012010201020105F10201020101F
:10015000201020102010201020102000201020102F
:100160005F102010201020102000C3274E23C92329
:100170003A102010201020102000C320D3223A1063
:1001800020102010201020102000A016A024C4163B
:10019000CE27C4222010201020100001A016A02479
:1001A000C416C72B2010201020102000D720492A69
:1001B000492747102E172E1720102010201020102E
:1001C0000001D720492A492747102E172E17201043
:1001D00020102010201000002010201020102010CF
:1001E00020102010000154213A100001201020108E
:1001F00043213A0040224B200000D32B3A1000014B
:10020000C0295320000183160317AA010313861483
:100210008312861824290C1C1F29311231088316D9
:1002200087001030831287060C108E010B308F0070
:10023000DC308E0083160317AA0A83120313831679
:100240000317062983120313831603172A080A3C8F
:1002500003183529023083120313C8060430C80678
:10026000C81548124F29831603172A08013C0318A2
:1002700045292A08093C031C452983120313C81188
:100280004812C8124F298316031783120313C81785
:1002900031123108831687001030831287068B10C5
:1002A0008A110A123128A0303307840083138C1E70
:1002B00057291A088000A0303307840083130008F0
:1002C0002E3C031D6B29A03033078400831380016B
:1002D000B30148146C29B30A8C128A110A1231280E
:1002E000E834E834E837613767004324C127C8277A
:1002F00041274700623084008317000803198D29C5
:100300000630F800F701F70B8329F80B82297B30C0
:10031000F700F70B8929800B80290800031769185B
:100320009529031307109729031703130714311096
:1003300031088316870083120317E918A3290313D2
:100340008710A529031703138714B11031088316EA
:100350008700831203176919B12903130711B32901
:100360000317031307153111310883168700831211
:100370000317E919BF2903138711C12903170313B1
:100380008715B11131088316870000008312091404
:10039000831609100230F700F70BCC29CF29000093
:1003A0008312091083160910831208000317EA014B
:1003B00003133114310883168700003083120718A5
:1003C00001300317EA040313B114310883168700C0
:1003D0000030831287180130F7000310F70D7708FB
:1003E0000317EA0403133115310883168700003020
:1003F000831207190130F700F70DF70DFC30F705F0
:1004000077080317EA040313B11531088316870030
:100410000030831287190130F700F70DF70DF70D43
:10042000F830F70577080317EA046A08F8000313A1
:100430000800831609108910091183128910831688
:100440008910071487140715871583120915831659
:100450000911000083120914831609100000831289
:10046000D62178080317E900031309108316091031
:10047000000083120914831609103E2A3F2A000047
:100480008312D62178080317E80003130910831696
:100490000910831231103108831687008312B110BE
:1004A00031088316870083123111310883168700C3
:1004B0008312B11131088316870083120317690E66
:1004C000F700F030F70577086804F8007808E800CE
:1004D000E81F6D2A83160313212AE608031D742AD8
:1004E00003138910762A03170313891483168910BE
:1004F00000008312091183160911000083120910EC
:100500008316091083120317670EE8000F30E80501
:100510006808E90003138E21031767080F39E80004
:10052000E90003138E21080028300317B2000C30B5
:10053000B3000130B4000630B50003130910831670
:1005400009108312891083168910831209118316EA
:100550000911831231103108831687008312B110FC
:100560003108831687008312311131088316870002
:100570008312B111310883168700091089100911FF
:100580000F3083120317E20003137A21013003179F
:10059000B1003108033C031CD92A0330E9000313DE
:1005A0008E2105300317E20003137A210317B10AE5
:1005B000C92A0230E90003138E2105300317E20037
:1005C00003137A210317B1013108033C031CF62AF7
:1005D00032303107840083170008B600E601360880
:1005E000E700031319220317B10AE42A03138A153B
:1005F0000A16CF2B0317630BFE2A012B4030E400B1
:10060000022BE40101306202E40764088038E5004F
:10061000E6016508E70003131922080003176108C3
:10062000073A031303191E2B0B3A0319252B063A1D
:100630000319312B023A0319392B402B01300317D0
:10064000E200E3000313FA22472B0317E60101300F
:10065000E7000313192202300317E20003137A2183
:10066000472B01300317E2000230E3000313FA22A4
:10067000472B0317E6011030E70003131922472B1D
:1006800001300317E6006108E70003131922080090
:100690000B080317DE0003138B13831603178C1745
:1006A0000C14000000008312DE1F592B03138B175C
:1006B00003170C087F390319962BDE000D08DF00A5
:1006C0000F08E0005E08E10003130E2303175F0824
:1006D0008D0060088F0003130B080317E10003135C
:1006E0008B13831603178C170C1400000000831261
:1006F000E11F7D2B03138B1703170C0D0E0D7F3994
:100700000319962BDE000D08DF000F08E0005E08DD
:10071000E10003130E2303175F088D0060088F00AC
:100720008D0A03198F0A0313482B031703130800BC
:100730000317B1013108033C031CAF2B3C303107D8
:10074000840083130A303107B40034088D00831607
:100750008C130C1483120C088000B10A9A2BB1017F
:100760003108053C031CC52B363031078400831348
:100770000E303107B40034088D0083168C130C142E
:1007800083120C088000B10AB02B03138A150A16D5
:10079000232C8318CE2BA3308400831783160317D2
:1007A0001E0822068039A8009E1FE12B9B099C0988
:1007B0009D099E099B0A03199C0A03199D0A0319A6
:1007C0009E0AA21FEE2B9F09A009A109A2099F0A58
:1007D0000319A00A0319A10A0319A20AF701F801D3
:1007E000F901FA01A301A401A501A601220821042F
:1007F00020041F0403192C2C2030A70003109B0D8C
:100800009C0D9D0D9E0DA30DA40DA50DA60D2208FA
:100810002602031D152C21082502031D152C200876
:100820002402031D152C1F082302031C262C1F085D
:10083000A3022008031C200FA4022108031C210F7F
:10084000A5022208031C220FA6020314F70DF80DBF
:10085000F90DFA0DA70BFE2BA81F392CF709F80983
:10086000F909FA09F70A0319F80A0319F90A031929
:10087000FA0A23088000840A24088000840A2508D4
:100880008000840A260880008312031308000317DF
:10089000EE01ED01EC010130EB00831690019101B6
:1008A0008312E71F9D2C0130831690008312670886
:1008B00083169600831266088316950083126508D6
:1008C000831694008312640883169300FF309A0005
:1008D00099009800970020309F009B019C019D018A
:1008E0009E011608FA001508F9001408F80013080C
:1008F000F7000310771C8A2C17089B0718080318A9
:10090000180F9C0719080318190F9D071A080318D8
:100910001A0F9E079E0C9D0C9C0C9B0CFA0CF90C5C
:10092000F80CF70C9F0B792C7A088312E7007908F2
:10093000E6007808E5007708E400EB08031DA92C21
:10094000EC08031DA92CED08031DA92CEE080319C2
:10095000432D8310670883169E0083126608831652
:100960009D008312650883169C0083126408831619
:100970009B00A201A101A0018312680883169F00B9
:1009800083120313C9237A080317EE007908ED00D8
:100990007808EC007708EB008316110883126907CA
:1009A000F8006A08FA000318FA0A78088316930018
:1009B0007A0894009601040895001610831B1614FB
:1009C00083149730840083178312670883169E0070
:1009D0008312660883169D008312650883169C00A7
:1009E0008312640883169B00A201A101A001831257
:1009F000680883169F0083120313C9238316031705
:100A00001508840083131618831730301707F70072
:100A10001808F800003003180130F8071908F90029
:100A2000003003180130F9071A08FA0000300318E3
:100A30000130FA071308840083131418831777080A
:100A40008000110883126907840083136A188317D2
:100A50000008393C0318372D8316110883126907E3
:100A6000840083136A1883170730000780008316F9
:100A7000910A83126E08E7006D08E6006C08E50035
:100A80006B08E4009D2C8316100B512D1108831266
:100A90006907840083136A1883172D30800083163A
:100AA000910A8312EF0103108316110C83126F0257
:100AB0000318962D6F086907840083136A1883173B
:100AC00000088316920083126F086907F8006A080D
:100AD000FA000318FA0A7808831693007A0894003B
:100AE00083126F0883161102FF3E83126907840088
:100AF00083136A188317000883169500130884006F
:100B00008313141883171508800083126F08831647
:100B10001102FF3E83126907840083136A1883174A
:100B20008316120880008312EF0A532D83161108D2
:100B300083126907840083136A1883178001690888
:100B4000F8006A08F9000313080003176008E400BE
:100B50005F08E3006408FA006308840083137A18CE
:100B6000831780080319B82DE30A0319E40AAA2D94
:100B70006208FA006108840083137A1883178008DA
:100B80000319D72D610884008313621883170008A6
:100B9000E7006308840083136418831767088000E4
:100BA000E30A0319E40AE10A0319E20AB82D63080B
:100BB000840083136418831780015F08F8006008BD
:100BC000F9000313080080080319002E0317E7013A
:100BD0000408E6006710831B6714000803130C1E4B
:100BE000EF2D990003176608840083136718831795
:100BF000840A031DFE2D0313850A03170313E32D37
:100C000008004812C8122A300317BD00BE014C303C
:100C1000BF004530C0004E30C1004730C2004830F0
:100C2000C3005430C400C5014330C6004630C7007D
:100C3000C8014930C9004430CA005F30CB0047309A
:100C4000CC005730CD003130CE003230CF003330C1
:100C5000D0003430D100D2014930D3004430D40028
:100C60005F30D5004E30D6004F30D7004430D8002A
:100C70004530D900DA012330DB00DC010130B2005D
:100C80003D30B1000130B4003F30B3000130B60058
:100C90004630B5000130B8004930B7000130BA0025
:100CA0005330B9000130BC005B30BB00FA01513059
:100CB000DF007A08E0005F08840083136018831760
:100CC0008001DE015E08053C031CAB2E0E305E0782
:100CD000DF0036305E07840083130008E000031352
:100CE0000B08F7008B1303175F088D0060088C005A
:100CF00083168C130C1555308D00AA308D008C1482
:100D00008C18802E0C117708831203138B04363055
:100D100003175E07840083130008DF00E701E60184
:100D2000E5015F08E4000A30E800EA016A30E90002
:100D30000313472401300317E20003137A2103173A
:100D4000E0015130DF00E2016A30E1000313A52524
:100D50000317DE0A622EB8015130B700FA014A309B
:100D6000DF007A08E0005F088400831360188317AF
:100D70008001DE015E08033C031C032F0A305E077E
:100D8000DF003C305E07840083130008E00003139B
:100D90000B08F7008B1303175F088D0060088C00A9
:100DA00083168C130C1555308D00AA308D008C14D1
:100DB0008C18D82E0C117708831203138B043C3047
:100DC00003175E07840083130008DF00E701E601D4
:100DD000E5015F08E4000A30E800EA016A30E90052
:100DE0000313472401300317E20003137A2103178A
:100DF000E0014A30DF00E2016A30E1000313A5257B
:100E00000317DE0ABA2EBA014A30B90014300313B0
:100E1000C0000317E701E601E501031340080317CB
:100E2000E4000A30E800EA016A30E90003134724CD
:100E30000317B4016A30B300DD015D08053C031CF3
:100E4000392F03105D0D313E84008317840A00089A
:100E5000DF0084030008DE00840083135F1883171B
:100E60000313E32540300C1E332F99000317DD0ACE
:100E70001D2F0130E200E3000313FA220A300317AA
:100E8000E20003137A21D63003178D0000308F0063
:100E90000313482301300317E2000230E300031379
:100EA000FA220A300317E20003137A21E130031714
:100EB0008D0000308F0003134823C81108008008FC
:100EC00003197B2F0317BF010408BE003F10831BCB
:100ED0003F140008E10003130E2303173E088400AB
:100EE00083133F188317840A031D792F0313850A80
:100EF000031703135F2F080003173608F8013502A4
:100F00000318852F3508F700912FF7010830B70037
:100F1000B50DF70D360877020318F700F80DB70B7B
:100F2000882F03130800F701F80103174408031082
:100F30004518F707F70CF80CC518F707F70CF80C6D
:100F40004519F707F70CF80CC519F707F70CF80C5B
:100F5000451AF707F70CF80CC51AF707F70CF80C49
:100F6000451BF707F70CF80CC51BF707F70CF80C37
:100F70000313080003173C08FA003B08840083139E
:100F80007A1883170008BF003E08FA003D08840065
:100F900083137A18831700083F02031DE62F3C08CD
:100FA000FA003B08840083137A1883178008031D16
:100FB000DC2F0030F800FE2F3C08FA003B08BB0A8B
:100FC0000319BC0ABD0A0319BE0ABB2F3C08FA006C
:100FD0003B08840083133C1883170008BF003E08B9
:100FE000FA003D08840083133E18831700083F026F
:100FF0000318FC2FFF30FD2F0130F8000313080009
:10100000481601300317E200E3008A110313FA22A5
:101010008A150A300317E2008A1103137A218A1510
:10102000B53003178D0000308F008A110313482359
:101030008A1501300317E2000230E3008A1103131E
:10104000FA228A150A300317E2008A1103137A2163
:101050008A15BD3003178D0000308F008A110313ED
:1010600048238A15481E89288316061583120619F7
:101070008828B20A0130B20502300317B100963059
:10108000E2008A1103137A218A150317B10B3F2856
:101090000630E2000230E3008A110313FA228A15B7
:1010A0000317E701E601E501031332080317E40023
:1010B0000A30E800EA016A30E9008A110313472484
:1010C0008A150A300317E2008A1103137A218A1560
:1010D0006A30840083138A115F278A153208031946
:1010E0007528013A03197F288828C53003178D0019
:1010F00000308F008A11031348238A158828CE30C8
:1011000003178D0000308F008A11031348238A15BE
:101110003228C819622AC811320803199328013AE3
:1011200003197629622AC811C8160317B101B20142
:10113000B3016A30840083133208840733088A11AC
:10114000031358208A15800000380319AC280317B0
:10115000B30AB20A9928031301300317E2000230E0
:10116000E3008A110313FA228A150A300317E200FA
:101170008A1103137A218A157E3003178D000030FF
:101180008F008A11031348238A154A308400831381
:101190008A115F278A15823003178D0000308F0077
:1011A0008A11031348238A1501300317E200E30074
:1011B0008A110313FA228A15883003178D00003034
:1011C0008F008A11031348238A15C81E75298316B8
:1011D00006158312061910290317B10A0330B10549
:1011E0003107B200E2000130E3008A110313FA2252
:1011F0008A15933003178D0000308F008A11031376
:1012000048238A1502300317B2009630E2008A1193
:1012100003137A218A150317B20B052973290313C7
:10122000831686158312861974293C3003173107FB
:1012300084008313800A3C303107F800FA01031858
:10124000FA0A7808B2007A08B3003C30310784000B
:1012500083130008B5000A30B6008A1103137C27F7
:101260008A1577080317B4003208840083133318F3
:101270008317340880003C30310784008313000852
:10128000B200E701E601E5013208E4000A30E800B7
:10129000EA016A30E9008A11031347248A150730EE
:1012A00003173107B200E2000230E3008A11031392
:1012B000FA228A150A300317E2008A1103137A21F1
:1012C0008A156A30840083138A115F278A150230D9
:1012D0000317B2009630E2008A1103137A218A15AF
:1012E0000317B20B6A290313E528622A0317B10119
:1012F000B201B3016A3084008313320884073308D3
:101300008A11031358208A158000003803198D298B
:101310000317B30AB20A7A290313C811C816013099
:101320000317E2000230E3008A110313FA228A1540
:101330000A300317E2008A1103137A218A159830C4
:1013400003178D0000308F008A11031348238A157C
:101350005130840083138A115F278A159C3003174C
:101360008D0000308F008A11031348238A15013045
:101370000317E200E3008A110313FA228A15A23050
:1013800003178D0000308F008A11031348238A153C
:10139000C81E622A8316061583120619FD29031733
:1013A000B10A3108B5000630B6008A1103137C2754
:1013B0008A1577080317B10003303107B200E20045
:1013C0000130E3008A110313FA228A15AE300317A5
:1013D0008D0000308F008A11031348238A150230D4
:1013E0000317B2009630E2008A1103137A218A159E
:1013F0000317B20BF229602A031383168615831292
:101400008619612A36300317310784008313800A56
:1014100036303107F800FA010318FA0A7808B200EA
:101420007A08B30036303107840083130008B50012
:101430000A30B6008A1103137C278A157708031730
:10144000B4003208840083133318831734088000F3
:1014500036303107840083130008B200E701E6014B
:10146000E5013208E4000A30E800EA016A30E900E8
:101470008A11031347248A15073003173107B20076
:10148000E2000230E3008A110313FA228A150A30BF
:101490000317E2008A1103137A218A156A30840047
:1014A00083138A115F278A1502300317B200963022
:1014B000E2008A1103137A218A150317B20B572A07
:1014C0000313C8298A150A162E2C03173D083E045B
:1014D00003196E2A3E08FA003D08732A03132C08EC
:1014E000FA002B080317C1007A08C2004208C600A0
:1014F0004108C5004008C8003F08C7004608CA00A8
:101500004508C9004A08FA004908840083137A187C
:10151000831780080319C32A4808CC004708CB006A
:101520004C08FA004B08840083137A18831780084C
:10153000031DA72A45084902F7004A08FA00460891
:10154000031C460FFA027708F800CE2ABB2A4A0885
:10155000FA004908840083137A1883170008CD0025
:101560004C08FA004B08840083137A18831700088C
:101570004D020319BF2ACB0A0319CC0A902AC90AC3
:101580000319CA0A822A45084902F7004A08FA00E4
:101590004608031C460FFA027708F8007808C107CE
:1015A0000318C20A4208FA004108840083137A181B
:1015B00083178008031DE92A03132B088400831373
:1015C0002C188317203080000030F800F900552BCC
:1015D00003174208C6004108C5004008C8003F087C
:1015E000C7004608CA004508C9004A08FA00490869
:1015F000840083137A188317800803192E2B480858
:10160000CC004708CB004C08FA004B088400831339
:101610007A188317800803192A2B4A08FA00490808
:10162000840083137A1883170008CD004C08FA0051
:101630004B08840083137A18831700084D02031D9A
:10164000262B4908F8004A08F900312BCB0A031968
:10165000CC0A032BC90A0319CA0AF52A0030F8007C
:10166000F9007908C4007808C3004408FA00430868
:10167000840083137A18831780080319482B4308C2
:1016800084008313441883178001C30A0319C40A12
:1016900044080313AC00031743080313AB000317FC
:1016A0004108F8004208F900031308000317C201BB
:1016B000C0010A30C100BF013D083E04031D632B79
:1016C0000030F800372C4208C20A3D07840083131B
:1016D0003E1883170008C30043082D3C031D7C2BD4
:1016E0000130C0004208C20A3D07840083133E183F
:1016F00083170008C300892B43082B3C031D892B4B
:101700004208C20A3D07840083133E18831700086D
:10171000C30043082F3C03182D2C4308393C031CFD
:101720002D2C4308303C031DB52B42083D07840097
:1017300083133E1883170008783C0319A92B42082D
:101740003D07840083133E1883170008583C031D8F
:10175000B52B1030C100C20A4208C20A3D078400FE
:1017600083133E1883170008C30041080A3C031D79
:10177000DB2B43082F3C0318DA2B4308393C031CAE
:10178000DA2B0A30C4003F08C5008A1103139327DF
:101790008A1578080317C400303043024407BF009D
:1017A0004208C20A3D07840083133E1883170008CD
:1017B000C300B92B2D2C4108103C031D2D2C4308D0
:1017C000603C0318EA2B43087A3C031CEA2B4308CD
:1017D000DF39EB2B4308C30043082F3C0318F42BDD
:1017E0004308393C0318FC2B4308403C03182D2CBC
:1017F0004308463C031C2D2C43082F3C03180D2C9A
:101800004308393C031C0D2C3F0EC400F030C405C6
:10181000303043024407BF00162C3F0EC400F030A6
:10182000C405413043020A3E4407BF004208C20AD1
:101830003D07840083133E1883170008C300430844
:10184000603C03182A2C43087A3C031C2A2C4308CA
:10185000DF392B2C4308C300EC2B400B352C4108FF
:101860000A3C031D352CBF09BF0A3F08F8000313CB
:10187000080003173E080739F7003E0CF800F80C83
:10188000F80C1F30F80578084007840083134118CE
:101890008317F801F80AF70A4E2CF80DF70B4D2CB8
:1018A000BF080319562C78088004592CF8097808C9
:1018B000800503130800031741080739F700410C9E
:1018C000F800F80CF80C1F30F8057808420784007F
:1018D0008313431883170008F800F70A702CF80CDC
:1018E000F70B6F2C031308000B080317E400031316
:1018F0008B13831603178C170C140000000083123F
:10190000E41F852C03138B1703170C087F39031969
:10191000C42CE4000D08E5000F08E600640803137A
:101920000C1E902C9900031765088D0066088F0027
:1019300003130B080317E70003138B138316031716
:101940008C170C14000000008312E71FAA2C03134D
:101950008B1703170C0D0E0D7F390319C42CE400EF
:101960000D08E5000F08E600640803130C1EB62CF2
:101970009900031765088D0066088F008D0A03190A
:101980008F0A0313742C0317031308000317BE01F7
:101990000130BF00C0014008073C031CEA2C40088E
:1019A000C100C3014730C20003135B240030781824
:1019B00001300317C1003F08C4004108C5008A1167
:1019C000031393278A1578080317BE070310BF0D6A
:1019D000C00ACB2C3E08F80078080313B500350880
:1019E0000317BE00BF013F08073C031C0D2DBE1BA3
:1019F000FD2C03138810FF2C031703138814831680
:101A00008810081083120810831608108312081417
:101A100003100317BE0DBF0AF32C8316031308111E
:101A20008312081183160811831208150317BD01CC
:101A30003D08073C031C4F2DBE01BF016A308400E6
:101A400083133E0884073F088A11031358208A1520
:101A5000800000380319312D0317BF0ABE0A1E2D5E
:101A6000031303173D08C100C3014730C20003132D
:101A70005B240030781801300317BE00E701E6014F
:101A8000E5013E08E4000A30E800EA016A30E900B6
:101A90008A11031347248A150317BD0A182D03134F
:101AA0003508093C031C6B2D0317BE01BF016A30CA
:101AB000840083133E0884073F088A1103136420BF
:101AC0008A158000003803196A2D0317BF0ABE0A61
:101AD000572D0313A02D3508093C03188A2D35080E
:101AE000633C031C8A2D0317BE01BF016A308400CA
:101AF00083133E0884073F088A1103136B208A155D
:101B0000800000380319892D0317BF0ABE0A762DFD
:101B10000313A02D0317BE01BF016A308400831395
:101B20003E0884073F088A11031372208A1580003B
:101B300000380319A02D0317BF0ABE0A8D2D031309
:101B40002A300C1EA12D990040300C1EA52D9900A5
:101B50006A30840083138A11E3258A15FA3003174B
:101B60008D0000308F0003137424513084008313E0
:101B70008A11E3258A1540300C1EBC2D99004A308D
:101B8000840083138A11E3258A1540300C1EC62D6C
:101B900099000317E701E601E50103133508031770
:101BA000E4000A30E800EA016A30E9008A11031310
:101BB00047248A156A30840083138A11E3258A1525
:101BC00040300C1EE12D990023300C1EE52D9900AC
:101BD00001300317E2000230E3008A110313FA22F6
:101BE0008A150A300317E2008A1103137A218A1535
:101BF000FD3003178D0000308F008A110313482336
:101C00008A150317BD013D08073C031C402EBE0189
:101C1000BF016A30840083133E0884073F088A119D
:101C2000031358208A158000003803191C2E03174F
:101C3000BF0ABE0A092E031303173D08C100C301E2
:101C40004730C20003135B240030781801300317BB
:101C5000BE00E701E601E5013E08E4000A30E800C5
:101C6000EA016A30E9008A11031347248A156A30B1
:101C7000840083138A115F278A150317BD0A032E78
:101C8000031308000317B1013430B200B10103138C
:101C90004308031731020318872E3108033C031849
:101CA000532E4030B20031083207B300BE0001307D
:101CB000BF00C1018030C00003133924031733086B
:101CC000C100C301C20103135B247818842EC830FD
:101CD0000317E2008A1103137A218A1503173108CA
:101CE000C100C3014730C20003135B240030781CDD
:101CF00001300317B3003108BE003308BF00C10133
:101D00004730C000031339240317B10A472E0313C9
:101D10008A150A16462C03300317C502031C9A2E97
:101D2000453084008317000803199A2E982E982EA8
:101D3000800B972E031308008316051083120510DD
:101D400002300317C400EF30C50003138B260317BE
:101D5000C40BA32E831603130510831205144230FF
:101D6000F700F70BB12E000083160514831203173A
:101D700043100313051CBF2E031743140313023033
:101D80000317C400D330C50003138B260317C40BFD
:101D9000C22E003043180130F800031308008316E8
:101DA0000510831205100230F700F70BD52ED82E40
:101DB00000000317C9080319E32E83160313051047
:101DC000831205140317A630F700F70BE52E000069
:101DD0008316031305108312051408000317C701A7
:101DE0004708073C031C072F4608C8004708F800AF
:101DF0000319FE2E0310C80CF80BFA2E0130C8058B
:101E00004808C9000313CF260317C70AF02EAE30C7
:101E1000F700F70B092F0C2F03130800831605108A
:101E2000831205100230F700F70B142F172F000054
:101E3000831605140730F700F70B1C2F1F2F000027
:101E400005148312031747100313051C2A2F0317C9
:101E5000471403130030031747180130F800031329
:101E6000080001300317B700B800B9013A11B601F4
:101E70003608073C031C432F1030360784008317B5
:101E80008001B60A382F03139C260317BA1078185E
:101E9000BA14BA184F2F0313C91C542F0317F30198
:101EA0000030F800D82F0313F0300317C6000313D7
:101EB000EE260317B601B50103130E27F808031920
:101EC000652F02300317B5000313C730F700F70B77
:101ED000672F6A2F0E27F8080319712F031735147F
:101EE0000313C730F700F70B732F762F031735084E
:101EF000033C031D7D2FC52FC12FB5080319872F64
:101F00003A100310350CF80078183A149E2F730815
:101F100038020318952F3A101030360784008317C3
:101F200000083705031D3A149A2F3A107308380237
:101F300003193A143A189E2F3808B9003A1CA82FF2
:101F40001030360784008317000837048000B02F54
:101F500010303607840083173708FF3A00058000E9
:101F600000303A180130BB00C9000313CF26031715
:101F7000B80A0310B70DB708031DC12FB60A013008
:101F8000B7003608073C03185B2F3808403C031C99
:101F9000CB2FF301D42F3908F3000313C910F30832
:101FA0000319C91403173A1500303A190130F80023
:101FB0000313080003174308553C031DF62F553043
:101FC000C6000313EE260317C4014408073C031C94
:101FD000F52F10304407840083170008C500C600A1
:101FE0000313EE260317C40AE52FFB2FCC30C600DF
:0A1FF0000313EE2603170313080085
:102000002A300317B100FA015A30840083137A187A
:1020100083178001FA016130840083137A188317D3
:102020008001BB01BC01D230840083133B088407CC
:102030003C080A12031379200A168000003803199D
:1020400026280317BC0ABB0A132803130317BC0175
:10205000A030BB003108BD003C08FA003B088400FA
:1020600083137A1883173D080002031949283C0896
:10207000FA003B08840083137A1883178008031D35
:1020800045280030F800F9004D28BB0A0319BC0AA6
:102090002C283B08F8003C08F9007908B3007808C0
:1020A000B2003308BC003208BB003C08BE003B084D
:1020B000BD003E08FA003D08840083137A18831798
:1020C000800803196728BD0A0319BE0A59283B086E
:1020D0003D02F7003E08FA003C08031C3C0FFA02E0
:1020E0007708F8007808B4000313B401233003170D
:1020F000B700B8010130B6003730B500BE01A030DE
:10210000BD003608C0003508BF000A128A15031347
:1021100065220A168A1179080317BA007808B900EF
:10212000B908031D9628BA080319F62801300313CD
:102130003402FB3E0318E028053E982A0317E0010D
:102140006130DF003A08E2003908E1000A120313A7
:10215000A5250A16E0280317E0015A30DF003A08E7
:10216000E2003908E1000A120313A5250A16E02847
:1021700003173A08BE003908BD000A128A15031376
:1021800056230A168A117808C100E02803173A0876
:10219000BE003908BD000A128A15031356230A1619
:1021A0008A117808C200E0280317E001D230DF006E
:1021B0003A08E2003908E1000A120313A5250A16BD
:1021C0000317BE01BD013608C0003508BF000A1262
:1021D0008A15031365220A168A1179080317BA00B3
:1021E0007808B9000313B40A03179028BC016130C2
:1021F000BB00BE015130BD000A120313BA270A16F4
:102200007808C6000317BC015A30BB00BE014A3033
:10221000BD000A120313BA270A167808C500C608BB
:10222000031D432AC508031D432A4208031734022D
:1022300003191C290313432A0313410803192729EF
:10224000013A03192829033A0319132A422A422A78
:10225000B40101300317E200E3000A120313FA226B
:102260000A160A300317E2000A1203137A210A162B
:102270000317BD01BE016A30840083133D08840743
:102280003E080A1203135E200A1680000038031964
:102290004E290317BE0ABD0A3B2903130317BE01CB
:1022A000D230BD00C0016A30BF000A128A15031384
:1022B00065220A168A1179080317BC007808BB004A
:1022C000BB08031D6629BC080319BB290313340886
:1022D00003197129013A03198B29033A0319992922
:1022E000A62901300317E2000A1203137A210A1605
:1022F00003173B08840083133C1883170A12031347
:102300005F270A16EC3003178D0000308F000A1289
:10231000031348230A1603173C08BE003B08BD0000
:102320000A128A15031356230A168A117808C30065
:10233000A62903173C08BE003B08BD000A128A15F7
:10234000031356230A168A117808C4000317BE0126
:10235000BD01C0016A30BF000A128A15031365224D
:102360000A168A1179080317BC007808BB0003130A
:10237000B40A031760290130E2000A1203137A211C
:102380000A1601300317E2000230E3000A120313B9
:10239000FA220A160A300317E2000A1203137A21FE
:1023A0000A16F33003178D0000308F000A12031352
:1023B00048230A160317E701E601E5010313430862
:1023C0000317E4000A30E800EA016A30E9000A1263
:1023D000031347240A166A30840083130A125F2706
:1023E0000A16F63003178D0000308F000A1203130F
:1023F00048230A160317E701E601E5010313440821
:102400000317E4000A30E800EA016A30E9000A1222
:10241000031347240A166A30840083130A125F27C5
:102420000A164817422A0317BB01BE01D230BD006D
:102430000A128A15031356230A168A1178080317FD
:10244000BB00BC013C08073C031C3C2A00303B1885
:102450000130BD003C08BE003D08BF00C10147304F
:10246000C0000A128A15031339240A168A110310B0
:102470000317BB0CBC0A222A0A128A150313C624AE
:102480000A168A11952A0A300317E2000A1203136A
:102490007A210A1631123108831687001030831210
:1024A000870664300317E2000A1203137A210A1622
:1024B0003112310883168700103083128706C83026
:1024C0000317E2000A1203137A210A1631123108A7
:1024D0008316870010308312870602300317BB0073
:1024E0009630E2000A1203137A210A160317BB0B77
:1024F000702A0313311231088316870010308312BB
:10250000870602300317BB00C830E2000A1203132B
:102510007A210A160317BB0B842A031331123108E0
:10252000831687001030831287068A150A163F2CFF
:102530000A108A140A1182079E28AB28B828C628D8
:10254000D4288030831CA92A831603179D06831282
:10255000031383160317A201A3011908A1001D0884
:10256000A10618080319982BA000F7001C080319EE
:10257000A12BA00203193D2B031CFB2A1D08A6005A
:10258000A6171E08A5001F08A400A3010310A60C8F
:10259000A50CA40CA30CA00BC52AA11FD22A22149F
:1025A000B52B2210201022169B3084008317CA2BD3
:1025B0002212A11BE52A201CF02AA60CA50CA40CB3
:1025C000A30CF70A0319B02BF02AA61BF32A031059
:1025D000A30DA40DA50DA60DF7030319B02BE52A35
:1025E00022175D2B22131908A100A11FF92AA61793
:1025F000A92BA613A92B1C08A000F7001808A002FD
:102600001908A600A6171A08A5001B08A400A30114
:102610000310A60CA50CA40CA30CA00B072BA11F48
:10262000142BA214B52BA2102010A2169F308400E8
:102630008317CA2BA212A11B272B201C322BA60CFE
:10264000A50CA40CA30CF70A0319B02B322BA61B64
:10265000352B0310A30DA40DA50DA60DF70303192B
:10266000B02B272BA2175D2BA2131D08A100A11FC1
:102670003B2BA617A92BA613A92B1D08A600A6174E
:102680001E08A5001F08A400A11F4A2BA61322158F
:10269000B52B2211A30120109B3084008317CA2B75
:1026A000A11B732B1908A100201C5D2BA60CA50CE7
:1026B000A40CA30CF70A0319B02BA31F6E2BA40ABA
:1026C000031D6E2BA50A031D6E2BA60A031D6E2B80
:1026D000A60CA50CA40CF70A0319B02B221BF22A96
:1026E000A21B342B922B8030A606A61F7B2BB52B6A
:1026F0001D08A100882B1908A100A608031D882B1E
:10270000A508031D882BA408031D882BF701A92BFE
:10271000A61B922B0310A30DA40DA50DA60DF70B60
:10272000882BB02BA11F962BA617A92BA613A92B7C
:102730001C08F7001D08A6001E08A5001F08A4001D
:10274000A92B1808F7001908A6001A08A5001B08ED
:10275000A4002608F8002508F9002408FA00E82B50
:10276000F701F801F901FA01E82BA301A409A50971
:10277000A609A309A30A031DC32BA40A031DC32B87
:10278000A50A0319A60A2218D12AA218132B221966
:10279000492B782B0008A407031CD42BA50A031D82
:1027A000D42BA60A0319201484030008A507031CD0
:1027B000DC2BA60A0319201484030008801F803A2A
:1027C000A60703182014221AD82AA21A1A2B502B53
:1027D0008312031308000317B401B301B201B1015E
:1027E000F3010313C9100A128A1531270A168A1138
:1027F0007808F8080319E02E740DF700F70DFC3087
:10280000F7057708183E8400831700080317AC000B
:10281000840A0008AD00840A0008AE00840A00089B
:10282000AF000A128A1503139C260A168A11553026
:102830000317C3000A128A150313DA270A168A112E
:10284000831605108312051444300317C6000A12BC
:102850008A150313EE260A168A1103300317C300E4
:10286000FA30E2000A1203137A210A160317C30B87
:10287000302C0A128A1503139C260A168A11553029
:102880000317C3000A128A150313DA270A168A11DE
:10289000BE300317C6000A128A150313EE260A1665
:1028A0008A110317B5013508083C031C922C3A30F5
:1028B0003507F8000130FA000318FA0A7808C30057
:1028C0007A08C400C601C5014508073C031C872CD3
:1028D0000A128A1503130E270A168A11F80803191B
:1028E0007F2C0130F70003174508F80003197C2CF2
:1028F0000310F70DF80B782C7708C6040313C730C4
:10290000F700F70B812C842C0317C50A642C4608AA
:10291000F800430884008313441883177808800064
:10292000B50A532CB701B601C4013B08B700B60184
:10293000FA013A08B6047A08B7041008103C031DDF
:10294000F32C0310B70CB60C3608B700B6014030B4
:10295000B6020030031C0130B70240084102B80043
:10296000B9013808B900B801C1080319EC2CFA0103
:102970004108C3007A08C4003908C6003808C500F9
:102980004408C8004308C700F801F901F701FA013B
:102990004808031DCE2C47080319E82C1030C90045
:1029A0000310C50DC60DF70DFA0D48087A02031D78
:1029B000DB2C47087702031CE42C4708F702031CB2
:1029C000FA034808FA020314F80DF90DC90BD02CCC
:1029D0007908B9007808B8003608B807370803182E
:1029E000370FB907012D3708B9003608B800B80D00
:1029F000B90DB80DB90DB80DB90DB80DB90DF03050
:102A0000B8053808F8003908F9007908B6007808E0
:102A1000B5008E30F7003608F8003508F900FA01E5
:102A2000B61F172DF809F909F90A0319F80AF80869
:102A3000031D242D7908F800F9010830F702F80881
:102A4000031D242DF7012D2D0310F81B2B2DF90D3F
:102A5000F80DF703242DB61FF8137A08B80079088B
:102A6000B7007808B6007708B5003808BC0037080A
:102A7000BB003608BA003508B900C001BF01BE016D
:102A80008730BD0039080319072EC5003D0803191A
:102A9000072EC502031C512D7F30C5070318072ED2
:102AA000572D8130C502031C072E0319072E450838
:102AB000F700F801F901FA01C4013A08C300C3178D
:102AC0003B08C2003C08C1001930C5004008C102E3
:102AD00003187A2D0130C20203187A2DC30203189D
:102AE0007A2DC40203187A2DC40AC30AC20A400808
:102AF000C107AC2D3F08C2020318952D0130C30257
:102B00000318952DC4020318952DC40AC30A3F0863
:102B1000C2074008C107031CAC2DC20A031DAC2D1F
:102B2000C30A031DAC2DC40AAC2D3E088038C30275
:102B30000318AB2D0130C4020318AB2DC40A3E08A4
:102B40008038C3073F08C207031C892DC30A031D31
:102B5000892DC40A892D7A14C50BAF2DBA2D031007
:102B6000C10DC20DC30DC40D0310FA0DF90DF80D02
:102B7000C60D662D461CC22D0310F80CF90CFA0C7C
:102B8000C60CC52DF7030319072EC61BEE2D031027
:102B9000C10DC20DC30DC40D4008C1020318DA2DCA
:102BA0000130C2020318DA2DC3020318DA2DC40261
:102BB000031CFD2D3F08C2020318E52D0130C3029E
:102BC0000318E52DC402031CFD2D3E088038C30206
:102BD0000318EE2D0130C402031CFD2DFA0A031D5B
:102BE000FD2DF90A031DFD2DF80A031DFD2DF70A21
:102BF0000319072EF80CF90CFA0C3A08C5003E0828
:102C0000C506C51F052EF8170B2EF8130B2EF7015E
:102C1000F801F901FA017A08FE007908FD00780848
:102C2000FC007708FB00740DF700F70DFC30F7058A
:102C30007708183E840083177B088000840A7C088C
:102C40008000840A7D088000840A7E088000740D5C
:102C5000F700F70DFC30F7057708183E840083175E
:102C60000008B500840A0008B600840A0008B7000E
:102C7000840A0008B800BA010408B9003A10831B9E
:102C80003A148314380883169B008312370883167E
:102C90009A0083123608831699008312350883162A
:102CA000980083122F0883169F0083122E08831624
:102CB0009E0083122D0883169D0083122C08831614
:102CC0009C0083120313A122031739088400831385
:102CD0003A1883177A08B8007908B7007808B60060
:102CE0007708B500F7003608F800F8133808B40084
:102CF0003708B3007808B2007708B100CD30B800CB
:102D0000CC30B7004C30B6007C30B5003408BC0085
:102D10003308BB003208BA003108B9003608BD00DC
:102D20003A08BD06BD1F992E03110310B61B0314EC
:102D3000CC2E3608BD003908BE003508BE02031986
:102D4000A72EBD1FCC2E0308013A8300CC2E3A08D3
:102D5000BE003608BE020319B32EBD1FCC2E0308D9
:102D6000013A8300CC2E3B08BE003708BE0203198F
:102D7000BF2EBD1FCC2E0308013A8300CC2E3C0889
:102D8000BE003808BE020319CB2EBD1FCC2E03088F
:102D9000013A8300CC2E0310031CD12E03134914D7
:102DA0000317F40A0A128A15031331270A168A1127
:102DB000F8080319DF2E44087402031CFC2BF401ED
:102DC0008A150A16562C8318E82EA0308400831723
:102DD000F701F801F901FA0183160317A001A10117
:102DE000A201A3011F081E041D041C040319282F9F
:102DF0002030A4000310980D990D9A0D9B0DA00D85
:102E0000A10DA20DA30D1F082302031D112F1E08E3
:102E10002202031D112F1D082102031D112F1C0862
:102E20002002031C222F1C08A0021D08031C1D0FDA
:102E3000A1021E08031C1E0FA2021F08031C1F0F65
:102E4000A3020314F70DF80DF90DFA0DA40BFA2ED9
:102E500020088000840A21088000840A220880005B
:102E6000840A230880008312031308007508840075
:102E70008313761883178316031718088000840AB3
:0E2E80008001F50A0319F60A831203130800F5
:10300000040883160317900083126E08831692003B
:103010000319A02883126D0883169B0083126C0885
:1030200083169A0083126B088316990083126A082C
:10303000831698009F019E0120309D0082309C00E5
:10304000180803199028A0001C0803199028A0074D
:10305000031831287F30A002031C90280319902800
:1030600035288130A007031890282008F700F801C0
:10307000F901FA011908A400A4171A08A3001B08F3
:10308000A2001830A000A101221C5E281F08FA0728
:10309000031C5028F90A031D5028F80A0319A11728
:1030A0001E08F907031C5728F80A0319A1171D0861
:1030B0009A009A171A08F8070318A117A10DF80C1F
:1030C000F90CFA0CA40CA30CA20C0310A00B4328BF
:1030D0000130F70703189028F81B7528A40DFA0D86
:1030E000F90DF80DF70303199028A41F8628FA0A92
:1030F000031D8628F90A031D8628F80A031D862861
:10310000F80CF90CFA0CF70A031990281908A10019
:103110001D08A106A11F8E28F8179428F8139428DB
:10312000F701F801F901FA017A088312ED00790834
:10313000EC007808EB007708EA008316920B0A2867
:103140007E30F700F8018312EB1BF817F901FA0142
:1031500083106D0883169B0083126C0883169A00F7
:1031600083126B088316990083126A0883169800ED
:103170007A089F0079089E0078089D0077089C00D7
:103180008A1183120313A1228A157A080317ED000E
:103190007908EC007808EB007708EA006D088316E0
:1031A0009B0083126C0883169A0083126B088316A7
:1031B000990083126A08831698001808B63C980094
:1031C000FA0119089C0099170310990C9A0C9B0C92
:1031D000FA0CF90CF80CF70C980BE4289C1FFB2850
:1031E000F709F809F909FA09F70A0319F80A03199E
:1031F000F90A0319FA0A7A088312ED007908EC003B
:103200007808EB007708EA00ED1F15298316900374
:1032100090168312EA09EB09EC09ED09EA0A031991
:10322000EB0A0319EC0A0319ED0A3B3083169700E9
:103230009A309600CA30950094010A3092008312A9
:103240006E08031D26298316900A831283146A30A0
:10325000840083176D0883169B0083126C08831605
:103260009A0083126B088316990083126A088316EA
:10327000980017089F0016089E0015089D00140866
:103280009C008A1183120313E3268A157808F70835
:10329000031D642903176E0A83161202031D5329A6
:1032A0008312031364291008031968290F391202C5
:1032B00003195C290318BC29901BBC29101B682921
:1032C0002030B22983120313203083160317900590
:1032D000901E8129901283126E0803197229831699
:1032E000900383127708831690002D3098008A117E
:1032F0008312031336278A15831603171008F70065
:10330000900183126E0883161202031D9729770815
:1033100090002E3098008A118312031336278A15E5
:10332000831603171008F700203090050030303066
:10333000901EB229901283126E080319A2298316D7
:10334000900383127708831690002D3098008A111D
:103350008312031336278A15831603171008F70004
:1033600090013030F707770898008A118312031311
:1033700036278A1583160317831017089B00160833
:103380009A0015089900140898009F019E019D015C
:103390000A309C008A1183120313E3268A157A08E7
:1033A0008316031797007908960078089500770828
:1033B0009400920BDC29DE29831226290313831241
:1033C0008A150A16782A49103112310883168700A7
:1033D00010308312870649300317BD004430BE0009
:1033E0004730BF005730C0003130C1003230C2001A
:1033F000C3014E30C4004F30C5004430C6004530D4
:10340000C700C8015A30C900CA00CB00CC00CD00AB
:10341000CE014130CF00D000D100D200D300D40182
:103420005630D500D600D700D800D900DA01433095
:10343000DB00DC00DD00DE00DF00E0010130B20077
:103440003D30B1000130B4004430B3000130B6006B
:103450004930B5000130B8004F30B7000130BA0034
:103460005530B9000130BC005B30BB00B2015130B7
:10347000B100B4014A30B3001430E100E20102307F
:10348000E30003134408031762020318802A0310A1
:10349000630D313E84008317840A0008E50084032D
:1034A0000008E400620DF700F70DFC30F70577081F
:1034B000183E840083170008E600840A0008E7002D
:1034C000840A0008E800840A0008E9006508F6009C
:1034D0006408F500893084006908ED006808EC0094
:1034E0006708EB006608EA000230EE0003130028CC
:1034F000053003176107013EE100E20AE30A412AB1
:10350000E701E601E5016108E4000A30E800EA01AC
:103510007130E9000A128A11031347240A168A152A
:103520002A300C1E912A990040300C1E952A9900D1
:103530007130840083130A128A11E3250A168A1552
:10354000003003178D0001308F000A12031374241A
:103550000A160317E201023003134407031762023D
:103560000318CE2A0310620D313E84008317840AAB
:103570000008E50084030008E40084008313651854
:1035800083170A128A110313E3250A168A1540309D
:103590000C1EC82A99000317E20AAB2A2330031332
:1035A0000C1ED02A99003112310883168700103082
:1035B000831287068A150A165B2C03081F398300BD
:1035C00083160317871508300313990002309A00F9
:1035D000A6309800903083129800FF30B100B201FD
:1035E000B301B401B501C001C101C201C30103307F
:1035F000C400C501C6014810C8104811C8114812BE
:10360000C8124813C8134910F4010317AF01AE01E3
:10361000AD01AC01F601F50183160908C039890036
:1036200003131F129F1200300317880083128701B3
:103630008801890183130313AB01AC010330B60089
:103640000830B7000630B8000930B900BA010730B9
:10365000BB00BC010130BD000530BE000230BF0020
:10366000C7013030CC003530CD003830CE00393095
:10367000CF00D001CB014C30CA003130D300323002
:10368000D4003730D5003130D6003030D70032305A
:10369000D800D901D2015330D1003030DC00DD0038
:1036A000DE00DF00E001DB015C30DA003030E300F7
:1036B000E400E500E600E700E800E901E20163302C
:1036C000E10048308316A0004930A1004830A20034
:1036D0004930A300A4014830D2004930D30048301B
:1036E000D4004930D500D60130308312EC00ED0013
:1036F000EE00EF00F001EB016C30EA00323083168F
:10370000EB003730EC003030ED00EE00EF01F2015D
:10371000EB30F1008312C910F301031790019101FE
:1037200092019301940195019601970198019901E5
:103730009A019B019C019D019E019F01A001A10195
:10374000A201A301A401A501A601A701A801A90145
:10375000AA01AB01F030831603138800FF30860006
:103760000910891009118911803087008312B10076
:10377000FF308316850083120B160B168316011378
:103780008C16C03083128B04353090008E010B30C4
:103790008F00DC308E000C100A128A11942A0A164F
:1037A0008A15C810C8114815831688118312881508
:1037B000481001300317E2000230E3000A128A11B8
:1037C0000313FA220A168A150A300317E2000A12B6
:1037D0008A1103137A210A168A15703003178D0097
:1037E00001308F000A128A11031348230A168A1522
:1037F0000317B0013008093C031C162C03133112C7
:1038000031088316870010308312870602300317B1
:10381000B100FA30E2000A128A1103137A210A1663
:103820008A150317B10B092CB00AFA2B75308D00DD
:1038300001308F000A128A11031348230A168A15D1
:103840000A128A11982B0A168A150A128A11012661
:103850000A168A15C81C302C0A1200280A16652C74
:10386000C81D382C0A128A1101260A168A15652CE1
:10387000C818652C481C402C48108A1100288A154D
:10388000481F642CC81F4B2C0A12422E0A16C8135C
:103890000A12C6240A1664300317E2000A128A11BB
:1038A00003137A210A168A158A11EB2B8A15491CF3
:1038B000642C4910E329C8300317E2000A128A1168
:0E38C00003137A210A168A15382C2A2C63006D
:04400E00E22FFF3F5F
:00000001FF
;PIC16F887
;CRC=2FA0  CREATED="30-Nov-21 00:45"
